:020000040800F2
:10000000A84C01204D030008ED310008CD22000866
:10001000E931000821090008DB4D0008000000005C
:100020000000000000000000000000008D02000839
:100030005D1E000800000000E9020008E14600081B
:1000400071030008710300087103000871030008C0
:1000500071030008710300087103000871030008B0
:1000600071030008710300087103000871030008A0
:100070000D1B0008710300087103000871030008DC
:100080007103000871030008710300087103000880
:10009000390A0008710300087103000871030008A1
:1000A0007103000871030008710300087103000860
:1000B0007103000871030008710300087103000850
:1000C0007103000871030008710300087103000840
:1000D000710300088D49000871030008714A000887
:1000E0007103000871030008710300087103000820
:1000F0007103000871030008710300087103000810
:1001000071030008710300087103000871030008FF
:1001100071030008710300087103000871030008EF
:1001200071030008710300087103000871030008DF
:1001300071030008710300087103000871030008CF
:10014000990B00087103000871030008710300088F
:1001500071030008710300087103000871030008AF
:10016000710300087103000871030008710300089F
:10017000710300087103000871030008000000000B
:10018000710300087103000871030008714800083A
:10019000710300087103000871030008710300086F
:1001A00000000000000000007103000800F002F8E9
:1001B00000F05CF80AA090E8000C82448344AAF1A5
:1001C0000107DA4501D100F051F8AFF2090EBAE8A3
:1001D0000F0013F0010F18BFFB1A43F0010318477B
:1001E000A0A70000C0A700000A444FF0000C10F8C0
:1001F000013B13F0070408BF10F8014B1D1108BFA5
:1002000010F8015B641E05D010F8016B641E01F844
:10021000016BF9D113F0080F1EBF10F8014BAD1C94
:100220000C1B09D16D1E58BF01F801CBFAD505E0B2
:1002300014F8016B01F8016B6D1EF9D59142D6D30C
:10024000704700000023002400250026103A28BF34
:1002500078C1FBD8520728BF30C148BF0B60704738
:100260001FB509F00FFC1FBD10B510BD00F020FA3E
:100270001146FFF7F5FF06F07BFA00F03EFA03B4F3
:10028000FFF7F2FF03BC00F0A3FA00002C4B196843
:100290000868B0E8F04F80F30988BFF36F8F4FF024
:1002A000000080F3118870470000000008480068D3
:1002B000006880F308884FF0000080F3148862B66D
:1002C00061B6BFF34F8FBFF36F8F00DF00BF00BF7A
:1002D00008ED00E0DFF80C00016841F470010160F6
:1002E000704700BF88ED00E0EFF30980BFF36F8F28
:1002F000134B1A681EF0100F08BF20ED108A20E97A
:10030000F04F106009B44FF0500080F31188BFF334
:100310004F8FBFF36F8F07F0B7FF4FF0000080F3F0
:10032000118809BC19680868B0E8F04F1EF0100F7A
:1003300008BFB0EC108A80F30988BFF36F8F704755
:10034000E4080020EFF30580704700000C480168C6
:1003500041F4700101600B4880470B480047FEE7FD
:10036000FEE7FEE7FEE7FEE7FEE7FEE7FEE7FEE765
:10037000FEE7000005480649044A064B70470000A6
:1003800088ED00E0F1460008AD010008A848012012
:10039000A84C0120A84801209FED1A1AF5EE000A8A
:1003A00040EE010ABDEEE00AF5EEC00A10EE100ABA
:1003B000F1EE10FA38BF401E00EE100A1349F7EEB6
:1003C000001AB8EEC00A30EEC00ADFED0F0A20EEC8
:1003D000200AFCEEC00A10EE900AC0F3080000EEFE
:1003E000900A01EB8000F8EE600A90ED011A70EEC1
:1003F000600A90ED000A71EEE01A21EE800A00EE2C
:10040000810A704783F9223E000000443CA00008A6
:10041000DFED190AB5EEC00A60EE200ABDEEE01A63
:1004200011EE100AF1EE10FA38BF401E00EE100A6D
:100430001349F7EE001AB8EEC00A30EEC00ADFED3D
:100440000F0A60EE200ABCEEE00A10EE100AC0F3BC
:10045000080000EE100A01EB8000B8EE400A90EDB3
:10046000011A70EEC00A90ED000A71EEE01A21EE5A
:10047000800A00EE810A704783F9223E00000044A2
:100480003CA0000810B5431C02E010F8011B71B13C
:100490008107FAD14FF0013202C88C1A8C4314EA5A
:1004A000C211F9D0C01A0A0603D0C01E10BDC01A6E
:1004B00010BD0A0401D0801E10BD0902FCD0401EF0
:1004C00010BD032A40F2308010F0030C00F01580BC
:1004D00011F8013BBCF1020F624498BF11F801CB47
:1004E00000F8013B38BF11F8013BA2F1040298BFAC
:1004F00000F801CB38BF00F8013B11F0030300F016
:100500002580083AC0F0088051F8043B083A51F8B9
:1005100004CBA0E80810F5E7121D5CBF51F8043BBE
:1005200040F8043BAFF30080D20724BF11F8013B31
:1005300011F801CB48BF11F8012B24BF00F8013B93
:1005400000F801CB48BF00F8012B704710B5203AE6
:10055000C0F00B80B1E81850203AA0E81850B1E87C
:100560001850A0E81850BFF4F5AF5FEA027C24BF32
:10057000B1E81850A0E8185044BF18C918C0BDE829
:1005800010405FEA827C24BF51F8043B40F8043BF2
:1005900008BF7047D20728BF31F8023B48BF11F8A7
:1005A000012B28BF20F8023B48BF00F8012B704701
:1005B00002F0FF0343EA032242EA024200F002B8DB
:1005C0004FF000020429C0F0128010F0030C00F07C
:1005D0001B80CCF1040CBCF1020F18BF00F8012BFA
:1005E000A8BF20F8022BA1EB0C0100F00DB85FEAC8
:1005F000C17C24BF00F8012B00F8012B48BF00F894
:10060000012B70474FF0000200B513469446964602
:10061000203922BFA0E80C50A0E80C50B1F1200115
:10062000BFF4F7AF090728BFA0E80C5048BF0CC0C3
:100630005DF804EB890028BF40F8042B08BF704721
:1006400048BF20F8022B11F0804F18BF00F8012B93
:10065000704770477047704710B500F009F80068A0
:1006600010BD10B5044600F003F8046010BD000092
:1006700000487047484801201FB584B000200A9CFC
:1006800006AB04AA02A90094AFF3008018B1DDE91B
:10069000020108B010BD0348204000F037F80020E8
:1006A0000146F6E70000207C0048704748480120DA
:1006B0007546FFF7F9FFAE4605006946534620F040
:1006C0000700854618B020B5FFF754FEBDE820406E
:1006D0004FF000064FF000074FF000084FF0000BFE
:1006E00021F00701AC46ACE8C009ACE8C009ACE8B1
:1006F000C009ACE8C0098D46704710B50446AFF399
:1007000000802046BDE81040FFF7B9BD10B500F0ED
:1007100009F8BDE81040AFF30080002801D000F0D8
:1007200057B8704710B5022803D0410103D50DA179
:1007300012E0002010BD010101D50FA10CE0C100A5
:1007400001D511A108E0810001D512A104E040000B
:1007500001D513A100E0002115A000F03FF8012011
:1007600010BD0000496E76616C6964204F7065723F
:100770006174696F6E0000004469766964652042A7
:1007800079205A65726F00004F766572666C6F77DC
:1007900000000000556E646572666C6F77000000A3
:1007A000496E657861637420526573756C740000DE
:1007B0005349474650453A2041726974686D6574E3
:1007C000696320657863657074696F6E3A20000014
:1007D00001491820ABBEFEE72600020070B50546B1
:1007E0000C460A2000E06D1C00F011F835B12878A5
:1007F0000028F8D102E0641C00F009F814B1207858
:100800000028F8D1BDE870400A20AFF3008008B599
:1008100069468DF800000320ABBE08BD704700009C
:1008200010B52DED048BF0EE408AB0EE608A9FED9E
:10083000160AC0EE080AB0EE608AB5EEC08AF1EE84
:1008400010FA04D1B7EE000ABDEC048B10BDF0EE37
:10085000000A80EE880A38EEC00AF1EE480A20EE5F
:10086000200AF0EE409AF0EE690A9FED080A04F0C3
:1008700003FBF7EE000A30EE200AF7EE000A80EEE6
:10088000809AB0EE490ADFE76666864054F82D404C
:1008900070B505460C4600260DB1022C00D870BD7F
:1008A000A11E06480288284601F0E0FC0646A01E6C
:1008B0002E54310A601E295400BFF0E73201002097
:1008C00070B505460C4600260DB1022C00DC70BD4B
:1008D000601E81B2FF22284601F0E2FC0646601E3F
:1008E0002E5400BFF3E710B505F012FF01F0F0FC45
:1008F00006F024FD03F0D0FA00F014F800F0C8F878
:100900004FF4E13007F076F94FF4E13007F014F9D5
:1009100003F0D6FB302003F08DFC02F0E5FB10BDA8
:1009200000BFFEE700B58BB00121082002F07AFF7E
:100930000121480602F086FF0121480602F092FFDD
:1009400000214FF0007002F08DFF0320099002207B
:100950008DF8280000208DF82A0003208DF829004A
:1009600001208DF82B0009A9314801F011FC092262
:1009700000212F4801F054FC092201212C4801F0EC
:100980004FFC00208DF81E0001208DF81F00002074
:100990008DF8200001208DF8210000208DF8220024
:1009A0008DF823008DF81A008DF81B0008208DF8B3
:1009B0001C0004208DF81D000320ADF8180006A9C6
:1009C0001C4800F096F900208DF812008DF81300F5
:1009D00001208DF814000020ADF80800ADF80A00E1
:1009E000ADF80C00ADF80E00ADF8100001208DF848
:1009F000150002A800F0F0F8012202210D4800F0D5
:100A00006FF9012211460B4800F06AF914208DF8A5
:100A1000040003208DF8050000208DF80600012059
:100A20008DF8070001A802F0E3FB0BB000BD000049
:100A3000000C02400064004010B5104A002110482C
:100A400000F0E1F90F4A0D490D4805F005FE0D4A89
:100A5000B4320A490A4805F0FFFD0B4A0749084825
:100A600005F0FAFD084AB4320449054805F0F4FDE2
:100A70000649034800F03FFA10BD00006409002059
:100A800000640040040400206C0500207401002074
:100A900000B58BB00121022002F0C4FE01218806BE
:100AA00002F0D0FE0121880602F0DCFE00214FF0AA
:100AB000806002F0D7FE4FF44050099002208DF87C
:100AC000280000208DF82A0003208DF8290001203D
:100AD0008DF82B0009A92E4801F05AFB09220C21A0
:100AE0002B4801F09DFB09220D21294801F098FBBC
:100AF00000208DF81E0001208DF81F0000208DF8C9
:100B000020008DF821008DF822008DF823008DF84B
:100B10001A008DF81B0008208DF81C0004208DF8A9
:100B20001D000320ADF8180006A91A4800F0E1F8EE
:100B30000E208DF8120000208DF8130001208DF892
:100B400014000020ADF80800ADF80A00ADF80C0064
:100B5000ADF80E00ADF8100001208DF8150002A8C8
:100B600000F03AF8012202210A4800F0B9F84020CA
:100B70008DF8040003208DF8050001208DF8060093
:100B80008DF8070001A802F033FB0BB000BD000098
:100B9000000402400068004010B50A4A00210A48DB
:100BA00000F031F9094A0749074805F055FD084AA0
:100BB0000449054805F026FD0649034800F09BF965
:100BC00010BD00007809002000680040D406002015
:100BD000CC0000203C02002010B50021837A0122C5
:100BE00002FA03F13D4A126842F001023B4B1A60DF
:100BF0003A4A1C3212688A43384B1C331A60027B13
:100C0000CAB9364A0C3212688A43344B0C331A6024
:100C10004288C38842EA0343304A4032847A42F829
:100C200034300288838842EA03432C4A4032847A73
:100C300002EBC4025360027B012A19D1274A0C320D
:100C400012680A43254B0C331A604288038842EA33
:100C50000343224A4032847A42F83430C28883887F
:100C600042EA03431D4A4032847A02EBC4025360D5
:100C7000C27A3AB9194A121D12688A43174B1B1DD2
:100C80001A6006E0154A121D12680A43134B1B1D19
:100C90001A60028932B9114A143212688A430F4B22
:100CA00014331A600289012A06D10C4A14321268E0
:100CB0000A430A4B14331A60427B012A06D1074AC1
:100CC0001C3212680A43054B1C331A60034A12682F
:100CD00022F00102014B1A6010BD000000660040C6
:100CE0001AB143690B43436102E043698B4343619B
:100CF000704730B5024600200023146824F0020437
:100D00001460146844F00104146000E05B1C546833
:100D100004F001041CB94FF6FF74A342F6D15468E5
:100D200004F001040CB900206CE08C79012C04D192
:100D3000146844F08004146003E0146824F0800414
:100D40001460CC79012C04D1146844F04004146080
:100D500003E0146824F0400414600C7A012C04D1E0
:100D6000146844F02004146003E0146824F02004A4
:100D700014604C7A012C04D1146844F010041460FF
:100D800003E0146824F0100414608C7A012C04D160
:100D9000146844F00804146003E0146824F00804A4
:100DA0001460CC7A012C04D1146844F0040414605B
:100DB00003E0146824F0040414608C78A407CD7850
:100DC00044EA05640D7944EA05444D7944EA055442
:100DD0000D886D1E2C43D461146824F00104146046
:100DE000002300E05B1C546804F001041CB14FF6C2
:100DF000FF74A342F6D1546804F001040CB1002042
:100E000000E0012030BD10B500F5D87303EB0113ED
:100E10001B6803F004031372137A53B900F5D873F7
:100E200003EB01131B6840F2FF7404EA5353136091
:100E300009E000F5D87303EB01131B686FF0604401
:100E400004EAD303536000F5D87303EB01131B6866
:100E500003F00203537200F5D87303EB01135B68D0
:100E600003F00F03937200F5D87303EB01135B6873
:100E70001B0AD37400F5D87303EB01139B68D3727C
:100E800000F5D87303EB01139B681C0A147300F57B
:100E9000D87303EB01139B681C0C547300F5D873D3
:100EA00003EB01139B681B0E937300F5D87303EBE0
:100EB0000113DB68D37300F5D87303EB0113DB6810
:100EC0001C0A147400F5D87303EB0113DB681C0CC7
:100ED000547400F5D87303EB0113DB681B0E937495
:100EE00021B9C36843F02003C36003E0036943F002
:100EF0002003036110BD10B502460020936803F083
:100F00008063B3F1806F00D110E0936803F0006359
:100F1000B3F1006F01D1012008E0936803F0805322
:100F2000B3F1805F01D1022000E00420042874D0D6
:100F300002F5C07303EB00131B6803F0010402F514
:100F4000C07303EB00131C600B7A7BB94B7A0C88DF
:100F500043EA445302F5C07404EB001424682343AD
:100F600002F5C07404EB0014236010E00B7A4C68A7
:100F700043EAC4034C7A234302F5C07404EB001423
:100F80002468234302F5C07404EB001423608B7AB9
:100F900003F00F038B7202F5C07303EB00135B6861
:100FA00023F00F0402F5C07303EB00135C6002F53D
:100FB000C07303EB00135B688C7A234302F5C074A3
:100FC00004EB001463608B7B1C064B7B44EA0344F8
:100FD0000B7B44EA0323CC7A234302F5C07404EB71
:100FE0000014A3608B7C1C064B7C44EA03440B7CFE
:100FF00044EA0323CC7B234302F5C07404EB0014C2
:10100000E36002F5C07303EB00131B6843F00104B7
:1010100002F5C07303EB00131C6010BD10B51C4A31
:10102000526A02F110001A4A526A516D8847184AF2
:10103000926A02F11000164A926A516D8847144A6A
:10104000D26A02F11000124AD26A516D8847104AE2
:10105000126B02F110000E4A126B516D88470C4A58
:10106000526B02F110000A4A526B516D8847084AD0
:10107000526B02F15C00064A526B516D88470020AA
:1010800003E0002203490A54401C0828F9DB10BD84
:10109000CC0000207F01002000B587B00020039025
:1010A00004900590069001900290A049081D00F060
:1010B000EDFA9E480C3890ED040AD0ED030A30EEAC
:1010C000200AD0ED050A9FED9A1A01EE200ADFED05
:1010D000990A20EE200A8DED030A90ED040AD0ED66
:1010E000030A30EE600AD0ED050A9FED911A01EE79
:1010F000200ADFED900A20EE200A8DED040A90ED23
:10110000040AB1EE400AD0ED030A30EE200AD0ED19
:10111000050A9FED871A01EE200ADFED860A20EE10
:10112000200A8DED050A90ED040AB1EE400AD0EDDB
:10113000030A30EE600AD0ED050A9FED7D1A01EE3C
:10114000200ADFED7C0A20EE200A8DED060A03A8B6
:1011500000F0FAF89DED031A744A0C3A526AB2F99B
:101160000A2000EE902AF8EEE00A71EE600AB0EE76
:10117000600A6E4A0C3A526A02F110006B4A0C3A4D
:10118000526A916D8847BDEEC00A10EE100A00B297
:10119000ADF804009DED041A644A0C3AD26AB2F923
:1011A0000A2000EE902AF8EEE00A71EE600AB0EE36
:1011B000600A5E4A0C3AD26A02F110005B4A0C3AAD
:1011C000D26A916D8847BDEEC00A10EE100A00B2D7
:1011D000ADF806009DED051A544A0C3A926AB2F930
:1011E0000A2000EE902AF8EEE00A71EE600AB0EEF6
:1011F000600A4E4A0C3A926A02F110004B4A0C3ACD
:10120000926A916D8847BDEEC00A10EE100A00B2D6
:10121000ADF808009DED061A444A0C3A126BB2F97B
:101220000A2000EE902AF8EEE00A71EE600AB0EEB5
:10123000600A3E4A0C3A126B02F110003B4A0C3A2B
:10124000126B916D8847BDEEC00A10EE100A00B215
:10125000ADF80A00BDF80400C0F307213648006865
:10126000A0F20120354A52F8202035488154BDF8BB
:101270000400C1B230480068A0F20120314A52F89F
:1012800020202F488154BDF80600C0F307212A48CA
:10129000D0F8B400A0F20120284A52F820202848B3
:1012A0008154BDF80600C1B22348D0F8B400A0F2C2
:1012B0000120244A52F8202021488154BDF808001A
:1012C000C0F307211C48D0F86801A0F201201B4A96
:1012D00052F820201A488154BDF80800C1B21648BF
:1012E000D0F86801A0F20120164A52F820201448D4
:1012F0008154BDF80A00C0F307210F48D0F81C0242
:10130000A0F201200D4A52F820200D488154BDF86A
:101310000A00C1B20848D0F81C02A0F20120094A14
:1013200052F820200648815407B000BDD8000020A4
:10133000000000428988083E040400203401002097
:101340007F0100205401002090ED001AB5EEC01A74
:10135000F1EE10FA02DD90ED001A03E090ED001AB4
:10136000B1EE411AD0ED011AF5EEC01AF1EE10FA05
:1013700002DDD0ED011A03E0D0ED011AF1EE611AA1
:1013800071EE211A90ED021AB5EEC01AF1EE10FAC4
:1013900002DD90ED021A03E090ED021AB1EE411A5F
:1013A00071EE811A90ED031AB5EEC01AF1EE10FA43
:1013B00002DD90ED031A03E090ED031AB1EE411A3D
:1013C00071EE810A9FED2A0A2A490978F1B32A4968
:1013D000098901EE101AB8EE411ADFED281A81EEE4
:1013E000212AB0EE420AB5EEC00AF1EE10FA04D896
:1013F0009FED1F1AB0EE410A0AE0B7EE001AB4EEF4
:10140000C10AF1EE10FA03DBB7EE001AB0EE410AA2
:101410001949098901EE101AB8EE411AF3EE021AC1
:10142000B4EEE11AF1EE10FA03D220EE001AB0EE9B
:10143000410A1149098901EE101AB8EE411ADFED8F
:101440000F1AB4EEE11AF1EE10FA00E00FE00ED23E
:1014500000210AE000EB810292ED001A21EE001A51
:1014600000EB810282ED001A491C0429F2DB70476F
:1014700000000000A3150020BE15002000007042EF
:1014800010B5044607F018FB96382168884206D24A
:101490000548007830B901200349087002E00020B7
:1014A0000149087010BD0000CC00002010B50446B2
:1014B000227802EBC202224B03EB8201214A526ADC
:1014C00002F1100002F00CF9227802EBC2021C4B70
:1014D00003EB82011B4A926A02F1100002F000F94C
:1014E000227802EBC202164B03EB8201154AD26A44
:1014F00002F1100002F0F4F8227802EBC202104B65
:1015000003EB82010F4A126B02F1100002F0E8F8BF
:101510000C49496B01F110000B4902F0E1F809494F
:10152000496B01F15C000849243102F0D9F8F3EE6F
:10153000040AB7EE000A054801F0AEFC10BD000039
:1015400014000020CC00002080000020340900207E
:101550002DE9FF5F054616461F46DDF84CB0DDE974
:10156000108ADDF838902C46002004E00199095CCF
:101570002154411CC8B20328F8DB14F8030F66F3AA
:1015800002002070207820F0380038302070208849
:1015900067F389102080607869F385006070B4F883
:1015A00001100F9860F38E11A4F80110608868F3A1
:1015B000CF106080A0886AF30900A080B4F80510FD
:1015C000129860F38C01A4F80510E0886BF34F10BB
:1015D000E08020896FF3090020810021B4F8090020
:1015E00061F38C00A4F80900608961F34F106081F9
:1015F000E41E1322064905F10F00FEF762FF424682
:1016000005F10F001499FEF75CFFBDE8FF9F000095
:101610005F08002008B51448FFF748FF23E007F0F3
:101620004BFA00901148FFF72BFF0F48007820B1CC
:10163000012805D0022810D109E0FFF7EFFC0DE0EA
:101640000220094908700846FFF730FF06E0064807
:1016500001F014FEFFF720FD00E000BF00BF0221F3
:10166000684606F08DFCDAE7CC0000201000002070
:1016700010B54FF4407001F0F7FD4FF47A7004F0AC
:10168000F7FDFFF730F900F067FD10BD70B52DEDE7
:10169000068B04460D46D4ED000AB0EE600AF0EE6B
:1016A000000A03F0E9FBB0EE40AAD5ED000AB0EE67
:1016B000600AF0EE000A03F0DFFB3AEE000A10EEDB
:1016C000106A304608F028F941EC190BB0EE490ACF
:1016D000F0EE690A03F002FFB0EE408AF0EE608A95
:1016E00051EC180B07F032FC8A490860084690ED6F
:1016F000000AB5EEC00AF1EE10FA02DD90ED000A24
:1017000004E0844890ED000AB1EE400A8248D0ED32
:10171000000AF5EEC00AF1EE10FA02DDD0ED000A83
:1017200004E07D48D0ED000AF1EE600A30EE600A78
:10173000DFED7A0AB4EEE00AF1EE10FA0BDD0120DB
:10174000774908700020774908709FED770A77483D
:1017500080ED000A33E06F4890ED000AB5EEC00A54
:10176000F1EE10FA02DD90ED000A04E0694890ED18
:10177000000AB1EE400A6848D0ED000AF5EEC00A52
:10178000F1EE10FA02DDD0ED000A04E06248D0ED7F
:10179000000AF1EE600A30EE600ADFED650AB4EE91
:1017A000E00AF1EE10FA0AD200205D49087001202B
:1017B0005C4908709FED5C0A5C4880ED000A58485F
:1017C0000078012820D1594890ED000ADFED590A30
:1017D00030EE200A80ED000A5748D0ED000A534849
:1017E00090ED000AFFF71CF8544880ED000A90EDD8
:1017F000000ADFED530AB4EEE00AF1EE10FA11DD53
:101800000020474908700DE046480078012809D0BB
:10181000B7EE000A494880ED000A9FED430A4348AD
:1018200080ED000A3F480078012820D13F4890ED24
:10183000000ADFED400A30EE200A80ED000A414840
:10184000D0ED000A394890ED000A00F009FB3B4852
:1018500080ED000A90ED000ADFED3B0AB4EEE00AED
:10186000F1EE10FA11D200202E4908700DE02C483C
:101870000078012809D0B7EE000A304880ED000A50
:101880009FED290A294880ED000A254800780128A3
:1018900011D195ED000A2948D0ED000A20EE200A6A
:1018A00085ED000A94ED000AD0ED000A20EE200A32
:1018B00084ED000A17E01B480078012813D1234863
:1018C00090ED000A1D48D0ED000A20EE200A85EDBB
:1018D000000A1F4890ED000A1848D0ED000A20EEDB
:1018E000200A84ED000A0F480078012809D095ED00
:1018F000000A164880ED000A94ED000A144880EDB5
:10190000000A044890ED000A034880ED000ABDEC8F
:10191000068B70BD080100200C01002000007A44F5
:10192000100100201101002000000000140100201F
:1019300000007AC40AD7A33B1C0100201801002034
:1019400077BE7F3F200100200AD7233C24010020DE
:101950002801002010B5A5201D4908706F20A1F8AE
:1019600001000020C8701B480A68026009790171F3
:101970000521FEF7A5FF40F201301549A1F8050049
:101980004FF48270A1F80700134801781048A0F8BE
:1019900009104FF4B471A0F80B1000F093FA0C4842
:1019A000B0F80100821C0A49491D0A48401DFEF793
:1019B00088FD78210748FEF76BFF002404E0054905
:1019C000085D02F0A9FF641C782CF8D310BD00005C
:1019D000E016002018160020A315002010B521489D
:1019E0000078042802DB00201E490870A5201E494B
:1019F00008703320A1F801000020C8701B480A6855
:101A00000260097901710521FEF75AFF40F20130A9
:101A10001549A1F805004FF48870A1F80700144893
:101A200001781148A0F809104FF4B471A0F80B1018
:101A300000F068FA0C48B0F80100821C0A49491D00
:101A40000A48401DFEF73DFD3C210848FEF720FFF7
:101A5000002404E00549085D02F05EFF641C3C2C94
:101A6000F8D310BDC8070020DC1500201816002090
:101A7000A315002010B5A5201F4908701520A1F856
:101A800001000020C8701D480A68026009790171D0
:101A90000521FEF715FF40F201301749A1F80500B6
:101AA00040F20110A1F80700154801781248A0F88B
:101AB00009104FF4B471A0F80B10124800681249D5
:101AC00091ED000A05F0E8FF0B48B0F80100821C18
:101AD0000949491D0948401DFEF7F3FC1E2107482E
:101AE000FEF7D6FE002404E00449085D02F014FF6E
:101AF000641C1E2CF8D310BDFA1A00201816002002
:101B0000A3150020C4070020B807002010B509491C
:101B1000094800F025F9012807D10021064800F006
:101B200041F80621044800F097F90249024800F004
:101B30001FF810BD00880010286002400246094BC3
:101B40009A4201D2084801E00648103801F00053DB
:101B50001BB1064B0B40C36002E0044B0B4083609B
:101B60007047000010640240006002407D0F7D0F4E
:101B70000246094B9A4201D2084801E00648103853
:101B800001F000531BB1064B0B40C36002E0044B55
:101B90000B40836070470000106402400060024008
:101BA0007D0F7D0F21B1026842F00102026003E067
:101BB000026822F00102026070470000016821F013
:101BC000010101600021016041608160C16001612B
:101BD000212141614A49884204D13D21484A103AB5
:101BE00091608CE046491831884205D14FF4746108
:101BF000434A103A916082E041493031884205D130
:101C00004FF474113E4A103A916078E03C494831F3
:101C1000884205D14FF07461394A103A91606EE004
:101C200037496031884204D13649354A103AD1608B
:101C300065E033497831884204D13349304A103A5B
:101C4000D1605CE02E499031884204D12F492C4A62
:101C5000103AD16053E02A49A831884205D14FF0AB
:101C60003D51274A103AD16049E02949884204D1C0
:101C70003D21274A083A116041E025491831884240
:101C800005D14FF47461224A083A116037E02049C7
:101C90003031884205D14FF474111D4A083A116061
:101CA0002DE01B494831884205D14FF07461184A34
:101CB000083A116023E016496031884204D1114985
:101CC000134A121F11601AE011497831884204D179
:101CD0000D490F4A121F116011E00D4990318842E1
:101CE00004D10A490A4A121F116008E00849A831C4
:101CF000884204D14FF03D51054A121F11607047D0
:101D0000106002403D000020400F002000003D20F8
:101D10001064024021B1026842F48022026003E0B4
:101D2000026822F480220260704722B1036843F403
:101D30000023036003E0036823F4002303600161D0
:101D400070470146486880B27047014600200A6823
:101D500002F400220AB1012000E0002070470000D8
:101D600070B50246002000240025124EB24201D276
:101D7000114B01E00F4B103B104E0E4036B11E26AA
:101D800006EAD124166806EA040502E0566906F060
:101D9000800501F000560EB15C6800E01C68084E3A
:101DA000344004EA010616B10DB1012000E0002024
:101DB00070BD000010640240006002403C0F3C0F08
:101DC0007D0F7D0F10B501F080034BB122B1436947
:101DD00043F08003436103E0436923F080034361E0
:101DE00080290BD02AB1036801F01E04234303604D
:101DF00004E0036801F01E04A343036010BD00006B
:101E000010B500220268134B1A40CC680B682343BC
:101E10004C6923438C692343CC6923430C6A2343D5
:101E20004C6A23438C6A23434C6B23438C6B2343C0
:101E30001A430260426922F00702D1E90B342343BE
:101E40001A4342610B6943604B6883608B68C360CF
:101E500010BD00003F801CF04160704770470000DB
:101E600010B52DED048BF0EE408AB0EE608AB5EE31
:101E7000C08AF1EE10FA04D1B7EE000ABDEC048B73
:101E800010BDF0EE080A80EE880AF1EE680A30EE26
:101E9000200AF1EE480A20EE200AF0EE409AF0EE19
:101EA000690A9FED070A02F0E7FFF7EE000A30EE3D
:101EB000200AF7EE000A80EE809AB0EE490ADDE7CC
:101EC00054F82D4010B50B48007804F057FB0A4831
:101ED000007805F03DFA0948007804F00BFB08484B
:101EE000007804F061F904F049FA002000F0A2F84B
:101EF00010BD0000B4070020B5070020B707002080
:101F0000B607002010B588B040480078D8B94048DE
:101F1000FEF7B8FA04463E4840F22A313222022344
:101F2000CDE90332CDE90510142000210B46012232
:101F3000CDE90104009137A13748FFF709FB0120E3
:101F4000324908705FE03148007801281BD13348DE
:101F5000FEF798FA044631484FF4347132220223D6
:101F6000CDE90332CDE90510142000210B460122F2
:101F7000CDE9010400912AA12748FFF7E9FA0220E0
:101F8000224908703FE02148007802281BD12548EB
:101F9000FEF778FA0446234840F2762132220223E3
:101FA000CDE90332CDE90510142000210B460122B2
:101FB000CDE9010400911CA11748FFF7C9FA0320DD
:101FC000124908701FE01148007803281BD11748F8
:101FD000FEF758FA0446154840F22A3140F28C5276
:101FE0000423CDE90332CDE90510282000210B465A
:101FF0000122CDE9010400910DA10748FFF7A8FADD
:1020000004200249087008B010BD0000C807002075
:10201000C9070020434C3100E9150020E7070020E4
:10202000434C320005080020434C330023080020B5
:10203000434C340010B58AB004460020142240F20C
:102040002A33CDE907200693099040F2226005214A
:1020500000220292CDE903210590022001210423F0
:102060000322CDE9001003A1034800F007F80AB0ED
:1020700010BD0000474C3700471700202DE9F04FF6
:10208000DDE90F9E09AC94E8F010DDF838804FF0E0
:10209000000A07E011F80AB000F80AB00AF1010BD3
:1020A0000BF0FF0ABAF1030FF4DB90F803A062F320
:1020B000020A80F803A090F803A063F3C50A80F831
:1020C00003A0B0F803A064F3891AA0F803A090F865
:1020D00004A065F3850A80F804A0B0F804A066F3B4
:1020E0008E1AA0F804A0B0F805A067F3CF1AA0F8E4
:1020F00005A0B0F807A06CF3090AA0F807A0B0F893
:1021000008A068F38C0AA0F808A0B0F809A069F349
:102110004F1AA0F809A0B0F80BA06EF3090AA0F8B6
:102120000BA0B0F80CB0DDF844A06AF38C0BA0F85B
:102130000CB0B0F80DB0DDF848A06AF34F1BA0F862
:102140000DB0BDE8F08F01794279914203D00021B2
:1021500001804179017170471CB5064801210023B7
:102160008022CDE9001004A1084806F065FC06F0C5
:1021700039F81CBD0000002053797374656D5F53FE
:10218000746172745F5461736B00000059470008FA
:10219000F0B50A4600210023002400BF3DE00125E0
:1021A00005FA01F3156805EA03049C4234D1056879
:1021B0004F000326BE40B543056015794E00B5407B
:1021C0000668354305601579012D02D01579022D79
:1021D00016D185684F000326BE40B543856055790A
:1021E0004E00B540866835438560456801268E40BF
:1021F000B5434560456896798E40B6B23543456033
:10220000C5684F000326BE40B543C560D5794E0072
:10221000B540C6683543C560491C1029BFD3F0BD21
:10222000F0B5002300244D07ED0E02FA05F3CE10A1
:1022300000F1200555F826504E07F70E0F26BE4038
:10224000B543CF1000F1200646F82750CE1000F11C
:10225000200555F8265045EA0304CE1000F120056C
:1022600045F82640F0BD01837047000030B50346B5
:1022700013B94FF6FF7030BD09E013F8014B82EA45
:102280000400C0B2054D35F8100080EA2222081E75
:10229000A1F10101F1D11046EDE70000269E0008F2
:1022A00030B5034605E013F8010B80EA0204044848
:1022B000025D081EA1F10105A9B2F4D1104630BD9E
:1022C000259D00084FF08040406A704700BFFEE740
:1022D0001CB50121202001F0A5FA03200090012067
:1022E0008DF8040000208DF8060003208DF805000D
:1022F00001208DF8070069460448FFF749FF0120D7
:10230000034908600349C1F880021CBD0014024063
:10231000848242420080424200B52DED108B93B082
:10232000FE4890ED000AD0ED000A20EE200A8DED67
:10233000080A90ED000AFA48D0ED000A20EE200AC3
:10234000B0EE40FAF54890ED000AF648D0ED000AEC
:1023500020EE200AF0EE40AAF04890ED000AF24884
:10236000D0ED000A20EE200A8DED070AEC4890ED32
:10237000000AD0ED000A20EE200AF0EE40FA90EDBF
:10238000000AE848D0ED000A20EE200A8DED060A8A
:10239000E34890ED000AE448D0ED000A20EE200A60
:1023A000B0EE40BADF4890ED000AD0ED000A20EE12
:1023B000200AF0EE40BA90ED000ADB48D0ED000AAA
:1023C00020EE200A8DED050A90ED000AD0ED000AFE
:1023D00020EE200A8DED040AD44890ED030ADFEDCB
:1023E000D40A20EE200ADFEDD30A80EE201AD2486C
:1023F00080ED001ACD4890ED040ADFEDCD0A20EE05
:10240000200ADFEDCC0A80EE201ACC4880ED001ABD
:10241000C64890ED050ADFEDC60A20EE200ADFED82
:10242000C50A80EE201AC64880ED001ABF4890ED1C
:10243000000AC44880ED000ABC4890ED010AC24879
:1024400080ED000AB94890ED020AC04880ED000A0C
:10245000B64890ED060ABE4880ED000AB34890EDFC
:10246000070ABC4880ED000AB04890ED080ABA4857
:1024700080ED000AFFF726FFB849086008460068AB
:10248000B749096888420CD3B4480068B449096860
:10249000401A00EE100AB8EE400ADFEDB20AC0EEB4
:1024A000208AAE480068AE490860A648D0ED000A10
:1024B00090ED001A60EE810AA34890ED001AD0ED6D
:1024C000001A41EE210AA14890ED001AD0ED001A41
:1024D00041EE210AB0EE600A04F02CF9B0EE408A19
:1024E000984890ED000A20EE080A80ED000A964810
:1024F00090ED000A20EE080A80ED000A934890ED66
:10250000000A20EE080A80ED000A9148D0ED000A8A
:1025100090ED001A60EE810A8E4890ED001AD0ED21
:10252000001A41EE210A8C4890ED001AD0ED001AF5
:1025300041EE210AB0EE600A04F0FCF8B0EE408AE9
:10254000834890ED000A20EE080A80ED000A8148D9
:1025500090ED000A20EE080A80ED000A7E4890ED1A
:10256000000A20EE080A80ED000A794890ED000A82
:10257000F0EE000A60EE200AB6EE000A30EE6B1AAA
:102580009DED040A31EE400A20EE800A7148D0ED3C
:10259000000AB0EE001A60EE811ADDED060A9DED2C
:1025A000071A70EEC10A01EEA00A6B48D0ED000ACE
:1025B000B0EE001A60EE810A3BEE2A1A00EE810AA4
:1025C0008DED110A624890ED000AF0EE000A20EE4F
:1025D000201A9DED060ADDED070A30EE200A21EEF5
:1025E000000A5C48D0ED000AB0EE001A20EE811A15
:1025F000F6EE000A70EEEF1ADDED040A71EEE00A65
:1026000001EE200A5448D0ED000AB0EE001A20EE88
:10261000811ADDED050A70EECF0A01EE200A8DED7C
:10262000100A4B4890ED000AF0EE000A20EE200A56
:102630007BEE6A0A60EE200A464890ED000AB0EE92
:10264000001A20EE011A9DED050A70EE0F1AB0EE89
:10265000600A01EE210A4048D0ED000AB0EE001AEF
:1026600060EE810AB6EE001A31EE6F1A31EE6B1A87
:10267000B0EE409A00EE819A9DED110A60EE000ADC
:102680009DED100A40EE000A10EE901A084607F081
:1026900043F9CDE900019DED000B02F01FFF8DED28
:1026A000020B9DED020B51EC100B06F04FFC09EEF6
:1026B000900AB0EE49AA3BEE6A0AF0EE000A20EE5C
:1026C000200A8DED0F0A9DED050A3FEE000AF0EE9F
:1026D000000A20EE200A8DED0E0A9DED080A30EE6C
:1026E0006F0A70EE6B0A9DED040A30EE800A8DEDE4
:1026F0000D0AB0EE000A69EE800AB6EE000A30EE6E
:102700006B1A9DED040A31EE400A20EE800AB0EE0D
:102710004A9AF0EE000A69EE200A25E0D80200206D
:10272000DC020020E0020020E4020020BC090020BE
:10273000DB0F494000003443E8020020EC02002097
:10274000F0020020F4020020F8020020FC02002029
:1027500000030020040300200803002010030020D1
:102760000C0300200024F4493BEE6A1A00EE810AB3
:102770008DED0C0AB0EE000A29EE801A9DED060AD6
:10278000DDED070A30EE600A21EE000AB0EE4A9A4B
:10279000F0EE000A29EE201ADDED050A7FEE200A90
:1027A00001EE200A8DED0B0AB0EE000A29EE800A38
:1027B0007AEE8B0A20EE200AB0EE4A9AF0EE000A7A
:1027C00069EE200AB6EE001A31EE6F1A31EE6B1A7E
:1027D00000EE810A8DED0A0AAF48D0ED000A9DEDAA
:1027E0000D0A60EE800AAD4890ED001A9DED0E0ACC
:1027F00041EE400AAA4890ED001A9DED0A0A21EE2A
:10280000001AA848D0ED001A9DED0B0A01EEC01A7F
:1028100030EE81CAA148D0ED000A9DED0F0A60EEAE
:10282000800AA14890ED001A9DED0D0A41EE400A84
:102830009C4890ED001A9DED0C0A21EE001A9B4871
:10284000D0ED001A9DED0A0A01EEC01A70EE81CAA1
:102850009548D0ED000A9DED0E0A60EE800A8E4884
:1028600090ED001A9DED0F0A41EE400A8F4890ED61
:10287000001A9DED0B0A21EE001A8948D0ED001ACE
:102880009DED0C0A01EEC01A30EE81DAB5EEC0CA39
:10289000F1EE10FA57D0F5EEC0CAF1EE10FA52D0B0
:1028A000B5EEC0DAF1EE10FA4DD09FED810A6CEE74
:1028B000000A804890ED000A00EEA80A80ED000AA8
:1028C0009FED7B0A6CEE800A7B4890ED000A00EEDB
:1028D000A80A80ED000A9FED760A6DEE000A77489F
:1028E00090ED000A00EEA80A80ED000A744890ED11
:1028F000000AF0EE000A00EE8C0A6E48D0ED000AE5
:1029000030EE200A6E4880ED000A6E4890ED000A15
:10291000F0EE000A00EEAC0A6748D0ED000A30EE97
:10292000200A684880ED000A674890ED000AF0EE42
:10293000000A00EE8D0A6148D0ED000A30EE200A50
:10294000614880ED000A614890ED000AB1EE400A4E
:102950005B48D0ED000A20EE200A5D48D0ED000A69
:10296000584890ED001A00EEC10A5A4890ED001A3E
:102970005548D0ED001AF0EE400A41EE610A564883
:1029800090ED000A00EEA80A8DED090A90ED000A0C
:102990004B48D0ED000A20EE200A4D48D0ED000A49
:1029A000494890ED001A00EE810A4A48D0ED000A2D
:1029B000444890ED001A00EEC10A4448D0ED000AE8
:1029C000F0EE60DA40EE28DA434890ED000A3D4828
:1029D000D0ED000A20EE200A3C48D0ED000A3A482B
:1029E00090ED001A00EEC10A3A48D0ED000A3448D2
:1029F00090ED001A00EE810A3548D0ED000AB0EEE5
:102A000060EA00EE28EA344890ED000A2E48D0ED46
:102A1000000A20EE200A2D48D0ED000A294890ED4A
:102A2000001A00EE810A2A48D0ED000A244890EDF1
:102A3000001A00EEC10A2748D0ED000AF0EE60EA65
:102A400040EE28EADDED090A60EEA00A4DEEAD0A7F
:102A50004EEE0E0A4EEEAE0AB0EE600A03F06AFECB
:102A6000B0EE408A9DED090A20EE080A1A4880ED72
:102A7000000A2DEE880A154880ED000A2EEE080A9D
:102A8000134880ED000A2EEE880A124880ED000AF5
:102A900013B0BDEC108B00BDF8020020FC0200203A
:102AA0000403002008030020F4020020000300209B
:102AB0000AD7233CCC020020D0020020D402002000
:102AC000E8020020EC020020F0020020DC020020DE
:102AD000E0020020E4020020D802002010B50446E5
:102AE000024800F005F8FFF717FC10BDBC090020F4
:102AF0002DE9FF4106460024002700208E4908608A
:102B0000BB2001F06BFB3B2000F03AFB8DF800008E
:102B10003C2000F035FB8DF801009DF801009DF888
:102B2000001040EA012000B2844908803D2000F0F6
:102B300027FB8DF802003E2000F022FB8DF80300F9
:102B40009DF803009DF8021040EA012000B27B4985
:102B500048803F2000F014FB8DF80400402000F076
:102B60000FFB8DF805009DF805009DF8041040EA64
:102B7000012000B271498880412000F001FB8DF8EE
:102B80000600422000F0FCFA8DF807009DF80700CF
:102B90009DF8061040EA012000B26849C880432031
:102BA00000F0EEFA8DF80800442000F0E9FA8DF804
:102BB00009009DF8090062490989401A9DF808102A
:102BC00040EA012000B25D490881452000F0D8FAB2
:102BD0008DF80A00462000F0D3FA8DF80B009DF81E
:102BE0000B0057494989401A9DF80A1040EA012014
:102BF00000B252494881472000F0C2FA8DF80C001B
:102C0000482000F0BDFA8DF80D009DF80D004C49EC
:102C10008989401A9DF80C1040EA012000B247490A
:102C200088810846B0F90C00002803DD0846B0F999
:102C30000C0003E04148B0F90C004042142802DACD
:102C400000203E49888101203B490860012408E0BA
:102C50003C4850F82420601E3A4941F82020601C6E
:102C6000C4B2642CF4DB3548B0F90C103648C0F817
:102C70007019002405E0334850F824000744601C14
:102C8000C4B2642CF7DB642097FBF0F12E48C0F847
:102C9000741900272B4890ED640AB8EEC00A2B483F
:102CA00080ED060A00252EE02848D0ED060A2848C7
:102CB00030F9150000EE100AB8EEC00AF4EE400A32
:102CC000F1EE10FA05D1224830F8150021490880AC
:102CD0001BE01E4890ED060AF1EE400A1C4830F950
:102CE000150000EE100AB8EEC00AF4EE400AF1EE4C
:102CF00010FA07D1164830F81500404200B21549C5
:102D0000088002E06D1C172DCEDB00BF0F48D0ED10
:102D1000060A1048B0F9000000EE100AB8EEC00A2A
:102D200030EEC00A094880ED060A90ED060A86EDED
:102D3000050ABDE8FF81000098824242FC0900209C
:102D4000100A002048120020640A0020240A0020F3
:102D50003C0300203203002010B504460648FFF76C
:102D6000BDFE064890ED050ADFED050A80EE201A4B
:102D7000044880ED061A10BDE0090020BC090020BF
:102D800000003443440A002008B527E005F094FE13
:102D900000901348FFF7E0FF124890ED060ADFEDC0
:102DA000120A20EE200ABDEEC00A10EE100A010A37
:102DB0000E4880F8D8100B4890ED060ADFED0A0A9D
:102DC00020EE200ABDEEC00A10EE100AC1B207487C
:102DD00080F8D9100121684605F0D2F8D6E7000046
:102DE000F0090020440A00200000C84274010020BD
:102DF00008B50AE005F060FE009000F057FF01F012
:102E0000A3FB0A21684605F0BBF8F3E770B504465A
:102E10000E4615460EB1012000E00020207120462C
:102E2000FFF791F9B6B9E07888B12088401C20807E
:102E30002188681C814203DB0020A070E07029E03B
:102E40002088A84226DB0420A070E07022E0002049
:102E500020801FE0012E1DD1E078022818D02088A4
:102E6000401C20802088984203DB0220A070E07084
:102E700010E02188681C814203DB0120A070E07013
:102E800008E02088A84205DB0320A070E07001E084
:102E90000020208070BD00009FED0E1A80ED001A0A
:102EA0009FED0C1A80ED051A80ED090AC0ED0A0AA3
:102EB000B7EE001A80ED071A9FED061A80ED081A8A
:102EC000B7EE001A80ED0B1A90ED001A80ED011A92
:102ED000704700000000000000B5124890F8200084
:102EE000C0F380014FF4967305220F48FFF78EFF61
:102EF0000D480C38807B05280FD2DFE800F0030571
:102F000009040A0009E008E001200849087004E00B
:102F100003E000200549087000BF00BF03480078A7
:102F200000BD0000CC000020E8130020E9030020D1
:102F300000B5124890F82000C0F3C0014FF496731A
:102F400005220F48FFF762FF0D481238007D052863
:102F50000FD2DFE800F0030509040A0009E008E0E9
:102F600001200849087004E003E0002005490870CA
:102F700000BF00BF0348007800BD0000CC00002067
:102F8000EE130020EB03002000B5124890F820005B
:102F9000C0F340014FF4967305220F48FFF736FF48
:102FA0000D48801F007A05280FD2DFE800F00305E6
:102FB00009040A0009E008E001200849087004E05B
:102FC00003E000200549087000BF00BF03480078F7
:102FD00000BD0000CC000020E2130020EA03002026
:102FE00000B5114890F8200000F001014FF49673ED
:102FF00005220E48FFF70AFF0C48807805280FD2FB
:10300000DFE800F0030509040A0009E008E00120F8
:103010000749087004E003E000200549087000BF7C
:1030200000BF0348007800BDCC000020DC13002066
:10303000E803002010B50446FFF7D2FF68B194ED15
:10304000000AF0EE400A9FED251A254890ED000A8F
:1030500000F0B4FB84ED000A16E0FFF795FF78B1AD
:1030600094ED000AF0EE400A9FED1C1A1C4890ED0A
:10307000000AB1EE400A00F0A1FB84ED000A03E073
:103080009FED180A84ED000AFFF726FF68B194ED62
:10309000010AF0EE400A9FED111A114890ED000A66
:1030A00000F08CFB84ED010A16E0FFF741FF78B1D8
:1030B00094ED010AF0EE400A9FED081A084890EDE1
:1030C000000AB1EE400A00F079FB84ED010A03E04A
:1030D0009FED040A84ED010A10BD00008FC2F53E89
:1030E000040100200000000010B586B00024142266
:1030F000104901A8FDF72AFA642003F0EFF87520C3
:1031000000F01CF80C49087000BF0DE001AA02EBAA
:103110004402517801AA12F8140000F045F8012089
:1031200003F0DCF8601CC4B20A2CEFDB002006B010
:1031300010BD000028A000082C03002010B5044694
:1031400000200B49086044F080000A4908700846D6
:10315000007801F043F844F0800001F03FF80649A0
:10316000087001200549C1F898020348007810BD95
:1031700098824242E2030020E103002000804242A4
:1031800010B5044644F080000549087008460078F0
:1031900001F024F8034908700846007810BD0000CB
:1031A000E4030020E303002070B505460C46002030
:1031B0000A49086005F07F00094908700846007850
:1031C00001F00CF806480470007801F007F80120BF
:1031D0000449C1F89802002070BD00009882424264
:1031E000E00300200080424200BFFEE7704700007D
:1031F00070B5002100230F22C4781CB3174C24683B
:1032000004F4E064C4F5E064C4F30721C1F10404EC
:10321000E3B20A4144789C40E1B2847814402143EF
:103220000C07210E0E4C05786155047804F01F053B
:103230000124AC4005786D11AD0005F1E025C5F81D
:10324000004109E0047804F01F050124AC40054D5D
:103250000678761145F8264070BD00000CED00E0C0
:1032600000E400E080E100E002490143024A11600D
:10327000704700000000FA050CED00E010B52DEDE0
:10328000068B84B004465048406B90ED010A4E48CE
:10329000D0ED060A30EE600A8DED030A9DED030ABB
:1032A000B5EEC00AF1EE10FA02DD9DED030A03E06F
:1032B0009DED030AB1EE400ADFED440AB4EEE00AE8
:1032C000F1EE10FA18DD9DED030AB5EEC00AF1EE3D
:1032D00010FA02DD9DED030A03E09DED030AB1EE55
:1032E000400A9DED031AC1EE000A9DED030A9FED11
:1032F000381A00EEC10A01E09DED030A8DED030AC4
:103300009DED030AF0EE000A20EE200ADFED310AFF
:1033100020EE200ADFED2E0A80EE201AB0EE41AA40
:10332000B0EE4A0AFDF774F8B0EE408A9DED030A4C
:10333000F0EE000A20EE200ADFED260A20EE200A39
:10334000DFED230A80EE201AB0EE41AAB0EE4A0A61
:10335000FDF722F8F0EE408A00200190029001A8CB
:10336000FFF768FEB4F91E0000EE100AB8EEC00ABE
:10337000DDED010A30EE200ADFED170A20EE209A7B
:10338000B4F91C0000EE100AB8EEC00ADDED020A26
:1033900030EE200ADFED100A60EE209A28EE290AAE
:1033A00008EE890A84ED030A28EEA90A08EE490A04
:1033B00084ED040A03A801F019F884ED050A04B0AD
:1033C000BDEC068B10BD0000CC0000200000344393
:1033D0000000B443DA0F494000007042F0EE400AAA
:1033E000416A816210EE901A4162416A00EE101A41
:1033F000C16801EE101AB1EE411AB4EEC10AF1EE45
:1034000010FA08D8C16800EE101AB1EE400A10EEAA
:10341000101A41620CE0416A00EE101AC16801EE18
:10342000101AB4EEC10AF1EE10FA01DBC168416274
:10343000C16A00EE101A416A01EE101ADFED771A28
:1034400001EE210A10EE101AC162C16A00EE101AD4
:10345000016901EE101AB1EE411AB4EEC10AF1EEA3
:1034600010FA08D8016900EE101AB1EE400A10EE09
:10347000101AC1620CE0C16A00EE101A016901EE77
:10348000101AB4EEC10AF1EE10FA01DB0169C16253
:10349000016800EE101A416A01EE101A20EE010ACE
:1034A00010EE101A0163016B00EE101A416901EE73
:1034B000101AB1EE411AB4EEC10AF1EE10FA08D8B2
:1034C000416900EE101AB1EE400A10EE101A0163C5
:1034D0000CE0016B00EE101A416901EE101AB4EE17
:1034E000C10AF1EE10FA01DB41690163416800EEA7
:1034F000101AC16A01EE101A20EE010A10EE101A1D
:103500004163416B00EE101A816901EE101AB1EEB1
:10351000411AB4EEC10AF1EE10FA08D8816900EE42
:10352000101AB1EE400A10EE101A41630CE0416B24
:1035300000EE101A816901EE101AB4EEC10AF1EE24
:1035400010FA01DB81694163416A00EE101A816A59
:1035500001EE101A30EE411A816800EE101A21EEC9
:10356000000A10EE101A8163816B00EE101AC16917
:1035700001EE101AB1EE411AB4EEC10AF1EE10FAE2
:1035800008D8C16900EE101AB1EE400A10EE101A08
:1035900081630CE0816B00EE101AC16901EE101A14
:1035A000B4EEC10AF1EE10FA01DBC1698163016B6F
:1035B00000EE101A416B01EE101A30EE011A816B09
:1035C00000EE101A31EE000A10EE101AC163C16B42
:1035D00000EE101A016A01EE101AB1EE411AB4EEB3
:1035E000C10AF1EE10FA08D8016A00EE101AB1EE25
:1035F000400A10EE101AC1630CE0C16B00EE101A05
:10360000016A01EE101AB4EEC10AF1EE10FA01DB04
:10361000016AC163C16B00EE101A70476F12033B61
:1036200010B52DED0A8B0446B0EE408AF0EE608AAC
:10363000B0EE419AF0EE619AB0EE42AAF0EE62AAC4
:10364000B0EE43BAF0EE63BAB0EE44CA9FED200A82
:1036500010EE100A20639FED1E0A10EE100A606340
:103660009FED1B0A10EE100AA0639FED190A10EEE1
:10367000100AE0639FED160A10EE100A60629FEDDB
:10368000140A10EE100AA0629FED110A10EE100A43
:10369000E0621048A0641048206410486064216C07
:1036A000B0EE4C4AF0EE6B3AB0EE4B3AF0EE6A2ACE
:1036B000B0EE4A2AF0EE691AB0EE491AF0EE680A46
:1036C000B0EE480A20468847BDEC0A8B10BD0000CA
:1036D00000000000DD3300083737000871370008AC
:1036E00070B505460C46D4ED084AB0EE644AD4EDF8
:1036F000074AF0EE643AD4ED064AB0EE643AD4EDEF
:10370000054AF0EE642AD4ED044AB0EE642AD4ED02
:10371000034AF0EE641AD4ED024AB0EE641AD4ED16
:10372000014AF0EE640AD4ED004AB0EE640A28467D
:10373000FFF776FF70BD10EE101A016010EE901AC0
:10374000416011EE101A816011EE901AC16012EE04
:10375000101A016112EE901A416113EE101A816184
:1037600013EE901AC16114EE101A01627047000046
:103770009FED110A10EE101A01639FED0F0A10EE73
:10378000101A41639FED0C0A10EE101A81639FED31
:103790000A0A10EE101AC1639FED070A10EE101A04
:1037A00041629FED050A10EE101A81629FED020A38
:1037B00010EE101AC162704700000000B0EE402AFF
:1037C0009FED170AF0EE401A32EE600AF0EE401A52
:1037D000F5EEC01AF1EE10FA0EDDF4EEC11AF1EEBC
:1037E00010FA04DD30EE810AF0EE400A14E030EE0B
:1037F000A10AF0EE400A0FE0B1EE410AF4EEC01A61
:10380000F1EE10FA04D230EEC10AF0EE400A03E005
:1038100030EEE10AF0EE400AB0EE600A70470000B8
:103820000000000029B1064A12680243044B1A60E6
:1038300004E0034A12688243014B1A60704700009B
:103840003038024029B1064A12680243044B1A601C
:1038500004E0034A12688243014B1A60704700007B
:103860004038024029B1064A12680243044B1A60EC
:1038700004E0034A12688243014B1A60704700005B
:103880002038024029B1064A12680243044B1A60EC
:1038900004E0034A12688243014B1A60704700003B
:1038A0004438024029B1064A12680243044B1A60A8
:1038B00004E0034A12688243014B1A60704700001B
:1038C00024380240F0B50021002200240225002601
:1038D0000223324F3F6807F00C0121B1042905D0C3
:1038E000082937D105E02E4F076036E02D4F0760DD
:1038F00033E02A4F3F1F3F68C7F38056274F3F1FD3
:103900003F6807F03F036EB1264FB7FBF3F7DFF8D0
:103910008CC0ACF1040CDCF800C0CCF3881C07FBB5
:103920000CF40CE01E4FB7FBF3F7DFF870C0ACF1FE
:10393000040CDCF800C0CCF3881C07FB0CF4174F18
:103940003F1F3F68C7F301477F1C7D00B4FBF5F7BD
:10395000076002E0124F076000BF00BF0F4F3F68D3
:1039600007F0F0010909104F7A5C0768D7404760FB
:103970000A4F3F6807F4E051890A0B4F7A5C4768A9
:10398000D7408760054F3F6807F46041490B064FF9
:103990007A5C4768D740C760F0BD00000838024035
:1039A0000024F400001BB7009C08002070B596B0FE
:1039B00004460E46154601214A48FFF733FF012110
:1039C0001020FFF75FFF01211020FFF76BFF0021A0
:1039D0001020FFF767FF072211464348FEF720FC3F
:1039E0008020149002208DF8540000208DF856009D
:1039F00003208DF8550000208DF8570014A93A488F
:103A0000FEF7C6FB394801F0A1F8394810900020B4
:103A1000ADF84400ADF846004FF48060ADF84800C2
:103A20000420ADF84A000020ADF84C0010A92F4842
:103A300001F060F9012240212C4801F07EF81021AC
:103A40002A4801F065F8012240F22441274801F09C
:103A50002CF90121254801F064F825208DF83C005F
:103A600001208DF83D0000208DF83E0001208DF8EA
:103A70003F000FA8FFF7BCFB1E48FEF79FF84FF072
:103A8000006000901948001D0190029400200390EE
:103A9000049505904FF480600690002007900890F0
:103AA0004FF4807009904FF440300A9000200B9042
:103AB0000C900D900E9069460E48FEF7A1F9002279
:103AC00031460C48FEF731F901210A48FEF722F988
:103AD00000210848FEF766F801210648FEF762F863
:103AE00016B070BD0200400000040240001001400A
:103AF000A08601004064024010B50446601D02F03B
:103B00009BFB40F20222811A90427DD006DC012804
:103B100009D0A0F20120002874D10CE0022972D053
:103B20000529F9D1A0E0E1795948007861F307103F
:103B300057490870AAE0E07956490870207A487021
:103B400004F1090002F078FB5249488004F10B00AF
:103B500002F072FB4F49888004F10D0002F06CFB0B
:103B60004C49C88004F10F0002F066FB4949088106
:103B700004F1110002F060FB4649488104F1130092
:103B800002F05AFB4349888104F1150002F054FB0E
:103B90004049C88104F1170002F04EFB3D490882FC
:103BA00004F1190002F048FB3A49488204F11B0075
:103BB00002F042FB3749888204F11D0002F03CFB11
:103BC0003449C88204F11F0002F036FB31490883F2
:103BD00014F8210F897E60F300012E488176207849
:103BE00040082C49897E60F341012A48817614F807
:103BF000210981082748807E61F382002549887663
:103C000044E001E041E02BE0E01D02F015FB224919
:103C1000088004F1090002F00FFB1F49488004F1FD
:103C20000B0002F014FB10EE100A1B49486004F16F
:103C30000F0002F001FB1849088104F1110002F0A5
:103C4000FBFA1549488104F1130002F0F5FA124914
:103C5000888104F1150002F0EFFA0F49C88115E0E0
:103C6000E0790E49087011E0607A0D49887004F11E
:103C70000A0002F0ECFA10EE100A0949C1F803003C
:103C800008490948FDF737F900E000BF00BF10BD43
:103C900098150020A3150020BE1500208C070020D9
:103CA0008D0700203C020020006800407049897E9A
:103CB000C1F380006E490978632903DD01216D4A53
:103CC000117002E000216B4A11706949497801299D
:103CD00032D10021684A1170684A1170644909891B
:103CE000962906D10021664A11700121654A11709A
:103CF00077E05F4909894B2905D10121604A11709C
:103D0000604A11706DE05A490989322969D15849D0
:103D1000C9880A2905D10021594A1170594A1170E0
:103D20005FE05349C98828295BD10121544A1170A9
:103D30000021544A117054E04D494978022926D196
:103D400000214D4A117001214C4A117048490989DE
:103D5000B1F58C7F06D10021494A11700121494AF1
:103D600011703EE042490989962905D10121444A52
:103D70001170444A117034E03D490989642930D1F9
:103D800001213F4A117000213E4A117029E0384953
:103D90004978032925D10121374A11700021374A7A
:103DA000117033490989B1F5C87F06D10021344A21
:103DB00011700121334A117013E02D490989C82976
:103DC00005D101212E4A11702E4A117009E02849AF
:103DD0000989962905D10121294A11700021294A12
:103DE000117024490978C901244A127841EA8211E4
:103DF000214A127841EA4211224A127841EA02111C
:103E00001F4A127841EAC20141EA8001CAB21E4942
:103E100081F8D3201D4949890A121B4981F8D42011
:103E20001A498A7A184981F8D5201949D1F803101E
:103E300000EE101ADFED170A20EE200ABDEEC00AD0
:103E400010EE101A0A0A104981F8D6201049D1F84C
:103E5000031000EE101ADFED0F0A20EE200ABDEE6F
:103E6000C00A10EE101ACAB2074981F8D72070476D
:103E7000A31500202C0100202D0100202E01002080
:103E80002F0100203001002074010020BE15002009
:103E90008D0700200000C84210B500F03BF800F08C
:103EA00001F810BD00B58FB001224021164800F086
:103EB00044FE4FF0206000901348001D0190002048
:103EC000039012480290C8200490002005904FF4FF
:103ED000806006900020079008904FF48070099051
:103EE0004FF440300A9000200B9003200C900020EB
:103EF0000D900E9069460648FDF782FF01210448A7
:103F0000FDF750FE0FB000BD007C0040D014002033
:103F1000A060024000B587B001211020FFF782FCAD
:103F20000121C807FFF78EFC01214805FFF77AFC45
:103F30002B48FDF743FE082200212A48FEF770F9BE
:103F4000082201212748FEF76BF903200590022083
:103F50008DF8180003208DF8190000208DF81A0044
:103F600001208DF81B0005A91E48FEF711F94FF43A
:103F7000E13001900020ADF80800ADF80A00ADF87E
:103F80000C00ADF810000C20ADF80E0001A9164889
:103F900000F0B0FE4021144800F0BAFD012240F2CA
:103FA0002551114800F081FE012240F224410E48C3
:103FB00000F07BFE01210C4800F0B3FD53208DF88A
:103FC000000004208DF8010000208DF8020001207F
:103FD0008DF803006846FFF70BF907B000BD00003D
:103FE000A060024000100240007C004000B101B916
:103FF00070470278437842EA0322C2F30A020A8039
:104000004278D210837842EA4312C2F30A024A800D
:1040100082789211C37842EA8302037942EA8322CA
:10402000C2F30A028A8002795210437942EAC3122B
:10403000C2F30A02CA80027C437C42EA0322C2F332
:104040000A020A810A88A2F5806212B20A804A88AE
:10405000A2F5806212B24A808A88A2F5806212B20A
:104060008A80CA88A2F5806212B2CA800A89A2F543
:10407000806212B20A814279C2F301128A724279D5
:1040800012119308CB728279C37942EA032212B2E9
:104090008A81027A437A42EA032213B2CB81827A7E
:1040A000C37A42EA032213B20B82037B8B74437BF5
:1040B000CB74827BC37B42EA03228A8200BF97E7EC
:1040C00000B587B001212020FFF7ACFB01210220C1
:1040D000FFF7A8FB01210805FFF7D4FB4FF4607040
:1040E000059002208DF8180000208DF81A0003209A
:1040F0008DF8190000208DF81B0005A93448FEF743
:1041000047F84FF48070059002208DF818000020C9
:104110008DF81A0003208DF8190000208DF81B007F
:1041200005A92C48FEF734F84020059001208DF8B1
:10413000180000208DF81A0003208DF819000020C7
:104140008DF81B0005A92248FEF722F80522072159
:104150001F48FEF765F8052206211D48FEF760F8A6
:10416000052209211A48FEF75BF8052208211848A4
:10417000FEF756F801210805FFF794FB00214FF4E4
:104180008010FFF78FFB0020ADF800004FF4827025
:10419000ADF802000020ADF80400ADF80600ADF85F
:1041A00008004FF40070ADF80A003020ADF80C00A4
:1041B0000020ADF80E000A20ADF810006946064850
:1041C00000F066F80121044800F048F807B000BD8F
:1041D00000140240000402400050014070B5054642
:1041E0000126002422E0012E0FD10221104800F008
:1041F00041F850B1002401E0601CC4B2C82CFBDBC4
:1042000029460B4800F042F800267EB901210848F3
:1042100000F030F850B1002401E0601CC4B2C82C9A
:10422000FBDB034800F02FF8C0B270BDDBE70000F5
:104230000050014010B50446074800884FF6C7718A
:10424000084005490880084600882043088001216D
:10425000014800F003F810BD0050014021B1028870
:1042600042F04002028004E002884FF6BF731A4019
:10427000028070470246002013890B400BB10120D9
:1042800000E00020704701468889704781817047AF
:1042900010B50022028802F441520B884C88234357
:1042A0008C882343CC8823430C8923434C892343A4
:1042B0008C892343CC8923431A430280838B4FF29A
:1042C000FF74234083830B8A038210BD0CB500204A
:1042D000019000904148006840F480303F490860F8
:1042E00000BF3E48006800F4003000900198401C78
:1042F0000190009818B90198B0F5A04FF1D1374856
:10430000006800F4003010B10120009001E00020AE
:1043100000900098012860D130484030006840F09B
:1043200080502E49403108602D48006840F44040DC
:104330002B4908602948083000682849083108607E
:104340000846006840F4004008600846006840F4F1
:10435000A05008602348091F0860081F006840F04B
:104360008070091F086000BF1C48006800F00070E2
:104370000028F9D01A48006840F4803018490860D5
:1043800000BF1748406800F480300028F9D0144876
:10439000006840F400301249086000BF10484068CF
:1043A00000F400300028F9D040F205700E49086092
:1043B0000A480830006820F0030008490831086006
:1043C0000846006840F00200086000BF034808305B
:1043D000006800F00C000828F8D10CBD003802403D
:1043E00000700040062D4008003C024070B52DEDE5
:1043F000028B05464548048B9FED450AB0EE408A86
:1044000044484078022820D1D5ED000AF1EE600A38
:10441000B0EE600A3F4A526B02F15C003D4A526BBB
:10442000D2F8A41088473C48D0ED060A30EE600A66
:10443000F0EE408A374A526B02F11000354A526B57
:10444000916D8847B0EE408A46E0324840780328B4
:1044500042D1782C04DB9FED310AB0EE408A34E083
:10446000642C04DB9FED2E0AB0EE408A2DE05A2C1E
:1044700004DB9FED2C0AB0EE408A26E0502C04DBD2
:104480009FED290AB0EE408A1FE0462C04DB9FED29
:10449000270AB0EE408A18E03C2C04DB9FED240A8A
:1044A000B0EE408A11E0322C04DB9FED220AB0EE20
:1044B000408A0AE0282C04DB9FED1F0AB0EE408AF8
:1044C00003E09FED1D0AB0EE408A1C48007818B149
:1044D0009FED1B0AB0EE408AB5EEC08AF1EE10FAED
:1044E00002DDB0EE480A01E0B1EE480ADFED150A40
:1044F000B4EEE00AF1EE10FA03D29FED050AB0EE39
:10450000408AB0EE480ABDEC028B70BDA3150020B6
:1045100000000000CC000020440A00200000FF43FF
:104520000000F0430000E1430000D2430000C34319
:104530000000B4430000A54300009643C8000020DB
:10454000000016440000C84210B550480068401CE6
:104550004E4908604E480068401C4D49086000F014
:10456000F7F900F0E9F94B4800780221B1EB101F90
:104570001BD14648006830B1012807D0022808D076
:1045800003280CD108E002F089FF0DE002F024FFBF
:104590000AE003F097F807E003F088F904E04FF031
:1045A000FF303A49086000BF66E0384800680828D4
:1045B0005CD2DFE800F00407252B31494F55FDF7A9
:1045C0000DFA58E03448407908B1012000E000209D
:1045D000324908703048007908B1012000E000201D
:1045E0002F4908702C48807908B1012000E0002094
:1045F0002C490870FDF7AEF902202B4908603AE01B
:104600002848007808B901F0EDF834E02548007832
:1046100008B901F00FF82EE01F4890ED020AF2EE03
:104620000A0A30EE600AF2EE040A80EE201A9FEDCC
:104630001F0A21EE000A1E4880ED000AFDF71AFA53
:1046400002201C49086016E01648007808B900F0FE
:10465000A9FF10E01348007808B901F033F80AE028
:104660001048007808B901F075F804E04FF0FF3009
:104670000649086000BF00BF05480068642804D1EF
:104680000020034908600449087010BD9408002008
:104690009808002098150020D0150020B4070020AD
:1046A000B5070020B6070020A00700200000C84280
:1046B000B8070020AC070020042808D14FF0E02103
:1046C000096941F004014FF0E022116107E04FF069
:1046D000E021096921F004014FF0E02211617047E7
:1046E00010B504F0D9F9012801D003F0C7FE10BDC0
:1046F00010B51548006840F470001349086013486D
:10470000006840F001001149086000200F4908319D
:1047100008600E4800680E4908400C4908600D48C2
:10472000091D0860081F006820F48020091F086028
:10473000002006490C310860FFF7C8FD4FF000600B
:1047400001498039086010BD88ED00E00038024062
:10475000FFFFF6FE103000241CB5044603F0F2FA09
:104760001248042100238A01CDE9001010A113484A
:1047700004F062F91248042100230A02CDE9001076
:1047800010A1144804F058F91348042100238A01A9
:10479000CDE9001011A1154804F04EF91448006845
:1047A00003F058FC03F0F8FA1CBD00000C000020D8
:1047B000494D555F5441534B00000000892D0008BE
:1047C00008000020434841535349535F5441534B21
:1047D000000000001516000804000020494E544552
:1047E0005241435F5441534B00000000F12D00083B
:1047F0000000002000B58FB001214805FFF712F836
:104800004FF0206000901748019017480290402018
:10481000039006200490002005904FF480600690DD
:1048200000200790089009904FF440300A90002033
:104830000B900C900D900E9069460C48FDF7E0FA35
:10484000012280210748001F00F077F90122102182
:104850000648FDF7B7FA01210448FDF7A3F90FB0A8
:1048600000BD000004780040F803002028600240EA
:1048700070B540F22441244800F0EDF9002841D001
:10488000002421480088214908601F48001D008835
:1048900008601F48FDF755FAC0F1C8001B490860C1
:1048A00000211B48FDF77EF91BE01A490819052174
:1048B00000F0B6FA012812D11649601C085C0930D4
:1048C0000A46A11C515C40EA0125114608192946F7
:1048D00000F086FA18B10F490819FFF70DF96019B1
:1048E00084B20C48005DA528DFD0C8210948FBF739
:1048F00067FEC8210648FDF7AFFA01210448FDF71D
:1049000051F900BF70BD0000007C00408807002006
:10491000A0600240D014002010B5044600BF402122
:10492000044800F08BF90028F9D02146014800F036
:1049300050FA10BD007C0040034890ED000A034887
:1049400080ED020A70470000EC030020D015002023
:104950000848007860B901200749086007490860E5
:10496000074908600749086007490860014908705D
:104970007047000091080020A0070020A407002035
:10498000A8070020AC070020B007002010B540F2B7
:104990002551314800F05FF918B12F4800F014FAA2
:1049A00059E040F224412C4800F055F9002852D03B
:1049B000294800F009FA2948FDF7C7F928BB00216A
:1049C0002648FDF7EFF82548FDF7BBF9C0F12400B4
:1049D0002349088024212148FDF73EFA1F4800683A
:1049E00040F400201D4908601E491C48FDF7A6F848
:1049F00001211A48FDF7D6F81948008812282AD153
:104A000019491A48FFF7F2FA25E000211348FDF78B
:104A1000C9F81248FDF795F9C0F124001049088043
:104A200024210E48FDF718FA0C48006820F40020F5
:104A30000A4908600B490948FDF780F80121074839
:104A4000FDF7B0F806480088122804D10649074847
:104A50002430FFF7CBFA10BD001001404064024043
:104A6000E603002000003010481400205E140020EF
:104A700010B540F22551214800F0EDF8E0B32021B7
:104A80001E4800F045F81D4800F09EF91C491D4ADB
:104A9000126888541B480068401C1A49086018486E
:104AA0000968405C442820D1154916480068C01C9C
:104AB000085C132819D113480068801C095C104A4F
:104AC00010480068401C105C41EA002000EE100A0B
:104AD000B8EEC00AF7EE040A20EE200ADFED0A0A5B
:104AE00080EE201A094880ED001A06480068082860
:104AF00002DB00200349086010BD000000480040B0
:104B0000F00300200004002000007A44EC030020A1
:104B100001F40072B2F5007F00D100BFCA430280E9
:104B2000704721B1828942F40052828104E0828977
:104B30004DF6FF731A40828170471AB1838A0B4386
:104B4000838202E0838A8B438382704710B50446D8
:104B50003248844208D101211020FEF7A3FE002133
:104B60001020FEF79FFE57E02D48844209D1012115
:104B70004804FEF777FE00214FF40030FEF772FE86
:104B80004AE02848844209D101218804FEF76AFEE0
:104B900000214FF48020FEF765FE3DE0224884426C
:104BA00009D10121C804FEF75DFE00214FF4002069
:104BB000FEF758FE30E01D48844209D10121080566
:104BC000FEF750FE00214FF48010FEF74BFE23E06D
:104BD0001748844208D101212020FEF763FE0021FE
:104BE0002020FEF75FFE17E01248844209D1012120
:104BF0008807FEF737FE00214FF08040FEF732FEB7
:104C00000AE00D48844207D101214005FEF72AFE43
:104C100000216005FEF726FE10BD000000100140D7
:104C20000044004000480040004C0040005000405C
:104C30000014014000780040007C00400246002043
:104C4000B1F5007F00D100BF13880B400BB10120EC
:104C500000E00020704770B50246002400230025C4
:104C6000002040F66A16B14200D100BFC1F34215E0
:104C700001F01F03012606FA03F3012D02D19689E4
:104C8000334006E0022D02D1168A334001E0968AB5
:104C900033400C12012606FA04F41688344013B18E
:104CA0000CB1012000E0002070BDF0B503460024E7
:104CB00000260025002040F66A17B94200D100BF47
:104CC0001846C1F3421401F01F06012707FA06F542
:104CD000012C01D10C3004E0022C01D1103000E095
:104CE00014301AB107682F43076002E00768AF432A
:104CF0000760F0BD2DE9FF4705460E460024A1469A
:104D000000BFA046B08900B100BF2C8A24F44054F3
:104D1000F08804432C82AC8941F20C608443B08853
:104D200031890843718908430443AC81AC8A24F477
:104D30004074B0890443AC826846FEF7C3FD204846
:104D4000854202D01F48854202D1DDF80C9001E077
:104D5000DDF80890A88900F4004040B109EBC900D3
:104D600000EB091031684900B0FBF1F707E009EBEF
:104D7000C90000EB091031688900B0FBF1F764202D
:104D8000B7FBF0F004012009642101FB1078A88929
:104D900000F4004040B1322000EBC800B0FBF1F05D
:104DA00000F00700044308E0322000EB0810642103
:104DB000B0FBF1F000F00F0004432C81BDE8FF8749
:104DC000001001400014014001468888C0F308002B
:104DD0007047C1F308028280704700BFFEE7000001
:104DE00070B505460C4600260DB1022C01D80020F6
:104DF00070BDA11E094802882846FDF737FA06460D
:104E0000F1B2A01E285C814206D1601E285CB0EB86
:104E1000162F01D10120EBE70020E9E73201002045
:104E200070B505460C4600260DB1022C01DC0020B1
:104E300070BD601E81B2FF222846FDF731FA06469A
:104E4000601E285CB04201D10120F1E70020EFE7AD
:104E50004100080218BF04200A0E18BF40F00100EC
:104E60004FF07F4232EA010108BF40F00200012802
:104E700008BF05207047000010B510EE100A2DED98
:104E8000068BB7EE001A10EE901AB0EE418A00229F
:104E9000A0F5000CDFEDFE9A4FF00073BCF1FE4F61
:104EA0004FF07F4403EB410C80F0B481BCF1804FA4
:104EB000C0F02082F74901449FEDF73AB1F5005F59
:104EC00040F2D48200F58021CB0C03F00F0101EEFB
:104ED000901AC3F307137F3BA0EBC350B8EEE12A4F
:104EE00000EE100A1A44DFEDED2AF0EE411A42EE10
:104EF000221AF0EE613A70EE232A30EE632A12EEA7
:104F0000900A00F500606FF30B0001EE900A73EE5B
:104F1000E13A33EE804AC1EE223A22EE230A10EE45
:104F2000100A00F500606FF30B0000EE100A00EEAF
:104F3000612A00EE442A62EE232A70EE221A21EE44
:104F4000A12ADFEDD73A02EE233A23EE023A20EE11
:104F5000012A22EE811A03EE211A32EE010A10EE26
:104F6000100A00F500606FF30B0000EE100A72EEFD
:104F7000401A31EE812A9FEDCB1A60EE011A9FEDA7
:104F8000CA1A20EE011A9FEDC90A02EE001A31EE8C
:104F9000810A10EE100A00F500606FF30B0000EEBE
:104FA000100AC34871EEC01A31EE812A784400EB32
:104FB000C10090ED003AD0ED011A100101EE100A87
:104FC000F8EEC12A32EE211A31EE001A31EE031A40
:104FD00031EE221A11EE100A00F500606FF30B009B
:104FE00009EE100A39EE621A31EE431A31EE400A28
:104FF00030EE610A32EE40AA10EE900A002100F570
:1050000000606FF30B0008EE900A084670EEE8AA05
:1050100004F0E0FD29EE280A00F00C01F0EEC00AD1
:1050200010EE900AB0F18B4F0DDD10EE900AB4EB4C
:10503000400F08D310EE100A4FF08B4262F31E00AF
:1050400008EE900A13E069EE2A0A38EEAA1A4AEE30
:10505000010A30EE201A11EE100A00F500606FF31D
:105060000B0008EE900A30EE680A70EE209A0C20D1
:1050700004F0B0FD38EEA90AB5EEC00AF1EE10FA60
:1050800034BFFEEE000AF6EE000A30EE800ABDEEF6
:10509000C00A10EE100A011100EE101AF8EEC00A54
:1050A00000EE100AB8EEC00A38EEC00A30EE290A47
:1050B000DFED801A9FED801A00EE211ADFED7F1AD6
:1050C0007F4900F00F0040EE011A21EE800A79447A
:1050D00001EB800191ED001A7A49794401EB8001DE
:1050E000D1ED001A784901EE801A794401EB800075
:1050F000764990ED000A31EE001AB0EEE00A10EEAB
:10510000100A884215DA10EE100AB4EB400F10D3E3
:105110009FED6F0A30EE800ADFED6E0A20EE200A66
:1051200068EE010ABDEC068BBCEEC00A20EE200A38
:1051300010BD10EE100A6849884243DA10EE100ADA
:10514000B4EB400F3ED3BDEEE00A68EE010A10EE6C
:10515000100A00EBD0725110C90501F17E5100EE2A
:10516000101AA0EB6200C00560EE200A00F17E502C
:1051700000EE100A60EE808A18EE900AB4EB400F41
:105180000FD10220FBF76DFA00F0FCF910EE101AB7
:1051900018EE100ABDEC068B61F31E0000EE100A3B
:1051A00010BD18EE900A400011D018EE900AFFF7DB
:1051B0004FFE042808BF00F0EDF9B0EE680ABDEC20
:1051C000068B10BDF5EEC00AF1EE10FA0FD20220E8
:1051D000FBF747FA00F0DEF910EE101A18EE100A8D
:1051E000BDEC068B61F31E0000EE100A10BD02201C
:1051F000FBF737FA00F0C6F910EE101AB0EE480AC5
:1052000010EE100ABDEC068B61F31E0000EE100AD2
:1052100010BD00BFBCF1804F6CD300BF00F1FF4355
:10522000B3F1FE4F24D200BFB0EEC00A10EE100A58
:10523000C1F3C7537F2B0DDB972BBFF63BAEC3F1FA
:1052400096034FF0010C0CFA03F3A3F1010C1CEAD6
:10525000010F08D00120FBF704FABDEC068BBDE876
:10526000104000F087B90B4218BFBFEE008A21E65C
:1052700043001CBF4FF08073B3EB400F34D96FF085
:105280001A02DFED161A20EE210A10EE100A27E0AE
:1052900000000000001080C0ABAAAA3E0000803DC4
:1052A0007EE24C3E00B03842D49AB8BB3BAA3842AA
:1052B00090580000FC596337C9FF753A1872313DA8
:1052C0002E58000062580000D25700000000FC4237
:1052D0000000FE420000004B000040430000004D73
:1052E00010F0004FA0D1E5E5A0F50003B3F1FE4FAB
:1052F00021D2DFE503EB4103B3F1007F11D3F5EEDB
:10530000C00AF1EE10FA05D1430018BFB4EB400F0C
:1053100076D883E701F0004141F0FC5100EE901A8D
:105320007CE7B3F1807F06D210EE903AA3F500033C
:1053300000EE903A72E720F000426FF0FF4C604CB4
:1053400002EB0C03A34210D321F000439C44A4457C
:105350000BD3B0F17E5F18BF5FEA410C50D0B2F1C1
:10536000FF4F98BFB3F1FF4F05D9BDEC068BBDE8E9
:10537000104000F0FBB8B0F1FF4F0FD0C1F3C7529F
:105380007F2A09DB972A11DAC2F19602012303FA78
:1053900002F2531E0B4205D0002208E011F0004F2C
:1053A00055D128E00A4218BF012200D1022210F58F
:1053B000000F13D028B3B0F1004F26D010F1814F69
:1053C0004FD04FF0FE42B2EB400F94BF01200020BF
:1053D000012202EBE171884239D10CE011F0004F5B
:1053E00002D0012A38D032E0012A02BF9FED350AEF
:1053F000BDEC068B10BD9FED340ABDEC068B10BDD5
:105400002FE011F0004F0CD121E0B1F1FF4F1ED081
:1054100011F5000F05D011F0004F15D00AB1012A87
:1054200008D00220FBF71DF9BDEC068BBDE810404B
:1054300000F092B80220FBF714F900F08DF8BDECF3
:10544000068BB1EE400A10BD0AB1012A04D0B0EEBD
:10545000690ABDEC068B10BDBDEC068B9FED1B0AE7
:1054600010BDBDEC068BB7EE000A10BD30EE410A50
:10547000B5EE001A9FED172A00EE413AB6EE001A7B
:1054800060EE001A00EE431A61EEC11A9FED101A89
:1054900020EE011A20EE020A9FED0F2A01EE820A89
:1054A00071EE001A11EE900A00F500606FF30B0028
:1054B00009EE100A31EE491A31EE00AA9CE500000F
:1054C000FFFF3F00000080FF0000807F00000080A1
:1054D00000B0B841D49A38BB3BAAB84100B52DED15
:1054E000048BB0EE409AF0EE609A83B051EC190B49
:1054F00003F05AFF41EC180B18EE100A18EE901A40
:105500008DED008B002818BF0120084320F00040DB
:10551000C0F17F6000F1E040C00F14D019EE101A06
:1055200019EE900A8DED009B002918BF0121084358
:1055300020F00040C0F17F6000F1E040C00F04BFE8
:105540000120FBF78EF8B0EE480A03B0F0EE680ACF
:10555000BDEC048B00BD0000DFED030AB7EE001ABE
:1055600081EE200A704700000000000030EE200AA3
:1055700070470000DFED020A80EEA00A70470000CD
:10558000000000009FED020A20EE000A70470000B4
:10559000000000709FED020A20EE000A7047000034
:1055A0000000001010B5A5201E4908706F20A1F85A
:1055B00001000020C8701C480A6802600979017166
:1055C0000521FBF77DF940F201301649A1F80500ED
:1055D0004FF48270A1F80700144801781148A0F830
:1055E00009104FF4B471A0F80B100A21104800689C
:1055F00000F040F90B48B0F80100821C0949491D30
:105600000948401DFAF75DFF78210748FBF740F98C
:10561000002404E00449085DFFF77EF9641C782C3F
:10562000F8D310BD5817002018160020A31500202D
:105630009C07002010B5A5201E4908705120A1F834
:1056400001000020C8701C480A68026009790171D5
:105650000521FBF735F940F201301649A1F80500A4
:1056600040F20310A1F80700144801781148A0F88F
:1056700009104FF4B471A0F80B100A21104800680B
:1056800000F0E8F90B48B0F80100821C0949491DF7
:105690000948401DFAF715FF5A210748FBF7F8F8AB
:1056A000002404E00449085DFFF736F9641C5A2C15
:1056B000F8D310BDA01A002018160020A315002052
:1056C0009C07002010B5A5201E4908706F20A1F886
:1056D00001000020C8701C480A6802600979017145
:1056E0000521FBF7EDF840F201301649A1F805005D
:1056F0004FF48270A1F80700144801781148A0F80F
:1057000009104FF4B471A0F80B100A21104800687A
:1057100000F05CFA0B48B0F80100821C0949491DF1
:105720000948401DFAF7CDFE78210748FBF7B0F88D
:10573000002404E00449085DFFF7EEF8641C782CAF
:10574000F8D310BDD017002018160020A315002094
:105750009C07002010B5A5201E4908706F20A1F8F5
:1057600001000020C8701C480A68026009790171B4
:105770000521FBF7A5F840F201301649A1F8050014
:105780004FF48270A1F80700144801781148A0F87E
:1057900009104FF4B471A0F80B100A2110480068EA
:1057A00000F002FB0B48B0F80100821C0949491DBA
:1057B0000948401DFAF785FE78210748FBF768F88D
:1057C000002404E00449085DFFF7A6F8641C782C67
:1057D000F8D310BD4818002018160020A31500208B
:1057E0009C07002010B5A5201E4908706F20A1F865
:1057F00001000020C8701C480A6802600979017124
:105800000521FBF75DF840F201301649A1F80500CB
:105810004FF48270A1F80700144801781148A0F8ED
:1058200009104FF4B471A0F80B100A211048006859
:1058300000F0B8FB0B48B0F80100821C0949491D73
:105840000948401DFAF73DFE78210748FBF720F88C
:10585000002404E00449085DFFF75EF8641C782C1E
:10586000F8D310BDC018002018160020A315002082
:105870009C07002070B58AB004460D4640F23A21DC
:1058800005F570700022CDE90612CDE90801C5F5D5
:10589000707001210292CDE9032105900846032191
:1058A00013460122CDE9001062A16348FCF7E6FB34
:1058B00004F23A2105F5707200230846CDE907325B
:1058C00009910690C5F5707001210293CDE903316D
:1058D0000590084603210122CDE9001057A1564842
:1058E0000F30FCF7CBFB40F23A2000EB440105F50A
:1058F0007070002340F23A2202EB4402CDE9062305
:10590000CDE90801C5F5707001210293CDE903319D
:105910000590084603210122CDE9001048A1464820
:105920001E30FCF7ABFB04EB440000F23A2105F516
:105930007072002304EB440000F23A20CDE90732F4
:1059400009910690C5F5707001210293CDE90331EC
:105950000590084603210122CDE9001039A13648FF
:105960002D30FCF78BFB40F23A2000EB840105F56B
:105970007070002340F23A2202EB8402CDE9062344
:10598000CDE90801C5F5707001210293CDE903311D
:105990000590084603210122CDE900102AA12648DE
:1059A0003C30FCF76BFB04EB840000F23A2105F578
:1059B0007072002304EB840000F23A20CDE9073234
:1059C00009910690C5F5707001210293CDE903316C
:1059D0000590084603210122CDE900101BA11648BD
:1059E0004B30FCF74BFB04EB440040F23A2101EB57
:1059F000400105F57070002304EB440240F23A26A2
:105A000006EB4202CDE90623CDE90801C5F5707029
:105A100001210293CDE903310590084603210122BB
:105A2000CDE900100AA104485A30FCF727FB0AB060
:105A300070BD000041483100651700204148320028
:105A40004148330041483400414835004148360060
:105A50004148370030B58AB004460D4604EB440097
:105A600000EB0410C0F5FF7105F2DE30002304EBFB
:105A7000440202EB0412C2F5FF72CDE90623CDE920
:105A80000801C5F570701E3801210293CDE903317C
:105A90000590084604210122CDE9001045A14648A1
:105AA000FCF7ECFAC4EB0410C0F5FF7105F57A7051
:105AB0000023C4EB0412C2F5FF72CDE90623CDE941
:105AC0000801C5F5667001210293CDE90331059007
:105AD000084604210122CDE9001038A136480F30D4
