:020000040800F2
:100000001867012061020008690200086B020008FD
:100010006D0200086F020008710200080000000075
:10002000000000000000000000000000A101000826
:100030007502000800000000FD010008B14300083F
:100040007B0200087B0200087B0200087B0200089C
:100050007B0200087B0200087B0200087B0200088C
:100060007B020008211F00082B1F00087B020008EC
:100070007B0200087B0200087B0200087B0200086C
:100080007B0200087B0200087B0200087B0200085C
:10009000911200087B0200087B020008351F00084F
:1000A0007B0200087B0200087B0200087B0200083C
:1000B0007B0200087B0200087B0200087B0200082C
:1000C0007B0200087B0200087B0200087B0200081C
:1000D0007B0200087B0200087B020008494B0008F5
:1000E0007B0200087B0200087B0200087B020008FC
:1000F0007B0200087B0200087B0200087B020008EC
:100100007B0200087B0200087B0200087B020008DB
:100110007B0200087B0200087B0200087B020008CB
:100120007B0200087B0200087B0200087B020008BB
:100130007B0200087B0200087B0200087B020008AB
:10014000F51300087B0200087B0200087B02000810
:100150007B0200083D1B00086D1B0008354C0008A1
:100160007B0200087B0200087B0200087B0200087B
:100170007B0200087B0200087B02000800000000F0
:100180007B0200087B020008DFF810D000F04EFB75
:100190000048004755680008AFF300801867012049
:1001A0002C4B19680868B0E8F04F80F30988BFF35A
:1001B0006F8F4FF0000080F311887047000000003F
:1001C00008480068006880F308884FF0000080F35A
:1001D000148862B661B6BFF34F8FBFF36F8F00DF35
:1001E00000BF00BF08ED00E0DFF80C00016841F43B
:1001F00070010160704700BF88ED00E0EFF30980F7
:10020000BFF36F8F134B1A681EF0100F08BF20ED5D
:10021000108A20E9F04F106009B44FF0500080F3CD
:100220001188BFF34F8FBFF36F8F08F07BF84FF04B
:10023000000080F3118809BC19680868B0E8F04F25
:100240001EF0100F08BFB0EC108A80F30988BFF3CE
:100250006F8F7047F00A0020EFF3058070470000B1
:100260000648804706480047FEE7FEE7FEE7FEE750
:10027000FEE7FEE7FEE7FEE7FEE7FEE7E5430008F0
:10028000890100089FED1A1AF5EE000A40EE010AF6
:10029000BDEEE00AF5EEC00A10EE100AF1EE10FA1B
:1002A00038BF401E00EE100A1349F7EE001AB8EEF0
:1002B000C00A30EEC00ADFED0F0A20EE200AFCEE85
:1002C000C00A10EE900AC0F3080000EE900A01EB9D
:1002D0008000F8EE600A90ED011A70EE600A90ED71
:1002E000000A71EEE01A21EE800A00EE810A7047E2
:1002F00083F9223E0000004458920008DFED190AFD
:10030000B5EEC00A60EE200ABDEEE01A11EE100A4A
:10031000F1EE10FA38BF401E00EE100A1349F7EE56
:10032000001AB8EEC00A30EEC00ADFED0F0A60EE28
:10033000200ABCEEE00A10EE100AC0F3080000EE3E
:10034000100A01EB8000B8EE400A90ED011A70EE41
:10035000C00A90ED000A71EEE01A21EE800A00EE6C
:10036000810A704783F9223E000000445892000839
:1003700040EA01039B0703D009E008C9121F08C027
:10038000042AFAD203E011F8013B00F8013B521EA7
:10039000F9D27047D2B201E000F8012B491EFBD21E
:1003A00070470022F6E710B513460A460446194680
:1003B000FFF7F0FF204610BD2DE9FE4F804681EA91
:1003C0000300C00F0C46009021F0004123F00045CF
:1003D000B8EB0200A94105D24046214690461C4692
:1003E0000B46024623F00040104347D0270DC7F3C9
:1003F0000A00C3F30A510290401A019040286BDAB8
:10040000C3F3130040F4801B0098924620B10023F0
:10041000D2EB030A63EB0B0B01985946C0F1400283
:10042000504600F03DF906460D4650465946019AA1
:1004300000F055F910EB08006141002487EA1152E1
:1004400084EAE7731A4340D0009A62B3019A012A02
:100450004FEA075215DC001B61EB02014FF000422E
:1004600002EA0752CDE90042001C41F580113246F4
:100470002B4600F08CF903B0BDE8F08F40462146D2
:10048000F9E7001B61EB0201001C41F58013001825
:100490005B412018A2F5001747EB030140EAD57035
:1004A000B6196D4111E06D084FEA360645EAC07590
:1004B0004FEA0752001B61EB0201001C41F580115D
:1004C00049084FEA30000019514132462B4603B02B
:1004D000BDE8F04F00F04CB9009801224000002325
:1004E000D0EB020263EBE073009821464FEAE07420
:1004F000B8EB000061EB0401E9E783F000435BE740
:1005000081F0004158E72DE9FE4F81EA030404F031
:10051000004421F0004100944FF0000B23F0004311
:1005200050EA01045ED052EA03045BD0C3F30A54DC
:10053000C1F30A552C44A4F2F3340194A0FB0254F5
:10054000C1F3130141F48011C3F3130343F4801387
:1005500001FB024400FB034E840A970A44EA8154DB
:1005600047EA8357A4FB076802958D0A05FB0785B8
:100570004FEA932C04FB0C542705029D4FEA0658C2
:1005800047EA1637B5EB08056EEB070C870E920E9F
:1005900047EA811742EA8312A7FB0201B6EB0B017F
:1005A00064EB00042B0D43EA0C335E1844EB1C5043
:1005B000DA465146E7FB0201C5F313044FEA0B3359
:1005C00043EA14534FEA0432019C43EA0603A4F1C0
:1005D0000C040294009CCDE900B400F0D8F803B0FC
:1005E000BDE8F08F00200146F9E70EB540F2334137
:1005F00002910021CDE900110A460B4600F0C7F830
:1006000003B000BD70B5C1F30A5201F000450024EB
:10061000C1F3130140F2FF3341F480119A4201DA31
:10062000002070BD40F233439A42A2F2334203DC11
:10063000524200F044F800E090402C43F1D0404298
:1006400070BD00F0004230F000400AD0C10D01F54D
:100650006071C0F3160042EA0151C208400711431D
:10066000704700200146704701F0004330B421F08C
:10067000004150EA010206D00A0DA2F56072C1F3F2
:100680001301002A02DC30BC00207047440F44EA0A
:10069000C104C100E01830BC00EBC25000F031B81A
:1006A000202A04DB203A00FA02F100207047914032
:1006B000C2F1200320FA03F3194390407047202A27
:1006C00004DB203A21FA02F00021704721FA02F3FC
:1006D000D040C2F120029140084319467047202AB9
:1006E00006DBCB17203A41FA02F043EAE07306E05A
:1006F00041FA02F3D040C2F120029140084319466A
:1007000070470029A8BF7047401C490008BF20F06F
:100710000100704710B4B0FA80FC00FA0CF050EA07
:10072000010404BF10BC704749B1CCF1200421FA88
:1007300004F411FA0CF118BF012121430843A3EB83
:100740000C01CB1D4FEA00614FEA102042BF002090
:1007500010BC704700EBC35010440029A4BF10BC6C
:100760007047401C490008BF20F0010010BC7047D2
:1007700010B5141E73F1000408DA401C41F10001A9
:1007800092185B411A4301D120F0010010BD2DE900
:10079000F04D92469B4611B1B1FA81F202E0B0FAF7
:1007A00080F220329046FFF77BFF04460F4640EA76
:1007B0000A0041EA0B0153465A46084313D011463A
:1007C00053EA010019D0C8F140025046FFF777FF05
:1007D00005460E46504659464246FFF761FF08431C
:1007E00005D0012004E020463946BDE8F08D002008
:1007F000054346EAE0762C4337430A986305E40A4A
:10080000A0EB08000022FD0A44EA47540A3002D552
:1008100000200146E9E7010510196941DDE90845B5
:1008200000196941BDE8F04DA2E70000064C074DF4
:1008300006E0E06840F0010394E8070098471034B0
:10084000AC42F6D3FFF7A4FC5C9A00087C9A00083F
:1008500070B58C1810F8015B15F0070301D110F882
:10086000013B2A1106D110F8012B03E010F8016BAF
:1008700001F8016B5B1EF9D12B0705D40023521E32
:100880000DD401F8013BFAE710F8013BCB1A921C9A
:1008900003E013F8015B01F8015B521EF9D5A14298
:1008A000D8D3002070BD10B52DED028BB0EE408A7C
:1008B000B0EE480A04F06EFCBDEC028B10BD10B522
:1008C0002DED028BB0EE408AF0EE608AF0EE680A01
:1008D000B0EE480A04F0F4FCBDEC028B10BD10B57C
:1008E0002DED028BB0EE408AB0EE480AFFF7CAFC4D
:1008F000BDEC028B10BDF0EE400AF5EEC00AF1EE41
:1009000010FA02DDB0EE600A7047B1EE600AFBE754
:1009100018B19FED020A80ED000A70470000000048
:1009200018B1B3EE060A80ED000A704770B52DEDE0
:100930000C8B84B006460C4615469FED990AF0EEE6
:10094000408A9FED970AB0EE409A9FED950AF0EE2F
:1009500040BA9FED930AF0EE409A9FED910AB0EEF7
:1009600040AA0EB104B11DB904B0BDEC0C8B70BD32
:100970008C48FFF7CDFF8C48FFF7D2FF8A48D0EDB7
:10098000000A9FED8A1A60EE810AB0EE600A00F05C
:100990002DF9F0EE408A28EEA80AF0EE408A82484F
:1009A000D0ED000AB0EE001A60EE810A9FED7F1ACA
:1009B00060EE810AB0EE600A00F018F9B0EE409ADD
:1009C00029EE090AB0EE409ADFED790AB7EE000A87
:1009D00000EEA80ADFED770A00EEC90ADFED760A1D
:1009E00020EE200A754880ED000A6E4890ED000A5E
:1009F000DFED730A80EE201AB7EE000A31EE000A2E
:100A000020EE000A6D48D0ED000A80EE801A6D4895
:100A100080ED001A94ED000AB5EEC00AF1EE10FA6E
:100A20000DD194ED010AB5EEC00AF1EE10FA06D12F
:100A300094ED020AB5EEC00AF1EE10FA46D09FED31
:100A4000580AB0EE408A0020019002900390D4ED45
:100A5000000A60EEA00A94ED011AD4ED011A41EEED
:100A6000210A94ED021AD4ED021A41EE210AB0EEE9
:100A7000600A00F0A9F8B0EE408A94ED000A20EE7A
:100A8000080A8DED010A94ED010A20EE080A8DEDA9
:100A9000020A94ED020A20EE080A8DED030ADDED4C
:100AA000010AF1EE600AB0EE600AFFF7FCFEF0EE1C
:100AB000409A9DED031AF0EE410A9DED021AB0EE48
:100AC000410AFFF7FCFEB0EE40AA07E09FED340AB2
:100AD000F0EE409A9FED320AB0EE40AA95ED000A82
:100AE000B5EEC00AF1EE10FA0DD195ED010AB5EEA2
:100AF000C00AF1EE10FA06D195ED020AB5EEC00A71
:100B0000F1EE10FA3CD0B0EE690A00F06FF8B0EEEA
:100B1000408AB0EE690AFFF7E2FEB0EE40DAB0EECE
:100B20004A0A00F063F8F0EE40AAB0EE4A0AFFF776
:100B3000D6FEB0EE40BA28EE2A0AD5ED010A20EE24
:100B4000200AD5ED000A0DEE200A68EE0B0A95ED9D
:100B5000021A00EE810AB0EE40CA95ED010A20EEBD
:100B60000B0AD5ED020A0AEEE00AF0EE40CAF0EEFA
:100B70006C0AB0EE4C0AFFF7A2FEF0EE40BA03E0BA
:100B80009FED070AF0EE40BAB0EE4A1AF0EE690A9D
:100B9000B0EE6B0A304604F0E1FE00BFE4E6000070
:100BA00000000000400B0020440B002035FA8E3C72
:100BB000C1BFAD3B9DF8C5362F7C1C41480B0020C2
:100BC000506CC24A4C0B002010B52DED028BB0EEDC
:100BD000408AB0EE480A04F0C9FCB7EE001AC1EE34
:100BE000000AB0EE600ABDEC028B10BD10B52DED11
:100BF000028BB0EE408AB0EE480AFFF77FFBBDECF7
:100C0000028B10BD2DE9F0412DED028B9AB0054607
:100C1000B0EE408A0E46174698460020179018906E
:100C200019901490159016904DB146B13FB1B8F19E
:100C3000000F04D0B5EEC08AF1EE10FA05D1002005
:100C40001AB0BDEC028BBDE8F08196ED000A8DED87
:100C5000170A96ED010A8DED180A96ED020A8DED40
:100C6000190A97ED000A8DED140A97ED010A8DED32
:100C7000150A97ED020A8DED160A17AA14A928463F
:100C800004F0BEFC402104A8FFF78BFB002000907D
:100C9000019002900390002417A904A806F0EAFF2F
:100CA00000BF30E004A800EB041090ED000AD5ED81
:100CB000000A20EE200A04A800EB0410D0ED010A7F
:100CC00095ED011A00EE810A04A800EB0410D0EDA6
:100CD000020A95ED021A00EE810A04A800EB041046
:100CE000D0ED030A95ED031A00EE810A20EE080A02
:100CF000F0EE000A80EE201A684600EB840080EDDA
:100D0000001A601CC4B2042CCCDB002410E005EBFC
:100D1000840090ED000A684600EB8400D0ED000AE4
:100D200030EE200A05EB840080ED000A601CC4B29E
:100D3000042CECDB284606F041FB012080E7000094
:100D400010B5DFED070AB7EE000A064801F0F4FF20
:100D5000DFED030AB7EE000A034801F0EDFF10BD16
:100D600000007042241800205418002010B51021F3
:100D7000014801F024FA10BD0000024010B5102116
:100D8000014801F01AFA10BD0000024010B501211F
:100D9000014801F014FA10BD0004024010B5012111
:100DA000014801F00AFA10BD000402400220074980
:100DB0008882C8826FF005000883022048836FF0A4
:100DC00005008883801CC8837047000090190020AC
:100DD00010B5044603E04FF47A7000F006F8201EC8
:100DE000A4F101018CB2F6D110BD70B5034600BF6D
:100DF00000BF0020002200BF4FF0E0267569A82642
:100E000003FB06F44FF0E026B16910E04FF0E02656
:100E1000B06988420BD0884202D20E1A324402E0F6
:100E20002E1A0E4432440146A24200D300E0EDE700
:100E300000BF70BD10B5002404F046FE044304F06A
:100E4000D7FE0443052004F097FFFFF7AFFF2046CD
:100E500010BD00002DE9FC4105460E461746002056
:100E600000900190FFF78AFF922000F00EF9062211
:100E70006946122000F0EAF8FFF778FF9DF80100BC
:100E8000000200B29DF8001040EA01046C480480A2
:100E90009DF80300000200B29DF8021040EA010430
:100EA000674844809DF80500000200B29DF80410D8
:100EB00040EA010462488480FFF770FF0822694617
:100EC000002000F0C3F8FFF761FF9DF800000F2835
:100ED00029D19DF80300000200B29DF8021040EAFB
:100EE00001045748408B201A00B25549C8819DF82B
:100EF0000500000200B29DF8041040EA01045048C9
:100F0000808B201A00B24E4908829DF8070000022B
:100F100000B29DF8061040EA01044948C08B201A2F
:100F200000B247494882FFF729FFA22000F0ADF840
:100F300002226946222000F089F8FFF717FF9DF88A
:100F40000000C0009DF8011040EA6114B4F5806F04
:100F500002DBA4F5006004B23948B0F912000028A1
:100F600003DD3748B0F9120003E03548B0F912004C
:100F70004042142802DA00203149488200EE104A2B
:100F8000F8EEC00AB4EE001AB3EE070A00EE810ACA
:100F900087ED000A2A48B0F9000000EE100AB8EE0A
:100FA000C00A2848D0ED000A20EE200A86ED000A8B
:100FB0002348B0F9020000EE100AB8EEC00A21483A
:100FC000D0ED000A20EE200A86ED010A1C48B0F997
:100FD000040000EE100AB8EEC00A1A48D0ED000A6C
:100FE00020EE200A86ED020A1548B0F90E0000EE48
:100FF000100AB8EEC00A1448D0ED000A20EE200A0C
:1010000085ED000A0E48B0F9100000EE100AB8EEA7
:10101000C00A0D48D0ED000A20EE200A85ED010A35
:101020000748B0F9120000EE100AB8EEC00A0648F0
:10103000D0ED000A20EE200A85ED020ABDE8FC8111
:1010400090190020B8060020BC06002070B50646A6
:101050000C46154646F0800000F017F806E05520D3
:1010600000F013F82070641C681EC5B2002DF6D184
:1010700070BD70B504460D4644F0800000F005F8E0
:10108000552000F002F8287070BD70B50446204667
:1010900002F0D0FF0546284670BD70B505460C46E7
:1010A0002846FFF7F2FF2046FFF7EFFF70BD000074
:1010B00000B58BB00121042002F07AFC0121082048
:1010C00002F066FC02220E21214801F053F84FF491
:1010D0008040099002208DF8280000208DF82A0019
:1010E00003208DF8290009A9194800F0FBFF5320BF
:1010F000ADF818000020ADF81A0040F25720079014
:101100000020ADF8200006A9124803F08BFB002058
:1011100003906020ADF804000120ADF80600002027
:10112000ADF8100001A90B4803F020FB0821094885
:1011300003F06CFB0121074803F0A8FA01210548E0
:1011400003F0BCFA0121034803F0ACFA0BB000BD78
:10115000000C02400008004010B505F025FA02F02E
:10116000FFFE4FF4E12006F0F5FB4FF4E13006F00E
:10117000DDFC06F099F9FFF79BFF03F01FFA00F082
:1011800003F800F0B5F810BD00B58BB001210820C0
:1011900002F0FEFB0121480602F00AFC00214FF09C
:1011A000007002F015FC0320099002208DF8280041
:1011B00000208DF82A0003208DF8290001208DF8E9
:1011C0002B0009A9304800F08DFF092200212E488C
:1011D00000F0D0FF092201212B4800F0CBFF0020B6
:1011E0008DF81E0001208DF81F0000208DF82000D2
:1011F00001208DF8210000208DF822008DF82300B9
:101200008DF81A008DF81B0002208DF81C008DF857
:101210001D000620ADF8180006A91C4800F0A1F931
:1012200000208DF812008DF8130001208DF81400B5
:101230000020ADF80800ADF80A00ADF80C00ADF8DC
:101240000E00ADF8100001208DF8150002A800F086
:10125000FBF8012202210D4800F07AF90122114623
:101260000A4800F075F914208DF8040000208DF86C
:1012700005008DF8060001208DF8070001A802F096
:101280002DF80BB000BD0000000C024000640040CF
:1012900010B5124A0021124800F0EDF9114A0F4929
:1012A0000F4804F041FE0F4AB4320C490C4804F0D8
:1012B0003BFE0D4A09490A4804F036FE0A4AB43298
:1012C0000649074804F030FE0849054800F04BFA8B
:1012D00006491431024800F046FA10BD08170020F4
:1012E00000640040A0070020080900202406002018
:1012F00000B58BB00121022002F04AFB01218806D3
:1013000002F056FB0121880602F062FB00214FF03B
:10131000806002F05DFB6020099002208DF82800BB
:1013200000208DF82A0003208DF8290001208DF877
:101330002B0009A92D4800F0D5FE092205212B48D4
:1013400000F018FF09220621284800F013FF0020B2
:101350008DF81E0001208DF81F0000208DF8200060
:101360008DF821008DF822008DF823008DF81A00E9
:101370008DF81B0002208DF81C008DF81D00062042
:10138000ADF8180006A91A4800F0EBF80E208DF809
:10139000120000208DF8130001208DF814000020A9
:1013A000ADF80800ADF80A00ADF80C00ADF80E007D
:1013B000ADF8100001208DF8150002A800F044F8E7
:1013C000012202210A4800F0C3F840208DF80400F1
:1013D00001208DF8050000208DF8060001208DF811
:1013E000070001A801F07AFF0BB000BD0004024025
:1013F0000068004010B50F4A00210F4800F03BF98B
:101400000E4A0C490C4804F08FFD0A490A4802F0C4
:101410002BFC07F0CBFC0A498969401A322803D219
:101420000849054800F09FF906491439024800F0C0
:101430009AF910BD1C17002000680040EC0600203F
:10144000C01700208806002010B50021837A0122F1
:1014500002FA03F13D4A126842F001023B4B1A6066
:101460003A4A1C3212688A43384B1C331A60027B9A
:10147000CAB9364A0C3212688A43344B0C331A60AC
:101480004288C38842EA0343304A4032847A42F8B1
:1014900034300288838842EA03432C4A4032847AFB
:1014A00002EBC4025360027B012A19D1274A0C3295
:1014B00012680A43254B0C331A604288038842EABB
:1014C0000343224A4032847A42F83430C288838807
:1014D00042EA03431D4A4032847A02EBC40253605D
:1014E000C27A3AB9194A121D12688A43174B1B1D5A
:1014F0001A6006E0154A121D12680A43134B1B1DA1
:101500001A60028932B9114A143212688A430F4BA9
:1015100014331A600289012A06D10C4A1432126867
:101520000A430A4B14331A60427B012A06D1074A48
:101530001C3212680A43054B1C331A60034A1268B6
:1015400022F00102014B1A6010BD0000006600404D
:101550001AB143690B43436102E043698B43436122
:10156000704730B5024600200023146824F00204BE
:101570001460146844F00104146000E05B1C5468BB
:1015800004F001041CB94FF6FF74A342F6D154686D
:1015900004F001040CB900206CE08C79012C04D11A
:1015A000146844F08004146003E0146824F080049C
:1015B0001460CC79012C04D1146844F04004146008
:1015C00003E0146824F0400414600C7A012C04D168
:1015D000146844F02004146003E0146824F020042C
:1015E00014604C7A012C04D1146844F01004146087
:1015F00003E0146824F0100414608C7A012C04D1E8
:10160000146844F00804146003E0146824F008042B
:101610001460CC7A012C04D1146844F004041460E2
:1016200003E0146824F0040414608C78A407CD78D7
:1016300044EA05640D7944EA05444D7944EA0554C9
:101640000D886D1E2C43D461146824F001041460CD
:10165000002300E05B1C546804F001041CB14FF649
:10166000FF74A342F6D1546804F001040CB10020C9
:1016700000E0012030BD10B500F5D87303EB011375
:101680001B6803F004031372137A53B900F5D8737F
:1016900003EB01131B6840F2FF7404EA5353136019
:1016A00009E000F5D87303EB01131B686FF0604489
:1016B00004EAD303536000F5D87303EB01131B68EE
:1016C00003F00203537200F5D87303EB01135B6858
:1016D00003F00F03937200F5D87303EB01135B68FB
:1016E0001B0AD37400F5D87303EB01139B68D37204
:1016F00000F5D87303EB01139B681C0A147300F503
:10170000D87303EB01139B681C0C547300F5D8735A
:1017100003EB01139B681B0E937300F5D87303EB67
:101720000113DB68D37300F5D87303EB0113DB6897
:101730001C0A147400F5D87303EB0113DB681C0C4E
:10174000547400F5D87303EB0113DB681B0E93741C
:1017500021B9C36843F02003C36003E0036943F089
:101760002003036110BD10B502460020936803F00A
:101770008063B3F1806F00D110E0936803F00063E1
:10178000B3F1006F01D1012008E0936803F08053AA
:10179000B3F1805F01D1022000E00420042874D05E
:1017A00002F5C07303EB00131B6803F0010402F59C
:1017B000C07303EB00131C600B7A7BB94B7A0C8867
:1017C00043EA445302F5C07404EB00142468234335
:1017D00002F5C07404EB0014236010E00B7A4C682F
:1017E00043EAC4034C7A234302F5C07404EB0014AB
:1017F0002468234302F5C07404EB001423608B7A41
:1018000003F00F038B7202F5C07303EB00135B68E8
:1018100023F00F0402F5C07303EB00135C6002F5C4
:10182000C07303EB00135B688C7A234302F5C0742A
:1018300004EB001463608B7B1C064B7B44EA03447F
:101840000B7B44EA0323CC7A234302F5C07404EBF8
:101850000014A3608B7C1C064B7C44EA03440B7C85
:1018600044EA0323CC7B234302F5C07404EB001449
:10187000E36002F5C07303EB00131B6843F001043F
:1018800002F5C07303EB00131C6010BD08B525E022
:1018900007F08CFA009012480078C00011490978CE
:1018A00040EA81001049097840EA41000F4909687F
:1018B000012900D100E0002108430D49887001F0A2
:1018C0002DFC10B901F0CEFA10B103200849487080
:1018D00004F008FA0221684606F0A0FBD8E70000F1
:1018E0009803002078030020A50100208801002033
:1018F0002800002008B51DE007F058FA009001F01C
:10190000CDFB40B940F27E410B4802F088FF002039
:101910000A4908700AE001F0C1FB38B140F61F61C6
:10192000054802F07CFF0120044908700221684646
:1019300006F074FBE0E7000000000140780300209F
:1019400008B5F1E007F032FA009078488069009914
:10195000081A322811D97648016A0020884775484C
:10196000D0F8DC1000208847734841690020884780
:101970007148816901208847D2E06C48807A01284B
:1019800004D0022871D0032870D141E06748C07AA2
:10199000012804D0022826D0032836D111E064485B
:1019A000016A002088476348D0F8DC10002088478F
:1019B00061484169002088475F4881690120884764
:1019C00024E05B48016A012088475A48D0F8DC10BF
:1019D0000020884758484169002088475648816957
:1019E0000120884712E05248016A01208847514887
:1019F000D0F8DC10012088474F4841690120884712
:101A00004D4881690120884700E000BF00BF86E0A3
:101A10004648C07A012804D0022828D0032838D1AB
:101A200011E04348016A002088474248D0F8DC10A2
:101A30000020884740484169002088473E48816926
:101A40000120884726E03A48016A01208847394842
:101A5000D0F8DC10002088473748416900208847CB
:101A6000354881690220884714E015E056E0304887
:101A7000016A012088472F48D0F8DC1001208847F0
:101A80002D484169012088472B48816902208847F9
:101A900000E000BF00BF42E02448C07A012804D023
:101AA000022826D0032836D111E02148016A0020FF
:101AB00088472048D0F8DC10002088471E4841693C
:101AC000002088471C4881690220884724E0184884
:101AD000016A012088471748D0F8DC1000208847A9
:101AE00015484169002088471348816903208847C9
:101AF00012E00F48016A012088470E48D0F8DC1038
:101B0000012088470C484169012088470A488169BB
:101B10000320884700E000BF00BF00E000BF00BF17
:101B20000321684606F07AFA0CE70000C01700208F
:101B300044000020A80100202800002010B5094919
:101B4000094800F03DF9012807D10021064800F0BE
:101B500059F80E21044800F0AFF90249024800F09C
:101B600037F810BD00802020A064024010B509495C
:101B7000094800F025F9012807D10021064800F0A6
:101B800041F80621044800F097F90249024800F0A4
:101B90001FF810BD00800028B86402400246094BBF
:101BA0009A4201D2084801E00648103801F000537B
:101BB0001BB1064B0B40C36002E0044B0B4083603B
:101BC0007047000010640240006002407D0F7D0FEE
:101BD0000246094B9A4201D2084801E006481038F3
:101BE00001F000531BB1064B0B40C36002E0044BF5
:101BF0000B408360704700001064024000600240A8
:101C00007D0F7D0F21B1026842F00102026003E006
:101C1000026822F00102026070470000016821F0B2
:101C2000010101600021016041608160C1600161CA
:101C3000212141614A49884204D13D21484A103A54
:101C400091608CE046491831884205D14FF47461A7
:101C5000434A103A916082E041493031884205D1CF
:101C60004FF474113E4A103A916078E03C49483193
:101C7000884205D14FF07461394A103A91606EE0A4
:101C800037496031884204D13649354A103AD1602B
:101C900065E033497831884204D13349304A103AFB
:101CA000D1605CE02E499031884204D12F492C4A02
:101CB000103AD16053E02A49A831884205D14FF04B
:101CC0003D51274A103AD16049E02949884204D160
:101CD0003D21274A083A116041E0254918318842E0
:101CE00005D14FF47461224A083A116037E0204967
:101CF0003031884205D14FF474111D4A083A116001
:101D00002DE01B494831884205D14FF07461184AD3
:101D1000083A116023E016496031884204D1114924
:101D2000134A121F11601AE011497831884204D118
:101D30000D490F4A121F116011E00D499031884280
:101D400004D10A490A4A121F116008E00849A83163
:101D5000884204D14FF03D51054A121F116070476F
:101D6000106002403D000020400F002000003D2098
:101D70001064024021B1026842F48022026003E054
:101D8000026822F480220260704722B1036843F4A3
:101D90000023036003E0036823F400230360016170
:101DA00070470146486880B27047014600200A68C3
:101DB00002F400220AB1012000E000207047000078
:101DC00070B50246002000240025124EB24201D216
:101DD000114B01E00F4B103B104E0E4036B11E264A
:101DE00006EAD124166806EA040502E0566906F000
:101DF000800501F000560EB15C6800E01C68084EDA
:101E0000344004EA010616B10DB1012000E00020C3
:101E100070BD000010640240006002403C0F3C0FA7
:101E20007D0F7D0F10B501F080034BB122B14369E6
:101E300043F08003436103E0436923F0800343617F
:101E400080290BD02AB1036801F01E0423430360EC
:101E500004E0036801F01E04A343036010BD00000A
:101E600010B500220268134B1A40CC680B6823435C
:101E70004C6923438C692343CC6923430C6A234375
:101E80004C6A23438C6A23434C6B23438C6B234360
:101E90001A430260426922F00702D1E90B3423435E
:101EA0001A4342610B6943604B6883608B68C3606F
:101EB00010BD00003F801CF04160704770B50446C3
:101EC000042002F061FA0C48047025464FF47A7041
:101ED00045430120094908804FF0E020006940F0A7
:101EE00002004FF0E021086108464561006940F0BA
:101EF0000100086170BD0000000000200200002009
:101F000010B50548016A022088470448D0F8DC1063
:101F10000220884710BD000044000020A8010020D6
:101F200010B5082000F00CF810BD10B5102000F01E
:101F300007F810BD10B5202000F002F810BD000019
:101F40000149086070470000143C01400179427962
:101F5000914203D000210180417901717047000056
:101F60001CB50648012100238022CDE9001004A100
:101F7000084806F0DBFE06F083F91CBD04000020D3
:101F800053797374656D5F53746172745F546173D8
:101F90006B0000004D44000808B58EE006F006FF17
:101FA000009046480078E0B3012802D002285AD1B8
:101FB0004CE001F01BF9B1EE400ADFED410A20EEE2
:101FC000200A3E480069B0F9000000EE900AF8EEE1
:101FD000E00A9FED3C1A00EEC10A3848D0ED020A33
:101FE00030EE200A80ED020A01F03CF9B1EE400A21
:101FF000DFED350A20EE200A3448007808B90120C8
:1020000000E000202D490969B1F90210484300EEB3
:10201000900AF8EEE00A9FED2E1A00EE810A27489A
:1020200000E006E0D0ED010A30EE200A80ED010A62
:102030001AE0284890ED010A204880ED020A254860
:1020400090ED020A1D4880ED010A0DE0214890ED57
:10205000010A1A4880ED020A1E4890ED020A17484C
:1020600080ED010A00E000BF00BF144890ED020AB5
:10207000194890ED001A30EE410A9FED181A20EE33
:10208000010AF0EE400AB2EE001A154890ED000A7F
:1020900005F0D6F9124880ED000A084890ED020AD2
:1020A0000D4880ED000A04F07FF800F0BDFF00F05D
:1020B00019FF0121684605F0B1FF6FE744000020D9
:1020C0006F12033B52499D394260653BA8010020D5
:1020D00017B7D138741900209401002000007A4409
:1020E00098010020F0B50A4600210023002400BF1B
:1020F0003DE0012505FA01F3156805EA03049C4259
:1021000034D105684F000326BE40B54305601579FC
:102110004E00B5400668354305601579012D02D0A3
:102120001579022D16D185684F000326BE40B543B0
:10213000856055794E00B5408668354385604568B1
:1021400001268E40B5434560456896798E40B6B20B
:1021500035434560C5684F000326BE40B543C560A2
:10216000D5794E00B540C6683543C560491C102975
:10217000BFD3F0BDF0B5002300244D07ED0E02FAE9
:1021800005F3CE1000F1200555F826504E07F70E46
:102190000F26BE40B543CF1000F1200646F8275069
:1021A000CE1000F1200555F8265045EA0304CE1064
:1021B00000F1200545F82640F0BD418370470183BA
:1021C0007047000010B54FF4407001F0C3F8A8202C
:1021D000FFF774FEFEF7C0FFFFF792FEFEF7B0FDBB
:1021E000024801F025FCFFF7BBFE10BD540B002098
:1021F00010B52DED048B0446B0EE408A94ED000A34
:1022000038EE400A84ED010A84ED008A94ED010A5B
:10221000DFED210AB4EEE00AF1EE10FA07D894EDF2
:10222000010ADFED1E0A30EE200A84ED010A94ED6A
:10223000010ADFED1B0AB4EEE00AF1EE10FA07DB4B
:1022400094ED010ADFED150A30EE600A84ED010A13
:1022500094ED010A10EE101A0846FEF7F2F941EC6F
:10226000190B94ED021BB0EE410AF0EE610A53EC3B
:10227000102BFEF7A1F8C4E9020194ED021BB0EEA9
:10228000410AF0EE610A51EC100BFEF7EDF900EE99
:10229000100ABDEC048B10BDDA0F49C0DA0FC9403B
:1022A000DA0F49401CB50120A449087002E06420FF
:1022B00005F086FEFEF7BEFD0028F8D1A04AA2F187
:1022C0000C01101DFEF7C6FDDFED9E0A9FED9E0A74
:1022D0009E4A00219E4801F02BFB9E48984B103BE4
:1022E0009D4A9E4900909E4804F0C8F99A4A9B492D
:1022F0009C48FEF71BFB994890ED000A9A4880ED38
:10230000000A9A4880ED000A994880ED000A934837
:1023100090ED010A944880ED010A944880ED010A8D
:10232000934880ED010A8D4890ED020A8E4880EDB9
:10233000020A8E4880ED020A8D4880ED020A1020C4
:1023400001F0A4FEF8E006F031FD0190894800F0AC
:1023500021F980487A4B103B7F4A804900908048A1
:1023600004F08CF976481038D0ED040AB0EE600A1B
:1023700004F01AFA7D4890ED000A7D4880ED000ACD
:10238000794890ED000A794880ED000A90ED000A46
:102390007948D0ED000A20EE200A7548D0ED000AF9
:1023A000754890ED011A00EE810A6C48D0ED000AE4
:1023B000714890ED021A00EE810A6B4880ED000A28
:1023C0006A4890ED010A6A4880ED010A664890ED7E
:1023D000010A664880ED010A90ED010A6648D0EDD9
:1023E000000A20EE200A6248D0ED010A624890ED12
:1023F000011A00EE810A5948D0ED010A5E4890EDBD
:10240000021A00EE810A584880ED010A574890ED03
:10241000020A574880ED020A534890ED020A5348D9
:1024200080ED020A90ED020A5348D0ED000A20EE3A
:10243000200A4F48D0ED020A4F4890ED011A00EEF5
:10244000810A4648D0ED020A4B4890ED021A00EE90
:10245000810A454880ED020A3F4B024640499FED04
:10246000470A4048FEF7CEFB454B1A1F111F3D4857
:1024700003F0E8FD00203149087041480838D0EDEC
:10248000000AB0EE600A3F48FFF7B2FE3C48083849
:1024900080ED000A90ED000ADFED3B0A20EE200AF5
:1024A000DFED3A0A80EE201A244880ED011A344804
:1024B000083890ED020ADFED340A20EE200ADFED45
:1024C000330A80EE201A1D4880ED021A2C48083885
:1024D00090ED010ADFED2C0A20EE200ADFED2B0A39
:1024E00080EE201A154880ED031A1D4890ED000A71
:1024F000B1EE400ADFED240A20EE200A0F4880EDFD
:10250000050A174890ED010ADFED1F0A20EE200AA8
:102510000A4880ED060A124890ED020ADFED1A0A19
:1025200020EE200A054880ED040A012018490860C1
:10253000012101A805F072FD05E7000074190020D3
:10254000AC0B00200080894500A08C45AC03002026
:10255000D00B0020C00B0020300C0020240C0020E9
:10256000180C00203C0C0020841600207816002057
:102570006C160020780B0020409200086F12833AFE
:10258000540C0020680B002000003443DA0F49404F
:10259000840500202DE9F0472DED068B054600242B
:1025A0009FEDFD0AB0EE408A9FEDFB0AF0EE408AF7
:1025B0009FEDF90AB0EE409A9FEDF70AF0EE409ACF
:1025C0009FEDF50AB0EE40AA9FEDF30AF0EE40AAA7
:1025D000F24AA2F10C01101DFEF73CFC01244DE073
:1025E000EF4800EB840090ED000A601EEC4901EB1F
:1025F000800080ED000A01F5CA7000EB840090EDC8
:10260000000A601E01F5CA7101EB800080ED000A2E
:1026100001F5CA7000EB840090ED000A601E01F520
:10262000CA7101EB800080ED000A01F5CA7000EB71
:10263000840090ED000A601E01F5CA7101EB800074
:1026400080ED000A01F5CA7000EB840090ED000AED
:10265000601E01F5CA7101EB800080ED000A01F5F2
:10266000CA7000EB840090ED000A601E01F5CA718B
:1026700001EB800080ED000A601CC4B2642CAFDB6B
:10268000C648103890ED010AC54880ED630AC3487A
:10269000103890ED020AC24880EDC80ABF481038D1
:1026A00090ED030ABF4880ED630ABC48103890EDF6
:1026B000050ABD4880ED630AB848103890ED060A57
:1026C000BA4880ED630AB548103890ED070AB8485B
:1026D00080ED630A00240CE009F10109B04800EB29
:1026E000840090ED000A30EE080AB0EE408A601CCB
:1026F000C4B2642CF0DB9FEDAF0AC8EE000AA84814
:10270000C0ED640A9FEDA40AB0EE408A00240AE0FE
:10271000A94800EB840090ED000A30EE280AF0EEA4
:10272000408A601CC4B2642CF2DB9FEDA20AC8EEA2
:10273000800A9B48C0EDC90A9FED970AF0EE408AD7
:1027400000240AE0974800EB840090ED000A30EE88
:10275000090AB0EE409A601CC4B2642CF2DB9FED13
:10276000950AC9EE000A8F48C0ED640A9FED8A0AF7
:10277000B0EE409A00240AE08B4800EB840090ED14
:10278000000A30EE290AF0EE409A601CC4B2642CB4
:10279000F2DB9FED880AC9EE800A8348C0ED640A27
:1027A0009FED7D0AF0EE409A00240AE07F4800EB9E
:1027B000840090ED000A30EE0A0AB0EE40AA601CD8
:1027C000C4B2642CF2DB9FED7B0ACAEE000A7748A4
:1027D000C0ED640A9FED700AB0EE40AA00240AE042
:1027E000734800EB840090ED000A30EE2A0AF0EE08
:1027F00040AA601CC4B2642CF2DB9FED6E0ACAEEE4
:10280000800A6B48C0ED640A9FED630AF0EE40AAAF
:10281000634890ED640A694880ED000A604890EDD5
:10282000C90A664880ED010A5E4890ED640A634873
:1028300080ED020A5C4890ED640A604880ED040A6D
:102840005A4890ED640A5D4880ED050A584890EDBD
:10285000640A5A4880ED060A002630E0574890ED99
:10286000040A574800EB8600D0ED000AB4EE600A77
:10287000F1EE10FA08D1524800EB860090ED000A04
:10288000504880ED000A1CE04C4890ED040AB1EE7F
:10289000400A4B4800EB8600D0ED000AB4EE600A17
:1028A000F1EE10FA0AD1464800EB860090ED000ADE
:1028B000B1EE400A434880ED000A02E0761C322E59
:1028C000CCDB00BF002730E03C4890ED050A3C48D7
:1028D00000EB8700D0ED000AB4EE600AF1EE10FACA
:1028E00008D1374800EB870090ED000A364880EDAC
:1028F000000A1CE0314890ED050AB1EE400A30486C
:1029000000EB8700D0ED000AB4EE600AF1EE10FA99
:102910000AD12B4800EB870090ED000AB1EE400A87
:10292000294880ED000A02E07F1C192FCCDB00BF94
:102930004FF000084EE0214890ED060A204800EBD9
:102940008800D0ED000AB4EE600AF1EE10FA08D16A
:102950001B4800EB880090ED000A1C4880ED000A3F
:102960003BE0164890ED060AB1EE400A144800EB31
:102970008800D0ED000AB4EE600AF1EE10FA27D11B
:102980000F4800EB880090ED000AB1EE400A0F48B6
:1029900080ED000A21E0000000000000AC0B0020E8
:1029A000580C0020800F002014110020A8120020D5
:1029B0003C1400200000C842EC0D0020D01500207F
:1029C0004404002030040020340400203804002097
:1029D00008F10108B8F1170FADDB00BF844890ED96
:1029E000000A80ED000A9FED830A80ED020A9FED48
:1029F000820A80ED030A90ED010AD0ED020A30EE62
:102A0000200A80ED010A90ED010AD0ED030A30EEB4
:102A1000200AD0ED010A80EE801A80ED041A774872
:102A200090ED000A7248D0ED000A70EE600A90ED59
:102A3000000A90ED041A01EE200A80ED000A90EDE4
:102A4000040AF7EE000A30EEC00AD0ED010A20EECB
:102A5000200A80ED010A90ED050A80ED050A9FED40
:102A6000650A80ED080A9FED640A80ED070A90ED83
:102A7000060AD0ED080A30EE200A80ED060A90ED35
:102A8000060AD0ED070A30EE200AD0ED060A80EEE5
:102A9000801A80ED091A594890ED010A5448D0ED8A
:102AA000050A70EE600A90ED050A90ED091A01EE34
:102AB000200A80ED050A90ED090AF7EE000A30EED3
:102AC000C00AD0ED060A20EE200A80ED060A90ED3D
:102AD0000A0A80ED0A0A9FED470A80ED0C0A9FED75
:102AE000460A80ED0D0A90ED0B0AD0ED0C0A30EE8F
:102AF000200A80ED0B0A90ED0B0AD0ED0D0A30EEA6
:102B0000200AD0ED0B0A80EE801A80ED0E1A3B48A9
:102B100090ED020A3648D0ED0A0A70EE600A90ED98
:102B20000A0A90ED0E1A01EE200A80ED0A0A90EDD5
:102B30000E0AF7EE000A30EEC00AD0ED0B0A20EEC6
:102B4000200A80ED0B0A90ED000A85ED000A90ED59
:102B5000050A85ED010A90ED0A0A85ED020A27486B
:102B600090ED040A2648D0ED000A30EE600A2348B2
:102B700080ED040A90ED040A85ED030A90ED050A44
:102B80002048D0ED000A30EE600A1C4880ED050AAE
:102B900090ED050A85ED040A90ED060A1A48D0ED7D
:102BA000000A30EE600A154880ED060A90ED060A2C
:102BB00085ED050A95ED000A144880ED000A95EDB3
:102BC000010A80ED010A95ED020A80ED020A95EDF9
:102BD000030A0F4880ED000A95ED040A80ED010A12
:102BE00095ED050A80ED020ABDEC068BBDE8F08785
:102BF00090160020BC74933C83C00A3FD01500207F
:102C0000300400203404002038040020240C00206C
:102C1000180C002000201449D1EDC10AB0EE600A62
:102C2000B5EEC00AF1EE10FA02DDF0EE400A01E066
:102C3000F1EE400A9FED0D1AF4EEC10AF1EE10FA22
:102C400010DD0949B1F9DA12002903DD0649B1F9AD
:102C5000DA1203E00449B1F9DA124942B1F5967F7C
:102C600000DA012070470000EC0600200000FA4363
:102C700000200C49D1EDD40AB0EE600AB5EEC00ACE
:102C8000F1EE10FA02DDF0EE400A01E0F1EE400A4A
:102C90009FED051AF4EEC10AF1EE10FA00DB0120F7
:102CA00070470000EC060020D989DD4170B504466C
:102CB0000E4615460EB1012000E00020607120464E
:102CC000FFF744F9B6B9E07888B12088401C20802D
:102CD0002188681C814203DB0020A070E07029E09D
:102CE0002088A84226DB0420A070E07022E00020AB
:102CF00020801FE0012E1DD1E078022818D0208806
:102D0000401C20802088984203DB0220A070E070E5
:102D100010E02188681C814203DB0120A070E07074
:102D200008E02088A84205DB0320A070E07001E0E5
:102D30000020208070BD00009FED0E1A80ED001A6B
:102D40009FED0C1A80ED051A80ED090AC0ED0A0A04
:102D5000B7EE001A80ED071A9FED061A80ED081AEB
:102D6000B7EE001A80ED0B1A90ED001A80ED011AF3
:102D70007047000000000000F0EE400A90ED070AE6
:102D800090ED001A20EE010A80ED010A90ED090A8B
:102D900090ED071AD0ED051A01EE210A80ED030A25
:102DA00090ED030A90ED0A1A30EE010A90ED031A35
:102DB000C1EE001AC0ED061A90ED010A90ED061A58
:102DC000D0ED011A70EEE11A01EE210A80ED020A3F
:102DD00090ED060AB7EE001A31EE400A90ED031AA4
:102DE00020EE010A80ED040A90ED040A80ED050A48
:102DF00090ED020A80ED000A90ED020A7047000093
:102E000000B51448808AC10B4FF49673052212480E
:102E1000FFF74CFF10485A3890F85C00052815D28F
:102E2000DFE800F003050F0410000FE00EE00B4890
:102E30000078012804D10A49087000200749087069
:102E400004E003E001200549087000BF00BF04480A
:102E5000007800BDC0170020AE170020B206002089
:102E6000B106002000B51B48808AC0F340314FF402
:102E7000967305221848FFF719FF17484E3890F847
:102E80005000052821D2DFE800F003051B041C00D8
:102E90001BE01AE011480078012810D11048007892
:102EA00018B901200E49087006E00D480078012885
:102EB00002D100200A49087000200849087004E087
:102EC00003E001200549087000BF00BF04480078F6
:102ED00000BD0000C0170020A2170020B40600208B
:102EE000B306002000B51748007DC0F3C0114FF4B1
:102EF000967305221448FFF7D9FE13482A3890F834
:102F00002C0005281CD2DFE800F0030819041A0081
:102F100016E001200D49087012E00C4800780128E5
:102F20000BD10B4890ED020ADFED0A0A30EE600A81
:102F300080ED020A00200549087001E000E000BFB2
:102F400000BF00BDC01700207E170020B006002083
:102F5000440000200000B44200B51148817C4FF4C9
:102F6000967305220F48FFF7A1FE0E48603890F8CF
:102F7000620005280FD2DFE800F0030509040A000B
:102F800009E008E001200849087004E003E000209F
:102F90000549087000BF00BF0348007800BD00006D
:102FA000C0170020B4170020A806002000B51A485A
:102FB000C17C4FF4967305221848FFF777FE174837
:102FC000663890F86800052821D2DFE800F0030594
:102FD0001B041C001BE01AE011480078012810D1E6
:102FE0001048007818B901200E49087006E00D4815
:102FF0000078012802D100200A4908700020084901
:10300000087004E003E001200549087000BF00BF1C
:103010000448007800BD0000C0170020BA17002047
:10302000AA060020A906002000B51748007DC0F3BD
:1030300080114FF4967305221448FFF737FE1348AA
:10304000243890F8260005281CD2DFE800F0030899
:1030500019041A0016E001200D49087012E00C480E
:10306000007801280BD10B4890ED020ADFED0A0A27
:1030700030EE200A80ED020A00200549087001E0C8
:1030800000E000BF00BF00BDC0170020781700207F
:10309000AF060020440000200000B44200B51B48E9
:1030A000808AC0F300214FF4967305221848FFF779
:1030B000FDFD1748303890F83200052821D2DFE8AE
:1030C00000F003051B041C001BE01AE01148007807
:1030D000012810D11048007818B901200E49087055
:1030E00006E00D480078012802D100200A49087046
:1030F00000200849087004E003E001200549087039
:1031000000BF00BF0448007800BD0000C0170020C9
:1031100084170020AC060020AB06002000B5114843
:10312000007DC0F300114FF4967305220E48FFF79F
:10313000BDFD0D481838807E05280FD2DFE800F06D
:10314000030509040A0009E008E0012007490870A6
:1031500004E003E000200549087000BF00BF0348F9
:10316000007800BDC01700206C170020A6060020C4
:1031700000B51A48808AC0F300319623052218480A
:10318000FFF794FD1648483890F84A00052821D2E8
:10319000DFE800F003051B041C001BE01AE01148E7
:1031A0000078012810D11048007818B901200E4984
:1031B000087006E00C480078012802D100200A4976
:1031C000087000200749087004E003E00120054969
:1031D000087000BF00BF0448007800BDC017002081
:1031E0009C170020AE060020AD06002010B52DED86
:1031F000028B9FED180AB0EE408A1748B0F90C0018
:10320000002803DD1448B0F90C0003E01248B0F9BF
:103210000C004042B0F5967F04DD9FED0E0AB0EE43
:10322000408A12E00C48B0F90C0000EE900AF8EE6B
:10323000E00AB0EE600A0948FFF79EFDF0EE408A12
:10324000074801F039F8B0EE408AB0EE480ABDEC0C
:10325000028B10BD00000000C017002024180020C1
:103260008418002010B52DED028B9FED180AB0EEEA
:10327000408A1748B0F90E00002803DD1448B0F961
:103280000E0003E01248B0F90E004042B0F5967F00
:1032900004DD9FED0E0AB0EE408A12E00C48B0F952
:1032A0000E0000EE900AF8EEE00AB0EE600A09485F
:1032B000FFF762FDF0EE408A074800F0FDFFB0EE38
:1032C000408AB0EE480ABDEC028B10BD0000000041
:1032D000C017002054180020FC18002070B50021F1
:1032E00000230F22C4781CB3174C246804F4E06454
:1032F000C4F5E064C4F30721C1F10404E3B20A4158
:1033000044789C40E1B28478144021430C07210E9C
:103310000E4C05786155047804F01F050124AC407B
:1033200005786D11AD0005F1E025C5F8004109E013
:10333000047804F01F050124AC40054D0678761191
:1033400045F8264070BD00000CED00E000E400E010
:1033500080E100E002490143024A11607047000029
:103360000000FA050CED00E0F0EE400A416A8162CF
:1033700010EE901A4162416A00EE101AC16801EE27
:10338000101AB1EE411AB4EEC10AF1EE10FA08D8E3
:10339000C16800EE101AB1EE400A10EE101A416238
:1033A0000CE0416A00EE101AC16801EE101AB4EE8A
:1033B000C10AF1EE10FA01DBC1684162C16A00EE98
:1033C000101A416A01EE101A30EE010A10EE101ABE
:1033D000C162C16A00EE101A016901EE101AB1EE65
:1033E000411AB4EEC10AF1EE10FA08D8016900EEF4
:1033F000101AB1EE400A10EE101AC1620CE0C16A58
:1034000000EE101A016901EE101AB4EEC10AF1EED5
:1034100010FA01DB0169C162016800EE101A416A0D
:1034200001EE101A20EE010A10EE101A0163016B72
:1034300000EE101A416901EE101AB1EE411AB4EE15
:10344000C10AF1EE10FA08D8416900EE101AB1EE87
:10345000400A10EE101A01630CE0016B00EE101A26
:10346000416901EE101AB4EEC10AF1EE10FA01DB67
:1034700041690163416800EE101AC16A01EE101A39
:1034800020EE010A10EE101A4163416B00EE101A93
:10349000816901EE101AB1EE411AB4EEC10AF1EEE3
:1034A00010FA08D8816900EE101AB1EE400A10EE49
:1034B000101A41630CE0416B00EE101A816901EEB5
:1034C000101AB4EEC10AF1EE10FA01DB8169416312
:1034D000416A00EE101A816A01EE101A30EE411AAC
:1034E000816800EE101A21EE000A10EE101A8163B6
:1034F000816B00EE101AC16901EE101AB1EE411A8B
:10350000B4EEC10AF1EE10FA08D8C16900EE101A43
:10351000B1EE400A10EE101A81630CE0816B00EEF0
:10352000101AC16901EE101AB4EEC10AF1EE10FAD8
:1035300001DBC1698163016B00EE101A416B01EE82
:10354000101A30EE011A816B00EE101A31EE000AEB
:1035500010EE101AC163C16B00EE101A016A01EE81
:10356000101AB1EE411AB4EEC10AF1EE10FA08D801
:10357000016A00EE101AB1EE400A10EE101AC16393
:103580000CE0C16B00EE101A016A01EE101AB4EEE5
:10359000C10AF1EE10FA01DB016AC163C16B00EEF2
:1035A000101A704710B52DED0A8B0446B0EE408A14
:1035B000F0EE608AB0EE419AF0EE619AB0EE42AA67
:1035C000F0EE62AAB0EE43BAF0EE63BAB0EE44CACF
:1035D0009FED200A10EE100A20639FED1E0A10EEE8
:1035E000100A60639FED1B0A10EE100AA0639FEDA6
:1035F000190A10EE100AE0639FED160A10EE100A89
:1036000060629FED140A10EE100AA0629FED110A8D
:1036100010EE100AE0621048A064104820641048C0
:103620006064216CB0EE4C4AF0EE6B3AB0EE4B3A6F
:10363000F0EE6A2AB0EE4A2AF0EE691AB0EE491AA4
:10364000F0EE680AB0EE480A20468847BDEC0A8BC7
:1036500010BD00000000000069330008BB36000800
:10366000F536000870B505460C46D4ED084AB0EEB4
:10367000644AD4ED074AF0EE643AD4ED064AB0EE5F
:10368000643AD4ED054AF0EE642AD4ED044AB0EE73
:10369000642AD4ED034AF0EE641AD4ED024AB0EE87
:1036A000641AD4ED014AF0EE640AD4ED004AB0EE9B
:1036B000640A2846FFF776FF70BD10EE101A01600D
:1036C00010EE901A416011EE101A816011EE901AFE
:1036D000C16012EE101A016112EE901A416113EEF0
:1036E000101A816113EE901AC16114EE101A016272
:1036F000704700009FED110A10EE101A01639FED54
:103700000F0A10EE101A41639FED0C0A10EE101A0A
:1037100081639FED0A0A10EE101AC1639FED070A3C
:1037200010EE101A41629FED050A10EE101A816228
:103730009FED020A10EE101AC162704700000000EF
:10374000B0EE401A10B99FED790A704790ED100A5B
:1037500080ED110A90ED0F0A80ED100AC0ED060A07
:1037600080ED071A30EEC10A80ED0F0A01780029BA
:1037700075D190ED010AD0ED0F1A20EE210A80EDEF
:10378000090A90ED0A0AD0ED021A90ED0F2A01EE17
:10379000820A80ED0A0A90ED0D0A80ED0E0A90ED86
:1037A0000C0A80ED0D0A90ED0F0AD0ED101A30EEE4
:1037B000610A80ED0C0A90ED030AD0ED0C1A20EEA0
:1037C000210A80ED0B0A90ED0A0AD0ED051AB4EE3D
:1037D000E10AF1EE10FA04DD90ED050A80ED0A0A27
:1037E00010E090ED0A0AD0ED051AF1EE611AB4EE80
:1037F000E10AF1EE10FA05D290ED050AB1EE400AA9
:1038000080ED0A0A90ED090AD0ED0A1A30EE210A7D
:10381000D0ED0B1A30EE210A80ED080A90ED080A6F
:10382000D0ED041AB4EEE10AF1EE10FA04DD90EDE9
:10383000040A80ED080A76E090ED080AD0ED041A3B
:10384000F1EE611AB4EEE10AF1EE10FA6BD290EDEE
:10385000040AB1EE400A80ED080A64E0FFE701784F
:10386000012960D190ED0F0AD0ED101A30EE610AF7
:10387000D0ED011A20EE210A80ED090A90ED020A2E
:10388000D0ED0F1A20EE210A80ED0A0A90ED0D0A04
:1038900080ED0E0A90ED0C0A80ED0D0A90ED0F0AF6
:1038A000D0ED101AB0EE002A02EE610AD0ED111A26
:1038B00030EE210A80ED0C0A90ED030AD0ED0C1ACF
:1038C00020EE210A80ED0B0A90ED090AD0ED0A1ACC
:1038D00030EE210AD0ED0B1A30EE210AD0ED081A95
:1038E00030EE210A80ED080A90ED080AD0ED041AA6
:1038F000B4EEE10AF1EE10FA04DD90ED040A80ED79
:10390000080A10E090ED080AD0ED041AF1EE611AF1
:10391000B4EEE10AF1EE10FA05D290ED040AB1EE30
:10392000400A80ED080A90ED080A0EE7000000004A
:1039300000B102B97047017092ED001A80ED011AD2
:1039400092ED011A80ED021A92ED021A80ED031A2F
:1039500080ED040AC0ED050A9FED0C1A80ED0E1AE9
:1039600080ED0D1A80ED0C1A9FED081A80ED081AF3
:1039700080ED0B1A80ED0A1A80ED091A80ED111AFC
:1039800080ED101A80ED0F1A00BFD3E70000000091
:1039900029B1064A12680243044B1A6004E0034A44
:1039A00012688243014B1A607047000030380240B1
:1039B00029B1064A12680243044B1A6004E0034A24
:1039C00012688243014B1A60704700004038024081
:1039D00029B1064A12680243044B1A6004E0034A04
:1039E00012688243014B1A60704700002038024081
:1039F00029B1064A12680243044B1A6004E0034AE4
:103A000012688243014B1A6070470000443802403C
:103A100029B1064A12680243044B1A6004E0034AC3
:103A200012688243014B1A6070470000243802403C
:103A3000F0B5002100220024022500260223324F87
:103A40003F6807F00C0121B1042905D0082937D1BE
:103A500005E02E4F076036E02D4F076033E02A4F18
:103A60003F1F3F68C7F38056274F3F1F3F6807F04F
:103A70003F036EB1264FB7FBF3F7DFF88CC0ACF114
:103A8000040CDCF800C0CCF3881C07FB0CF40CE041
:103A90001E4FB7FBF3F7DFF870C0ACF1040CDCF895
:103AA00000C0CCF3881C07FB0CF4174F3F1F3F6886
:103AB000C7F301477F1C7D00B4FBF5F7076002E008
:103AC000124F076000BF00BF0F4F3F6807F0F001C3
:103AD0000909104F7A5C0768D74047600A4F3F6872
:103AE00007F4E051890A0B4F7A5C4768D74087603A
:103AF000054F3F6807F46041490B064F7A5C476801
:103B0000D740C760F0BD0000083802400024F40030
:103B1000001BB700A80A002070B596B004460E46F8
:103B2000154601214B48FFF733FF01218804FFF7B9
:103B30003FFF01218804FFF74BFF00214FF4802055
:103B4000FFF746FF07220B214348FEF713FB4FF414
:103B50000060149002208DF8540000208DF856006B
:103B600003208DF8550000208DF8570014A93A481D
:103B7000FEF7B8FA394801F09FF839480190002063
:103B8000ADF80800ADF80A004FF48060ADF80C0005
:103B90000420ADF80E000020ADF8100001A92F4858
:103BA00001F052F9012240212C4801F07CF810214B
:103BB0002A4801F063F8012240F22441274801F02D
:103BC0001DF90121254801F062F82648FEF726F884
:103BD0004FF0006005902148001D069007940020DA
:103BE000089009950A904FF480600B9000200C908B
:103BF0000D904FF480700E904FF440300F900020E5
:103C0000109011901290139005A91648FEF728F90C
:103C1000002231461348FEF7B8F801211148FEF79B
:103C2000A9F800210F48FDF7EDFF01210D48FDF730
:103C3000E9FF27208DF8000001208DF80100002009
:103C40008DF8020001208DF803006846FFF746FB5F
:103C500016B070BD0400200000080240004800407B
:103C6000A086010028600240F0B5054640F2023708
:103C70000E68BE4200D0F0BDCE7AC6F38000CE7A88
:103C8000C6F3C002CE7AC6F30013CE7AC6F3401450
:103C9000CE7AB609474F3E70CE7AC6F34006FE7024
:103CA0001CB913B900267E700CE0012C04D11BB99D
:103CB0000126404F7E7005E024B9012B02D1022677
:103CC0003C4F7E7068B962B900263A4FBE70322709
:103CD000384EB7810A26374F7E810F27354EF78140
:103CE0003EE098B9012A11D10126324FBE703E46FE
:103CF000767806EB4606304F07EB46062D4FD6F892
:103D000000C0C7F80AC0B688FE8129E0012812D198
:103D10008AB90226274FBE703E46767806EB4606E5
:103D2000264F07EB4606234FD6F800C0C7F80AC057
:103D3000B688FE8114E0012812D1012A10D1032691
:103D40001C4FBE703E46767806EB46061C4F07EBCE
:103D50004606184FD6F800C0C7F80AC0B688FE81DC
:103D60004F7B0E7B47EA0626124FBE80CF7B8E7BB1
:103D700047EA062600EE106AF8EEC00A9FED111A17
:103D800080EE810A10EE106A0A4FC7F806604F7C79
:103D90000E7C47EA062600EE106AF8EEC00A9FED98
:103DA000091A80EE810A10EE106A024F3E6100BFD0
:103DB00061E7000094050020A8050020BA05002056
:103DC000CC0500200000C84270B505460C4605B180
:103DD00004B970BD04F0EAFFA0612878697840EA70
:103DE0000120C0F30A0020806878C010A97840EA5A
:103DF0004110C0F30A006080A8788011E97840EA99
:103E00008100297940EA8120C0F30A00A080287946
:103E10004010697940EAC110C0F30A00E080287CB4
:103E2000697C40EA0120C0F30A0020816879C0F370
:103E30000110A072687900118108E172A879E9790E
:103E400040EA012000B2A081287A697A40EA012084
:103E500001B2E181A87AE97A40EA012001B2218227
:103E6000297BA174697BE174A87BE97B40EA01208E
:103E7000A0822088A0F5806000B220806088A0F534
:103E8000806000B26080A088A0F5806000B2A08051
:103E9000E088A0F5806000B2E0802089A0F5806015
:103EA00000B2208100BF94E708B552E004F07EFF25
:103EB0000090FEF7A5FF08B103F004FC04F078FAC7
:103EC0002448007801283DD12248D0F8D000B0F92C
:103ED0000A00002805DD1F48D0F8D000B0F90A001C
:103EE00005E01C48D0F8D000B0F90A00404219495A
:103EF000D1F8D410B1F90A10002905DD1549D1F81F
:103F0000D410B1F90A1005E01249D1F8D410B1F972
:103F10000A104942084400EE100AB8EEC00AB0EE9A
:103F2000001AC0EE010A9FED0C0AF4EEC00AF1EE91
:103F300010FA07DD01200949087003F0D5FB03F0F2
:103F4000E5FC02E00020054908700221684604F003
:103F500065F8ABE7A80100200000FA44A5010020A5
:103F600000B587B001210320FFF712FD01210803EE
:103F7000FFF73EFD00208DF81A008DF81B0003208E
:103F80008DF8190002208DF818000820059005A969
:103F90002548FEF7A7F81020059005A92248FEF74E
:103FA000A1F88020059005A92048FEF79BF805227E
:103FB00007211E48FEF7DEF8052203211A48FEF706
:103FC000D9F8052204211848FEF7D4F80121080386
:103FD000FFF71EFD00214FF48050FFF719FD382038
:103FE000ADF80C000120ADF808000020ADF8060087
:103FF0000A20ADF810000020ADF80400ADF8000074
:10400000ADF80E004FF40070ADF80A004FF4827066
:10401000ADF802006946064800F066F80121044840
:1040200000F048F807B000BD000402400000024064
:104030000030014070B505460126002422E0012E23
:104040000FD10221104800F041F850B1002401E0E6
:10405000601CC4B2C82CFBDB29460B4800F042F8B8
:1040600000267EB90121084800F030F850B1002444
:1040700001E0601CC4B2C82CFBDB034800F02FF841
:10408000C0B270BDDBE700000030014010B504464F
:10409000074800884FF6C771084005490880084660
:1040A0000088204308800121014800F003F810BD7A
:1040B0000030014021B1028842F04002028004E059
:1040C00002884FF6BF731A400280704702460020F4
:1040D00013890B400BB1012000E00020704701461E
:1040E000888970478181704710B50022028802F4E8
:1040F00041520B884C8823438C882343CC8823432C
:104100000C8923434C8923438C892343CC89234343
:104110001A430280838B4FF2FF74234083830B8A00
:10412000038210BD08B54AE02548D0F8D000B0F9A8
:104130000A002349D1F8D410B1F90A10401A002816
:104140000BDD1F48D0F8D000B0F90A001C49D1F8A7
:10415000D410B1F90A10401A0AE01948D0F8D40076
:10416000B0F90A001649D1F8D010B1F90A10401A76
:1041700000EE100AF8EEC00AB0EE001A80EE810AD6
:10418000DFED100A20EE200ABDEEC00A10EE104A44
:104190000D48D0F8060000EE100ADFED0A0A20EE06
:1041A000200ABDEEC00A10EE101A204602F056FB9F
:1041B00004F0FCFD00900221684603F02FFFB3E7F6
:1041C000A80100200000C842940500200CB5002082
:1041D000019000903448006840F480303249086013
:1041E00000BF3148006800F4003000900198401C86
:1041F0000190009818B90198B0F5A04FF1D12A4864
:10420000006800F4003010B10120009001E00020AF
:1042100000900098012846D123484030006840F0C3
:1042200080502149403108602048006840F44040F7
:104230001E4908601C48083000681B4908310860A6
:104240000846006840F4004008600846006840F4F2
:10425000A05008601648091F0860081F006840F059
:104260008070091F086000BF0F48006800F00070F0
:104270000028F9D040F205600E4908600A4808306D
:10428000006820F00300084908310860084600680B
:1042900040F00200086000BF03480830006800F0EA
:1042A0000C000828F8D10CBD003802400070004016
:1042B000062A4007003C0240F0EE400A9FED120A39
:1042C000B0EE401A1D2109E04A1E00EB820292ED79
:1042D000000A00EB810282ED000A491E0029F3DC8E
:1042E000C0ED000A002108E000EB810292ED000A17
:1042F00030EE010AB0EE401A491C1D29F4DBF3EE42
:104300000E1A81EE210A704700000000F0EE402AEC
:104310009FED1B3AB0EE430AF4EEE02AF1EE10FAFC
:104320000CD2B2EE003AF4EEC32AF1EE10FA05DD3B
:1043300014480078401C134908700CE0F4EEE02AA1
:10434000F1EE10FA07DBF4EEC12AF1EE10FA02D812
:1043500000200C4908700B480078012806D1002085
:104360000849087030EE213AB0EE430AF4EEC12A53
:10437000F1EE10FA03DD30EE423AB0EE430A704738
:10438000000000006C030020042808D14FF0E02159
:10439000096941F004014FF0E022116107E04FF09C
:1043A000E021096921F004014FF0E022116170471A
:1043B00010B500BF502080F31188BFF34F8FBFF3BB
:1043C0006F8F00BF04F0F8FC18B14FF08050044923
:1043D000086000BF002080F3118800BF10BD0000FE
:1043E00004ED00E010B51548006840F47000134972
:1043F00008601348006840F001001149086000207F
:104400000F49083108600E4800680E4908400C4901
:1044100008600D48091D0860081F006820F480200E
:10442000091F0860002006490C310860FFF7CEFE26
:104430004FF0006001498039086010BD88ED00E050
:1044400000380240FFFFF6FE103000241CB5044681
:1044500003F098FC2D48062100234FF48072CDE92B
:1044600000102BA12D4804F061FC2D4801210023F0
:104470000A02CDE900102BA12F4804F057FC2F4869
:10448000052100234FF40072CDE900102CA12F4824
:1044900004F04CFC2E48052100234FF48062CDE946
:1044A00000102CA12F4804F041FC2F4806210023C6
:1044B0004FF48062CDE900102CA12F4804F036FCA7
:1044C0002E48062100234FF40072CDE900102CA1E4
:1044D0002E4804F02BFC2E48042100238A01CDE94C
:1044E00000102CA12E4804F021FC2E4804210023AA
:1044F0008A01CDE900102CA12E4804F017FC2E48AB
:10450000006803F0F5FD03F067FC1CBD14000020FB
:10451000444255535F5441534B0000004119000879
:104520000800002053595354454D53544154455F9E
:104530005441534B00000000254100080C000020AE
:1045400047494D42414C5F5441534B00991F00086D
:1045500010000020434841535349535F5441534B8B
:10456000000000008D18000818000020494D555F1C
:104570005441534B00000000A52200081C000020FD
:10458000564953494F4E5F5441534B00294F000841
:104590002000002053484F4F545F5441534B0000BC
:1045A000A93E000824000020434F5645525F544165
:1045B000534B0000F51800080400002000B58BB034
:1045C00001210846FFF714FA01211020FFF7E0F956
:1045D000012209212B48FDF7CDFD01220B2129489D
:1045E000FDF7C8FD01220D212648FDF7C3FD4FF45C
:1045F0000070099002208DF8280003208DF8290012
:1046000000208DF82A0009A91E48FDF76BFD44F62D
:104610001F6007905320ADF818000020ADF820006F
:10462000ADF81A0006A9184800F0FCF86020ADF8B3
:1046300004000120ADF806000420ADF808000020B9
:10464000ADF81000ADF812004FF48070ADF8140012
:104650004000ADF8160001A90B4800F03FF8082112
:10466000094800F079F80121074800F00FF801210E
:10467000054800F023F80121034800F013F80BB0BF
:1046800000BD0000001002400000014021B102887E
:1046900042F08002028004E002884FF67F731A40E5
:1046A0000280704721B1028842F00102028004E0DA
:1046B00002884FF6FE731A400280704731B1B0F89D
:1046C000442042F40042A0F8442005E0B0F8442021
:1046D000C2F30E02A0F844207047000070B5002419
:1046E00000220023058C4FF6FE7635400584028CAF
:1046F0008388048B4FF68F752C40B51E2C400D8897
:104700002C43751E2A408D892A434D882A43104D1B
:10471000A84202D00F4DA84213D14FF6F7752A4098
:10472000CD892A434FF6FB752A408D882A434FF6E0
:10473000FF652B404FF6FF552B400D8A2B434D8ACA
:104740002B43838004838D684563028470BD000021
:1047500000000140000401400A460021018B4FF691
:10476000F7731940114301837047000070B50024AE
:1047700000220023058C4FF6FF6635400584028C2D
:104780008388848B4FF68F752C404FF6FC752C4038
:104790000D882C434FF6FF552A408D894FF6FF7642
:1047A00006EA05252A434D8806EA05252A43154DC4
:1047B000A84202D0144DA8421DD14FF2FF752A40E5
:1047C000CD894FF6FF7606EA05252A434FF6FF35D9
:1047D0002A408D8806EA05252A434EF6FF752B40B0
:1047E0004DF6FF752B400D8A06EA05152B434D8AC1
:1047F00006EA05152B43838084838D68C563028494
:1048000070BD000000000140000401400A46002184
:10481000818B4FF6F77319401143818370474163D1
:104820007047000000220288184B98420ED0184BA7
:1048300098420BD0B0F1804F08D0164B984205D06B
:10484000154B984202D0154B984204D14FF68F7306
:104850001A404B881A43124B984207D0114B98428A
:1048600004D04FF6FF431A400B891A4302804B686D
:10487000C3620B880385054B984202D0044B9842D3
:1048800001D18B7A038601238382704700000140A7
:10489000000401400004004000080040000C0040FB
:1048A0000010004000140040DFED4D2AB0EE622AF7
:1048B000DFED4B2AB0EE621ADFED4A2AB0EE620A53
:1048C0004949D1F8D010897B02EE901AB8EE623ACD
:1048D0004549D1F8D410897B02EE901AF8EE622A8D
:1048E00073EE222AB0EE003AC2EE833AF0EE631A7B
:1048F00002EE900AF8EE622AB2EE0B3AF4EEC32A08
:10490000F1EE10FA01DD012100E0002102EE901A23
:10491000F8EEE22AB2EE0E3AF4EEC32AF1EE10FA05
:1049200002D8DFED320A36E002EE900AF8EE622A93
:104930009FED2F3AF4EEC32AF1EE10FA01DD0121CA
:1049400000E0002102EE901AF8EEE22AB3EE023AFD
:10495000F4EEC32AF1EE10FA02D8DFED260A1AE0CF
:1049600002EE900AF8EE622A9FED233AF4EEC32A93
:10497000F1EE10FA01DD012100E0002102EE901AB3
:10498000F8EEE22AB3EE0E3AF4EEC32AF1EE10FA94
:1049900001D8DFED1A0AF4EEC11AF1EE10FA09DBC4
:1049A00031EEC13AC3EE022AB1EE603A62EE832ADA
:1049B000B0EE620AF4EEC11AF1EE10FA03D2DFEDA6
:1049C000092AB0EE620A71EE022AF4EEE12AF1EE53
:1049D00010FA03D2F1EE602AB0EE620A70470000CE
:1049E00000000C4200000000A8010020000048C2A6
:1049F0000000844100008CC20000DC4100002AC39A
:104A00000146DFED480AB0EE600A28293FD006DCF7
:104A10000F2909D0192918D023296BD126E03C2968
:104A200046D0502966D154E03F4880893E4A92885A
:104A3000801A142804DBDFED3D0AB0EE600A03E0C3
:104A4000DFED380AB0EE600A65E037488089364A03
:104A50009288801A142804DBDFED350AB0EE600A74
:104A600003E0DFED300AB0EE600A54E02E488089A2
:104A70002D4A9288801A1E2804DBDFED2E0AB0EE44
:104A8000600A03E0DFED2C0AB0EE600A43E026483E
:104A90008089254A9288801A1E2804DBDFED240ACB
:104AA000B0EE600A03E0DFED210AB0EE600A32E00A
:104AB0001D4880891C4A9288801A1E2804DBDFED7D
:104AC0001F0AB0EE600A03E0DFED190AB0EE600ADB
:104AD00021E015488089144A9288801A1E2804DB38
:104AE000DFED170AB0EE600A03E0DFED160AB0EE64
:104AF000600A10E00C4880890B4A9288801A1428BA
:104B000004DBDFED0A0AB0EE600A03E0DFED050A20
:104B1000B0EE600A00BF00BFFCEEC00A10EE900AC3
:104B200080B27047000000009405002000803B44E4
:104B30000080BB4400C0DA4400007A4400001645FF
:104B400000803B450000FA4410B540F2255133483F
:104B500000F02AF918B1314800F0E0F95DE040F2C8
:104B600024412E4800F020F9002856D02B4800F0B0
:104B7000D5F92B48FDF719F938BB00212848FDF776
:104B800041F82748FDF70DF9C0F1240025490880B8
:104B900024212348FDF790F921482838806A40F401
:104BA00000201F49283988621F491D48FCF7F6FF7D
:104BB00001211B48FDF726F81A48008812282CD13D
:104BC0001A491B48FFF700F927E000211448FDF7B8
:104BD00019F81348FDF7E5F8C0F1240011490880E1
:104BE00024210F48FDF768F90D482838806A20F421
:104BF00000200B49283988620B490948FCF7CEFF91
:104C000001210748FCF7FEFF06480088122804D15E
:104C1000064907482430FFF7D7F810BD0048004088
:104C200028600240A4060020000C0010C0170020DD
:104C3000DC17002010B540F224410C4800F0B4F815
:104C400090B10A48001D008809490870074800888B
:104C5000087000210748FCF7D5FF074800F08CF9E1
:104C600001210448FCF7CEFF10BD000000140140F4
:104C7000A2060020406402403017002001F40072B8
:104C8000B2F5007F00D100BFCA430280704721B156
:104C9000828942F40052828104E082894DF6FF73DA
:104CA0001A40828170471AB1838A0B43838202E0E3
:104CB000838A8B438382704710B50446324884420E
:104CC00008D101211020FEF7A3FE00211020FEF7DD
:104CD0009FFE57E02D48844209D101214804FEF788
:104CE00077FE00214FF40030FEF772FE4AE02848BC
:104CF000844209D101218804FEF76AFE00214FF4A5
:104D00008020FEF765FE3DE02248844209D1012162
:104D1000C804FEF75DFE00214FF40020FEF758FEA8
:104D200030E01D48844209D101210805FEF750FEFC
:104D300000214FF48010FEF74BFE23E01748844219
:104D400008D101212020FEF763FE00212020FEF77C
:104D50005FFE17E01248844209D101218807FEF75F
:104D600037FE00214FF08040FEF732FE0AE00D488A
:104D7000844207D101214005FEF72AFE002160058B
:104D8000FEF726FE10BD0000001001400044004068
:104D900000480040004C004000500040001401401A
:104DA00000780040007C004070B5024600240023DB
:104DB0000025002040F66A16B14200D100BFC1F3C1
:104DC000421501F01F03012606FA03F3012D02D15B
:104DD0009689334006E0022D02D1168A334001E065
:104DE000968A33400C12012606FA04F416883440E1
:104DF00013B10CB1012000E0002070BDF0B50346F6
:104E0000002400260025002040F66A17B94200D190
:104E100000BF1846C1F3421401F01F06012707FA2C
:104E200006F5012C01D10C3004E0022C01D1103028
:104E300000E014301AB107682F43076002E00768EA
:104E4000AF430760F0BD00002DE9FF4705460E4661
:104E50000024A14600BFA046B08900B100BF2C8A43
:104E600024F44054F08804432C82AC8941F20C6055
:104E70008443B08831890843718908430443AC8175
:104E8000AC8A24F44074B0890443AC826846FEF7CF
:104E9000CFFD2048854202D01F48854202D1DDF86F
:104EA0000C9001E0DDF80890A88900F4004040B1C2
:104EB00009EBC90000EB091031684900B0FBF1F7BC
:104EC00007E009EBC90000EB091031688900B0FB6D
:104ED000F1F76420B7FBF0F004012009642101FB25
:104EE0001078A88900F4004040B1322000EBC800DF
:104EF000B0FBF1F000F00700044308E0322000EBC3
:104F000008106421B0FBF1F000F00F0004432C8185
:104F1000BDE8FF8700100140001401400146888869
:104F2000C0F308007047000008B51DE003F03EFF25
:104F3000009001F0FBF80D490860FEF719F928B957
:104F400000200B49C8700B49087007E0FEF710F904
:104F500020B101200649C8700649087002F0AEFA77
:104F60000121684603F05AF8E0E700007C030020C6
:104F7000700A00209803002010B52DED048B044624
:104F80002078AA2870D1E07A5428FBD16078A178E3
:104F90000844E17808442179084461790844A179FA
:104FA0000844E179084463490870207A0978884206
:104FB00002D0BDEC048B10BD6078012875D103F0E0
:104FC000F5FE5D49086001205C494870207900EEDB
:104FD000100AB8EE400A607900EE900AF8EE600A16
:104FE0009FED571A00EE810A564880ED000AA0781E
:104FF00000EE100AB8EE400AE07800EE900AF8EEF3
:10500000600A9FED4F1A00EE810A4F4880ED000ABA
:10501000E0794E490870A07AFBF7E7FA41EC190BEA
:105020009FED4B0B53EC102BFBF76DFA41EC180B7B
:10503000FBF7E8FA00EE100AF8EEC00A607A00EE1C
:10504000100AB8EE400A9FED441A00EE810A434868
:1050500080ED000AA079012807D0022816D0032885
:1050600024D004283ED12EE061E0364890ED000ABD
:10507000B1EE400A3A4880ED000A334890ED000A4C
:10508000B1EE400A374880ED000A2CE02D4890ED43
:10509000000AB1EE400A324880ED000A2A4890ED3D
:1050A000000A304880ED000A1DE02AE0254890ED16
:1050B000000A2B4880ED000A234890ED000A294899
:1050C00080ED000A0FE01F4890ED000A244880EDB3
:1050D000000A1D4890ED000AB1EE400A214880ED1B
:1050E000000A00E000BF00BF1E4890ED000A134810
:1050F00080ED010A1A4890ED000A104880ED030A7D
:1051000012E003F053FE0C490968401A32280BD90B
:1051100000200A4948709FED140A084680ED010AF4
:105120009FED110A80ED030A01200449087000BFB9
:105130003FE700009D0A0020980A0020700A002026
:105140000AD7233C900A0020940A00209C0A0020E1
:105150009A9999999999B93FCDCCCC3DA00A002054
:105160008C0A0020880A002000000000410008028C
:1051700018BF04200A0E18BF40F001004FF07F4214
:1051800032EA010108BF40F00200012808BF0520F3
:105190007047000010B54FF00E402DED028BB0EEC1
:1051A000408A18EE104A00EB4400B0F1506F4AD824
:1051B0004FF0FC40B0EB440F22D2B0EEC80AF7EE3D
:1051C000000A30EEC00AF6EE000A60EE208A18EE01
:1051D000900A02F057FA01EE100A14F0004F1DBFBA
:1051E000DFED2D0A9FED2D0AB1EE411ADFED2C0AFD
:1051F00008BF9FED2C0AF8EE001A21EE218A05E087
:10520000DFED290A68EE088AB0EE600A9FED271AE2
:10521000DFED271A30EE080A48EE811A9FED251AB5
:1052200008EEA11ADFED241A48EE811A9FED231A29
:1052300008EEA11A68EE281ABDEC028B01EE810A75
:1052400030EE200A10BD4FF0E440B0EB440F0CD913
:1052500018EE100AFFF78AFF042808BF00F0B2F921
:10526000B0EE480ABDEC028B10BD4FF07F40B0EBB2
:10527000440F07D2B0EE480ABDEC028BBDE81040E7
:1052800000F091B9012000F0B5F9BDEC028BBDE84A
:10529000104000F08FB900000000C9BF22AAFDB97C
:1052A0000000C93F22AAFD390000000024FE1C3D79
:1052B000C78AD83C1E67383D1B93993DAFAA2A3E4A
:1052C00070B54FF068422DED048BF0EE408A18EE79
:1052D000900AB0EE608A18EE101A02EB4003B3F1A8
:1052E000654F3CBF02EB4102B2F1654F7DD200BF7A
:1052F000C0F3C753C1F3C7529A1A1B2A09DD10F035
:10530000004F14BF9FED830A9FED830ABDEC048B11
:1053100070BD12F11A0F36DA11F0004F09D010F0FB
:10532000004F0CBF9FED7D0A9FED7D0ABDEC048B05
:1053300070BD88EE889A19EE100AFFF717FF04284F
:1053400008BF00F03FF918EE900AFFF70FFF05467F
:1053500018EE100AFFF70AFF044619EE100AFFF7CD
:1053600005FF042D18BF052D08D1042C18BF052CEE
:1053700004D1002804BF022000F03CF9B0EE490A35
:10538000BDEC048B70BD4200B2EB410F3AD910F076
:10539000004F19BFDFED630A9FED630ADFED630A7B
:1053A0009FED630AB0EE481A0A46B1EE688A80F0B3
:1053B0000041F0EE418A10460A1A5200B2F1807F95
:1053C00034D2484010F0004FDFED5A1A9FED5A2AB0
:1053D0001DBFBEEE001A70EEE10A30EE420AB6EED4
:1053E000001A08BF70EEA10A00E040E008BF30EEEE
:1053F000020AB0EE682A01EE482A08EE818AC2EE5F
:10540000081A15E011F0004F04BF9FED4C0AF0EEB2
:10541000400AD1D010F0004F19BFDFED490A9FEDCF
:10542000490ADFED490A9FED490AC5E7C8EE881A27
:1054300021EEA11A9FED462ADFED462A41EE022A0F
:105440009FED452A01EE222ADFED442A41EE022A91
:105450009FED432ABDEC048B01EE222A21EE811A36
:1054600001EE020A30EE210A30EE200A70BD4FF044
:105470007F42B2EB400F28BFB2EB410F09D2F0EEF2
:10548000480AB0EE680ABDEC048BBDE8704000F03D
:105490008DB840EA01035B0008BF41F0FF410BD02B
:1054A000B2EB400F08BFB2EB410F08D120F08040B3
:1054B00008EE900A21F0804108EE101A18E7B2EBCE
:1054C000400F12BF5FEA410340F0FF4001F000418E
:1054D0003FF40EAFB2EB410F12BF5FEA400200F0A3
:1054E000004041F0FF413FF403AF4A0092EA40031D
:1054F0003FF5FEAE002AACBF9FED1A0A9FED1A0AD7
:1055000068EE808A28EE008A18EE900A18EE101ACB
:10551000EEE60000DB0FC9BFDB0FC93FDB0F4940E0
:10552000DB0F49C00000C9BF22AAFDB90000C93F76
:1055300022AAFD390060ED3EC30ACE37000000000C
:10554000000049C022AA7DBA0000494022AA7D3A43
:105550002DAD65BD8FB8D53D0FB511BE61C84C3EB0
:10556000A8AAAABE0000804F0000802F10B52DED24
:10557000028BB1EEC08A18EE100A20F00040C0F194
:10558000FF40C00F0AD010EE100A20F00040C0F11A
:10559000FF40C00F04BF012000F02CF8B0EE480A15
:1055A000BDEC028B10BD30EE000A704730EE200AD1
:1055B00070470000DFED020A80EEA00A704700008D
:1055C000000000009FED020A20EE000A7047000074
:1055D0000000001002E008C8121F08C1002AFAD11A
:1055E00070477047002001E001C1121F002AFBD163
:1055F000704700000149086070470000500B002010
:1056000070B52DED028B8AB005460C4616460DB1DD
:1056100004B11EB90AB0BDEC028B70BD94ED000A56
:10562000B5EEC00AF1EE10FA0DD194ED010AB5EE17
:10563000C00AF1EE10FA06D194ED020AB5EEC00AE6
:10564000F1EE10FA7DD09FED600AB0EE408A0020A6
:105650000790089009900490059006905B4A07CA4D
:1056600001AB07C395ED010AD5ED030A20EE200A30
:10567000D5ED000A95ED021A00EEC10AF0EE000A1F
:1056800020EE200A8DED070A95ED000AD5ED010AFE
:1056900020EE200AD5ED020A95ED031A00EE810AEC
:1056A000F0EE000A20EE200A8DED080A95ED000AC2
:1056B00020EE000AD5ED030A95ED031A00EE810AEB
:1056C000F7EE000AB0EE001A51EE000ACDED090A1D
:1056D00001AB22463146284600F07AF8D4ED000AA4
:1056E00060EEA00A94ED011AD4ED011A41EE210AF0
:1056F00094ED021AD4ED021A41EE210AB0EE600ACE
:10570000FBF762FAB0EE408A94ED000A20EE080A38
:1057100084ED000A94ED010A20EE080A84ED010AE6
:1057200094ED020A20EE080A84ED020A94ED010AC3
:10573000DDED090A20EE200AD4ED020A9DED081ADB
:1057400000E03EE000EEC10A8DED040A94ED020A8D
:10575000DDED070A20EE200AD4ED000A9DED091ABE
:1057600000EEC10A8DED050A94ED000ADDED080A90
:1057700020EE200AD4ED010A9DED071A00EEC10AC1
:105780008DED060A96ED000ADDED010A9DED041A85
:1057900000EE810A86ED000A96ED010ADDED020AAF
:1057A0009DED051A00EE810A86ED010A96ED020ACA
:1057B000DDED030A9DED061A00EE810A86ED020A70
:1057C00000BF00BF26E70000000000004C92000868
:1057D0002DE9F0412DED048B07460D4614461E467B
:1057E0009FED580AB0EE409A9FED560AB0EE408AFF
:1057F0009FED540AF0EE408AD4ED000A60EEA00A54
:1058000094ED011AD4ED011A41EE210A94ED021A29
:10581000D4ED021A41EE210AB0EE600AFBF7D4F98A
:10582000F7EE000A80EE801AB0EE419AD5ED000A3C
:10583000B0EE600AFBF75FF8F0EE409AD5ED010A92
:10584000B0EE600AFBF757F879EE809AD5ED020AC0
:10585000B0EE600AFBF74FF839EE800AF0EE408AAE
:105860003948D0ED000A79EE600AB0EE600AFBF725
:1058700042F8B0EE408A9FED350AB4EEC08AF1EEF0
:1058800010FA06DC9FED320AF4EEC08AF1EE10FA4F
:1058900053DD9FED2C2AB0EE420A9FED2A2AF0EE4E
:1058A000421AB7EE002AF0EE420A9FED262AB0EE29
:1058B000421AB5EEC08AF1EE10FA05DD9FED232AFB
:1058C000C2EE082AB0EE620A9FED222AB4EEC20AA6
:1058D000F1EE10FA03D29FED1B2AB0EE420AF5EE6C
:1058E000C08AF1EE10FA05DD9FED192AC2EE282AD2
:1058F000F0EE621AB7EE002AB4EEC20AF1EE10FA28
:1059000003D220EE802AF0EE420AB7EE002AF4EE2F
:10591000C21AF1EE10FA03D220EEA12AF0EE420AEA
:105920009FED0D2A20EE822AB0EE421A86ED001A73
:1059300086ED011A86ED021A00BFBDEC048BBDE8AE
:10594000F0810000000000004C0B0020CDCCCC3DCD
:105950008FC2F53D9A99993ECDCC4C3E10B52DEDB8
:10596000048B86B00446B0EE408AF0EE608AB0EE5A
:10597000419A0020039004900590009001900290BD
:10598000B0EE000AC8EE000AF0EE609AB0EE690AC6
:10599000FAF7A5FF8DED030AB0EE000AC8EE800A03
:1059A000F0EE609AB0EE690AFAF799FF8DED040AFD
:1059B000B0EE000AC9EE000AF0EE609AB0EE690A95
:1059C000FAF78DFF8DED050AB0EE000AC8EE000A69
:1059D000F0EE609AB0EE690AFBF708F98DED000A67
:1059E000B0EE000AC8EE800AF0EE609AB0EE690AE6
:1059F000FBF7FCF88DED010AB0EE000AC9EE000AD3
:105A0000F0EE609AB0EE690AFBF7F0F88DED020A4D
:105A10009DED050ADDED040A20EE200ADDED030A06
:105A200020EE200ADDED020A9DED011A60EE810AEA
:105A30009DED001A00EE810A84ED000A9DED020A38
:105A4000DDED040A20EE200ADDED030A20EE200A37
:105A5000DDED050A9DED011A60EE810A9DED001A4B
:105A600000EEC10A84ED010A9DED050ADDED010A93
:105A700020EE200ADDED030A20EE200ADDED020A09
:105A80009DED041A60EE810A9DED001A00EE810A78
:105A900084ED020A9DED050ADDED040A20EE200AE0
:105AA000DDED000A20EE200ADDED020A9DED011A6F
:105AB00060EE810A9DED031A00EEC10A84ED030A2F
:105AC00006B0BDEC048B10BD70B500250024FBF7BB
:105AD00055F98020FBF7D9FA5520FBF7D6FA552067
