:020000040800F2
:10000000D03A001061020008690200086B02000883
:100010006D0200086F020008710200080000000075
:10002000000000000000000000000000A101000826
:100030007502000800000000FD010008C54B000823
:100040007B0200087B0200087B0200087B0200089C
:100050007B0200087B0200087B0200087B0200088C
:100060007B020008011C00080B1C00087B02000832
:100070003D1800087B0200087B0200087B02000894
:100080007B0200087B0200087B0200087B0200085C
:10009000691000087B0200087B020008151C00089C
:1000A0007B0200087B0200087B0200087B0200083C
:1000B0007B0200087B0200087B0200087B0200082C
:1000C0007B0200087B0200087B0200087B0200081C
:1000D0007B0200087B0200087B020008CD5100086B
:1000E0007B0200087B0200087B0200087B020008FC
:1000F0007B0200087B0200087B0200087B020008EC
:100100007B0200087B0200087B0200087B020008DB
:100110007B0200087B0200087B0200087B020008CB
:100120007B0200087B0200087B0200087B020008BB
:100130007B0200087B0200087B0200087B020008AB
:10014000A91100087B0200087B0200087B0200085E
:100150007B02000879180008A9180008B9520008A5
:100160007B0200087B0200087B0200087B0200087B
:100170007B0200087B0200087B02000800000000F0
:100180007B0200087B020008DFF810D000F0A0FA24
:100190000048004761690008AFF30080D03A0010C2
:1001A0002C4B19680868B0E8F04F80F30988BFF35A
:1001B0006F8F4FF0000080F311887047000000003F
:1001C00008480068006880F308884FF0000080F35A
:1001D000148862B661B6BFF34F8FBFF36F8F00DF35
:1001E00000BF00BF08ED00E0DFF80C00016841F43B
:1001F00070010160704700BF88ED00E0EFF30980F7
:10020000BFF36F8F134B1A681EF0100F08BF20ED5D
:10021000108A20E9F04F106009B44FF0500080F3CD
:100220001188BFF34F8FBFF36F8F07F02BFD4FF097
:10023000000080F3118809BC19680868B0E8F04F25
:100240001EF0100F08BFB0EC108A80F30988BFF3CE
:100250006F8F704774170010EFF305807047000030
:100260000648804706480047FEE7FEE7FEE7FEE750
:10027000FEE7FEE7FEE7FEE7FEE7FEE7F94B0008D4
:10028000890100089FED1A1AF5EE000A40EE010AF6
:10029000BDEEE00AF5EEC00A10EE100AF1EE10FA1B
:1002A00038BF401E00EE100A1349F7EE001AB8EEF0
:1002B000C00A30EEC00ADFED0F0A20EE200AFCEE85
:1002C000C00A10EE900AC0F3080000EE900A01EB9D
:1002D0008000F8EE600A90ED011A70EE600A90ED71
:1002E000000A71EEE01A21EE800A00EE810A7047E2
:1002F00083F9223E0000004438890008DFED190A26
:10030000B5EEC00A60EE200ABDEEE01A11EE100A4A
:10031000F1EE10FA38BF401E00EE100A1349F7EE56
:10032000001AB8EEC00A30EEC00ADFED0F0A60EE28
:10033000200ABCEEE00A10EE100AC0F3080000EE3E
:10034000100A01EB8000B8EE400A90ED011A70EE41
:10035000C00A90ED000A71EEE01A21EE800A00EE6C
:10036000810A704783F9223E000000443889000862
:1003700040EA01039B0703D009E008C9121F08C027
:10038000042AFAD203E011F8013B00F8013B521EA7
:10039000F9D27047D2B201E000F8012B491EFBD21E
:1003A00070470022F6E710B513460A460446194680
:1003B000FFF7F0FF204610BD2DE9FE4F804681EA91
:1003C0000300C00F0C46009021F0004123F00045CF
:1003D000B8EB0200A94105D24046214690461C4692
:1003E0000B46024623F00040104347D0270DC7F3C9
:1003F0000A00C3F30A510290401A019040286BDAB8
:10040000C3F3130040F4801B0098924620B10023F0
:10041000D2EB030A63EB0B0B01985946C0F1400283
:10042000504600F09FF806460D4650465946019A40
:1004300000F0A7F810EB08006141002487EA115290
:1004400084EAE7731A4340D0009A62B3019A012A02
:100450004FEA075215DC001B61EB02014FF000422E
:1004600002EA0752CDE90042001C41F580113246F4
:100470002B4600F0DEF803B0BDE8F08F4046214681
:10048000F9E7001B61EB0201001C41F58013001825
:100490005B412018A2F5001747EB030140EAD57035
:1004A000B6196D4111E06D084FEA360645EAC07590
:1004B0004FEA0752001B61EB0201001C41F580115D
:1004C00049084FEA30000019514132462B4603B02B
:1004D000BDE8F04F00F09EB80098012240000023D4
:1004E000D0EB020263EBE073009821464FEAE07420
:1004F000B8EB000061EB0401E9E783F000435BE740
:1005000081F0004158E700F0004230F000400AD08E
:10051000C10D01F56071C0F3160042EA0151C20835
:1005200040071143704700200146704701F0004327
:1005300030B421F0004150EA010206D00A0DA2F5C4
:100540006072C1F31301002A02DC30BC0020704746
:10055000440F44EAC104C100E01830BC00EBC250B3
:1005600000F021B8202A04DB203A00FA02F1002032
:1005700070479140C2F1200320FA03F319439040E1
:100580007047202A06DBCB17203A41FA02F043EAF3
:10059000E07306E041FA02F3D040C2F1200291403C
:1005A0000843194670470029A8BF7047401C4900FE
:1005B00008BF20F00100704710B4B0FA80FC00FAC8
:1005C0000CF050EA010404BF10BC704749B1CCF1F3
:1005D000200421FA04F411FA0CF118BF012121437F
:1005E0000843A3EB0C01CB1D4FEA00614FEA10203A
:1005F00042BF002010BC704700EBC35010440029DC
:10060000A4BF10BC7047401C490008BF20F0010087
:1006100010BC704710B5141E73F1000408DA401CBA
:1006200041F1000192185B411A4301D120F0010011
:1006300010BD2DE9F04D92469B4611B1B1FA81F201
:1006400002E0B0FA80F220329046FFF78BFF0446BA
:100650000F4640EA0A0041EA0B0153465A46084356
:1006600013D0114653EA010019D0C8F14002504698
:1006700000F040F805460E46504659464246FFF700
:1006800071FF084305D0012004E020463946BDE84B
:10069000F08D0020054346EAE0762C4337430A9864
:1006A0006305E40AA0EB08000022FD0A44EA47546F
:1006B0000A3002D500200146E9E701051019694119
:1006C000DDE9084500196941BDE8F04DA2E70000E9
:1006D000064C074D06E0E06840F0010394E807008F
:1006E00098471034AC42F6D3FFF752FD3C91000816
:1006F0007C910008202A04DB203A21FA02F0002134
:10070000704721FA02F3D040C2F120029140084321
:100710001946704770B58C1810F8015B15F0070387
:1007200001D110F8013B2A1106D110F8012B03E08A
:1007300010F8016B01F8016B5B1EF9D12B0705D492
:100740000023521E0DD401F8013BFAE710F8013BDB
:10075000CB1A921C03E013F8015B01F8015B521EF7
:10076000F9D5A142D8D3002070BD10B52DED028B74
:10077000B0EE408AB0EE480A05F052F8BDEC028BAC
:1007800010BD10B52DED028BB0EE408AF0EE608A00
:10079000F0EE680AB0EE480A05F0D8F8BDEC028B1E
:1007A00010BD10B52DED028BB0EE408AB0EE480AB8
:1007B000FFF768FDBDEC028B10BDF0EE400AF5EED0
:1007C000C00AF1EE10FA02DDB0EE600A7047B1EE39
:1007D000600AFBE718B19FED020A80ED000A70473E
:1007E0000000000018B1B3EE060A80ED000A704761
:1007F00070B52DED0C8B84B006460C4615469FED6A
:10080000990AF0EE408A9FED970AB0EE409A9FED6C
:10081000950AF0EE40BA9FED930AF0EE409A9FEDF4
:10082000910AB0EE40AA0EB104B11DB904B0BDECFE
:100830000C8B70BD8C48FFF7CDFF8C48FFF7D2FFC3
:100840008A48D0ED000A9FED8A1A60EE810AB0EE68
:10085000600A00F02DF9F0EE408A28EEA80AF0EECA
:10086000408A8248D0ED000AB0EE001A60EE810A9C
:100870009FED7F1A60EE810AB0EE600A00F018F971
:10088000B0EE409A29EE090AB0EE409ADFED790AFF
:10089000B7EE000A00EEA80ADFED770A00EEC90AFB
:1008A000DFED760A20EE200A754880ED000A6E48DA
:1008B00090ED000ADFED730A80EE201AB7EE000A11
:1008C00031EE000A20EE000A6D48D0ED000A80EEFD
:1008D000801A6D4880ED001A94ED000AB5EEC00A4A
:1008E000F1EE10FA0DD194ED010AB5EEC00AF1EE69
:1008F00010FA06D194ED020AB5EEC00AF1EE10FA34
:1009000046D09FED580AB0EE408A00200190029038
:100910000390D4ED000A60EEA00A94ED011AD4ED24
:10092000011A41EE210A94ED021AD4ED021A41EEA9
:10093000210AB0EE600A00F0A9F8B0EE408A94ED0A
:10094000000A20EE080A8DED010A94ED010A20EE5E
:10095000080A8DED020A94ED020A20EE080A8DEDD8
:10096000030ADDED010AF1EE600AB0EE600AFFF75E
:10097000FCFEF0EE409A9DED031AF0EE410A9DED6B
:10098000021AB0EE410AFFF7FCFEB0EE40AA07E003
:100990009FED340AF0EE409A9FED320AB0EE40AA85
:1009A00095ED000AB5EEC00AF1EE10FA0DD195ED05
:1009B000010AB5EEC00AF1EE10FA06D195ED020A71
:1009C000B5EEC00AF1EE10FA3CD0B0EE690A00F0C4
:1009D0006FF8B0EE408AB0EE690AFFF7E2FEB0EEC3
:1009E00040DAB0EE4A0A00F063F8F0EE40AAB0EE4A
:1009F0004A0AFFF7D6FEB0EE40BA28EE2A0AD5ED35
:100A0000010A20EE200AD5ED000A0DEE200A68EE5C
:100A10000B0A95ED021A00EE810AB0EE40CA95ED80
:100A2000010A20EE0B0AD5ED020A0AEEE00AF0EE0A
:100A300040CAF0EE6C0AB0EE4C0AFFF7A2FEF0EEF0
:100A400040BA03E09FED070AF0EE40BAB0EE4A1A52
:100A5000F0EE690AB0EE6B0A304605F041FB00BFCC
:100A6000E4E6000000000000B0170010B41700100A
:100A700035FA8E3CC1BFAD3B9DF8C5362F7C1C417D
:100A8000B8170010506CC24ABC17001010B52DEDFD
:100A9000028BB0EE408AB0EE480A05F0ADF8B7EE32
:100AA000001AC1EE000AB0EE600ABDEC028B10BD68
:100AB00010B52DED028BB0EE408AB0EE480AFFF77C
:100AC0001DFCBDEC028B10BD2DE9F0412DED028B1C
:100AD0009AB00546B0EE408A0E461746984600206A
:100AE0001790189019901490159016904DB146B12A
:100AF0003FB1B8F1000F04D0B5EEC08AF1EE10FAA4
:100B000005D100201AB0BDEC028BBDE8F08196ED56
:100B1000000A8DED170A96ED010A8DED180A96ED83
:100B2000020A8DED190A97ED000A8DED140A97ED72
:100B3000010A8DED150A97ED020A8DED160A17AA26
:100B400014A9284605F0A2F8402104A8FFF729FCC3
:100B500000200090019002900390002417A904A89F
:100B600006F039FD00BF30E004A800EB041090ED62
:100B7000000AD5ED000A20EE200A04A800EB0410BC
:100B8000D0ED010A95ED011A00EE810A04A800EBF0
:100B90000410D0ED020A95ED021A00EE810A04A8B5
:100BA00000EB0410D0ED030A95ED031A00EE810A64
:100BB00020EE080AF0EE000A80EE201A684600EBEC
:100BC000840080ED001A601CC4B2042CCCDB00242D
:100BD00010E005EB840090ED000A684600EB84000D
:100BE000D0ED000A30EE200A05EB840080ED000A0B
:100BF000601CC4B2042CECDB284606F04DFC01203E
:100C000080E7000010B51021014801F08CF910BDFB
:100C10000000024010B51021014801F082F910BD1A
:100C20000000024010B50121014801F07CF910BD1F
:100C30000004024010B50121014801F072F910BD15
:100C400000040240022007498882C8826FF0050034
:100C50000883022048836FF005008883801CC883C6
:100C600070470000BC0D002010B5044603E04FF4AF
:100C70007A7000F006F8201EA4F101018CB2F6D1C2
:100C800010BD70B5034600BF00BF0020002200BFAA
:100C90004FF0E0267569A82603FB06F44FF0E02626
:100CA000B16910E04FF0E026B06988420BD088426D
:100CB00002D20E1A324402E02E1A0E443244014689
:100CC000A24200D300E0EDE700BF70BD10B50024E4
:100CD00005F0BCFA044305F04DFB0443052005F084
:100CE000C3FBFFF7AFFF204610BD00002DE9FC411C
:100CF00005460E461746002000900190FFF78AFF38
:100D0000922000F00EF906226946122000F0EAF85F
:100D1000FFF778FF9DF80100000200B29DF8001077
:100D200040EA01046C4804809DF80300000200B210
:100D30009DF8021040EA0104674844809DF80500D0
:100D4000000200B29DF8041040EA01046248848069
:100D5000FFF770FF08226946002000F0C3F8FFF794
:100D600061FF9DF800000F2829D19DF803000002C3
:100D700000B29DF8021040EA01045748408B201A47
:100D800000B25549C8819DF80500000200B29DF8E7
:100D9000041040EA01045048808B201A00B24E49EA
:100DA00008829DF80700000200B29DF8061040EA94
:100DB00001044948C08B201A00B247494882FFF716
:100DC00029FFA22000F0ADF802226946222000F09F
:100DD00089F8FFF717FF9DF80000C0009DF801108B
:100DE00040EA6114B4F5806F02DBA4F5006004B240
:100DF0003948B0F91200002803DD3748B0F9120075
:100E000003E03548B0F9120040420A2802DA002017
:100E10003149488200EE104AF8EEC00AB4EE001ADA
:100E2000B3EE070A00EE810A87ED000A2A48B0F9FE
:100E3000000000EE100AB8EEC00A2848D0ED000A03
:100E400020EE200A86ED000A2348B0F9020000EEE9
:100E5000100AB8EEC00A2148D0ED000A20EE200AA0
:100E600086ED010A1C48B0F9040000EE100AB8EE45
:100E7000C00A1A48D0ED000A20EE200A86ED020AC8
:100E80001548B0F90E0000EE100AB8EEC00A14487A
:100E9000D0ED000A20EE200A85ED000A0E48B0F9D8
:100EA000100000EE100AB8EEC00A0D48D0ED000A9E
:100EB00020EE200A85ED010A0748B0F9120000EE85
:100EC000100AB8EEC00A0648D0ED000A20EE200A4B
:100ED00085ED020ABDE8FC81BC0D00204000002029
:100EE0004400002070B506460C46154646F08000CA
:100EF00000F017F806E0552000F013F82070641C8D
:100F0000681EC5B2002DF6D170BD70B504460D4601
:100F100044F0800000F005F8552000F002F8287039
:100F200070BD70B50446204603F052FC05462846C5
:100F300070BD70B505460C462846FFF7F2FF204607
:100F4000FFF7EFFF70BD10B506F01CFB00F006F8D0
:100F500003F0D4FB01F0FEFA10BD000000B58BB029
:100F60000121082002F022FF0121480602F02EFF95
:100F700000214FF0007002F039FF03200990022099
:100F80008DF8280000208DF82A0003208DF8290014
:100F900001208DF82B0009A9314800F057FF0922E4
:100FA00000212F4800F09AFF092201212C4800F06F
:100FB00095FF00208DF81E0001208DF81F000020F5
:100FC0008DF8200001208DF8210000208DF82200EE
:100FD0008DF823008DF81A008DF81B0009208DF87C
:100FE0001C0002208DF81D000320ADF8180006A992
:100FF0001C4800F09CF900208DF812008DF81300B9
:1010000001208DF814000020ADF80800ADF80A00AA
:10101000ADF80C00ADF80E00ADF8100001208DF811
:10102000150002A800F0F6F8012202210D4800F098
:1010300075F9012211460B4800F070F914208DF863
:10104000040001208DF8050000208DF80600012025
:101050008DF8070001A802F04FFB0BB000BD0000A7
:10106000000C02400064004010B5494A0021494884
:1010700000F0E7F94848D0F8F81A4548884746484C
:10108000D0F87815424888474148006840F201216D
:1010900088421CD13E48007B3D49C97A40EA012084
:1010A00000B23E4988813A48817B407B41EA00207A
:1010B00000B23A4948813648017CC07B41EA0020B1
:1010C00000B2364908813248407C88735FE030487E
:1010D000006840F20221884221D12D48007B2C4932
:1010E000C97A40EA012001B22C48A0F8BC10284877
:1010F000817B407B41EA002001B22848A0F8BA1069
:101100002348017CC07B41EA002001B22348A0F8BB
:10111000B8101F48417C214880F8BE1037E01C48B9
:10112000006840F20521884231D11948007B1849F6
:10113000C97A40EA012000B2194988821448817BAB
:10114000407B41EA002000B2154948821048017CEA
:10115000C07B41EA002000B2114908820C48407C63
:1011600088750846B0F9140000EE900AF8EEE00A1F
:10117000B0EE600A0B4803F0CBFF10EE104A204699
:10118000FFF7C1F941EC100B054880ED020B10BDD3
:10119000C417001000640040700200108C12001090
:1011A00080140010401A001010B5094A00210948A7
:1011B00000F047F90848D0F87815054888470448F2
:1011C00002F088FF05494FF4407000F009F810BDA7
:1011D000940D0020006800407002001058020010BA
:1011E00070B504460D46094804600020074908729E
:1011F00048720820887201F10B0029680160696853
:1012000041600249024800F0BBF970BDA80D002002
:101210000068004010B50021837A012202FA03F130
:101220003D4A126842F001023B4B1A603A4A1C32B6
:1012300012688A43384B1C331A60027BCAB9364A9B
:101240000C3212688A43344B0C331A604288C388CC
:1012500042EA0343304A4032847A42F8343002880A
:10126000838842EA03432C4A4032847A02EBC40268
:101270005360027B012A19D1274A0C3212680A43B3
:10128000254B0C331A604288038842EA0343224A02
:101290004032847A42F83430C288838842EA034379
:1012A0001D4A4032847A02EBC4025360C27A3AB9D2
:1012B000194A121D12688A43174B1B1D1A6006E05B
:1012C000154A121D12680A43134B1B1D1A6002892E
:1012D00032B9114A143212688A430F4B14331A6020
:1012E0000289012A06D10C4A143212680A430A4BB9
:1012F00014331A60427B012A06D1074A1C32126855
:101300000A43054B1C331A60034A126822F001029B
:10131000014B1A6010BD0000006600401AB143691D
:101320000B43436102E043698B434361704730B52F
:10133000024600200023146824F00204146014689C
:1013400044F00104146000E05B1C546804F00104E4
:101350001CB94FF6FF74A342F6D1546804F001049F
:101360000CB900206CE08C79012C04D1146844F095
:101370008004146003E0146824F080041460CC79C5
:10138000012C04D1146844F04004146003E0146894
:1013900024F0400414600C7A012C04D1146844F049
:1013A0002004146003E0146824F0200414604C7AD4
:1013B000012C04D1146844F01004146003E0146894
:1013C00024F0100414608C7A012C04D1146844F0C9
:1013D0000804146003E0146824F008041460CC7A54
:1013E000012C04D1146844F00404146003E0146870
:1013F00024F0040414608C78A407CD7844EA0564D2
:101400000D7944EA05444D7944EA05540D886D1E72
:101410002C43D461146824F001041460002300E01C
:101420005B1C546804F001041CB14FF6FF74A34226
:10143000F6D1546804F001040CB1002000E0012052
:1014400030BD10B500F5D87303EB01131B6803F032
:1014500004031372137A53B900F5D87303EB011325
:101460001B6840F2FF7404EA5353136009E000F56F
:10147000D87303EB01131B686FF0604404EAD303D5
:10148000536000F5D87303EB01131B6803F00203EC
:10149000537200F5D87303EB01135B6803F00F037D
:1014A000937200F5D87303EB01135B681B0AD374C6
:1014B00000F5D87303EB01139B68D37200F5D87362
:1014C00003EB01139B681C0A147300F5D87303EB3C
:1014D00001139B681C0C547300F5D87303EB0113C4
:1014E0009B681B0E937300F5D87303EB0113DB6845
:1014F000D37300F5D87303EB0113DB681C0A147473
:1015000000F5D87303EB0113DB681C0C547400F571
:10151000D87303EB0113DB681B0E937421B9C36806
:1015200043F02003C36003E0036943F02003036139
:1015300010BD2DE9F04186B080460F4614461D4689
:101540000C9E019700208DF80C008DF80D000820EE
:101550008DF80E00200A8DF80F008DF81040290A32
:101560008DF811108DF81250310A8DF813108DF886
:10157000146001A9404600F003F806B0BDE8F08110
:1015800010B502460020936803F08063B3F1806FCA
:1015900000D110E0936803F00063B3F1006F01D154
:1015A000012008E0936803F08053B3F1805F01D11C
:1015B000022000E00420042874D002F5C07303EB7D
:1015C00000131B6803F0010402F5C07303EB001362
:1015D0001C600B7A7BB94B7A0C8843EA445302F5C2
:1015E000C07404EB00142468234302F5C07404EBB8
:1015F0000014236010E00B7A4C6843EAC4034C7A71
:10160000234302F5C07404EB00142468234302F55D
:10161000C07404EB001423608B7A03F00F038B7209
:1016200002F5C07303EB00135B6823F00F0402F5AF
:10163000C07303EB00135C6002F5C07303EB00138F
:101640005B688C7A234302F5C07404EB001463607A
:101650008B7B1C064B7B44EA03440B7B44EA03234D
:10166000CC7A234302F5C07404EB0014A3608B7C96
:101670001C064B7C44EA03440B7C44EA0323CC7BEA
:10168000234302F5C07404EB0014E36002F5C07359
:1016900003EB00131B6843F0010402F5C07303EB76
:1016A00000131C6010BD08B506E006F0E9FE0090CE
:1016B0000221684606F062F9F7E700002DED028B83
:1016C00082B0A0E006F0DCFE01904F48807A03284B
:1016D00021D14E4890ED000A4B48B0F9000000EED1
:1016E000900AF8EEE00A9FED4A1A00EE810A474898
:1016F00080ED000A90ED010A4348B0F9020000EEC7
:10170000900AF8EEE00A9FED431A00EE810A3F4886
:1017100080ED010A34E03C48807A022824D101F0AF
:1017200073FF3A48D0ED000A9FED3B1A40EE410AA4
:10173000C0ED000A01F056FE80F0010000EE100A34
:10174000B8EEC08A01F09CFF68EE000A2F4890EDC9
:10175000010A9FED321A00EEC10A80ED010A01F084
:10176000EFFE01F06BFE0BE02D4890ED000A2748DC
:1017700080ED000A2B4890ED000A244880ED010A14
:10178000224890ED000A284890ED001A30EE410AF8
:101790009FED261A20EE010AF0EE400A244890ED53
:1017A000001A244890ED000A05F0B8FE214880EDAB
:1017B000000A164890ED000A1B4880ED000A134805
:1017C00090ED010AFBEE0A0AB4EEE00AF1EE10FA1F
:1017D00004D8BBEE0A0A80ED010A0DE00B4890ED3B
:1017E000010ADFED150AB4EEE00AF1EE10FA03DBB0
:1017F0009FED110A80ED010A06F042FE01900321DF
:1018000001A806F0BBF85DE7641800102C02001078
:1018100052491D3A6F12033A4260653BA69BC43B96
:1018200004020010080200104002001000007A4478
:10183000440200103C02001000000C4210B509499F
:10184000094800F05BF958B10849074800F044F82E
:101850000649054800F05AF80549064802F06AFDB5
:1018600010BD000000880010286002400008001031
:10187000641800109E18001010B50949094800F0BE
:101880003DF9012807D10021064800F059F8082148
:10189000044800F091F90249024800F037F810BD01
:1018A00000802020A064024010B50949094800F0DA
:1018B00025F9012807D10021064800F041F806214A
:1018C000044800F079F90249024800F01FF810BD01
:1018D00000800028B86402400246094B9A4201D2B7
:1018E000084801E00648103801F000531BB1064BD0
:1018F0000B40C36002E0044B0B4083607047000064
:1019000010640240006002407D0F7D0F0246094BCB
:101910009A4201D2084801E00648103801F000530D
:101920001BB1064B0B40C36002E0044B0B408360CD
:101930007047000010640240006002407D0F7D0F80
:1019400021B1026842F00102026003E0026822F065
:101950000102026070470000016821F0010101608E
:101960000021016041608160C1600161212141610C
:101970004A49884204D13D21484A103A91608CE09E
:1019800046491831884205D14FF47461434A103AF0
:10199000916082E041493031884205D14FF47411A1
:1019A0003E4A103A916078E03C494831884205D17E
:1019B0004FF07461394A103A91606EE037496031F6
:1019C000884204D13649354A103AD16065E033493E
:1019D0007831884204D13349304A103AD1605CE012
:1019E0002E499031884204D12F492C4A103AD160B7
:1019F00053E02A49A831884205D14FF03D51274A8A
:101A0000103AD16049E02949884204D13D21274A52
:101A1000083A116041E025491831884205D14FF458
:101A20007461224A083A116037E020493031884217
:101A300005D14FF474111D4A083A11602DE01B497D
:101A40004831884205D14FF07461184A083A116054
:101A500023E016496031884204D11149134A121F0C
:101A600011601AE011497831884204D10D490F4ABA
:101A7000121F116011E00D499031884204D10A49CA
:101A80000A4A121F116008E00849A831884204D1AF
:101A90004FF03D51054A121F11607047106002401F
:101AA0003D000020400F002000003D201064024057
:101AB00021B1026842F48022026003E0026822F44D
:101AC00080220260704722B1036843F40023036060
:101AD00003E0036823F400230360016170470146BB
:101AE000486880B27047014600200A6802F400226C
:101AF0000AB1012000E000207047000070B50246E6
:101B0000002000240025124EB24201D2114B01E008
:101B10000F4B103B104E0E4036B11E2606EAD12464
:101B2000166806EA040502E0566906F0800501F031
:101B300000560EB15C6800E01C68084E344004EAB0
:101B4000010616B10DB1012000E0002070BD0000BB
:101B500010640240006002403C0F3C0F7D0F7D0F7F
:101B600010B500220268134B1A40CC680B6823435F
:101B70004C6923438C692343CC6923430C6A234378
:101B80004C6A23438C6A23434C6B23438C6B234363
:101B90001A430260426922F00702D1E90B34234361
:101BA0001A4342610B6943604B6883608B68C36072
:101BB00010BD00003F801CF04160704770B50446C6
:101BC000042002F0EBFF0C48047025464FF47A70B5
:101BD00045430120094908804FF0E020006940F0AA
:101BE00002004FF0E021086108464561006940F0BD
:101BF0000100086170BD000000000010020000102C
:101C000010B5082000F00CF810BD10B5102000F041
:101C100007F810BD10B5202000F002F810BD00003C
:101C20000149086070470000143C01400179427985
:101C3000914203D000210180417901717047000079
:101C40001CB50648012100238022CDE9001004A123
:101C5000084806F0D5FB05F0C3FF1CBD04000010CA
:101C600053797374656D5F53746172745F546173FB
:101C70006B000000614C00081CB500F065FABFE085
:101C800006F0FEFB01905F48007801283CD105205A
:101C90005D4981F8740505215B4880F8F41A5B48BA
:101CA00090ED000A5A4801F018FB5A4880ED000AEE
:101CB000594890ED000A594801F00FFB584880ED53
:101CC000000A5149D1F8FC0A554991ED000A8047B4
:101CD000044600202346024640F2FF11009051487E
:101CE000FFF727FC4849D1F87C054A4991ED000AE5
:101CF0008047044600200346224640F2FF11009030
:101D00004948FFF716FC77E04848807A012808D157
:101D100000203D4981F8740500213B4880F8F41A01
:101D20000FE04248807A03280BD14148006801281F
:101D300007D10220344981F874050221324880F825
:101D4000F41A3C4890ED000A3B48D0ED000A30EE12
:101D5000600A3A4880ED020A364890ED010A384898
:101D6000D0ED000A30EE600A344880ED0B0AD0ED69
:101D70000B0AB0EE600A334801F0AFFA2F4880ED4D
:101D80000B0AD0ED020AB0EE600A2F4801F0A5FA66
:101D90002A4880ED020A1C4991F8F42A00F1240136
:101DA00001EB8201D1ED000AB0EE600A1649D1F8CC
:101DB000FC0A8047044600202346024640F2FF11F9
:101DC00000901848FFF7B5FB0F4991F874151B4AAE
:101DD00002EB8101D1ED000AB0EE600A0A49D1F8A8
:101DE0007C058047044600200346224640F2FF114E
:101DF00000900D48FFF79DFB012101A805F0BEFDF5
:101E00003EE700000800002070020010980000204B
:101E100080010020000000209C000020B001002074
:101E200004000020006400400068004064180010B6
:101E3000240200102C02001004020010D800002020
:101E4000080200102001002050010020F0B50A46D1
:101E500000210023002400BF3DE0012505FA01F325
:101E6000156805EA03049C4234D105684F00032637
:101E7000BE40B543056015794E00B5400668354350
:101E800005601579012D02D01579022D16D18568CE
:101E90004F000326BE40B543856055794E00B540DE
:101EA000866835438560456801268E40B5434560A8
:101EB000456896798E40B6B235434560C5684F0097
:101EC0000326BE40B543C560D5794E00B540C6680F
:101ED0003543C560491C1029BFD3F0BDF0B50023C0
:101EE00000244D07ED0E02FA05F3CE1000F1200597
:101EF00055F826504E07F70E0F26BE40B543CF10BB
:101F000000F1200646F82750CE1000F1200555F8C4
:101F1000265045EA0304CE1000F1200545F826407E
:101F2000F0BD4183704701837047000010B52DED6F
:101F3000028BB0EE408A334A92F8F42A02EB420355
:101F400003EB0213304A02EBC30202F14C002D4AAC
:101F500092F8F42A02EB420303EB02132A4A02EB43
:101F6000C302B0EE480AD2F8941088472748D0ED53
:101F7000000A30EE600AF0EE408A224A92F8F42A13
:101F800002EB420303EB02131F4A02EBC3001D4A9C
:101F900092F8F42A02EB420303EB02131A4A02EB13
:101FA000C302916C8847BDEEC00A10EE100A04B25D
:101FB0001448D0F88005052802DA40F2FF1001E04D
:101FC00040F2FF2012490860002008724872082081
:101FD0008872104890ED000AF7EE000AB4EEE00AAD
:101FE000F1EE10FA03DD0C480068012802D0002051
:101FF0000A49088009480088204404B22046BDEC04
:10200000028B10BD700200100808001014020010AE
:10201000281A00100C020010240200108812001070
:1020200010B52DED028BF0EE408A3E4A92F87425F1
:1020300002EB420303EB02133A4A183202EBC302EB
:1020400002F14C00374A92F8742502EB420303EB8D
:102050000213344A183202EBC302B0EE680AD2F817
:10206000941088473048D0ED000A30EE600A2F48BF
:10207000007880F0010000EE900AF8EEE00A2C48AB
:1020800090ED001A2B48D0ED001A21EE211A00EE37
:10209000810A2948807A022801D1012000E000202D
:1020A00000EE900AF8EEE00A244890ED001A60EE87
:1020B000810A234890ED001A00EEC10AB0EE408A72
:1020C000184A92F8742502EB420303EB0213154AF7
:1020D000183202EBC300183A92F8742502EB42035F
:1020E00003EB02130F4A183202EBC302916C8847CC
:1020F000BDEEC00A10EE100A04B20A4800680528B6
:1021000002DA40F2FF1001E040F2FF200D490860C2
:10211000002008724872082088722046BDEC028BAD
:1021200010BD000070020010100200100800002016
:102130003C020010801200106418001060020010B1
:1021400084120010141A001010B56549654801F09A
:1021500097FC634948316348983001F091FC60492D
:102160009031614801F08CFC5D49D8315E4898306F
:1021700001F086FC5D495E4801F082FC5B49483114
:102180005B48983001F07CFC58499031594801F087
:1021900077FC5649D8315748983001F071FC5649C0
:1021A000564801F06DFC544948315448C03001F0A4
:1021B00067FC51499031524801F062FC4E49D831D8
:1021C0004F48983001F05CFC4E494F4801F058FCF4
:1021D0004C4948314C48983001F052FC4949903103
:1021E0004A4801F04DFC4749D8314848983001F041
:1021F00047FC4749474801F043FC454948314548B9
:10220000983001F03DFC3649243136484C3001F01D
:1022100037FC33496C3134484C3801F031FC3349D8
:102220006C3931484C3001F02BFC304924393048AE
:102230004C3801F025FC2D4924312D484C3001F05B
:102240001FFC2A496C312B484C3801F019FC2A49F3
:102250006C3928484C3001F013FC274924392748B1
:102260004C3801F00DFC2449243124484C3001F055
:1022700007FC21496C3122484C3801F001FC21490E
:102280006C391F484C3001F0FBFB1E4924391E48B5
:102290004C3801F0F5FB1B4924311B484C3001F050
:1022A000EFFB18496C3119484C3801F0E9FB18492B
:1022B0006C3916484C3001F0E3FB154924391548B8
:1022C0004C3801F0DDFB1249243112484C3001F04A
:1022D000D7FB0F496C310F48E43001F0D1FB10BD42
:1022E000700D001088020010B8030010900E00104E
:1022F000E804001018060010B00F00104807001086
:10230000A0080010D0100010D0090010000B001021
:10231000F0110010300C001010B504461C48216864
:10232000D0F8800500F5017081422FD1207BE17A41
:1023300040EA012001B21648A0F88C15A17B607B11
:1023400041EA002001B21248A0F88A15217CE07B06
:1023500041EA002001B20E48A0F88815617C80F89F
:102360008E159FED0C0A00F28C5004F0C1F80A485B
:1023700080ED010A094890ED000A074880ED050A42
:10238000074890ED000A044880ED040A10BD0000E3
:102390007002001000000046F00700101402001048
:1023A0000802001010B54FF4407001F0E1F9A820C8
:1023B000FFF704FCFEF7C7FDFFF742FC10BD00006D
:1023C00010B52DED028B04461C482168006800F50D
:1023D000017081422ED1207BE17A40EA012000B2D7
:1023E00016498881A17B607B41EA002000B2134935
:1023F0004881217CE07B41EA002000B20F4908813E
:10240000607C88739FED0E0A01F10C0004F070F8F7
:10241000B0EE408A0948001D03F0E6FD094890ED42
:10242000000A064880ED050A074890ED000A0348B7
:1024300080ED040ABDEC028B10BD0000700200109C
:1024400000000046100200100402001010B52DED2F
:10245000048B0446B0EE408A94ED000A38EE400A40
:1024600084ED010A84ED008A94ED010ADFED210A72
:10247000B4EEE00AF1EE10FA07D894ED010ADFEDB0
:102480001E0A30EE200A84ED010A94ED010ADFED08
:102490001B0AB4EEE00AF1EE10FA07DB94ED010A34
:1024A000DFED150A30EE600A84ED010A94ED010AB1
:1024B00010EE101A0846FEF726F841EC190B94EDC1
:1024C000021BB0EE410AF0EE610A53EC102BFDF74F
:1024D00073FFC4E9020194ED021BB0EE410AF0EE75
:1024E000610A51EC100BFEF721F800EE100ABDEC6A
:1024F000048B10BD000034C30000B443000034431B
:1025000010B500200F4908600F48006820F44020F3
:102510000D4908600846006840F4802008600020EB
:102520000A49C1F8A402022003F0BEFF01200549B8
:102530000860022003F0B8FF00200549C1F8A0029E
:1025400010BD0000A00240420008024000004142CD
:10255000000040421CB50121084601F027FC012182
:10256000042001F023FC4FF48070009001208DF8CE
:10257000040000208DF8060003208DF805000120DE
:102580008DF8070069460E48FFF760FC4FF40070B5
:10259000009001208DF8040000208DF80600032033
:1025A0008DF8050001208DF8070069460548FFF702
:1025B0004DFC0120044908600449C1F8A4021CBD77
:1025C0000000024000080240A002404200004142D8
:1025D00010B500200F4908600F48006820F4402023
:1025E0000D4908600846006840F48020086001201A
:1025F0000A49C1F8A402022003F056FF0120054950
:102600000860022003F050FF00200549C1F8A00235
:1026100010BD0000A00240420008024000004142FC
:102620000000404270B5054600241548006820F4BB
:10263000402013490860084600680860002615E03D
:10264000002010490860022003F02EFF01200E49EF
:10265000C1F8A0026006040E0C48006808B1601CB6
:10266000C4B2012003F020FF701CC6B2082EE7DBC5
:1026700015B9FFF7ADFF01E0FFF742FF204670BD3F
:1026800000080240A00240420000404224024142B1
:1026900070B504461448006820F4402012490860D0
:1026A0000846006840F48020086000200F49086058
:1026B000002516E0E0090E4908606006040E0220BD
:1026C00003F0F2FE01200B49C1F8A002022003F042
:1026D000EBFE002005490860022003F0E5FE681CBF
:1026E000C5B2082DE6DB70BD00080240A0024042E2
:1026F000A40241420000404210B50F48006820F497
:1027000040200D4908600846006840F480200860B9
:1027100001200A4908600A49C1F8A002042003F018
:10272000C3FE002005490860042003F0BDFE002020
:102730000349C1F8A00210BD00080240A4024142B2
:102740000000404210B50F48006820F440200D49B9
:1027500008600846006840F48020086000200A49AC
:1027600008600A49C1F8A402042003F09DFE01207C
:10277000054908600549C1F8A402042003F094FE4D
:1027800010BD000000080240A0024042000041428B
:1027900010B500241248006820F440201049086059
:1027A00008460068086001200E49086003F07CFEBE
:1027B00001200D49C1F8A00203F076FE07E0601C7D
:1027C000C4B2FA2C03DDFFF7BDFF012010BD0548A0
:1027D000803800680028F2D10449086000BFF5E79E
:1027E00000080240A402414200004042A0024042D0
:1027F0002DED028B82B002E0642005F091F8FEF727
:1028000065FA0028F8D102E0642005F089F804F0A8
:102810005DF80028F8D19B4AA2F10C01101DFEF7CB
:1028200065FADFED990A9FED990A994A00219948C6
:1028300001F08CFA9848934B103B984A98490090C5
:10284000984803F0DBFE954A95499748FDF7D0FF7D
:10285000934890ED000A954880ED000A944880ED79
:10286000000A944880ED000A8D4890ED010A8F48D7
:1028700080ED010A8E4880ED010A8E4880ED010A44
:10288000874890ED020A894880ED020A884880ED69
:10289000020A884880ED020A102001F0C5FFEFE02F
:1028A00005F0EEFD0190012083490860834800F0A7
:1028B0001FF97948734B103B784A79490090794861
:1028C00003F09CFE6F481038D0ED040AB0EE600AA9
:1028D00003F02AFF764890ED000A764880ED000A62
:1028E000724890ED000A724880ED000A90ED000AEF
:1028F0007348D0ED000A20EE200A6E48D0ED000AA1
:102900006F4890ED011A00EE810A6548D0ED000A8B
:102910006B4890ED021A00EE810A644880ED000ACF
:10292000634890ED010A634880ED010A5F4890ED2D
:10293000010A5F4880ED010A90ED010A6048D0ED80
:10294000000A20EE200A5B48D0ED010A5C4890EDB9
:10295000011A00EE810A5248D0ED010A584890ED64
:10296000021A00EE810A514880ED010A504890EDAC
:10297000020A504880ED020A4C4890ED020A4C4889
:1029800080ED020A90ED020A4D48D0ED000A20EEDB
:10299000200A4848D0ED020A494890ED011A00EE9D
:1029A000810A3F48D0ED020A454890ED021A00EE38
:1029B000810A3E4880ED020A384B024639499FEDB4
:1029C000410A3948FEF780F83F4B1A1F111F36485D
:1029D00003F0A0FD3C48083890ED010ADFED3B0A0A
:1029E00020EE200ADFED3A0A80EE201A394880ED09
:1029F000001A3548083890ED020ADFED340A20EE5F
:102A0000200ADFED330A80EE201A334880ED001AE9
:102A1000244890ED000ADFED2D0A20EE200A2F4811
:102A200080ED000A1F4890ED010ADFED280A20EE34
:102A3000200A2B4880ED000A1A4890ED020ADFEDCB
:102A4000230A20EE200A274880ED000A1E48083895
:102A500090ED000ADFED1D0A20EE200ADFED1C0AD2
:102A600080EE201AB0EE418AB0EE480A1E48FFF709
:102A7000EDFC1E4880ED000A012101A804F07EFF54
:102A80000EE70000140200200080894500A08C455C
:102A90002C0000103802002028020020980200209C
:102AA0008C02002080020020A4020020EC0C0020F8
:102AB000E00C0020D40C002024020010E0010020D3
:102AC0001489000853CF823ABC020020000034432E
:102AD000DA0F49400C020010080200101402001026
:102AE0001802001010020010700D002004020010E7
:102AF0002DE9F0472DED068B054600249FEDFD0ADC
:102B0000B0EE408A9FEDFB0AF0EE408A9FEDF90A95
:102B1000B0EE409A9FEDF70AF0EE409A9FEDF50A6D
:102B2000B0EE40AA9FEDF30AF0EE40AAF24AA2F1FD
:102B30000C01101DFEF7DAF801244DE0EF4800EB20
:102B4000840090ED000A601EEC4901EB800080EDEE
:102B5000000A01F5CA7000EB840090ED000A601EC7
:102B600001F5CA7101EB800080ED000A01F5CA7021
:102B700000EB840090ED000A601E01F5CA7101EBC4
:102B8000800080ED000A01F5CA7000EB840090ED32
:102B9000000A601E01F5CA7101EB800080ED000A99
:102BA00001F5CA7000EB840090ED000A601E01F58B
:102BB000CA7101EB800080ED000A01F5CA7000EBDC
:102BC000840090ED000A601E01F5CA7101EB8000DF
:102BD00080ED000A601CC4B2642CAFDBC64810381C
:102BE00090ED010AC54880ED630AC348103890EDA6
:102BF000020AC24880EDC80ABF48103890ED030AA7
:102C0000BF4880ED630ABC48103890ED050ABD4806
:102C100080ED630AB848103890ED060ABA4880ED96
:102C2000630AB548103890ED070AB84880ED630A8A
:102C300000240CE009F10109B04800EB840090ED9C
:102C4000000A30EE080AB0EE408A601CC4B2642C60
:102C5000F0DB9FEDAF0AC8EE000AA848C0ED640A99
:102C60009FEDA40AB0EE408A00240AE0A94800EBD8
:102C7000840090ED000A30EE280AF0EE408A601CD5
:102C8000C4B2642CF2DB9FEDA20AC8EE800A9B4816
:102C9000C0EDC90A9FED970AF0EE408A00240AE0D1
:102CA000974800EB840090ED000A30EE090AB0EE80
:102CB000409A601CC4B2642CF2DB9FED950AC9EE09
:102CC000000A8F48C0ED640A9FED8A0AB0EE409A70
:102CD00000240AE08B4800EB840090ED000A30EEFF
:102CE000290AF0EE409A601CC4B2642CF2DB9FED1E
:102CF000880AC9EE800A8348C0ED640A9FED7D0A08
:102D0000F0EE409A00240AE07F4800EB840090ED4A
:102D1000000A30EE0A0AB0EE40AA601CC4B2642C6D
:102D2000F2DB9FED7B0ACAEE000A7748C0ED640A29
:102D30009FED700AB0EE40AA00240AE0734800EB51
:102D4000840090ED000A30EE2A0AF0EE40AA601CE2
:102D5000C4B2642CF2DB9FED6E0ACAEE800A6B48A7
:102D6000C0ED640A9FED630AF0EE40AA634890ED5F
:102D7000640A694880ED000A604890EDC90A664817
:102D800080ED010A5E4890ED640A634880ED020A16
:102D90005C4890ED640A604880ED040A5A4890ED62
:102DA000640A5D4880ED050A584890ED640A5A4867
:102DB00080ED060A002630E0574890ED040A574897
:102DC00000EB8600D0ED000AB4EE600AF1EE10FAD6
:102DD00008D1524800EB860090ED000A504880ED83
:102DE000000A1CE04C4890ED040AB1EE400A4B4842
:102DF00000EB8600D0ED000AB4EE600AF1EE10FAA6
:102E00000AD1464800EB860090ED000AB1EE400A78
:102E1000434880ED000A02E0761C322ECCDB00BF76
:102E2000002730E03C4890ED050A3C4800EB870065
:102E3000D0ED000AB4EE600AF1EE10FA08D137487E
:102E400000EB870090ED000A364880ED000A1CE098
:102E5000314890ED050AB1EE400A304800EB87009A
:102E6000D0ED000AB4EE600AF1EE10FA0AD12B4858
:102E700000EB870090ED000AB1EE400A294880ED92
:102E8000000A02E07F1C192FCCDB00BF4FF00008C6
:102E90004EE0214890ED060A204800EB8800D0ED76
:102EA000000AB4EE600AF1EE10FA08D11B4800EBFC
:102EB000880090ED000A1C4880ED000A3BE01648AF
:102EC00090ED060AB1EE400A144800EB8800D0ED00
:102ED000000AB4EE600AF1EE10FA27D10F4800EBB9
:102EE000880090ED000AB1EE400A0F4880ED000A1C
:102EF00021E000000000000014020020C0020020B9
:102F0000E80500207C07002010090020A40A00200A
:102F10000000C84254040020380C0020C4000010F7
:102F2000B0000010B4000010B800001008F1010853
:102F3000B8F1170FADDB00BF904890ED000A80EDAF
:102F4000000A9FED8F0A80ED020A9FED8E0A80ED48
:102F5000030A90ED010AD0ED020A30EE200A80ED5E
:102F6000010A90ED010AD0ED030A30EE200AD0EDFF
:102F7000010A80EE801A80ED041A834890ED000A61
:102F80007E48D0ED000A70EE600A90ED000A90EDE8
:102F9000041A01EE200A80ED000A90ED040AF7EE13
:102FA000000A30EEC00AD0ED010A20EE200A80EDC2
:102FB000010A90ED050A80ED050A9FED710A80ED8A
:102FC000080A9FED700A80ED070A90ED060AD0ED21
:102FD000080A30EE200A80ED060A90ED060AD0EDD0
:102FE000070A30EE200AD0ED060A80EE801A80ED46
:102FF000091A654890ED010A6048D0ED050A70EEA7
:10300000600A90ED050A90ED091A01EE200A80EDA4
:10301000050A90ED090AF7EE000A30EEC00AD0ED7D
:10302000060A20EE200A80ED060A90ED0A0A80EDDD
:103030000A0A9FED530A80ED0C0A9FED520A80EDBB
:103040000D0A90ED0B0AD0ED0C0A30EE200A80ED4F
:103050000B0A90ED0B0AD0ED0D0A30EE200AD0EDF0
:103060000B0A80EE801A80ED0E1A474890ED020A96
:103070004248D0ED0A0A70EE600A90ED0A0A90ED1F
:103080000E1A01EE200A80ED0A0A90ED0E0AF7EE04
:10309000000A30EEC00AD0ED0B0A20EE200A80EDC7
:1030A0000B0A90ED000A85ED000A90ED050A85ED0A
:1030B000010A90ED0A0A85ED020A334890ED040AF0
:1030C0003248D0ED000A30EE600A2F4880ED040A45
:1030D00090ED040A85ED030A90ED050A2C48D0ED29
:1030E000000A30EE600A284880ED050A90ED050AD6
:1030F00085ED040A90ED060A2648D0ED000A30EE70
:10310000600A214880ED060A90ED060A85ED050A61
:1031100095ED000ADFED200A30EE600ADFED1F0AB0
:1031200020EE200A1E4880ED000A95ED010ADFED31
:103130001D0A30EE600ADFED1C0A20EE200A80ED49
:10314000010A95ED020ADFED190A30EE600ADFEDA3
:10315000180A20EE200A80ED020A95ED030A1548B0
:1031600080ED000A95ED040A80ED010A95ED050A4F
:1031700080ED020ABDEC068BBDE8F087F80C00205C
:10318000BC74933C83C00A3F380C0020B000001090
:10319000B4000010B8000010CECDF43F58C1B142C9
:1031A0008C020020D7111F41565D5C43E49F6E40A6
:1031B000698330438002002000201449D1ED350A94
:1031C000B0EE600AB5EEC00AF1EE10FA02DDF0EEE4
:1031D000400A01E0F1EE400A9FED0D1AF4EEC10A3B
:1031E000F1EE10FA10DD0949B1F91210002903DDE2
:1031F0000649B1F9121003E00449B1F9121049422D
:10320000B1F5967F00DA01207047000080140010AD
:103210000000FA4300200C49D1ED6E0AB0EE600ABE
:10322000B5EEC00AF1EE10FA02DDF0EE400A01E060
:10323000F1EE400A9FED051AF4EEC10AF1EE10FA24
:1032400000DB01207047000080140010D9891D4464
:1032500070B504460E4615460EB1012000E0002070
:1032600060712046FEF7E2FCB6B9E07888B12088AC
:10327000401C20802188681C814203DB0020A07054
:10328000E07029E02088A84226DB0420A070E070CE
:1032900022E0002020801FE0012E1DD1E0780228CE
:1032A00018D02088401C20802088984203DB022010
:1032B000A070E07010E02188681C814203DB0120CF
:1032C000A070E07008E02088A84205DB0320A07011
:1032D000E07001E00020208070BDF0EE400A90ED2B
:1032E000070A90ED001A20EE010A80ED010A90ED28
:1032F000090A90ED071AD0ED051A01EE210A80EDBA
:10330000030A90ED030A90ED0A1A30EE010A90EDDF
:10331000031AC1EE001AC0ED061A90ED010A90EDF5
:10332000061AD0ED011A70EEE11A01EE210A80EDC5
:10333000020A90ED060AB7EE001A31EE400A90ED4F
:10334000031A20EE010A80ED040A90ED040A80EDD4
:10335000050A90ED020A80ED000A90ED020A70471E
:1033600000B51C48808AC10B4FF4967305221A4899
:10337000FFF76EFF18485A3890F85C00052826D2EF
:10338000DFE800F003052004210020E01FE01348DF
:103390000078012815D1124890F8E001012804D1E5
:1033A00002200F4981F8E00108E00D4890F8E001A3
:1033B000022803D101200A4981F8E00100200749D1
:1033C000087004E003E001200449087000BF00BF5A
:1033D00000BD000064180010521800106D020010AB
:1033E0008014001000B51248007DC0F340114FF466
:1033F000967305220F48FFF72BFF0E481E3890F8F2
:10340000200005280FD2DFE800F0030509040A00B8
:1034100009E008E001200849087004E003E000200A
:103420000549087000BF00BF0348007800BD0000D8
:1034300064180010161800106E02001000B517482E
:10344000007DC0F3C0114FF4967305221448FFF7B6
:10345000FFFE13482A3890F82C0005281CD2DFE81C
:1034600000F0030819041A0016E001200D49087045
:1034700012E00C48007801280BD10B4890ED000AAF
:10348000DFED0A0A30EE600A80ED000A00200549EF
:10349000087001E000E000BF00BF00BD641800102C
:1034A000221800106C0200102C0200100000B44220
:1034B00000B51E48817C4FF4967305221C48FFF727
:1034C000C7FE1B48603890F86200052829D2DFE863
:1034D00000F003052004210023E022E0154890F8C5
:1034E000E00102280DD114480078012805D11349C4
:1034F00008700020104908700AE000200F49087089
:1035000006E00C4890F8E001012801D10B49087051
:1035100007E006E00120084908700020074908700C
:1035200000BF00BF0548007800BD0000641800100F
:103530005818001080140010690200106802001072
:1035400000B51748007DC0F380114FF49673052233
:103550001448FFF77DFE1348243890F8260005280C
:103560001CD2DFE800F0030819041A0016E001205D
:103570000D49087012E00C48007801280BD10B4867
:1035800090ED000ADFED0A0A30EE200A80ED000A15
:1035900000200549087001E000E000BF00BF00BD49
:1035A000641800101C1800106B0200102C02001090
:1035B0000000B44200B51148007DC0F300114FF483
:1035C000967305220E48FFF743FE0D481838807E9B
:1035D00005280FD2DFE800F0030509040A0009E01E
:1035E00008E001200749087004E003E000200549D5
:1035F000087000BF00BF0348007800BD64180010C9
:10360000101800106A02001010B52DED028B9FED0E
:10361000180AB0EE408A1748B0F90C00002803DD04
:103620001448B0F90C0003E01248B0F90C00404215
:10363000B0F5967F04DD9FED0E0AB0EE408A12E0F1
:103640000C48B0F90C0000EE900AF8EEE00AB0EE7B
:10365000600A0948FFF741FEF0EE408A074801F092
:1036600073FAB0EE408AB0EE480ABDEC028B10BD92
:103670000000000064180010C41800102419001085
:1036800010B52DED028B9FED180AB0EE408A174859
:10369000B0F90E00002803DD1448B0F90E0003E075
:1036A0001248B0F90E004042B0F5967F04DD9FED60
:1036B0000E0AB0EE408A12E00C48B0F90E0000EE9F
:1036C000900AF8EEE00AB0EE600A0948FFF705FE3E
:1036D000F0EE408A074801F037FAB0EE408AB0EECB
:1036E000480ABDEC028B10BD0000000064180010F9
:1036F000F41800109C19001070B5002100230F224F
:10370000C4781CB3174C246804F4E064C4F5E06486
:10371000C4F30721C1F10404E3B20A4144789C4098
:10372000E1B28478144021430C07210E0E4C057839
:103730006155047804F01F050124AC4005786D1133
:10374000AD0005F1E025C5F8004109E0047804F07A
:103750001F050124AC40054D0678761145F826403A
:1037600070BD00000CED00E000E400E080E100E04E
:1037700002490143024A1160704700000000FA0547
:103780000CED00E0F0EE400A416A816210EE901A02
:103790004162416A00EE101AC16801EE101AB1EEE2
:1037A000411AB4EEC10AF1EE10FA08D8C16800EE71
:1037B000101AB1EE400A10EE101A41620CE0416A94
:1037C00000EE101AC16801EE101AB4EEC10AF1EE53
:1037D00010FA01DBC1684162C16A00EE101A416A49
:1037E00001EE101A30EE010A10EE101AC162C16A21
:1037F00000EE101A016901EE101AB1EE411AB4EE92
:10380000C10AF1EE10FA08D8016900EE101AB1EE03
:10381000400A10EE101AC1620CE0C16A00EE101AE4
:10382000016901EE101AB4EEC10AF1EE10FA01DBE3
:103830000169C162016800EE101A416A01EE101AB6
:1038400020EE010A10EE101A0163016B00EE101A4F
:10385000416901EE101AB1EE411AB4EEC10AF1EE5F
:1038600010FA08D8416900EE101AB1EE400A10EEC5
:10387000101A01630CE0016B00EE101A416901EEB1
:10388000101AB4EEC10AF1EE10FA01DB41690163CE
:10389000416800EE101AC16A01EE101A20EE010A0A
:1038A00010EE101A4163416B00EE101A816901EEAF
:1038B000101AB1EE411AB4EEC10AF1EE10FA08D8AE
:1038C000816900EE101AB1EE400A10EE101A416341
:1038D0000CE0416B00EE101A816901EE101AB4EE93
:1038E000C10AF1EE10FA01DB81694163416A00EE21
:1038F000101A816A01EE101A30EE411A816800EE4A
:10390000101A21EE000A10EE101A8163816B00EE8E
:10391000101AC16901EE101AB1EE411AB4EEC10AD3
:10392000F1EE10FA08D8C16900EE101AB1EE400AA3
:1039300010EE101A81630CE0816B00EE101AC16961
:1039400001EE101AB4EEC10AF1EE10FA01DBC16902
:103950008163016B00EE101A416B01EE101A30EE1C
:10396000011A816B00EE101A31EE000A10EE101AE7
:10397000C163C16B00EE101A016A01EE101AB1EEBC
:10398000411AB4EEC10AF1EE10FA08D8016A00EE4D
:10399000101AB1EE400A10EE101AC1630CE0C16BB0
:1039A00000EE101A016A01EE101AB4EEC10AF1EE2F
:1039B00010FA01DB016AC163C16B00EE101A704797
:1039C00010B52DED0A8B0446B0EE408AF0EE608A09
:1039D000B0EE419AF0EE619AB0EE42AAF0EE62AA21
:1039E000B0EE43BAF0EE63BAB0EE44CA9FED200ADF
:1039F00010EE100A20639FED1E0A10EE100A60639D
:103A00009FED1B0A10EE100AA0639FED190A10EE3D
:103A1000100AE0639FED160A10EE100A60629FED37
:103A2000140A10EE100AA0629FED110A10EE100A9F
:103A3000E0621048A0641048206410486064216C63
:103A4000B0EE4C4AF0EE6B3AB0EE4B3AF0EE6A2A2A
:103A5000B0EE4A2AF0EE691AB0EE491AF0EE680AA2
:103A6000B0EE480A20468847BDEC0A8B10BD000026
:103A70000000000085370008D73A0008113B000815
:103A800070B505460C46D4ED084AB0EE644AD4ED54
:103A9000074AF0EE643AD4ED064AB0EE643AD4ED4B
:103AA000054AF0EE642AD4ED044AB0EE642AD4ED5F
:103AB000034AF0EE641AD4ED024AB0EE641AD4ED73
:103AC000014AF0EE640AD4ED004AB0EE640A2846DA
:103AD000FFF776FF70BD10EE101A016010EE901A1D
:103AE000416011EE101A816011EE901AC16012EE61
:103AF000101A016112EE901A416113EE101A8161E1
:103B000013EE901AC16114EE101A016270470000A2
:103B10009FED110A10EE101A01639FED0F0A10EECF
:103B2000101A41639FED0C0A10EE101A81639FED8D
:103B30000A0A10EE101AC1639FED070A10EE101A60
:103B400041629FED050A10EE101A81629FED020A94
:103B500010EE101AC162704700000000B0EE401A6B
:103B600010B99FED790A704790ED100A80ED110AA7
:103B700090ED0F0A80ED100AC0ED060A80ED071ADD
:103B800030EEC10A80ED0F0A0178002975D190ED61
:103B9000010AD0ED0F1A20EE210A80ED090A90EDFE
:103BA0000A0AD0ED021A90ED0F2A01EE820A80ED8A
:103BB0000A0A90ED0D0A80ED0E0A90ED0C0A80EDD8
:103BC0000D0A90ED0F0AD0ED101A30EE610A80ED6B
:103BD0000C0A90ED030AD0ED0C1A20EE210A80EDBC
:103BE0000B0A90ED0A0AD0ED051AB4EEE10AF1EEE7
:103BF00010FA04DD90ED050A80ED0A0A10E090ED60
:103C00000A0AD0ED051AF1EE611AB4EEE10AF1EEFE
:103C100010FA05D290ED050AB1EE400A80ED0A0ACD
:103C200090ED090AD0ED0A1A30EE210AD0ED0B1AF8
:103C300030EE210A80ED080A90ED080AD0ED041A52
:103C4000B4EEE10AF1EE10FA04DD90ED040A80ED25
:103C5000080A76E090ED080AD0ED041AF1EE611A38
:103C6000B4EEE10AF1EE10FA6BD290ED040AB1EE77
:103C7000400A80ED080A64E0FFE70178012960D17D
:103C800090ED0F0AD0ED101A30EE610AD0ED011A56
:103C900020EE210A80ED090A90ED020AD0ED0F1AFC
:103CA00020EE210A80ED0A0A90ED0D0A80ED0E0A41
:103CB00090ED0C0A80ED0D0A90ED0F0AD0ED101A70
:103CC000B0EE002A02EE610AD0ED111A30EE210AA0
:103CD00080ED0C0A90ED030AD0ED0C1A20EE210ABB
:103CE00080ED0B0A90ED090AD0ED0A1A30EE210A98
:103CF000D0ED0B1A30EE210AD0ED081A30EE210A71
:103D000080ED080A90ED080AD0ED041AB4EEE10A3D
:103D1000F1EE10FA04DD90ED040A80ED080A10E0DF
:103D200090ED080AD0ED041AF1EE611AB4EEE10A42
:103D3000F1EE10FA05D290ED040AB1EE400A80EDE2
:103D4000080A90ED080A0EE70000000000B102B971
:103D50007047017092ED001A80ED011A92ED011A80
:103D600080ED021A92ED021A80ED031A80ED040A2A
:103D7000C0ED050A9FED0C1A80ED0E1A80ED0D1AAC
:103D800080ED0C1A9FED081A80ED081A80ED0B1AD1
:103D900080ED0A1A80ED091A80ED111A80ED101AD3
:103DA00080ED0F1A00BFD3E70000000029B1064ADA
:103DB00012680243044B1A6004E0034A126882430B
:103DC000014B1A60704700003038024029B1064AA2
:103DD00012680243044B1A6004E0034A12688243EB
:103DE000014B1A60704700004038024029B1064A72
:103DF00012680243044B1A6004E0034A12688243CB
:103E0000014B1A60704700002038024029B1064A71
:103E100012680243044B1A6004E0034A12688243AA
:103E2000014B1A60704700004438024029B1064A2D
:103E300012680243044B1A6004E0034A126882438A
:103E4000014B1A607047000024380240F0B5002191
:103E500000220024022500260223324F3F6807F08B
:103E60000C0121B1042905D0082937D105E02E4FD6
:103E7000076036E02D4F076033E02A4F3F1F3F6851
:103E8000C7F38056274F3F1F3F6807F03F036EB1CF
:103E9000264FB7FBF3F7DFF88CC0ACF1040CDCF86D
:103EA00000C0CCF3881C07FB0CF40CE01E4FB7FBE2
:103EB000F3F7DFF870C0ACF1040CDCF800C0CCF311
:103EC000881C07FB0CF4174F3F1F3F68C7F30147DF
:103ED0007F1C7D00B4FBF5F7076002E0124F07601E
:103EE00000BF00BF0F4F3F6807F0F0010909104FF6
:103EF0007A5C0768D74047600A4F3F6807F4E05193
:103F0000890A0B4F7A5C4768D7408760054F3F6846
:103F100007F46041490B064F7A5C4768D740C76099
:103F2000F0BD0000083802400024F400001BB70078
:103F3000A80000200E4800780E4908700C48407810
:103F400048700B484088000A887009488078C8701B
:103F500007488088000A08710548007948710448BC
:103F6000C088000A887102488079C87170470000D3
:103F7000500200105802001070B596B004460E466C
:103F8000154601214E48FFF711FF01218804FFF774
:103F90001DFF01218804FFF729FF00214FF4802035
:103FA000FFF724FF07220B214648FDF797FF4FF448
:103FB0000060149002208DF8540000208DF8560007
:103FC00003208DF8550000208DF8570014A93D48B6
:103FD000FDF73CFF3C4801F0CDF93C480190002042
:103FE000ADF80800ADF80A004FF48060ADF80C00A1
:103FF0000420ADF80E000020ADF8100001A93248F1
:1040000001F080FA012240212F4801F0A9F9102186
:104010002D4801F081F9012240F224412A4801F0A3
:104020004BFA0121284801F08FF92948FDF794FC4B
:104030004FF0006005902448001D06900794002072
:10404000089009950A904FF480600B9000200C9026
:104050000D904FF480700E904FF440300F90002080
:10406000109011901290139005A91948FDF778FD52
:10407000002231461648FDF726FD01211448FDF7C0
:1040800017FD00211248FDF75BFC01211048FDF7E8
:1040900057FC27208DF8000001208DF8010000203A
:1040A0008DF8020001208DF803006846FFF724FB1D
:1040B00001224021044801F053F916B070BD000000
:1040C000040020000008024000480040A0860100D3
:1040D00028600240F0B540F2023C0768674500D016
:1040E000F0BDC77ABD10C77AF910C77A3A11C77AFE
:1040F0007B11C77ABC11C77AFE118D4F3E7034B95F
:104100002BB90127DFF828C28CF8017010E03CB908
:10411000012B05D10227DFF818C28CF8017007E0E7
:10412000012C05D123B90327DFF804C28CF80170F4
:1041300031B92AB90027DFF8F8C18CF802701AE00B
:1041400039B9012A05D10127DFF8E4C18CF80270E2
:1041500011E0012906D12AB90227DFF8D4C18CF871
:10416000027008E0012906D1012A04D10327DFF8F3
:10417000C0C18CF802706E4FFD7090F80DC0077BC7
:104180004CEA072C6A4FA7F806C07F78012F4DD163
:10419000674FBF787FB94FF0320C654FA7F808C062
:1041A0000A27DFF88CC1ACF804704FF00F0C604F99
:1041B000A7F80AC0B9E05E4FBF78012F0ED14FF0CB
:1041C000960C5B4FA7F808C00F27DFF864C1ACF866
:1041D0000470BC46564FA7F80AC0A6E0544FBF78FB
:1041E000022F0FD14FF0320C514FA7F808C02827EB
:1041F000DFF83CC1ACF804704FF00F0C4C4FA7F83F
:104200000AC092E04A4FBF78032F0ED14FF04B0CFB
:10421000474FA7F808C00F27DFF814C1ACF80470A7
:104220004FF01E0C424FA7F80AC07EE0404F7F7847
:10423000022F3BD13E4FBF78012F0FD14FF48C7C22
:104240003B4FA7F808C01927DFF8E4C0ACF80470AA
:104250004FF00F0C364FA7F80AC066E0344FBF7816
:10426000022F0FD14FF0640C314FA7F808C03C2744
:10427000DFF8BCC0ACF804704FF0120C2C4FA7F85C
:104280000AC052E02A4FBF78032F4ED14FF0960C50
:10429000274FA7F808C01927DFF894C0ACF80470BE
:1042A0004FF01E0C224FA7F80AC03EE0204F7F7847
:1042B000032F3AD11E4FBF78012F0FD14FF4C87C86
:1042C0001B4FA7F808C02327DFF864C0ACF80470C0
:1042D0004FF00F0C164FA7F80AC026E0144FBF7816
:1042E000022F0FD14FF0960C114FA7F808C050279E
:1042F000DFF83CC0ACF804704FF0120C0C4FA7F87C
:104300000AC012E00A4FBF78032F0ED14FF0C80C3D
:10431000074FA7F808C02327DFF814C0ACF80470D3
:104320004FF01E0C024FA7F80AC000BFD8E60000ED
:10433000800D002000B101B970470278437842EA4D
:104340000322C2F30A020A804278D210837842EA3A
:104350004312C2F30A024A8082789211C37842EA79
:104360008302037942EA8322C2F30A028A80027935
:104370005210437942EAC312C2F30A02CA80427958
:10438000C2F301128A72427912119308CB728279B8
:10439000C37942EA032212B28A81027A437A42EA5C
:1043A000032213B2CB81827AC37A42EA032213B288
:1043B0000B82037B8B74437BCB74827BC37B42EA8F
:1043C00003228A82027C437C42EA032212B20A81DF
:1043D0000A88A2F5806212B20A804A88A2F5806239
:1043E00012B24A808A88A2F5806212B28A80CA8894
:1043F000A2F5806212B2CA800A89A2F5806212B266
:104400000A8100BF98E700002DED048B82B000F018
:104410007FFB00F0DFFD0120A94908740121A848B5
:1044200080F8C0100220A74981F8E00147E104F0BC
:1044300027F80190FEF794FFA348807A02287BD1E9
:10444000A24840890F2804D0122807D01E280FD177
:1044500009E04EF608609E4908800EE04EF61440D2
:104460009B49088009E04EF2E6209949088004E063
:104470004EF608609649088000BF00BF9448008847
:10448000404200B2924948808E4890F8E00191493C
:10449000097888420AD08B4890F8E0018D4908706D
:1044A000884890ED020B8C4880ED000B854890F811
:1044B000E001012841D1FEF77FFE30B38748008834
:1044C000401C8649088008460088962825DD8448D7
:1044D0000078404240B2824908707C480189C08817
:1044E000081A1E280ADB7F4800887D4991F90010D0
:1044F00010FB01F000B27B49088002E000207949FE
:10450000088000207549088007E000F05DFC7348D2
:10451000008810B10020714908806A49D1F8E4018F
:104520007049B1F90010494200EE101AB8EEC00A05
:1045300080476D4908807FE06EE0624890F8E001B6
:10454000022879D1FEF766FEF0B364480088401C6B
:10455000624908800846008896283EDD6048007859
:10456000404240B25E49087058480189C088081A24
:104570001E2825DB5A4890F90000400000EE100A82
:10458000B8EEC00ADFED590A20EE200AF1EE0C0A5F
:1045900080EE201A11EE104A2046FBF7B4FF41ECE2
:1045A000180B484890ED021BB0EE410AF0EE610A8C
:1045B00053EC102B51EC180BFBF7FEFE464A03C2DE
:1045C00000204649088008E0FFE700F02DFD434841
:1045D000008810B10020414908803A4890ED021B44
:1045E000B0EE410AF0EE610A53EC102B3A4890ED20
:1045F000001B51EC110BFBF780FF41EC190BFBF793
:1046000095FF08EE100A2F49B0EE480AD1F8E801EC
:104610008047354908800FE000202D490880084672
:104620000088404200B2488026499FED310AD1F807
:10463000E40180472C4908802249D1F8E4012D4942
:10464000B1F9001000EE101AB8EEC00A80472649F2
:1046500008801F49B1F9021000EE901AF8EEE00A46
:10466000B0EE600A1649D1F85C018047044618494B
:10467000B1F9001000EE901AF8EEE00AB0EE600A10
:104680000F49D1F8AC00804705461748B0F9000043
:1046900023462A464FF4007100901748FCF749FF63
:1046A0000020034600901048B0F9002040F2FF11AE
:1046B0001148FCF73EFF022101A803F05FF9B6E6BE
:1046C0008C1200108014001064180010800D00205F
:1046D00010000020260000201800002028000020E4
:1046E0002A000020140000202000002000000046C6
:1046F00000000000240000200064004000B587B0E6
:1047000001210320FFF752FB01210803FFF77EFB85
:1047100000208DF81A008DF81B0003208DF8190079
:1047200002208DF818000820059005A92548FDF7FE
:104730008DFB1020059005A92248FDF787FB8020FE
:10474000059005A92048FDF781FB052207211E4899
:10475000FDF7C4FB052203211A48FDF7BFFB052224
:1047600004211848FDF7BAFB01210803FFF75EFB9F
:1047700000214FF48050FFF759FB3820ADF80C00B2
:104780000120ADF808000020ADF806000A20ADF8C1
:1047900010000020ADF80400ADF80000ADF80E00E8
:1047A0004FF40070ADF80A004FF48270ADF80200CB
:1047B0006946064800F066F80121044800F048F810
:1047C00007B000BD0004024000000240003001407C
:1047D00070B505460126002422E0012E0FD10221EA
:1047E000104800F041F850B1002401E0601CC4B250
:1047F000C82CFBDB29460B4800F042F800267EB9A6
:104800000121084800F030F850B1002401E0601C9C
:10481000C4B2C82CFBDB034800F02FF8C0B270BD57
:10482000DBE700000030014010B50446074800886F
:104830004FF6C771084005490880084600882043A4
:1048400008800121014800F003F810BD003001404C
:1048500021B1028842F04002028004E002884FF653
:10486000BF731A40028070470246002013890B4034
:104870000BB1012000E00020704701468889704795
:104880008181704710B50022028802F441520B88E2
:104890004C8823438C882343CC8823430C892343AF
:1048A0004C8923438C892343CC8923431A430280B8
:1048B000838B4FF2FF74234083830B8A038210BDE6
:1048C00008B53DE003F0DCFD00901E4880881E49DD
:1048D00048801C48C08888801A48808A00B2C880F6
:1048E0001848807A022801D1087006E01548807ABD
:1048F000032802D10120144908701248C07A032805
:1049000003D10120104948700EE00E48C07A0128FA
:1049100003D102200C49487006E00A48C07A0228F8
:1049200002D1032008494870FEF744FE10B103206D
:1049300005494870FFF7FEFA0421684603F01EF8A7
:10494000C0E70000641800105002001008B506E02F
:1049500003F096FD00900521684603F00FF8F7E795
:104960000CB50020019000903448006840F480307D
:104970003249086000BF3148006800F40030009000
:104980000198401C0190009818B90198B0F5A04F0B
:10499000F1D12A48006800F4003010B101200090E5
:1049A00001E0002000900098012846D123484030C3
:1049B000006840F08050214940310860204800687C
:1049C00040F440401E4908601C48083000681B49FC
:1049D000083108600846006840F400400860084656
:1049E000006840F4A05008601648091F0860081FBE
:1049F000006840F08070091F086000BF0F48006821
:104A000000F000700028F9D040F205600E490860FF
:104A10000A480830006820F003000849083108609F
:104A20000846006840F00200086000BF03480830F4
:104A3000006800F00C000828F8D10CBD00380240D6
:104A400000700040062A4007003C024010B52DEDE2
:104A5000028BB0EE408A144AB2F90A2000EE902A86
:104A6000F8EEE00A78EE600AB0EE600A0E4A127CB8
:104A700002EB420303EB02130B4A113202EB8300F9
:104A8000113A127C02EB420303EB0213064A113285
:104A900002EB8302916C8847BDEEC00A10EE100A4B
:104AA00000B2BDEC028B10BD8C12001010B52DEDC4
:104AB000028BB0EE408A154AB2F9BA2000EE902A75
:104AC000F8EEE00A78EE600AB0EE600A0F4A92F85B
:104AD000C02002EB420303EB02130C4AC13202EB8B
:104AE0008300C13A92F8C02002EB420303EB0213A9
:104AF000064AC13202EB8302916C8847BDEEC00AC0
:104B000010EE100A00B2BDEC028B10BD8C1200102A
:104B100010B50B490B48FEF7B3FF0949243109488A
:104B20004C30FEF7ADFF064948310648B030FEF77D
:104B3000A7FF03496C310348FC30FEF7A1FF10BD0D
:104B4000EC1300109D120010F0EE400A9FED120AC7
:104B5000B0EE401A1D2109E04A1E00EB820292EDE0
:104B6000000A00EB810282ED000A491E0029F3DCF5
:104B7000C0ED000A002108E000EB810292ED000A7E
:104B800030EE010AB0EE401A491C1D29F4DBF3EEA9
:104B90000E1A81EE210A704700000000042808D197
:104BA0004FF0E021096941F004014FF0E02211616A
:104BB00007E04FF0E021096921F004014FF0E02205
:104BC0001161704710B500BF502080F31188BFF30A
:104BD0004F8FBFF36F8F00BF03F058FC18B14FF039
:104BE00080500449086000BF002080F3118800BF96
:104BF00010BD000004ED00E010B51548006840F459
:104C00007000134908601348006840F00100114922
:104C1000086000200F49083108600E4800680E49FE
:104C200008400C4908600D48091D0860081F00680D
:104C300020F48020091F0860002006490C3108601C
:104C4000FFF78EFE4FF0006001498039086010BD0B
:104C500088ED00E000380240FFFFF6FE103000242F
:104C60001CB5044602F03EFD2B48012100230A0238
:104C7000CDE9001029A12E4803F0C2FB2D480121E7
:104C800000234A02CDE900102BA12E4803F0B8FB07
:104C90002D48032100234FF48062CDE900102BA1A1
:104CA0002D4803F0ADFB2D48022100234A02CDE937
:104CB00000102BA12D4803F0A3FB2D480221002357
:104CC0000A02CDE900102BA12D4803F099FB2D48D5
:104CD00002210023CA01CDE900102BA12D4803F0C9
:104CE0008FFB2D48012100230A02CDE900102BA1E2
:104CF0002D4803F085FB2D48012100230A02CDE950
:104D000000102BA12D4803F07BFB2D48006802F01A
:104D10009FFE02F011FD1CBD0800001053595354B2
:104D2000454D53544154455F5441534B00000000DE
:104D30004D4900080C00001047494D42414C5F545A
:104D400041534B00791C000810000010535441548B
:104D5000455F5441534B0000C14800081800001043
:104D6000494D555F5441534B00000000F1270008A6
:104D70001C000010564953494F4E5F5441534B009D
:104D8000E355000814000010444255535F5441534A
:104D90004B000000BD1600082000001053484F4F84
:104DA000545F5441534B0000094400082400001094
:104DB000434F5645525F5441534B0000A71600081D
:104DC000040000104163704710B53E48408800EB76
:104DD000400000B23C490880FEF76AFB002870D012
:104DE0003A48808828283BD006DC0F2809D01928AB
:104DF00016D0232864D123E03C2841D050285FD12D
:104E00004EE032480189C088081A142804DB40F2B9
:104E1000EE202D49088002E000202B4908804FE059
:104E20002A480189C088081A142804DB40F2DC50A3
:104E30002549088003E040F2EE20234908803FE046
:104E400022480189C088081A142804DB40F2D66081
:104E50001D49088003E04FF47A701B4908802FE059
:104E60001A480189C088081A142804DB40F2DC5073
:104E70001549088003E040F2E240134908801FE032
:104E800012480189C088081A142804DB4FF4166000
:104E90000D49088003E040F2D6600B4908800FE01E
:104EA0000A480189C088081A142804DB40F6B83083
:104EB0000549088003E04FF416600349088000BFED
:104EC00000BF10BD6418001014000020800D0020E9
:104ED00010B52DED028BB0EE408A244A92F8E02105
:104EE00002EB420303EB0213204A183202EBC30227
:104EF00002F14C001D4A92F8E02102EB420303EB61
:104F000002131A4A183202EBC302B0EE480AD2F872
:104F1000941088471548B0F9120000EE900AF8EE98
:104F2000E00A30EE600AF0EE408A104A92F8E02182
:104F300002EB420303EB02130C4A183202EBC300EC
:104F4000183A92F8E02102EB420303EB0213074AFE
:104F5000183202EBC302916C8847BDEEC00A10EE16
:104F6000100A00B2BDEC028B10BD000080140010CE
:104F700010B52DED028BB0EE408A154AB2F9122021
:104F800000EE902AF8EEE00A78EE600AB0EE600AD1
:104F90000F4A92F8E02102EB420303EB02130C4AA2
:104FA000183202EBC300183A92F8E02102EB4203F8
:104FB00003EB0213064A183202EBC302916C8847D6
:104FC000BDEEC00A10EE100A00B2BDEC028B10BD9F
:104FD0008014001010B511491148FEF751FD0F491A
:104FE00090311048FEF74CFD0C4948310C48983080
:104FF000FEF746FD0949243109484C30FEF740FDD3
:105000000649B43107484C30FEF73AFD03496C318C
:1050100004484C38FEF734FD10BD00007016001037
:1050200098140010C815001010B52DED048B3048F1
:105030004088B0B32F48007898BBFEF7EBF880BBF0
:105040002B48B0F90210B0F90200002803DD28480F
:10505000B0F9020003E02648B0F90200404291FB9B
:10506000F0F000EE100AB8EEC00ADFED230A20EEE1
:10507000200AF1EE0C0A80EE208A18EE100AFBF7E7
:1050800042FA41EC190B1D4890ED000B53EC102B2C
:1050900051EC190BFBF790F9184A03C2012015498E
:1050A00008701348408810B9002012490870FEF7B4
:1050B000FFF9C8B1FEF7AEF8B0B911480189C08850
:1050C000081A142810DB0F4890ED021BB0EE410ABD
:1050D000F0EE610A9FED0C1B53EC112B51EC100B01
:1050E000FBF70BFA054A03C2BDEC048B10BD0000B0
:1050F0006418001022000020000000461800002064
:10510000800D002080140010000000A0244992406F
:1051100070B52DED048B0446B0EE408A94ED000A84
:1051200038EE400A84ED010A84ED008A94ED010A0C
:10513000DFED230AB4EEE00AF1EE10FA07D894EDA1
:10514000010ADFED200A30EE200A84ED010A94ED19
:10515000010ADFED1D0AB4EEE00AF1EE10FA07DBFA
:1051600094ED010ADFED170A30EE600A84ED010AC2
:1051700094ED010AF3EE0B0A80EE201A11EE105A9C
:105180002846FBF7C0F941EC190B94ED021BB0EE79
:10519000410AF0EE610A53EC102BFBF70DF9C4E95C
:1051A000020194ED021BB0EE410AF0EE610A51ECEF
:1051B000100BFBF7BBF900EE100ABDEC048B70BDC1
:1051C000000080C5000000460000804510B540F298
:1051D0002551334800F046F918B1314800F0FCF988
:1051E0005DE040F224412E4800F03CF9002856D002
:1051F0002B4800F0F1F900212A48FCF7A1FB2948CF
:10520000FCF771FC18BB2748FCF769FCC0F12400CF
:105210002549088024212348FCF7CEFC2148283862
:10522000806A40F400201F49283988621F491D48C0
:10523000FCF752FB01211B48FCF782FB1A4800884F
:1052400012282CD11A491B48FFF774F827E00021D7
:105250001448FCF775FB1348FCF741FCC0F124002F
:105260001149088024210F48FCF7A6FC0D48283876
:10527000806A20F400200B49283988620B490948CC
:10528000FCF72AFB01210748FCF75AFB0648008877
:10529000122804D1064907482430FFF74BF810BD07
:1052A000004800402860024064020010000C00101A
:1052B000641800107A18001010B540F2244112480A
:1052C00000F0D0F8F0B110480088104908600E488E
:1052D000001D0088086000210D48FCF731FB0C48D8
:1052E000FCF7FDFBC0F10A0008490860094800F01E
:1052F00083F901210648FCF723FB40F224410248D0
:1053000000F013F810BD0000001401403C00002024
:1053100040640240EC17001001F40072B2F5007F07
:1053200000D100BFCA430280704710B5002200239D
:1053300040F66A14A14200D100BF0A120124944031
:10534000A3B2DC43048010BD21B1828942F4005233
:10535000828104E082894DF6FF731A408281704792
:105360001AB1838A0B43838202E0838A8B43838250
:105370007047000010B504463248844208D101212C
:105380001020FEF753FD00211020FEF74FFD57E0DF
:105390002D48844209D101214804FEF727FD002150
:1053A0004FF40030FEF722FD4AE02848844209D13C
:1053B00001218804FEF71AFD00214FF48020FEF73A
:1053C00015FD3DE02248844209D10121C804FEF7C1
:1053D0000DFD00214FF40020FEF708FD30E01D48D0
:1053E000844209D101210805FEF700FD00214FF498
:1053F0008010FEF7FBFC23E01748844208D101210E
:105400002020FEF713FD00212020FEF70FFD17E0FE
:105410001248844209D101218807FEF7E7FC0021E8
:105420004FF08040FEF7E2FC0AE00D48844207D1CD
:1054300001214005FEF7DAFC00216005FEF7D6FCED
:1054400010BD000000100140004400400048004032
:10545000004C004000500040001401400078004023
:10546000007C004070B50246002400230025002087
:1054700040F66A16B14200D100BFC1F3421501F0F7
:105480001F03012606FA03F3012D02D1968933404A
:1054900006E0022D02D1168A334001E0968A33409D
:1054A0000C12012606FA04F41688344013B10CB12C
:1054B000012000E0002070BDF0B503460024002666
:1054C0000025002040F66A17B94200D100BF1846F7
:1054D000C1F3421401F01F06012707FA06F5012C5B
:1054E00001D10C3004E0022C01D1103000E0143066
:1054F0001AB107682F43076002E00768AF430760EF
:10550000F0BD00002DE9FF4705460E460024A146E8
:1055100000BFA046B08900B100BF2C8A24F44054DB
:10552000F08804432C82AC8941F20C608443B0883B
:1055300031890843718908430443AC81AC8A24F45F
:105540004074B0890443AC826846FEF77FFC204873
:10555000854202D01F48854202D1DDF80C9001E05F
:10556000DDF80890A88900F4004040B109EBC900BB
:1055700000EB091031684900B0FBF1F707E009EBD7
:10558000C90000EB091031688900B0FBF1F7642015
:10559000B7FBF0F004012009642101FB1078A88911
:1055A00000F4004040B1322000EBC800B0FBF1F045
:1055B00000F00700044308E0322000EB08106421EB
:1055C000B0FBF1F000F00F0004432C81BDE8FF8731
:1055D000001001400014014001468888C0F3080013
:1055E000704708B506E002F04BFF009001216846C5
:1055F00002F0C4F9F7E7000010B52DED028B82B080
:1056000004462078AA2873D1607A5428FBD16078A8
:1056100001286ED102F034FF6D49086001206D4908
:105620004870A07800EE100AB8EE400AE07800EE6C
:10563000900AF8EE600A9FED681A00EE810AB0EE5B
:10564000408A207900EE100AB8EE400A607900EE38
:10565000900AF8EE600A9FED601A00EE810AF0EE03
:10566000408AE079A17940EA01205C490860207A0B
:10567000012806D002280BD0032812D0042824D1F8
:105680001AE0574880ED008A5648C0ED008A1DE0B8
:10569000B1EE480A524880ED000A5248C0ED008A37
:1056A00014E0B1EE480A4E4880ED000AB1EE680AF7
:1056B0004C4880ED000A09E0494880ED008AB1EECF
:1056C000680A484880ED000A00E000BF00BF0020E3
:1056D00000900190434890ED000A434880ED000A95
:1056E0003F4890ED000A404880ED080A07202EE070
:1056F0006AE052E0411E3C4A02EB810191ED000A52
:10570000114601EB800181ED000A411E203202EBBF
:10571000810191ED000A114601EB800181ED000A43
:105720009DED000A304901EB8001D1ED000A30EE19
:10573000200A8DED000A9DED010A114601EB800162
:10574000D1ED000A30EE200A8DED010A401E00283E
:10575000D0DC9DED000A2448D0ED000A30EE200A8E
:105760008DED000A9DED010AD0ED080A30EE200A09
:105770008DED010A1B4890ED000A164880ED010AE4
:10578000174890ED000A134880ED030AA0781749E6
:105790000860207A1649086013E002F071FE0C4997
:1057A0000968401AB0F5807F0BD90020094948707C
:1057B0009FED100A084680ED010A9FED0E0A80ED6C
:1057C000030A01200349087002B0BDEC028B10BD32
:1057D000A0000020780000200AD7233CA40000206D
:1057E0009C00002098000020501A00109400002017
:1057F00090000020000000004100080218BF0420B3
:105800000A0E18BF40F001004FF07F4232EA01015A
:1058100008BF40F00200012808BF052070470000C3
:1058200010B54FF00E402DED028BB0EE408A18EE11
:10583000104A00EB4400B0F1506F4AD84FF0FC40E2
:10584000B0EB440F22D2B0EEC80AF7EE000A30EEF9
:10585000C00AF6EE000A60EE208A18EE900A01F007
:105860009BFE01EE100A14F0004F1DBFDFED2D0A64
:105870009FED2D0AB1EE411ADFED2C0A08BF9FED16
:105880002C0AF8EE001A21EE218A05E0DFED290A44
:1058900068EE088AB0EE600A9FED271ADFED271A3E
:1058A00030EE080A48EE811A9FED251A08EEA11A7B
:1058B000DFED241A48EE811A9FED231A08EEA11A93
:1058C00068EE281ABDEC028B01EE810A30EE200A48
:1058D00010BD4FF0E440B0EB440F0CD918EE100AA5
:1058E000FFF78AFF042808BF00F0B2F9B0EE480ABB
:1058F000BDEC028B10BD4FF07F40B0EB440F07D2E0
:10590000B0EE480ABDEC028BBDE8104000F091B942
:10591000012000F0B5F9BDEC028BBDE8104000F0AD
:105920008FB900000000C9BF22AAFDB90000C93F1D
:1059300022AAFD390000000024FE1C3DC78AD83C85
:105940001E67383D1B93993DAFAA2A3E70B54FF0B4
:1059500068422DED048BF0EE408A18EE900AB0EE0E
:10596000608A18EE101A02EB4003B3F1654F3CBF9A
:1059700002EB4102B2F1654F7DD200BFC0F3C753C5
:10598000C1F3C7529A1A1B2A09DD10F0004F14BF49
:105990009FED830A9FED830ABDEC048B70BD12F16D
:1059A0001A0F36DA11F0004F09D010F0004F0CBF7B
:1059B0009FED7D0A9FED7D0ABDEC048B70BD88EEE6
:1059C000889A19EE100AFFF717FF042808BF00F0A5
:1059D0003FF918EE900AFFF70FFF054618EE100A80
:1059E000FFF70AFF044619EE100AFFF705FF042D22
:1059F00018BF052D08D1042C18BF052C04D1002890
:105A000004BF022000F03CF9B0EE490ABDEC048B63
:105A100070BD4200B2EB410F3AD910F0004F19BFF0
:105A2000DFED630A9FED630ADFED630A9FED630A12
:105A3000B0EE481A0A46B1EE688A80F00041F0EEF6
:105A4000418A10460A1A5200B2F1807F34D248408F
:105A500010F0004FDFED5A1A9FED5A2A1DBFBEEE1F
:105A6000001A70EEE10A30EE420AB6EE001A08BFE4
:105A700070EEA10A00E040E008BF30EE020AB0EE8E
:105A8000682A01EE482A08EE818AC2EE081A15E05B
:105A900011F0004F04BF9FED4C0AF0EE400AD1D048
:105AA00010F0004F19BFDFED490A9FED490ADFED05
:105AB000490A9FED490AC5E7C8EE881A21EEA11AE6
:105AC0009FED462ADFED462A41EE022A9FED452A48
:105AD00001EE222ADFED442A41EE022A9FED432AFD
