:020000040800F2
:100000006865012061020008690200086B020008AF
:100010006D0200086F020008710200080000000075
:10002000000000000000000000000000A101000826
:100030007502000800000000FD0100086D2D000899
:100040007B0200087B0200087B0200087B0200089C
:100050007B0200087B0200087B0200087B0200088C
:100060007B020008F9140008031500087B02000851
:100070007B0200087B0200087B0200087B0200086C
:100080007B0200087B0200087B0200087B0200085C
:10009000150C00087B0200087B0200080D15000803
:1000A0007B0200087B0200087B0200087B0200083C
:1000B0007B0200087B0200087B0200087B0200082C
:1000C0007B0200087B0200087B0200087B0200081C
:1000D0007B0200087B0200087B020008752F0008E5
:1000E0007B0200087B0200087B0200087B020008FC
:1000F0007B0200087B0200087B0200087B020008EC
:100100007B0200087B0200087B0200087B020008DB
:100110007B0200087B0200087B0200087B020008CB
:100120007B0200087B0200087B0200087B020008BB
:100130007B0200087B0200087B0200087B020008AB
:10014000750C00087B0200087B0200087B02000897
:100150007B02000871110008A11100086D30000831
:100160007B0200087B0200087B0200087B0200087B
:100170007B0200087B0200087B02000800000000F0
:100180007B0200087B020008DFF810D000F014F9B1
:10019000004800472B590008AFF300806865012034
:1001A0002C4B19680868B0E8F04F80F30988BFF35A
:1001B0006F8F4FF0000080F311887047000000003F
:1001C00008480068006880F308884FF0000080F35A
:1001D000148862B661B6BFF34F8FBFF36F8F00DF35
:1001E00000BF00BF08ED00E0DFF80C00016841F43B
:1001F00070010160704700BF88ED00E0EFF30980F7
:10020000BFF36F8F134B1A681EF0100F08BF20ED5D
:10021000108A20E9F04F106009B44FF0500080F3CD
:100220001188BFF34F8FBFF36F8F06F071FF4FF050
:10023000000080F3118809BC19680868B0E8F04F25
:100240001EF0100F08BFB0EC108A80F30988BFF3CE
:100250006F8F7047080A0020EFF305807047000099
:100260000648804706480047FEE7FEE7FEE7FEE750
:10027000FEE7FEE7FEE7FEE7FEE7FEE7A12D00084A
:10028000890100089FED1A1AF5EE000A40EE010AF6
:10029000BDEEE00AF5EEC00A10EE100AF1EE10FA1B
:1002A00038BF401E00EE100A1349F7EE001AB8EEF0
:1002B000C00A30EEC00ADFED0F0A20EE200AFCEE85
:1002C000C00A10EE900AC0F3080000EE900A01EB9D
:1002D0008000F8EE600A90ED011A70EE600A90ED71
:1002E000000A71EEE01A21EE800A00EE810A7047E2
:1002F00083F9223E00000044287F0008DFED190A40
:10030000B5EEC00A60EE200ABDEEE01A11EE100A4A
:10031000F1EE10FA38BF401E00EE100A1349F7EE56
:10032000001AB8EEC00A30EEC00ADFED0F0A60EE28
:10033000200ABCEEE00A10EE100AC0F3080000EE3E
:10034000100A01EB8000B8EE400A90ED011A70EE41
:10035000C00A90ED000A71EEE01A21EE800A00EE6C
:10036000810A704783F9223E00000044287F00087C
:1003700040EA01039B0703D009E008C9121F08C027
:10038000042AFAD203E011F8013B00F8013B521EA7
:10039000F9D27047D2B201E000F8012B491EFBD21E
:1003A00070470022F6E710B513460A460446194680
:1003B000FFF7F0FF204610BD064C074D06E0E06851
:1003C00040F0010394E8070098471034AC42F6D39C
:1003D000FFF7DEFE2C8700084C87000870B58C18EC
:1003E00010F8015B15F0070301D110F8013B2A1149
:1003F00006D110F8012B03E010F8016B01F8016B36
:100400005B1EF9D12B0705D40023521E0DD401F831
:10041000013BFAE710F8013BCB1A921C03E013F8FA
:10042000015B01F8015B521EF9D5A142D8D300202F
:1004300070BD10B52DED028BB0EE408AB0EE480ACB
:1004400003F054FABDEC028B10BD10B52DED028BFC
:10045000B0EE408AF0EE608AF0EE680AB0EE480A2C
:1004600003F0DAFABDEC028B10BD10B52DED028B56
:10047000B0EE408AB0EE480AFFF704FFBDEC028BF5
:1004800010BDF0EE400AF5EEC00AF1EE10FA02DD02
:10049000B0EE600A7047B1EE600AFBE718B19FED5D
:1004A000020A80ED000A70470000000018B1B3EEA8
:1004B000060A80ED000A704770B52DED0C8B84B0F4
:1004C00006460C4615469FED990AF0EE408A9FEDD0
:1004D000970AB0EE409A9FED950AF0EE40BA9FED74
:1004E000930AF0EE409A9FED910AB0EE40AA0EB149
:1004F00004B11DB904B0BDEC0C8B70BD8C48FFF786
:10050000CDFF8C48FFF7D2FF8A48D0ED000A9FED5F
:100510008A1A60EE810AB0EE600A00F02DF9F0EE62
:10052000408A28EEA80AF0EE408A8248D0ED000A00
:10053000B0EE001A60EE810A9FED7F1A60EE810A2C
:10054000B0EE600A00F018F9B0EE409A29EE090A00
:10055000B0EE409ADFED790AB7EE000A00EEA80A85
:10056000DFED770A00EEC90ADFED760A20EE200AF9
:10057000754880ED000A6E4890ED000ADFED730AC1
:1005800080EE201AB7EE000A31EE000A20EE000AD3
:100590006D48D0ED000A80EE801A6D4880ED001A9B
:1005A00094ED000AB5EEC00AF1EE10FA0DD194ED0B
:1005B000010AB5EEC00AF1EE10FA06D194ED020A76
:1005C000B5EEC00AF1EE10FA46D09FED580AB0EE33
:1005D000408A0020019002900390D4ED000A60EE62
:1005E000A00A94ED011AD4ED011A41EE210A94ED0E
:1005F000021AD4ED021A41EE210AB0EE600A00F0B0
:10060000A9F8B0EE408A94ED000A20EE080A8DEDBC
:10061000010A94ED010A20EE080A8DED020A94ED1C
:10062000020A20EE080A8DED030ADDED010AF1EE63
:10063000600AB0EE600AFFF7FCFEF0EE409A9DED16
:10064000031AF0EE410A9DED021AB0EE410AFFF7DF
:10065000FCFEB0EE40AA07E09FED340AF0EE409AAF
:100660009FED320AB0EE40AA95ED000AB5EEC00A41
:10067000F1EE10FA0DD195ED010AB5EEC00AF1EEDA
:1006800010FA06D195ED020AB5EEC00AF1EE10FAA5
:100690003CD0B0EE690A00F06FF8B0EE408AB0EEE0
:1006A000690AFFF7E2FEB0EE40DAB0EE4A0A00F067
:1006B00063F8F0EE40AAB0EE4A0AFFF7D6FEB0EEBD
:1006C00040BA28EE2A0AD5ED010A20EE200AD5ED1F
:1006D000000A0DEE200A68EE0B0A95ED021A00EEF4
:1006E000810AB0EE40CA95ED010A20EE0B0AD5ED65
:1006F000020A0AEEE00AF0EE40CAF0EE6C0AB0EE32
:100700004C0AFFF7A2FEF0EE40BA03E09FED070AA5
:10071000F0EE40BAB0EE4A1AF0EE690AB0EE6B0A9B
:10072000304603F0C7FC00BFE4E600000000000014
:10073000580A00205C0A002035FA8E3CC1BFAD3B50
:100740009DF8C5362F7C1C41600A0020506CC24ABF
:10075000640A002010B52DED028BB0EE408AB0EE99
:10076000480A03F0AFFAB7EE001AC1EE000AB0EE85
:10077000600ABDEC028B10BD10B52DED028BB0EE02
:10078000408AB0EE480AFFF7B9FDBDEC028B10BD00
:100790002DE9F0412DED028B9AB00546B0EE408A6E
:1007A0000E461746984600201790189019901490FE
:1007B000159016904DB146B13FB1B8F1000F04D07D
:1007C000B5EEC08AF1EE10FA05D100201AB0BDECEA
:1007D000028BBDE8F08196ED000A8DED170A96EDCB
:1007E000010A8DED180A96ED020A8DED190A97EDB2
:1007F000000A8DED140A97ED010A8DED150A97EDAB
:10080000020A8DED160A17AA14A9284603F0A4FAC5
:10081000402104A8FFF7C5FD002000900190029040
:100820000390002417A904A806F01BF900BF30E0CC
:1008300004A800EB041090ED000AD5ED000A20EEAC
:10084000200A04A800EB0410D0ED010A95ED011A6E
:1008500000EE810A04A800EB0410D0ED020A95ED29
:10086000021A00EE810A04A800EB0410D0ED030A7E
:1008700095ED031A00EE810A20EE080AF0EE000A58
:1008800080EE201A684600EB840080ED001A601CA0
:10089000C4B2042CCCDB002410E005EB840090ED06
:1008A000000A684600EB8400D0ED000A30EE200A12
:1008B00005EB840080ED000A601CC4B2042CECDB64
:1008C000284605F0EBFD012080E7000010B510215F
:1008D000014800F02AFF10BD0000024010B51021B1
:1008E000014800F020FF10BD0000024010B50121BA
:1008F000014800F01AFF10BD0004024010B50121AC
:10090000014800F010FF10BD00040240022006491B
:1009100088820420C882052008830420488305209B
:100920008883C01FC8837047B017002010B50446E5
:1009300003E04FF47A7000F006F8201EA4F10101E4
:100940008CB2F6D110BD70B5034600BF00BF0020C9
:10095000002200BF4FF0E0267569A82603FB06F4CD
:100960004FF0E026B16910E04FF0E026B069884210
:100970000BD0884202D20E1A324402E02E1A0E44E4
:1009800032440146A24200D300E0EDE700BF70BD53
:1009900010B5002403F07EFF044304F00FF8044375
:1009A000052004F009F9FFF7B1FF204610BD000053
:1009B0002DE9FC4105460E461746002000900190A7
:1009C000FFF78CFF922000F00EF9062269461220F4
:1009D00000F0EAF8FFF77AFF9DF80100000200B28C
:1009E0009DF8001040EA01046C4804809DF8030063
:1009F000000200B29DF8021040EA010467484480FA
:100A00009DF80500000200B29DF8041040EA0104C0
:100A100062488480FFF772FF08226946002000F0D8
:100A2000C3F8FFF763FF9DF800000F2829D19DF858
:100A30000300000200B29DF8021040EA010457488A
:100A4000408B201A00B25549C8819DF8050000026C
:100A500000B29DF8041040EA01045048808B201A2F
:100A600000B24E4908829DF80700000200B29DF8CE
:100A7000061040EA01044948C08B201A00B24749D9
:100A80004882FFF72BFFA22000F0ADF80222694652
:100A9000222000F089F8FFF719FF9DF80000C00040
:100AA0009DF8011040EA6114B4F5806F02DBA4F5F3
:100AB000006004B23948B0F91200002803DD37485D
:100AC000B0F9120003E03548B0F912004042142892
:100AD00002DA00203149488200EE104AF8EEC00ADE
:100AE000B4EE001AB3EE070A00EE810A87ED000AA1
:100AF0002A48B0F9000000EE100AB8EEC00A2848F3
:100B0000D0ED000A20EE200A86ED000A2348B0F955
:100B1000020000EE100AB8EEC00A2148D0ED000A2B
:100B200020EE200A86ED010A1C48B0F9040000EE10
:100B3000100AB8EEC00A1A48D0ED000A20EE200ACA
:100B400086ED020A1548B0F90E0000EE100AB8EE64
:100B5000C00A1448D0ED000A20EE200A85ED000AF4
:100B60000E48B0F9100000EE100AB8EEC00A0D48A9
:100B7000D0ED000A20EE200A85ED010A0748B0F901
:100B8000120000EE100AB8EEC00A0648D0ED000AC6
:100B900020EE200A85ED020ABDE8FC81B017002096
:100BA000600700206407002070B506460C46154615
:100BB00046F0800000F017F806E0552000F013F82A
:100BC0002070641C681EC5B2002DF6D170BD70B5D2
:100BD00004460D4644F0800000F005F8552000F072
:100BE00002F8287070BD70B50446204601F0C0FFC1
:100BF0000546284670BD70B505460C462846FFF7E9
:100C0000F2FF2046FFF7EFFF70BD10B505F0BCFC0A
:100C100010BD000010B5124A0021124800F048F83B
:100C2000114A0F490F4804F089F80F4A68320C49FD
:100C30000C4804F083F80C4AD0320949094804F002
:100C40007DF80A4A0649074804F078F8084905483B
:100C500000F0A6F806491431024800F0A1F810BDD2
:100C6000E416002000640040FC0700203409002046
:100C7000E406002010B50A4A00210A4800F018F8DE
:100C8000094A0749074804F059F80849054800F09F
:100C900087F806491439034800F082F810BD0000B7
:100CA000F816002000680040940700204807002044
:100CB00010B500F5D87303EB01131B6803F00403B0
:100CC0001372137A53B900F5D87303EB01131B6841
:100CD00040F2FF7404EA5353136009E000F5D8733F
:100CE00003EB01131B686FF0604404EAD303536005
:100CF00000F5D87303EB01131B6803F00203537272
:100D000000F5D87303EB01135B6803F00F039372D4
:100D100000F5D87303EB01135B681B0AD37400F56D
:100D2000D87303EB01139B68D37200F5D87303EB00
:100D300001139B681C0A147300F5D87303EB0113AD
:100D40009B681C0C547300F5D87303EB01139B686C
:100D50001B0E937300F5D87303EB0113DB68D37399
:100D600000F5D87303EB0113DB681C0A147400F55B
:100D7000D87303EB0113DB681C0C547400F5D873B3
:100D800003EB0113DB681B0E937421B9C36843F0B6
:100D90002003C36003E0036943F02003036110BD37
:100DA00010B502460020936803F08063B3F1806FB2
:100DB00000D110E0936803F00063B3F1006F01D13C
:100DC000012008E0936803F08053B3F1805F01D104
:100DD000022000E00420042874D002F5C07303EB65
:100DE00000131B6803F0010402F5C07303EB00134A
:100DF0001C600B7A7BB94B7A0C8843EA445302F5AA
:100E0000C07404EB00142468234302F5C07404EB9F
:100E10000014236010E00B7A4C6843EAC4034C7A58
:100E2000234302F5C07404EB00142468234302F545
:100E3000C07404EB001423608B7A03F00F038B72F1
:100E400002F5C07303EB00135B6823F00F0402F597
:100E5000C07303EB00135C6002F5C07303EB001377
:100E60005B688C7A234302F5C07404EB0014636062
:100E70008B7B1C064B7B44EA03440B7B44EA032335
:100E8000CC7A234302F5C07404EB0014A3608B7C7E
:100E90001C064B7C44EA03440B7C44EA0323CC7BD2
:100EA000234302F5C07404EB0014E36002F5C07341
:100EB00003EB00131B6843F0010402F5C07303EB5E
:100EC00000131C6010BD08B508E006F0D7FD0090C7
:100ED00003F0EEFD0221684605F096FFF5E708B540
:100EE00008E006F0CBFD009003F042FE02216846C8
:100EF00005F08AFFF5E7000008B52BE106F0BEFD1E
:100F000000909548D0F816000099081A322811D997
:100F10009248016A002088479148D0F81C110020AF
:100F2000884790484168002088478F4841690020E1
:100F300088470BE18D48007888B18848016A022013
:100F400088478748D0F81C110220884785484168A7
:100F5000022088478448416902208847F6E07E489D
:100F6000807A012804D002286FD003286ED14DE08A
:100F70007948C07A012804D002282ED0032842D113
:100F800015E07648016A002088477548D0F81C11A2
:100F900000208847734841680020884772484169AB
:100FA0000020884770488169002088472CE06B4802
:100FB000016A012088476A48D0F81C11012088473F
:100FC0006848416800208847674841690020884791
:100FD000654881690020884716E06048016A012061
:100FE00088475F48D0F81C11012088475D48416858
:100FF000012088475C484169002088475A48816938
:101000000020884700E000BF00BF9EE05248C07A41
:10101000012804D0022830D0032844D117E04F48DB
:10102000016A002088474E48D0F81C1100208847EC
:101030004C484168002088474B4841690020884758
:1010400049488169002088472EE02FE07CE0434832
:10105000016A012088474248D0F81C1100208847C7
:1010600040484168002088473F4841690020884740
:101070003D4881690020884716E03848016A012010
:1010800088473748D0F81C11002088473548416808
:1010900000208847344841690120884732488169E7
:1010A0000020884700E000BF00BF4EE02A48C07A19
:1010B000012804D002282ED0032842D115E0274869
:1010C000016A002088472648D0F81C110020884774
:1010D0002448416800208847234841690020884708
:1010E00021488169002088472CE01C48016A0020C3
:1010F00088471B48D0F81C110020884719484168D0
:1011000000208847184841690020884716488169AF
:101110000020884716E01148016A012088471048DE
:10112000D0F81C11002088470E48416800208847ED
:101130000D484169012088470B4881690120884793
:1011400000E000BF00BF00E000BF00BF0321684611
:1011500005F05AFED2E600003217002044000020BD
:1011600008010020C0020020280000209417002061
:1011700010B50949094800F03DF9012807D10021BF
:10118000064800F059F80921044800F091F9024995
:10119000024800F037F810BD00802020A064024013
:1011A00010B50949094800F025F9012807D10021A7
:1011B000064800F041F80921044800F079F9024995
:1011C000024800F01FF810BD00800028B8640240FB
:1011D0000246094B9A4201D2084801E006481038FD
:1011E00001F000531BB1064B0B40C36002E0044BFF
:1011F0000B408360704700001064024000600240B2
:101200007D0F7D0F0246094B9A4201D2084801E04A
:101210000648103801F000531BB1064B0B40C36069
:1012200002E0044B0B4083607047000010640240F2
:10123000006002407D0F7D0F21B1026842F0010283
:10124000026003E0026822F00102026070470000C1
:10125000016821F0010101600021016041608160AD
:10126000C1600161212141614A49884204D13D2187
:10127000484A103A91608CE046491831884205D1BD
:101280004FF47461434A103A916082E04149303131
:10129000884205D14FF474113E4A103A916078E0CB
:1012A0003C494831884205D14FF07461394A103ABF
:1012B00091606EE037496031884204D13649354A41
:1012C000103AD16065E033497831884204D133491E
:1012D000304A103AD1605CE02E499031884204D106
:1012E0002F492C4A103AD16053E02A49A83188424C
:1012F00005D14FF03D51274A103AD16049E02949C4
:10130000884204D13D21274A083A116041E025492D
:101310001831884205D14FF47461224A083A1160AD
:1013200037E020493031884205D14FF474111D4A0D
:10133000083A11602DE01B494831884205D14FF031
:101340007461184A083A116023E0164960318842F6
:1013500004D11149134A121F11601AE01149783162
:10136000884204D10D490F4A121F116011E00D4946
:101370009031884204D10A490A4A121F116008E0DC
:101380000849A831884204D14FF03D51054A121F47
:1013900011607047106002403D000020400F0020A7
:1013A00000003D201064024021B1026842F4802216
:1013B000026003E0026822F480220260704722B1DA
:1013C000036843F40023036003E0036823F400236D
:1013D0000360016170470146486880B2704701466A
:1013E00000200A6802F400220AB1012000E0002077
:1013F0007047000070B50246002000240025124E00
:10140000B24201D2114B01E00F4B103B104E0E4087
:1014100036B11E2606EAD124166806EA040502E063
:10142000566906F0800501F000560EB15C6800E0D8
:101430001C68084E344004EA010616B10DB10120C3
:1014400000E0002070BD0000106402400060024017
:101450003C0F3C0F7D0F7D0F10B500220268134B2F
:101460001A40CC680B6823434C6923438C6923439F
:10147000CC6923430C6A23434C6A23438C6A23437D
:101480004C6B23438C6B23431A430260426922F066
:101490000702D1E90B3423431A4342610B694360CD
:1014A0004B6883608B68C36010BD00003F801CF0F8
:1014B0004160704770B50446042001F043FC0C48BD
:1014C000047025464FF47A7045430120094908808D
:1014D0004FF0E020006940F002004FF0E021086189
:1014E00008464561006940F00100086170BD0000D8
:1014F000000000200200002010B5082000F00CF8C9
:1015000010BD10B5102000F007F810BD10B5202058
:1015100000F002F810BD00000149086070470000AB
:10152000143C01401CB50648012100238022CDE96E
:10153000001004A1084806F061FA05F097FD1CBDF3
:101540000400002053797374656D5F537461727485
:101550005F5461736B000000092E000808B569E054
:1015600006F08CFA009034480078E8B3012802D0E5
:10157000022857D14CE030480069B0F90C004042D5
:1015800000EE100AB8EEC00ADFED2C0A20EE200AA9
:1015900029480069B0F9000000EE900AF8EEE00A70
:1015A0009FED271A00EEC10A2348D0ED020A30EE63
:1015B000200A80ED020A0069B0F90E00404200EEF8
:1015C000100AB8EEC00ADFED1D0A20EE200A1A4804
:1015D0000069B0F9020000EE900AF8EEE00A9FED13
:1015E000191A00EE810A00E007E01348D0ED010A65
:1015F00030EE200A80ED010A15E0134890ED010A53
:101600000D4880ED020AB3EE090A80ED010A0AE0F6
:101610009FED0E0A084880ED020AB3EE090A80ED3C
:10162000010A00E000BF00BF03F07EFD0121684613
:1016300005F0EAFB94E7000044000020A69B443B31
:1016400052499D3917B7D138941700200000344310
:10165000F0B50A4600210023002400BF3DE001252B
:1016600005FA01F3156805EA03049C4234D10568C4
:101670004F000326BE40B543056015794E00B540C6
:101680000668354305601579012D02D01579022DC4
:1016900016D185684F000326BE40B5438560557955
:1016A0004E00B540866835438560456801268E400A
:1016B000B5434560456896798E40B6B2354345607E
:1016C000C5684F000326BE40B543C560D5794E00BE
:1016D000B540C6683543C560491C1029BFD3F0BD6D
:1016E000F0B5002300244D07ED0E02FA05F3CE10ED
:1016F00000F1200555F826504E07F70E0F26BE4084
:10170000B543CF1000F1200646F82750CE1000F167
:10171000200555F8265045EA0304CE1000F12005B7
:1017200045F82640F0BD418370470183704710B5EE
:101730004FF4407000F014FDA820FFF7BBFEFFF748
:1017400064FAFFF7EFFE10BD1CB50120B049087028
:1017500002E0642005F02AFBFFF71AF90028F8D10F
:10176000AC4AA2F10C01101DFFF722F9DFEDAA0A25
:101770009FEDAA0AAA4A0021AA4800F0DFFFAA4862
:10178000A44B103BA94AAA490090AA4803F0C6FE00
:10179000A64AA749A848FEF78FFEA54890ED000A83
:1017A000A64880ED000AA64880ED000AA54880ED15
:1017B000000A9F4890ED010AA04880ED010AA04868
:1017C00080ED010A9F4880ED010A994890ED020AD8
:1017D0009A4880ED020A9A4880ED020A994880ED05
:1017E000020A102001F0F0F911E106F047F901902A
:1017F000954800F039F98C48864B103B8B4A8C4950
:1018000000908C4803F08AFE82481038D0ED040A1C
:10181000B0EE600A03F018FF894890ED000A89488D
:1018200080ED000A854890ED000A854880ED000AA9
:1018300090ED000A8548D0ED000A20EE200A81488C
:10184000D0ED000A814890ED011A00EE810A784837
:10185000D0ED000A7D4890ED021A00EE810A77482B
:1018600080ED000A764890ED010A764880ED010A85
:10187000724890ED010A724880ED010A90ED010A6C
:101880007248D0ED000A20EE200A6E48D0ED010A21
:101890006E4890ED011A00EE810A6548D0ED010A0C
:1018A0006A4890ED021A00EE810A644880ED010A50
:1018B000634890ED020A634880ED020A5F4890EDAC
:1018C000020A5F4880ED020A90ED020A5F48D0EDFF
:1018D000000A20EE200A5B48D0ED020A5B4890ED3A
:1018E000011A00EE810A5248D0ED020A574890EDE5
:1018F000021A00EE810A514880ED020A4B4B024663
:101900004C499FED530A4C48FEF742FF514B1A1FBA
:10191000111F494803F06EFA00203D4908704D48F8
:10192000083890ED000ADFED4C0A20EE200ADFEDCA
:101930004B0A80EE201AB5EEC01AF1EE10FA0EDD59
:1019400090ED000ADFED440A20EE200ADFED430AA5
:1019500080EE201A9FED420A31EE400A0FE03D482A
:10196000083890ED000ADFED3C0A20EE200ADFED9A
:101970003B0A80EE201A9FED3A0A31EE000A244815
:1019800080ED010A3348083890ED010ADFED340A92
:1019900020EE200ADFED310A80EE201A1C4880ED8F
:1019A000021A2C48083890ED020ADFED2D0A20EECD
:1019B000200ADFED2A0A80EE201A154880ED031A6E
:1019C0001C4890ED020ADFED260A20EE200A10489E
:1019D00080ED040A174890ED010AB1EE400ADFEDF0
:1019E000200A20EE200A0A4880ED050A114890EDF1
:1019F000000ADFED1B0A20EE200A054880ED060AEA
:101A0000012018490860022101A805F0FDF9ECE663
:101A100094170020880B00200080894500A08C4589
:101A2000B4040020AC0B00209C0B00200C0C002008
:101A3000000C0020F40B0020180C00206016002081
:101A40005416002048160020540B0020107F000878
:101A50006F12833A300C00200000B443DA0F494083
:101A6000000034438C0600202DE9F0472DED068B55
:101A7000054600249FEDFD0AB0EE408A9FEDFB0A6B
:101A8000F0EE408A9FEDF90AB0EE409A9FEDF70A1A
:101A9000F0EE409A9FEDF50AB0EE40AA9FEDF30AF2
:101AA000F0EE40AAF24AA2F10C01101DFEF780FFF1
:101AB00001244DE0EF4800EB840090ED000A601E29
:101AC000EC4901EB800080ED000A01F5CA7000EBE3
:101AD000840090ED000A601E01F5CA7101EB8000E0
:101AE00080ED000A01F5CA7000EB840090ED000A59
:101AF000601E01F5CA7101EB800080ED000A01F55E
:101B0000CA7000EB840090ED000A601E01F5CA71F6
:101B100001EB800080ED000A01F5CA7000EB840043
:101B200090ED000A601E01F5CA7101EB800080EDA6
:101B3000000A01F5CA7000EB840090ED000A601EF7
:101B400001F5CA7101EB800080ED000A601CC4B28F
:101B5000642CAFDBC648103890ED010AC54880ED13
:101B6000630AC348103890ED020AC24880EDC80AE3
:101B7000BF48103890ED030ABF4880ED630ABC48A7
:101B8000103890ED050ABD4880ED630AB84810385A
:101B900090ED060ABA4880ED630AB548103890ED1A
:101BA000070AB84880ED630A00240CE009F1010936
:101BB000B04800EB840090ED000A30EE080AB0EE69
:101BC000408A601CC4B2642CF0DB9FEDAF0AC8EE03
:101BD000000AA848C0ED640A9FEDA40AB0EE408A4E
:101BE00000240AE0A94800EB840090ED000A30EEE2
:101BF000280AF0EE408A601CC4B2642CF2DB9FED30
:101C0000A20AC8EE800A9B48C0EDC90A9FED970A58
:101C1000F0EE408A00240AE0974800EB840090ED43
:101C2000000A30EE090AB0EE409A601CC4B2642C7F
:101C3000F2DB9FED950AC9EE000A8F48C0ED640AF9
:101C40009FED8A0AB0EE409A00240AE08B4800EB30
:101C5000840090ED000A30EE290AF0EE409A601CF4
:101C6000C4B2642CF2DB9FED880AC9EE800A834877
:101C7000C0ED640A9FED7D0AF0EE409A00240AE070
:101C80007F4800EB840090ED000A30EE0A0AB0EEC7
:101C900040AA601CC4B2642CF2DB9FED7B0ACAEE42
:101CA000000A7748C0ED640A9FED700AB0EE40AAC2
:101CB00000240AE0734800EB840090ED000A30EE47
:101CC0002A0AF0EE40AA601CC4B2642CF2DB9FED3D
:101CD0006E0ACAEE800A6B48C0ED640A9FED630A83
:101CE000F0EE40AA634890ED640A694880ED000A6E
:101CF000604890EDC90A664880ED010A5E4890EDA3
:101D0000640A634880ED020A5C4890ED640A60480A
:101D100080ED040A5A4890ED640A5D4880ED050A9A
:101D2000584890ED640A5A4880ED060A002630E0D3
:101D3000574890ED040A574800EB8600D0ED000AA2
:101D4000B4EE600AF1EE10FA08D1524800EB8600BA
:101D500090ED000A504880ED000A1CE04C4890EDE0
:101D6000040AB1EE400A4B4800EB8600D0ED000AB1
:101D7000B4EE600AF1EE10FA0AD1464800EB860094
:101D800090ED000AB1EE400A434880ED000A02E0FF
:101D9000761C322ECCDB00BF002730E03C4890EDB3
:101DA000050A3C4800EB8700D0ED000AB4EE600A5B
:101DB000F1EE10FA08D1374800EB870090ED000AE9
:101DC000364880ED000A1CE0314890ED050AB1EE7E
:101DD000400A304800EB8700D0ED000AB4EE600AFC
:101DE000F1EE10FA0AD12B4800EB870090ED000AC3
:101DF000B1EE400A294880ED000A02E07F1C192F4D
:101E0000CCDB00BF4FF000084EE0214890ED060A01
:101E1000204800EB8800D0ED000AB4EE600AF1EE35
:101E200010FA08D11B4800EB880090ED000A1C480E
:101E300080ED000A3BE0164890ED060AB1EE400A3C
:101E4000144800EB8800D0ED000AB4EE600AF1EE11
:101E500010FA27D10F4800EB880090ED000AB1EE90
:101E6000400A0F4880ED000A21E000000000000059
:101E7000880B0020340C00205C0F0020F0100020A4
:101E800084120020181400200000C842C80D002051
:101E9000AC1500204C050020380500203C05002032
:101EA0004005002008F10108B8F1170FADDB00BFB5
:101EB000844890ED000A80ED000A9FED830A80EDD2
:101EC000020A9FED820A80ED030A90ED010AD0ED2F
:101ED000020A30EE200A80ED010A90ED010AD0EDF1
:101EE000030A30EE200AD0ED010A80EE801A80ED60
:101EF000041A774890ED000A7248D0ED000A70EE9F
:101F0000600A90ED000A90ED041A01EE200A80EDBF
:101F1000000A90ED040AF7EE000A30EEC00AD0ED98
:101F2000010A20EE200A80ED010A90ED050A80EDFD
:101F3000050A9FED650A80ED080A9FED640A80EDB1
:101F4000070A90ED060AD0ED080A30EE200A80ED6F
:101F5000060A90ED060AD0ED070A30EE200AD0ED11
:101F6000060A80EE801A80ED091A594890ED010AA0
:101F70005448D0ED050A70EE600A90ED050A90ED28
:101F8000091A01EE200A80ED050A90ED090AF7EE24
:101F9000000A30EEC00AD0ED060A20EE200A80EDDD
:101FA000060A90ED0A0A80ED0A0A9FED470A80EDC5
:101FB0000C0A9FED460A80ED0D0A90ED0B0AD0ED5C
:101FC0000C0A30EE200A80ED0B0A90ED0B0AD0EDE2
:101FD0000D0A30EE200AD0ED0B0A80EE801A80ED5B
:101FE0000E1A3B4890ED020A3648D0ED0A0A70EE10
:101FF000600A90ED0A0A90ED0E1A01EE200A80EDBB
:102000000A0A90ED0E0AF7EE000A30EEC00AD0ED93
:102010000B0A20EE200A80ED0B0A90ED000A85EDF8
:10202000000A90ED050A85ED010A90ED0A0A85ED9A
:10203000020A274890ED040A2648D0ED000A30EE47
:10204000600A234880ED040A90ED040A85ED030A36
:1020500090ED050A2048D0ED000A30EE600A1C48D9
:1020600080ED050A90ED050A85ED040A90ED060A5B
:102070001A48D0ED000A30EE600A154880ED060AD5
:1020800090ED060A85ED050A95ED000A144880EDED
:10209000000A95ED010A80ED010A95ED020A80ED36
:1020A000020A95ED030A0F4880ED000A95ED040A37
:1020B00080ED010A95ED050A80ED020ABDEC068B64
:1020C000BDE8F0876C160020BC74933C83C00A3FC7
:1020D000AC150020380500203C05002040050020FC
:1020E000000C0020F40B002070B5002100230F220B
:1020F000C4781CB3174C246804F4E064C4F5E064AD
:10210000C4F30721C1F10404E3B20A4144789C40BE
:10211000E1B28478144021430C07210E0E4C05785F
:102120006155047804F01F050124AC4005786D1159
:10213000AD0005F1E025C5F8004109E0047804F0A0
:102140001F050124AC40054D0678761145F8264060
:1021500070BD00000CED00E000E400E080E100E074
:1021600002490143024A1160704700000000FA056D
:102170000CED00E0F0EE400A416A816210EE901A28
:102180004162416A00EE101AC16801EE101AB1EE08
:10219000411AB4EEC10AF1EE10FA08D8C16800EE97
:1021A000101AB1EE400A10EE101A41620CE0416ABA
:1021B00000EE101AC16801EE101AB4EEC10AF1EE79
:1021C00010FA01DBC1684162C16A00EE101A416A6F
:1021D00001EE101A30EE010A10EE101AC162C16A47
:1021E00000EE101A016901EE101AB1EE411AB4EEB8
:1021F000C10AF1EE10FA08D8016900EE101AB1EE2A
:10220000400A10EE101AC1620CE0C16A00EE101A0A
:10221000016901EE101AB4EEC10AF1EE10FA01DB09
:102220000169C162016800EE101A416A01EE101ADC
:1022300020EE010A10EE101A0163016B00EE101A75
:10224000416901EE101AB1EE411AB4EEC10AF1EE85
:1022500010FA08D8416900EE101AB1EE400A10EEEB
:10226000101A01630CE0016B00EE101A416901EED7
:10227000101AB4EEC10AF1EE10FA01DB41690163F4
:10228000416800EE101AC16A01EE101A20EE010A30
:1022900010EE101A4163416B00EE101A816901EED5
:1022A000101AB1EE411AB4EEC10AF1EE10FA08D8D4
:1022B000816900EE101AB1EE400A10EE101A416367
:1022C0000CE0416B00EE101A816901EE101AB4EEB9
:1022D000C10AF1EE10FA01DB81694163416A00EE47
:1022E000101A816A01EE101A30EE411A816800EE70
:1022F000101A21EE000A10EE101A8163816B00EEB5
:10230000101AC16901EE101AB1EE411AB4EEC10AF9
:10231000F1EE10FA08D8C16900EE101AB1EE400AC9
:1023200010EE101A81630CE0816B00EE101AC16987
:1023300001EE101AB4EEC10AF1EE10FA01DBC16928
:102340008163016B00EE101A416B01EE101A30EE42
:10235000011A816B00EE101A31EE000A10EE101A0D
:10236000C163C16B00EE101A016A01EE101AB1EEE2
:10237000411AB4EEC10AF1EE10FA08D8016A00EE73
:10238000101AB1EE400A10EE101AC1630CE0C16BD6
:1023900000EE101A016A01EE101AB4EEC10AF1EE55
:1023A00010FA01DB016AC163C16B00EE101A7047BD
:1023B00010B52DED0A8B0446B0EE408AF0EE608A2F
:1023C000B0EE419AF0EE619AB0EE42AAF0EE62AA47
:1023D000B0EE43BAF0EE63BAB0EE44CA9FED200A05
:1023E00010EE100A20639FED1E0A10EE100A6063C3
:1023F0009FED1B0A10EE100AA0639FED190A10EE64
:10240000100AE0639FED160A10EE100A60629FED5D
:10241000140A10EE100AA0629FED110A10EE100AC5
:10242000E0621048A0641048206410486064216C89
:10243000B0EE4C4AF0EE6B3AB0EE4B3AF0EE6A2A50
:10244000B0EE4A2AF0EE691AB0EE491AF0EE680AC8
:10245000B0EE480A20468847BDEC0A8B10BD00004C
:102460000000000075210008C724000801250008AD
:1024700070B505460C46D4ED084AB0EE644AD4ED7A
:10248000074AF0EE643AD4ED064AB0EE643AD4ED71
:10249000054AF0EE642AD4ED044AB0EE642AD4ED85
:1024A000034AF0EE641AD4ED024AB0EE641AD4ED99
:1024B000014AF0EE640AD4ED004AB0EE640A284600
:1024C000FFF776FF70BD10EE101A016010EE901A43
:1024D000416011EE101A816011EE901AC16012EE87
:1024E000101A016112EE901A416113EE101A816107
:1024F00013EE901AC16114EE101A016270470000C9
:102500009FED110A10EE101A01639FED0F0A10EEF5
:10251000101A41639FED0C0A10EE101A81639FEDB3
:102520000A0A10EE101AC1639FED070A10EE101A86
:1025300041629FED050A10EE101A81629FED020ABA
:1025400010EE101AC162704700000000B0EE401A91
:1025500010B99FED790A704790ED100A80ED110ACD
:1025600090ED0F0A80ED100AC0ED060A80ED071A03
:1025700030EEC10A80ED0F0A0178002975D190ED87
:10258000010AD0ED0F1A20EE210A80ED090A90ED24
:102590000A0AD0ED021A90ED0F2A01EE820A80EDB0
:1025A0000A0A90ED0D0A80ED0E0A90ED0C0A80EDFE
:1025B0000D0A90ED0F0AD0ED101A30EE610A80ED91
:1025C0000C0A90ED030AD0ED0C1A20EE210A80EDE2
:1025D0000B0A90ED0A0AD0ED051AB4EEE10AF1EE0D
:1025E00010FA04DD90ED050A80ED0A0A10E090ED86
:1025F0000A0AD0ED051AF1EE611AB4EEE10AF1EE25
:1026000010FA05D290ED050AB1EE400A80ED0A0AF3
:1026100090ED090AD0ED0A1A30EE210AD0ED0B1A1E
:1026200030EE210A80ED080A90ED080AD0ED041A78
:10263000B4EEE10AF1EE10FA04DD90ED040A80ED4B
:10264000080A76E090ED080AD0ED041AF1EE611A5E
:10265000B4EEE10AF1EE10FA6BD290ED040AB1EE9D
:10266000400A80ED080A64E0FFE70178012960D1A3
:1026700090ED0F0AD0ED101A30EE610AD0ED011A7C
:1026800020EE210A80ED090A90ED020AD0ED0F1A22
:1026900020EE210A80ED0A0A90ED0D0A80ED0E0A67
:1026A00090ED0C0A80ED0D0A90ED0F0AD0ED101A96
:1026B000B0EE002A02EE610AD0ED111A30EE210AC6
:1026C00080ED0C0A90ED030AD0ED0C1A20EE210AE1
:1026D00080ED0B0A90ED090AD0ED0A1A30EE210ABE
:1026E000D0ED0B1A30EE210AD0ED081A30EE210A97
:1026F00080ED080A90ED080AD0ED041AB4EEE10A64
:10270000F1EE10FA04DD90ED040A80ED080A10E005
:1027100090ED080AD0ED041AF1EE611AB4EEE10A68
:10272000F1EE10FA05D290ED040AB1EE400A80ED08
:10273000080A90ED080A0EE70000000000B102B997
:102740007047017092ED001A80ED011A92ED011AA6
:1027500080ED021A92ED021A80ED031A80ED040A50
:10276000C0ED050A9FED0C1A80ED0E1A80ED0D1AD2
:1027700080ED0C1A9FED081A80ED081A80ED0B1AF7
:1027800080ED0A1A80ED091A80ED111A80ED101AF9
:1027900080ED0F1A00BFD3E70000000029B1064A00
:1027A00012680243044B1A6004E0034A1268824331
:1027B000014B1A60704700003038024029B1064AC8
:1027C00012680243044B1A6004E0034A1268824311
:1027D000014B1A60704700004038024029B1064A98
:1027E00012680243044B1A6004E0034A12688243F1
:1027F000014B1A60704700002038024029B1064A98
:1028000012680243044B1A6004E0034A12688243D0
:10281000014B1A607047000024380240F0B50021D7
:1028200000220024022500260223324F3F6807F0D1
:102830000C0121B1042905D0082937D105E02E4F1C
:10284000076036E02D4F076033E02A4F3F1F3F6897
:10285000C7F38056274F3F1F3F6807F03F036EB115
:10286000264FB7FBF3F7DFF88CC0ACF1040CDCF8B3
:1028700000C0CCF3881C07FB0CF40CE01E4FB7FB28
:10288000F3F7DFF870C0ACF1040CDCF800C0CCF357
:10289000881C07FB0CF4174F3F1F3F68C7F3014725
:1028A0007F1C7D00B4FBF5F7076002E0124F076064
:1028B00000BF00BF0F4F3F6807F0F0010909104F3C
:1028C0007A5C0768D74047600A4F3F6807F4E051D9
:1028D000890A0B4F7A5C4768D7408760054F3F688D
:1028E00007F46041490B064F7A5C4768D740C760E0
:1028F000F0BD0000083802400024F400001BB700BF
:10290000C009002070B596B004460E461546012158
:102910004B48FFF743FF01218804FFF74FFF0121D8
:102920008804FFF75BFF00214FF48020FFF756FF7C
:1029300007220B214348FEF7D3FE4FF400601490AA
:1029400002208DF8540000208DF8560003208DF8E9
:10295000550000208DF8570014A93A48FEF778FE7C
:10296000394800F0BBFB394801900020ADF8080061
:10297000ADF80A004FF48060ADF80C000420ADF80B
:102980000E000020ADF8100001A92F4800F06EFCE9
:10299000012240212C4800F098FB10212A4800F029
:1029A0007FFB012240F22441274800F039FC01213D
:1029B000254800F07EFB2648FEF74AFC4FF00060F9
:1029C00005902148001D0690079400200890099565
:1029D0000A904FF480600B9000200C900D904FF403
:1029E00080700E904FF440300F90002010901190A6
:1029F0001290139005A91648FEF72EFD00223146CD
:102A00001348FEF7DCFC01211148FEF7CDFC002144
:102A10000F48FEF711FC01210D48FEF70DFC2720A1
:102A20008DF8000001208DF8010000208DF80200D3
:102A300001208DF803006846FFF756FB16B070BD05
:102A4000040020000008024000480040A086010069
:102A50002860024000B101B970470278437842EA29
:102A60000322C2F30A020A804278D210837842EA33
:102A70004312C2F30A024A8082789211C37842EA72
:102A80008302037942EA8322C2F30A028A8002792E
:102A90005210437942EAC312C2F30A02CA80427951
:102AA000C2F301128A72427912119308CB728279B1
:102AB000C37942EA032212B28A81027A437A42EA55
:102AC000032213B201F10C02CB81827AC37A42EA6B
:102AD000032213B201F10C020B82037B8B74437B44
:102AE000CB74827BC37B42EA03228A82027C437CD2
:102AF00042EA032212B20A810A88A2F5806212B267
:102B00000A804A88A2F5806212B24A808A88A2F5B9
:102B1000806212B28A80CA88A2F5806212B2CA802C
:102B20000A89A2F5806212B20A8100BF94E7000010
:102B300008B519E004F0A2FF00900C48407830B1CD
:102B4000012802D0022803D100E002E001E000E009
:102B500000BF00BF04F022FB03F094FE03F080FFEF
:102B60000221684604F050F9E4E700000801002063
:102B700070B505460126002422E0012E0FD1022166
:102B8000104800F041F850B1002401E0601CC4B2CC
:102B9000C82CFBDB29460B4800F042F800267EB922
:102BA0000121084800F030F850B1002401E0601C19
:102BB000C4B2C82CFBDB034800F02FF8C0B270BDD4
:102BC000DBE700000030014010B5044607480088EC
:102BD0004FF6C77108400549088008460088204321
:102BE00008800121014800F003F810BD00300140C9
:102BF00021B1028842F04002028004E002884FF6D0
:102C0000BF731A40028070470246002013890B40B0
:102C10000BB1012000E00020704701468889704711
:102C20008181704708B514E004F028FF0090094A3C
:102C3000D2F81421B2F90A10064AD2F81021B2F9DA
:102C40000A205042642202F075FE0521684604F015
:102C5000DBF8E9E7080100200CB5002001900090A6
:102C60003448006840F480303249086000BF314881
:102C7000006800F4003000900198401C019000981A
:102C800018B90198B0F5A04FF1D12A48006800F4B6
:102C9000003010B10120009001E000200090009869
:102CA000012846D123484030006840F08050214937
:102CB000403108602048006840F440401E490860E8
:102CC0001C48083000681B49083108600846006845
:102CD00040F4004008600846006840F4A0500860D6
:102CE0001648091F0860081F006840F08070091F1F
:102CF000086000BF0F48006800F000700028F9D09D
:102D000040F205600E4908600A480830006820F06B
:102D100003000849083108600846006840F00200D6
:102D2000086000BF03480830006800F00C00082865
:102D3000F8D10CBD0038024000700040062A400760
:102D4000003C0240042808D14FF0E021096941F01D
:102D500004014FF0E022116107E04FF0E021096922
:102D600021F004014FF0E0221161704710B500BF5F
:102D7000502080F31188BFF34F8FBFF36F8F00BFD8
:102D800004F082FE18B14FF080500449086000BF83
:102D9000002080F3118800BF10BD000004ED00E0AA
:102DA00010B51548006840F47000134908601348D6
:102DB000006840F001001149086000200F49083107
:102DC00008600E4800680E4908400C4908600D482C
:102DD000091D0860081F006820F48020091F086092
:102DE000002006490C310860FFF736FF4FF0006005
:102DF00001498039086010BD88ED00E000380240CC
:102E0000FFFFF6FE103000241CB5044603F0B0FEB0
:102E10002B48012100230A02CDE9001029A12E48E8
:102E200004F0ECFD2D48012100234A02CDE90010F9
:102E30002BA12E4804F0E2FD2D48032100234FF47E
:102E40008062CDE900102BA12E4804F0D7FD2E485A
:102E5000022100234A02CDE900102CA12E4804F0E3
:102E6000CDFD2E48022100230A02CDE900102CA13D
:102E70002E4804F0C3FD2E4802210023CA01CDE9EB
:102E800000102CA12E4804F0B9FD2E48012100238A
:102E90000A02CDE900102CA12E4804F0AFFD2E4807
:102EA000012100230A02CDE900102CA12E4804F0D4
:102EB000A5FD2E48006804F011F803F083FE1CBD48
:102EC0000800002053595354454D53544154455F15
:102ED0005441534B00000000252C00080C0000203A
:102EE00047494D42414C5F5441534B005D1500082A
:102EF00010000020434841535349535F5441534B02
:102F000000000000C70E000818000020494D555F62
:102F10005441534B00000000491700081C000020DA
:102F2000564953494F4E5F5441534B004D330008AF
:102F300014000020444255535F5441534B0000009D
:102F4000F90E00082000002053484F4F545F5441B1
:102F5000534B0000312B000824000020434F5645FE
:102F6000525F5441534B0000DF0E00080400002064
:102F70004163704710B504F081FD3649C1F8160071
:102F800040F22551344800F021F918B1324800F0E0
:102F9000D7F95DE040F224412F4800F017F90028EE
:102FA00056D02D4800F0CCF92C48FEF718FA38BB63
:102FB00000212A48FEF740F92848FEF70CFAC0F134
:102FC00024002749088024212448FEF771FA234869
:102FD0002838806A40F40020204928398862214935
:102FE0001E48FEF7F5F801211C48FEF725F91C489C
:102FF000008812282CD117491B48FFF72BFD27E02A
:1030000000211648FEF718F91448FEF7E4F9C0F15C
:1030100024001349088024211048FEF749FA0F487C
:103020002838806A20F400200C49283988620D492C
:103030000A48FEF7CDF801210848FEF7FDF80848D8
:103040000088122804D1034907482430FFF702FD05
:1030500010BD0000321700200048004028600240E8
:103060005C070020000C00104C17002010B540F247
:103070002441084800F0AAF850B100210648FEF7A4
:10308000DBF8064800F024FB01210348FEF7D4F8E2
:1030900010BD000000140140406402400C170020E5
:1030A00001F40072B2F5007F00D100BFCA43028074
:1030B000704721B1828942F40052828104E0828902
:1030C0004DF6FF731A40828170471AB1838A0B4311
:1030D000838202E0838A8B438382704710B5044663
:1030E0003248844208D101211020FFF787FB0021DC
:1030F0001020FFF783FB57E02D48844209D10121BE
:103100004804FFF76BFB00214FF40030FFF766FB2C
:103110004AE02848844209D101218804FFF75EFB78
:1031200000214FF48020FFF759FB3DE02248844204
:1031300009D10121C804FFF751FB00214FF4002001
:10314000FFF74CFB30E01D48844209D101210805FE
:10315000FFF744FB00214FF48010FFF73FFB23E013
:103160001748844208D101212020FFF747FB0021A6
:103170002020FFF743FB17E01248844209D10121C8
:103180008807FFF72BFB00214FF08040FFF726FB5D
:103190000AE00D48844207D101214005FFF71EFBDC
:1031A00000216005FFF71AFB10BD00000010014070
:1031B0000044004000480040004C004000500040E7
:1031C0000014014000780040007C004070B50246C9
:1031D000002400230025002040F66A16B14200D1E9
:1031E00000BFC1F3421501F01F03012606FA03F3E5
:1031F000012D02D19689334006E0022D02D1168AB4
:10320000334001E0968A33400C12012606FA04F49A
:103210001688344013B10CB1012000E0002070BDCD
:10322000F0B50346002400260025002040F66A176A
:10323000B94200D100BF1846C1F3421401F01F0685
:10324000012707FA06F5012C01D10C3004E0022C0D
:1032500001D1103000E014301AB107682F43076025
:1032600002E00768AF430760F0BD00002DE9FF47AB
:1032700005460E460024A14600BFA046B08900B115
:1032800000BF2C8A24F44054F08804432C82AC897B
:1032900041F20C608443B088318908437189084346
:1032A0000443AC81AC8A24F44074B0890443AC82FA
:1032B0006846FFF7B3FA2048854202D01F4885428E
:1032C00002D1DDF80C9001E0DDF80890A88900F447
:1032D000004040B109EBC90000EB0910316849001A
:1032E000B0FBF1F707E009EBC90000EB091031680A
:1032F0008900B0FBF1F76420B7FBF0F0040120096E
:10330000642101FB1078A88900F4004040B132200C
:1033100000EBC800B0FBF1F000F00700044308E048
:10332000322000EB08106421B0FBF1F000F00F0038
:1033300004432C81BDE8FF870010014000140140C8
:1033400001468888C0F30800704700002DED028B0D
:1033500082B0D34B02221146D24800F0C1FFD04BBD
:10336000103302221146CF48083000F0B9FFCC4993
:103370009439CC48443802F068FAC94BB43302227D
:103380001146C8486C3000F0ABFFC54BC433022275
:103390001146C448743000F0A3FFC1492031C14830
:1033A000283002F052FA7AE104F068FB019001F053
:1033B000E5FDBD4908600846806A407800287DD058
:1033C00001F01CFEB84948610846406990ED000ACA
:1033D0000846806AD0ED010A30EE600AB34880EDFD
:1033E000000A0846406990ED010A0846806AD0ED5F
:1033F000030A30EE200AAD4880ED010A01F06EFDAF
:10340000A94908610846006990ED000ADFEDA80AA5
:10341000B4EEE00AF1EE10FA06D89FEDA50A0846D0
:10342000006980ED000A10E09F48006990ED000AF5
:10343000DFEDA00AB4EEE00AF1EE10FA05DB9FED35
:103440009D0A9948006980ED000A9748006990ED4F
:10345000010ADFED970AB4EEE00AF1EE10FA06D8A1
:103460009FED930A9048006980ED010A10E08E48B4
:10347000006990ED010ADFED8F0AB4EEE00AF1EE8B
:1034800010FA05DB9FED8B0A8748006980ED010A81
:103490008548006990ED000A8348C06AD0ED040AAF
:1034A000B6EE001A00EE810A834880ED000A7E48DD
:1034B000006990ED010A7C48C06A00E0E9E0D0EDC7
:1034C000050AB6EE001A00EE810A7B4880ED010A7B
:1034D00090ED001AF0EE410A744890ED001AB0EE3B
:1034E000410A7048443802F005F96F498861724812
:1034F00090ED011AF0EE410A6C4890ED011AB0EE21
:10350000410A6848283002F0F5F801466648C16172
:10351000806990ED010A6948D0ED000A20EE200A8A
:103520006148806980ED010A5F48806990ED010A79
:10353000F9EE040AB4EEE00AF1EE10FA06D8B9EE9C
:10354000040A5948806980ED010A10E056488069F4
:1035500090ED010AF1EE040AB4EEE00AF1EE10FA81
:1035600005DBB1EE040A5048806980ED010A4E483F
:10357000C06990ED010A5248D0ED000A20EE200A01
:103580004948C06980ED010A4748C06990ED010AC9
:10359000F9EE040AB4EEE00AF1EE10FA06D8B9EE3C
:1035A000040A4148C06980ED010A10E03E48C06944
:1035B00090ED010AF1EE040AB4EEE00AF1EE10FA21
:1035C00005DBB1EE040A3848C06980ED010A3648CF
:1035D000806990ED000A34488069D0ED010A30EE30
:1035E000200A3248D0ED000A30EE608A2E48C069C9
:1035F00090ED000A2C48C069D0ED010A30EE200A97
:103600002A48D0ED010A70EE608A2E48D0ED000AFB
:10361000B0EE600A9FED2C1AF0EE480A02F080FF2F
:10362000284880ED000AD0ED010AB0EE600A9FED57
:10363000261AF0EE680A02F073FF224880ED010AB4
:103640001948806A90ED010A1E48D0ED000A30EE5C
:10365000200A154880ED090A806A90ED030A19488E
:10366000D0ED010A30EE200A0F4880ED080A80698B
:1036700090ED000A0C488069D0ED010A30EE200A76
:103680000A48D0ED000A30EE600A104880ED000ACA
:1036900000BF02F083FF012101A803F0B5FB83E620
:1036A0008C030020B00A0020C80200206C04002017
:1036B000000061C400006144740400206004002024
:1036C000640400207C040020CDCC4C3D6804002024
:1036D00010B52DED048B82B004462078AA2874D151
:1036E000607A5428FBD1607801286FD104F0C6F9C4
:1036F0006D49086001206D494870A07800EE100AFD
:10370000B8EE400AE07800EE900AF8EE600A9FED0D
:10371000681A00EE810AB0EE408A207900EE100AA5
:10372000B8EE400A607900EE900AF8EE600A9FED6C
:10373000601A00EE810AF0EE408AE07900EE100A8D
:10374000B8EE400AB0EE409AE079012806D002288F
:103750000FD0032816D0042824D11CE0B1EE680A4B
:10376000544880ED000AB1EE480A534880ED000A43
:1037700019E05048C0ED008AB1EE480A4E4880ED8D
:10378000000A10E0B1EE680A4A4880ED000A4A4893
:1037900080ED008A07E04748C0ED008A464880ED8A
:1037A000008A00E000BF00BF002000900190414867
:1037B00090ED000A414880ED000A3F4890ED000A74
:1037C0003E4880ED080A07202EE069E051E0411EE6
:1037D0003A4A02EB810191ED000A114601EB8001AA
:1037E00081ED000A411E203202EB810191ED000AB9
:1037F000114601EB800181ED000A9DED000A2F4981
:1038000001EB8001D1ED000A30EE200A8DED000AB7
:103810009DED010A114601EB8001D1ED000A30EE69
:10382000200A8DED010A401E0028D0DC9DED000A23
:103830002248D0ED000A30EE200A8DED000A9DED01
:10384000010AD0ED080A30EE200A8DED010A9DED47
:10385000000AF2EE000A80EE201A144880ED011AE8
:103860009DED010AF2EE000A80EE201A80ED031AA7
:1038700013E004F003F90C490968401AB0F5807FA1
:103880000BD90020094948709FED0D0A084680EDCC
:10389000010A9FED0B0A80ED030A0120034908701D
:1038A00002B0BDEC048B10BDBC0900209C090020B7
:1038B0000AD7233CB4090020B8090020F8170020DB
:1038C000000000004100080218BF04200A0E18BFC3
:1038D00040F001004FF07F4232EA010108BF40F0A2
:1038E0000200012808BF05207047000010B54FF006
:1038F0000E402DED028BB0EE408A18EE104A00EB20
:103900004400B0F1506F4AD84FF0FC40B0EB440F88
:1039100022D2B0EEC80AF7EE000A30EEC00AF6EE88
:10392000000A60EE208A18EE900A02F08BFF01EE8A
:10393000100A14F0004F1DBFDFED2D0A9FED2D0A78
:10394000B1EE411ADFED2C0A08BF9FED2C0AF8EE0C
:10395000001A21EE218A05E0DFED290A68EE088AC7
:10396000B0EE600A9FED271ADFED271A30EE080A45
:1039700048EE811A9FED251A08EEA11ADFED241AF0
:1039800048EE811A9FED231A08EEA11A68EE281A54
:10399000BDEC028B01EE810A30EE200A10BD4FF023
:1039A000E440B0EB440F0CD918EE100AFFF78AFF81
:1039B000042808BF00F0B2F9B0EE480ABDEC028B53
:1039C00010BD4FF07F40B0EB440F07D2B0EE480A75
:1039D000BDEC028BBDE8104000F091B9012000F071
:1039E000B5F9BDEC028BBDE8104000F08FB90000C6
:1039F0000000C9BF22AAFDB90000C93F22AAFD39B3
:103A00000000000024FE1C3DC78AD83C1E67383DDC
:103A10001B93993DAFAA2A3E70B54FF068422DED39
:103A2000048BF0EE408A18EE900AB0EE608A18EE31
:103A3000101A02EB4003B3F1654F3CBF02EB4102A9
:103A4000B2F1654F7DD200BFC0F3C753C1F3C75277
:103A50009A1A1B2A09DD10F0004F14BF9FED830A4C
:103A60009FED830ABDEC048B70BD12F11A0F36DA9C
:103A700011F0004F09D010F0004F0CBF9FED7D0AF0
:103A80009FED7D0ABDEC048B70BD88EE889A19EE1F
:103A9000100AFFF717FF042808BF00F03FF918EEDF
:103AA000900AFFF70FFF054618EE100AFFF70AFF0E
:103AB000044619EE100AFFF705FF042D18BF052D67
:103AC00008D1042C18BF052C04D1002804BF022003
:103AD00000F03CF9B0EE490ABDEC048B70BD420029
:103AE000B2EB410F3AD910F0004F19BFDFED630A76
:103AF0009FED630ADFED630A9FED630AB0EE481A9B
:103B00000A46B1EE688A80F00041F0EE418A104624
:103B10000A1A5200B2F1807F34D2484010F0004FB0
:103B2000DFED5A1A9FED5A2A1DBFBEEE001A70EE45
:103B3000E10A30EE420AB6EE001A08BF70EEA10AA2
:103B400000E040E008BF30EE020AB0EE682A01EE65
:103B5000482A08EE818AC2EE081A15E011F0004FDB
:103B600004BF9FED4C0AF0EE400AD1D010F0004F98
:103B700019BFDFED490A9FED490ADFED490A9FEDC4
:103B8000490AC5E7C8EE881A21EEA11A9FED462A18
:103B9000DFED462A41EE022A9FED452A01EE222A58
:103BA000DFED442A41EE022A9FED432ABDEC048B4F
:103BB00001EE222A21EE811A01EE020A30EE210ADC
:103BC00030EE200A70BD4FF07F42B2EB400F28BFAD
:103BD000B2EB410F09D2F0EE480AB0EE680ABDEC34
:103BE000048BBDE8704000F08DB840EA01035B0033
:103BF00008BF41F0FF410BD0B2EB400F08BFB2EB62
:103C0000410F08D120F0804008EE900A21F0804159
:103C100008EE101A18E7B2EB400F12BF5FEA41033B
:103C200040F0FF4001F000413FF40EAFB2EB410F16
:103C300012BF5FEA400200F0004041F0FF413FF454
:103C400003AF4A0092EA40033FF5FEAE002AACBF44
:103C50009FED1A0A9FED1A0A68EE808A28EE008A04
:103C600018EE900A18EE101AEEE60000DB0FC9BF3E
:103C7000DB0FC93FDB0F4940DB0F49C00000C9BF64
:103C800022AAFDB90000C93F22AAFD390060ED3E1D
:103C9000C30ACE3700000000000049C022AA7DBA46
:103CA0000000494022AA7D3A2DAD65BD8FB8D53DB3
:103CB0000FB511BE61C84C3EA8AAAABE0000804F35
:103CC0000000802F10B52DED028BB1EEC08A18EEEA
:103CD000100A20F00040C0F1FF40C00F0AD010EEE3
:103CE000100A20F00040C0F1FF40C00F04BF0120C7
:103CF00000F02CF8B0EE480ABDEC028B10BD30EE9F
:103D0000000A704730EE200A70470000DFED020A1B
:103D100080EEA00A70470000000000009FED020A3C
:103D200020EE000A704700000000001002E008C802
:103D3000121F08C1002AFAD170477047002001E025
:103D400001C1121F002AFBD1704700000149086021
:103D500070470000680A002070B52DED028B8AB014
:103D600005460C4616460DB104B11EB90AB0BDECAD
:103D7000028B70BD94ED000AB5EEC00AF1EE10FAA8
:103D80000DD194ED010AB5EEC00AF1EE10FA06D19C
:103D900094ED020AB5EEC00AF1EE10FA7DD09FED67
:103DA000600AB0EE408A00200790089009900490C5
:103DB000059006905B4A07CA01AB07C395ED010A5F
:103DC000D5ED030A20EE200AD5ED000A95ED021A82
:103DD00000EEC10AF0EE000A20EE200A8DED070A7F
:103DE00095ED000AD5ED010A20EE200AD5ED020A74
:103DF00095ED031A00EE810AF0EE000A20EE200A8B
:103E00008DED080A95ED000A20EE000AD5ED030AB3
:103E100095ED031A00EE810AF7EE000AB0EE001AE3
:103E200051EE000ACDED090A01AB22463146284683
:103E300000F07AF8D4ED000A60EEA00A94ED011AC1
:103E4000D4ED011A41EE210A94ED021AD4ED021AC2
:103E500041EE210AB0EE600AFCF77CFCB0EE408A2D
:103E600094ED000A20EE080A84ED000A94ED010AA0
:103E700020EE080A84ED010A94ED020A20EE080AF9
:103E800084ED020A94ED010ADDED090A20EE200A14
:103E9000D4ED020A9DED081A00E03EE000EEC10AF2
:103EA0008DED040A94ED020ADDED070A20EE200AEA
:103EB000D4ED000A9DED091A00EEC10A8DED050A48
:103EC00094ED000ADDED080A20EE200AD4ED010A87
:103ED0009DED071A00EEC10A8DED060A96ED000A67
:103EE000DDED010A9DED041A00EE810A86ED000A5F
:103EF00096ED010ADDED020A9DED051A00EE810A3C
:103F000086ED010A96ED020ADDED030A9DED061A23
:103F100000EE810A86ED020A00BF00BF26E700001E
:103F2000000000001C7F00082DE9F0412DED048BFE
:103F300007460D4614461E469FED580AB0EE409ABD
:103F40009FED560AB0EE408A9FED540AF0EE408A8B
:103F5000D4ED000A60EEA00A94ED011AD4ED011A26
:103F600041EE210A94ED021AD4ED021A41EE210A23
:103F7000B0EE600AFCF7EEFBF7EE000A80EE801A66
:103F8000B0EE419AD5ED000AB0EE600AFCF779FA7E
:103F9000F0EE409AD5ED010AB0EE600AFCF771FA36
:103FA00079EE809AD5ED020AB0EE600AFCF769FA64
:103FB00039EE800AF0EE408A3948D0ED000A79EEF9
:103FC000600AB0EE600AFCF75CFAB0EE408A9FED42
:103FD000350AB4EEC08AF1EE10FA06DC9FED320A23
:103FE000F4EEC08AF1EE10FA53DD9FED2C2AB0EE0C
:103FF000420A9FED2A2AF0EE421AB7EE002AF0EEAE
:10400000420A9FED262AB0EE421AB5EEC08AF1EEC2
:1040100010FA05DD9FED232AC2EE082AB0EE620AEF
:104020009FED222AB4EEC20AF1EE10FA03D29FED00
:104030001B2AB0EE420AF5EEC08AF1EE10FA05DD59
:104040009FED192AC2EE282AF0EE621AB7EE002A76
:10405000B4EEC20AF1EE10FA03D220EE802AF0EE9E
:10406000420AB7EE002AF4EEC21AF1EE10FA03D2B9
:1040700020EEA12AF0EE420A9FED0D2A20EE822AC0
:10408000B0EE421A86ED001A86ED011A86ED021A8C
:1040900000BFBDEC048BBDE8F08100000000000013
:1040A000640A0020CDCCCC3D8FC2F53D9A99993E53
:1040B000CDCC4C3E10B52DED048B86B00446B0EE51
:1040C000408AF0EE608AB0EE419A0020039004909E
:1040D0000590009001900290B0EE000AC8EE000A30
:1040E000F0EE609AB0EE690AFCF7BFF98DED030AB5
:1040F000B0EE000AC8EE800AF0EE609AB0EE690AEF
:10410000FCF7B3F98DED040AB0EE000AC9EE000A1F
:10411000F0EE609AB0EE690AFCF7A7F98DED050A9A
:10412000B0EE000AC8EE000AF0EE609AB0EE690A3E
:10413000FCF722FB8DED000AB0EE000AC8EE800A03
:10414000F0EE609AB0EE690AFCF716FB8DED010AFD
:10415000B0EE000AC9EE000AF0EE609AB0EE690A0D
:10416000FCF70AFB8DED020A9DED050ADDED040A60
:1041700020EE200ADDED030A20EE200ADDED020A22
:104180009DED011A60EE810A9DED001A00EE810A94
:1041900084ED000A9DED020ADDED040A20EE200AFE
:1041A000DDED030A20EE200ADDED050A9DED011A82
:1041B00060EE810A9DED001A00EEC10A84ED010A4D
:1041C0009DED050ADDED010A20EE200ADDED030A72
:1041D00020EE200ADDED020A9DED041A60EE810A50
:1041E0009DED001A00EE810A84ED020A9DED050A9C
:1041F000DDED040A20EE200ADDED000A20EE200AA3
:10420000DDED020A9DED011A60EE810A9DED031AB3
:1042100000EEC10A84ED030A06B0BDEC048B10BDAC
:104220002DE9F04304460E461746616872687B68C4
:10423000B4F80080B4F8029008FB09FC4FEA9C0532
:104240003BE091ED003AB0EE430A92ED003AB0EE59
:10425000431A91ED013AF0EE430A30EE013AB0EE26
:10426000432A92ED013AF0EE431A91ED023AB0EE94
:10427000430A30EEA13AF0EE432A92ED023AB0EE54
:10428000431A83ED002AC3ED012A91ED033AF0EEC3
:10429000430A92ED033AF0EE431A30EE013AB0EEE3
:1042A000432A30EEA13AF0EE432A83ED022AC3ED11
:1042B000032A1031103210336D1E002DC1D10CF0C5
:1042C000030508E0B1EC013AF2EC013A33EE233A8F
:1042D000A3EC013A6D1E002DF4D10020BDE8F0835F
:1042E00001804280436070472DE9F34F88B08146DA
:1042F000D9F804800998D0F804A0B9F800C0B9F83A
:1043000002209FEDBC2AB0EE420A002003905646E0
:10431000E64619E0ACEB0E0304E09FEDB62AA6ECEE
:10432000012A5B1E002BF8D1B7EE002AA6EC012A69
:10433000AEF1010304E09FEDAF2AA6EC012A5B1E5B
:10434000002BF8D1AEF1010EBEF1000FE2D10292C6
:10435000002424E104FB02F008EB800104FB02F0DE
:104360000AEB800691ED002AB0EE420A9FEDA12AE9
:10437000F0EE420A274628E091ED002AB5EEC02A69
:10438000F1EE10FA0CDD91ED002AB4EEE02AF1EE28
:1043900010FA02DD91ED002A12E0B0EE602A0FE083
:1043A00091ED002AB1EE422AB4EEE02AF1EE10FAC5
:1043B00004DD91ED002AB1EE422A01E0B0EE602A60
:1043C000F0EE420A01EB82017F1C6745D4D3F5EE83
:1043D000C00AF1EE10FA04D16FF004000AB0BDE893
:1043E000F08F414601200190B5EEC00AF1EE10FABF
:1043F00002DDB0EE402A01E0B1EE402AB4EE602AC0
:10440000F1EE10FA4CD0601CACEB000745E002FB6B
:1044100004F001EB80050198504306EB8000079003
:1044200095ED002AB5EEC02AF1EE10FA02DD95ED09
:10443000002A03E095ED002AB1EE422AB4EE602A8C
:10444000F1EE10FA25D1131B0AE095ED002AF0EEEB
:10445000421A91ED002AA5EC012AE1EC011A5B1E3B
:10446000002BF2D113460FE0079890ED002AF0EEF2
:10447000421A96ED002A079880ED002A0798001D41
:104480000790E6EC011A5B1E002BEDD10120039092
:1044900005E00198401C01907F1E002FB7D100BF9E
:1044A0000398012807D0B5EEC00AF1EE10FA02D148
:1044B0006FF0040092E704FB02F008EB800B04FBB2
:1044C00002F00AEB800005905946059D9BED002AFD
:1044D000B0EE420A131B08E091ED002AB0EE421A3A
:1044E00081EE002AA1EC012A5B1E002BF4D11346B9
:1044F00008E095ED002AB0EE421A81EE002AA5EC04
:10450000012A5B1E002BF4D1414655460027CDF809
:1045100004C03BE0A74205D1101B01EB800105EB75
:1045200082052DE091ED002AB0EE420ACDF818B0D8
:1045300005980490131B0EE091ED002AB0EE421A8C
:104540000698F0EC012AB0EE412A00EE622A0690AD
:10455000A1EC012A5B1E002BEED113460EE095ED77
:10456000002AB0EE421A0498F0EC012AB0EE412A7B
:1045700000EE622A0490A5EC012A5B1E002BEED10E
:1045800001EB84010198401E01907F1C01980028D6
:10459000C0D108F104080298401E0290641C0298E1
:1045A00000287FF4D7AE0090039801281FD0B5EE05
:1045B000C00AF1EE10FA1AD1D9F8048000270AE0F7
:1045C00008EB870090ED002AB5EEC02AF1EE10FA54
:1045D00000D004E07F1C0CFB02F0B842F0D800BF12
:1045E0000CFB02F0B84202D16FF00400009000987A
:1045F000F4E60000000000002DE9F74F83B0044608
:104600000D4662686968D4F804C005984068029055
:10461000208801906B8867884FF0000ADDF804E07D
:1046200000BF029800EB8A08994669684FF0000BBA
:1046300000BFDFED412AB0EE620A6246BE1042E0E2
:10464000D1ED002AF0EE621A01EB8301D2ED002ACF
:10465000F0EE620AD2ED012AB0EE621AF0EE402AC4
:1046600040EEA12AB0EE620AD1ED002AB0EE622A35
:1046700001EB8301F0EE402A41EE022AB0EE620A1D
:10468000D1ED002AF0EE621A01EB8301D2ED022A8D
:10469000F0EE620AD2ED032AB0EE621AF0EE402A82
:1046A00040EEA12AB0EE620AD1ED002AB0EE622AF5
:1046B00001EB8301F0EE402A41EE022AB0EE620ADD
:1046C0001032701E86B2002EBAD107F003060DE03C
:1046D000B2EC013AD1ED003AF0EE402A43EE232A43
:1046E000B0EE620A01EB8301701E86B2002EEFD19C
:1046F000A8EC010A0BF101001FFA80FB686800EBCF
:104700008B01A9F101001FFA80F9B9F1000F90D1D6
:104710000AEB03001FFA80FA0CEB870CAEF10100E4
:104720001FFA80FEBEF1000F7FF47BAF00200090E7
:10473000009806B0BDE8F08F000000002DE9F043BE
:1047400004460E461746616872687B68B4F80080BC
:10475000B4F8029008FB09FC4FEA9C053BE091EDA0
:10476000003AB0EE430A92ED003AB0EE431A91EDF2
:10477000013AF0EE430A30EE413AB0EE432A92EDB0
:10478000013AF0EE431A91ED023AB0EE430A30EEF0
:10479000E13AF0EE432A92ED023AB0EE431A83ED8D
:1047A000002AC3ED012A91ED033AF0EE430A92ED9F
:1047B000033AF0EE431A30EE413AB0EE432A30EEBF
:1047C000E13AF0EE432A83ED022AC3ED032A1031C9
:1047D000103210336D1E002DC1D10CF0030508E01E
:1047E000B1EC013AF2EC013A33EE633AA3EC013A50
:1047F0006D1E002DF4D10020BDE8F0832DE9F047B7
:1048000004460E466168D6F80490238867884FF006
:10481000000C984600BFBD1009EB8C021BE0B1EC08
:10482000010A82ED000A02EB8302B1EC010A82ED7B
:10483000000A02EB8302B1EC010A82ED000A02EBEE
:104840008302B1EC010A82ED000A02EB8302A5F1BA
:10485000010A1FFA8AF5002DE1D107F0030509E0EE
:10486000B1EC010A82ED000A02EB8302A5F1010A14
:104870001FFA8AF5002DF3D10CF1010A1FFA8AFC08
:10488000A8F1010A1FFA8AF8B8F1000FC3D100207D
:10489000BDE8F08770B500250024FCF71FF88020E4
:1048A000FCF7A1F95520FCF79EF95520FCF79BF980
:1048B0000546FCF70BF89620FCF745F8FCF70EF8D8
:1048C0008020FCF790F95520FCF78DF95520FCF776
:1048D0008AF90546FBF7FAFF9620FCF734F8FBF758
:1048E000FDFFB6217E20FCF786F9FBF7EFFF502095
:1048F000FCF71CF8FBF7F2FF8020FCF774F9552059
:10490000FCF771F95520FCF76EF90546FBF7DEFF61
:104910009620FCF718F8FBF7E1FF8020FCF763F91D
:104920005520FCF760F95520FCF75DF90546FBF7CB
:10493000CDFF9620FCF707F81E2D01D0FF2070BD9B
:10494000002434E0FBF7CAFF04EB44021A4B1A447C
:10495000517804EB4402985CFCF74DF9FBF7B6FF85
:104960009620FBF7F0FFFBF7B9FF04EB4401124A76
:10497000515C41F08000FCF736F95520FCF733F923
:104980005520FCF730F90546FBF7A0FF9620FBF712
:10499000DAFF04EB4400084908444078A84204D0F8
:1049A00004EB440008448078C9E7601CC4B2062CBC
:1049B000C8DB0020C3E700007007002038B50024E2
:1049C00000200090FBF79AFF69460020FCF7FFF8F3
:1049D000FBF78CFF9620FBF7B6FFFBF78FFF6946CE
:1049E0000020FCF7F4F8FBF781FF9620FBF7ABFF04
:1049F000FBF784FFB6211420FCF7FDF8FBF776FFE8
:104A00005020FBF793FFFBF779FF69460020FCF786
:104A1000DEF8FBF76BFF9620FBF795FFFBF76EFFC9
:104A200069460020FCF7D3F8FBF760FF9620FBF700
:104A30008AFF9DF800000F2801D0FF2038BD002418
:104A40002FE0FBF75BFF04EB4402184B1A4451784C
:104A500004EB4402985CFCF7CEF8FBF747FF962086
:104A6000FBF771FFFBF74AFF04EB44010F4A505C70
:104A70006946FCF7ACF8FBF739FF9620FBF763FFBC
:104A800004EB44000949084440789DF8001088422E
:104A900005D004EB4400054908448078CEE7601C4B
:104AA000C4B2062CCDDB0020C8E70000820700203E
:104AB0002348007DC0F3C0002149097DC1F3800176
:104AC000401A00EB401000EB80001E4909698988FC
:104AD00001EB800000B21B4908811948007D00F0FD
:104AE00001001749097DC1F34001401A00EB401055
:104AF00000EB800013490969C98801EB800000B20E
:104B000010494881084600784968C8720D484178C4
:104B1000406801730B480089010A0A4840684173E4
:104B20000848017A4068817306484089010A0548AF
:104B30004068C1730348817A40680174704700007F
:104B4000321700202800002003494978814201D013
:104B50000149487070470000280000200349097887
:104B6000814201D0014908707047000028000020F0
:104B700010B50A48007838B101280BD14FF475718F
:104B80000748FEF7F5F906E040F61F610448FEF716
:104B9000EFF900E000BF00BF10BD0000C002002020
:104BA0000000014003490978814201D001490870A1
:104BB00070470000C002002070B5044602F04EFFAE
:104BC000012810D00B480088844206D30948008889
:104BD000B4FBF0F5284602F0E9F806480088B4FB7B
:104BE000F0F100FB11444FF47A7104FB01F000F086
:104BF00003F870BD0200002070B5034600224FF09C
:104C0000E02675690D4E367803FB06F44FF0E0267A
:104C1000B16910E04FF0E026B06988420BD08842BD
:104C200002D20E1A324402E02E1A0E4432440146D9
:104C3000A24200D300E0EDE700BF70BD00000020FD
:104C400030B5F0EE400A394C54F820408C420ADD71
:104C5000364C54F820400C1B04F50052334C54F8E9
:104C600020400B1B09E0314C54F820400C1BA4F5EC
:104C700000522E4C54F820400B1B2C4C44F82010B2
:104C8000002A01DD144600E05442002B01DD1D46E0
:104C900000E05D42AC4207DA254C54F82040144451
:104CA000234D45F8204006E0214C54F820401C4498
:104CB0001F4D45F820401E4C54F8204000EE104A8D
:104CC000B8EEC01ADFED1B1AB7EE000A11EEA00A0B
:104CD000B4EEC01AF1EE10FA03DD0024144D45F8CD
:104CE0002040134C54F82040002C0CDA9FED111A90
:104CF000B7EE000A11EE200ABDEEC00A10EE104A0F
:104D00000B4D45F820400A4C54F8204000EE104A64
:104D1000B8EEC00A9FED071A60EE811A80EE211AE4
:104D20009FED050A21EE000A30BD0000D0170020DB
:104D3000E4170020000000460000B44370B50646AA
:104D40000D461446E06DB04200D070BD2868216861
:104D5000884244D1687CA073287BE97A40EA01202C
:104D600000B2A081A97B687B41EA002000B260818B
:104D7000297CE87B41EA002000B2208194F864009D
:104D800020B101281ED0022827D110E0B4F90C0070
:104D900000EE100AF8EEC00A9FED121A80EE810AAA
:104DA000DFED110A20EE200A84ED010A16E0B4F9C5
:104DB0000C1094F865009FED0D0AFFF741FF84ED9C
:104DC000010A0BE0B4F90C1094F865009FED080A95
:104DD000FFF736FF84ED010A00E000BF00BF00BF0F
:104DE000B3E70000000000460000B443000010429A
:104DF0002CA099412DE9F04104460D4616461F4668
:104E000014B10DB106B10FB9BDE8F081D4ED010ABE
:104E100094ED031A60EE810A94ED001AD4ED021AA3
:104E200041EE610AB8EE001A60EE810AB0EE600A47
:104E3000FBF7FFFA86ED000A94ED001A21EE011A45
:104E4000D4ED011A94ED012A01EE821AF7EE001A50
:104E5000B0EE002A52EE011AF0EE610A94ED001A4B
:104E6000D4ED031A21EE211AD4ED011A94ED022A91
:104E700001EE821AF0EE001A21EE211AB0EE410A7C
:104E8000FBF7E3FA85ED000A94ED001A21EE011A12
:104E9000D4ED031A94ED032A01EE821AF7EE001AFC
:104EA000B0EE002A52EE011AF0EE610A94ED001AFB
:104EB000D4ED011A21EE211AD4ED021A94ED032A41
:104EC00001EE821AF0EE001A21EE211AB0EE410A2C
:104ED000FBF7BBFA87ED000A00BF95E70246002109
:104EE00040E0224800EB810090ED000A1F480830A6
:104EF00000EB810080ED000A02EB810090ED000ADA
:104F00001B4800EB8100D0ED000AB4EE600AF1EE20
:104F100010FA02D115480830704702EB810090ED7D
:104F2000000A134800EB8100D0ED000A70EE600A21
:104F3000104890ED000AB8EE401A80EE810ADFEDCD
:104F40000E0A20EE200A094800EB810080ED000ADD
:104F500002EB810090ED000A054800EB810080ED36
:104F6000000A491C0229BCDB0048D5E7440B00209D
:104F700084040020C80200200000614510B51B48D1
:104F8000806A007801280BD1194800681949086027
:104F900002F074FD1649086000201449896A0870FF
:104FA0001348006813490968401A13490860084605
:104FB00090ED000AB8EE400AB5EEC00AF1EE10FA24
:104FC00002D8002008600EE00B4890ED000AB8EE11
:104FD000400AF0EE080AB4EEE00AF1EE10FA02DB45
:104FE0000320054908600448006810BDC80200207D
:104FF000A4040020A8040020AC0400200CB5434801
:1050000090ED000A424880ED000A404890ED010A08
:105010003F4880ED010A3F48C06A90ED010A3B48D5
:1050200080ED000A3B48C06A90ED020A374880EDE7
:10503000010A002066E0354901EB800191ED000A8C
:10504000334901EB8001D1ED000A30EE600A694678
:1050500001EB800181ED000A694601EB800191EDD1
:10506000000ADFED2D0AB4EEE00AF1EE10FA15DDCC
:105070002A4901EB800191ED000A694601EB8001AC
:10508000D1ED000A9FED261A70EEC10A30EE600ADB
:10509000224901EB800181ED000A32E0694601EB13
:1050A000800191ED000ADFED1F0AB4EEE00AF1EE97
:1050B00010FA15D2194901EB800191ED000A6946F9
:1050C00001EB8001D1ED000A9FED151A70EE810A07
:1050D00030EE600A114901EB800181ED000A10E019
:1050E0000E4901EB800191ED000A694601EB800158
:1050F000D1ED000A30EE600A084901EB800181ED34
:10510000000A401C022896DB04480CBD94040020D1
:105110009C040020C8020020000034438C040020BE
:105120000000B443000034C300B585B0D84890ED0A
:10513000020ADFEDD80AB4EEE00AF1EE10FA07DD5C
:1051400090ED020ADFEDD40A30EE600A80ED020A2B
:10515000CF4890ED020ADFEDD10AB4EEE00AF1EE9D
:1051600010FA07D290ED020ADFEDCB0A30EE200AEA
:1051700080ED020AC64890ED010AF0EE000AB4EE96
:10518000E00AF1EE10FA04D8B0EE000A80ED010A50
:105190000DE0BF4890ED010ADFEDC10AB4EEE00A70
:1051A000F1EE10FA03DB9FEDBE0A80ED010AB8486C
:1051B00090ED020AC068D0ED010A30EE600A8DED74
:1051C000030AB34890ED010AC069D0ED010A30EE40
:1051D000600A8DED040AB348C07C012803D0B248B0
:1051E000006801287AD1AA484069806A407801287D
:1051F00074D1AE480068B8B1A548406990ED090A7D
:10520000AB48D0ED000A20EE200A8DED030AA0483D
:105210004069806A90ED030AA648D0ED000A20EEAE
:10522000200A8DED040A17E099484069806A90EDE4
:10523000010A9F48D0ED000A20EE200A8DED030AF6
:1052400093484069806A90ED030A9A48D0ED000ABD
:1052500020EE200A8DED040A9DED030AF9EE080AFE
:10526000B4EEE00AF1EE10FA04D8B9EE080A8DEDBA
:10527000030A0CE09DED030AF1EE080AB4EEE00A21
:10528000F1EE10FA03DBB1EE080A8DED030A9DED95
:10529000040AF9EE080AB4EEE00AF1EE10FA04D8B6
:1052A000B9EE080A8DED040A0CE09DED040AF1EE5A
:1052B000080AB4EEE00AF1EE10FA03DBB1EE080AD8
:1052C0008DED040A7C4890ED010A714880ED020AD8
:1052D000C06990ED010A6E4880ED010A9DED030A58
:1052E000DFED6C0AB4EEE00AF1EE10FA07DB9DED9B
:1052F000030ADFED690A30EE600A8DED030A9DEDC9
:10530000030ADFED660AB4EEE00AF1EE10FA07D206
:105310009DED030ADFED600A30EE200A8DED030AF1
:105320009DED030ADFED650AB4EEE00AF1EE10FA36
:1053300004D89FED620A8DED030A0CE09DED030A8F
:10534000DFED5F0AB4EEE00AF1EE10FA03DB9FED49
:105350005C0A8DED030A9DED040ADFED580AB4EEF8
:10536000E00AF1EE10FA04D89FED540A8DED040A1C
:105370000CE09DED040ADFED520AB4EEE00AF1EE16
:1053800010FA03DB9FED4E0A8DED040A4048C06819
:1053900090ED040ADDED030A9FED4A1A10EE810A32
:1053A0008DED010A3A48C06890ED050ADDED040A6A
:1053B0009FED441A10EE810A8DED020ADDED010A1F
:1053C000B0EE600A324A926902F11000304A9269E6
:1053D000916D8847BDEEC00A10EE100A00B2ADF81C
:1053E0000000DDED020AB0EE600A294AD26902F13E
:1053F0001000274AD269916D8847BDEEC00A10EEB1
:10540000100A00B2ADF80200BDF80000C0F3072298
:105410001F488069006E0B301D4989690968A1F237
:105420000521294B53F821104254BDF80000C2B2A7
:1054300017488069006E0B30154989690968A1F227
:105440000521224B53F821104254BDF80200C0F34D
:1054500007220F48C069006E0B300D49C969096801
:10546000A1F20521184B53F821104254BDF8020057
:10547000C2B20748C069006E0B300549C9690968A6
:10548000A1F20521114B53F82110425405B000BD83
:1054900044000020000034430000B443000034C343
:1054A0000000504232170020F800002004010020C4
:1054B000FC00002000010020941700200000C8C25A
:1054C0000000C842E12E6542A4060020C406002068
:1054D00010B504460E480078A04217D00C4804705E
:1054E00004EBC4020B4B03EB82010246926902F10A
:1054F0001000FCF7BDFF04EBC402074B03EB820175
:10550000034AD26902F11000FCF7B2FF10BD00009F
:105510004400002068000020B0000020F0B50546DF
:10552000059C00207FE093ED050A00EB4006404F0C
:1055300007EB8606D6ED000A20EE200AD3ED060A18
:1055400000EB400607EB860696ED011A00EE810A95
:10555000D3ED070A00EB400607EB860696ED021A2C
:1055600000EE810A334E06EB8006D6ED000A30EEDF
:10557000200A05EB800686ED000A93ED010A00EB98
:1055800040062D4F07EB8606D6ED000A20EE200AD6
:10559000D3ED020A00EB400607EB860696ED011AF2
:1055A00000EE810AD3ED030A00EB400607EB860606
:1055B00096ED021A00EE810A204E06EB8006D6ED2B
:1055C000000A30EE200A01EB800686ED000A94ED19
:1055D000010A00EB40061A4F07EB8606D6ED000ADB
:1055E00020EE200AD4ED020A00EB400607EB860607
:1055F00096ED011A00EE810AD4ED030A00EB400695
:1056000007EB860696ED021A00EE810A0D4E06EBB8
:105610008006D6ED000A30EE200A02EB800686ED09
:10562000000A461CF0B20328FFF67DAFF0BD000073
:10563000C0040020D0150020F0040020181600201F
:10564000140500203016002010B52DED028BB0EEB1
:10565000408A21480078F8B1DFED200AB0EE480A10
:105660001F48FCF773FF1E4890ED080AB5EEC00A0C
:10567000F1EE10FA03D29FED1B0A80ED080A1848DC
:1056800090ED080ABCEEC00A10EE100A84B2214662
:105690001548FDF76DFC1CE09FED100AB4EEC08AC2
:1056A000F1EE10FA10DD11480078401C0F49087027
:1056B00008460078C82807DD0120074908709FEDDB
:1056C0000C0A074880ED0A0A41F287310648FDF7C7
:1056D0004FFCBDEC028B10BDB00400200000204246
:1056E000AC0B0020000000000044014098060020A0
:1056F00000401C4510B52DED028B8AB00446B0EE7B
:10570000408AF0EE608A0020069007900890099089
:105710000490059006AB0222114602A8FEF7E0FDB8
:1057200004AB012202216846FEF7DAFD206A80ED13
:10573000008A206AC0ED018A04F1140204F10C0110
:1057400004F12400FEF758FF04F15C0204F1540157
:1057500004F12400FEF750FF02AA04F1340104F121
:105760005C00FEF749FF04F15C0204F1440102A869
:10577000FEF756FD04F1640204F15C0104F12C0013
:10578000FEF73AFF02AA04F13C0104F16400FEF7BF
:1057900033FF04F1640204F14C0102A8FEF740FD5E
:1057A00004F1540104F16400FEF79EFD02AA04F125
:1057B0003C0104F15C00FEF71FFF04F1640204F1F8
:1057C000540102A8FEF718FF6A4604F1140104F11F
:1057D0002C00FEF711FF04F10C02694604F11C00D5
:1057E000FEF7ACFF6A4604F10C0104F16400FEF719
:1057F00003FF04F10C02694604F11400FEF710FDEA
:1058000004F1540204F12C0104F16400FEF7F4FEEB
:1058100002AA04F1540104F14400FEF78FFF04F1E1
:10582000540204F15C0102A8FEF7E6FE206990ED47
:10583000000A84ED010A206990ED010A84ED020A54
:10584000201D0AB0BDEC028B10BD70B504460D469C
:1058500005F10C030122022104F10C00FEF740FDCA
:1058600005F114030122022104F11400FEF738FDB2
:1058700005F11C030122022104F11C00FEF730FD9A
:1058800005F174030222114604F12400FEF728FDFD
:1058900005F184030222114604F12C00FEF720FDDD
:1058A00005F194030222114604F14400FEF718FDAD
:1058B00005F1A4030222114604F14C00FEF710FD8D
:1058C00005F144030222114604F15400FEF708FDDD
:1058D00005F124030222114604F15C00FEF700FDED
:1058E00005F134030222114604F16400FEF7F8FCCE
:1058F00005F154030222114604F13400FEF7F0FCD6
:1059000004F1340104F12400FEF778FF05F164038B
:105910000222114604F13C00FEF7E2FC04F13C01D6
:1059200004F12C00FEF76AFF70BDFBF700FF00BF1B
:10593000FEE7000070B506460C461546AA20094948
:105940000870BB204870300A8870CE70200A087139
:105950004C71280A8871CD7101210348FBF76CFC5A
:1059600070BD000029170020B86402402DE9F04105
:1059700005460E461C4807681C480068001D01F0DB
:10598000ADF850B91948006890F82C1001208840F3
:1059900017490968814316480160681C38B936B157
:1059A00012480168091D134801F0D6F81AE07C1965
:1059B0000E4800684460BC4207D20C480168091DCB
:1059C0000D48006801F0AEF80CE008480168091DB8
:1059D0000A48006801F0A6F809480068844201D22C
:1059E00007480460BDE8F0811C0A0020080A002076
:1059F000200A00202C450120100A00200C0A00205B
:105A0000380A002010B5044601F0B2F824480068B6
:105A1000401C234908602348006840B921480460BD
:105A20000846006801280DD100F0D6F90AE01E48AA
:105A3000006838B91B480068C06AE16A884201D82A
:105A40001848046019480068401C18490860084656
:105A50000068A06494F82C1001208840144909685B
:105A6000084313490860E16A01EB8101114A02EB26
:105A70008100211D01F070F801F0A4F80A480068C7
:105A800068B108480068C06AE16A884207D24FF0EE
:105A9000805009490860BFF34F8FBFF36F8F10BD6F
:105AA000180A0020080A0020240A0020340A0020D6
:105AB000200A00207844012004ED00E010B501F038
:105AC00057F810480068D0B90F4801F01BF80F488C
:105AD00001F018F80C480E4908600C480D490860A0
