:020000040800F2
:10000000986B012061020008690200086B02000879
:100010006D0200086F020008710200080000000075
:10002000000000000000000000000000A101000826
:100030007502000800000000FD01000819420008D8
:100040007B0200087B0200087B0200087B0200089C
:100050007B0200087B0200087B0200087B0200088C
:100060007B0200080D1F0008171F00087B02000814
:100070007B0200087B0200087B0200087B0200086C
:100080007B0200087B0200087B0200087B0200085C
:100090008D1200087B0200087B020008211F000867
:1000A0007B0200087B0200087B0200087B0200083C
:1000B0007B0200087B0200087B0200087B0200082C
:1000C0007B0200087B0200087B0200087B0200081C
:1000D0007B0200087B0200087B020008D948000868
:1000E0007B0200087B0200087B0200087B020008FC
:1000F0007B0200087B0200087B0200087B020008EC
:100100007B0200087B0200087B0200087B020008DB
:100110007B0200087B0200087B0200087B020008CB
:100120007B0200087B0200087B0200087B020008BB
:100130007B0200087B0200087B0200087B020008AB
:10014000F11300087B0200087B0200087B02000814
:100150007B020008111B0008411B0008C54900086C
:100160007B0200087B0200087B0200087B0200087B
:100170007B0200087B0200087B02000800000000F0
:100180007B0200087B020008DFF810D000F04EFB75
:100190000048004799690008AFF30080986B012080
:1001A0002C4B19680868B0E8F04F80F30988BFF35A
:1001B0006F8F4FF0000080F311887047000000003F
:1001C00008480068006880F308884FF0000080F35A
:1001D000148862B661B6BFF34F8FBFF36F8F00DF35
:1001E00000BF00BF08ED00E0DFF80C00016841F43B
:1001F00070010160704700BF88ED00E0EFF30980F7
:10020000BFF36F8F134B1A681EF0100F08BF20ED5D
:10021000108A20E9F04F106009B44FF0500080F3CD
:100220001188BFF34F8FBFF36F8F08F0B3F84FF013
:10023000000080F3118809BC19680868B0E8F04F25
:100240001EF0100F08BFB0EC108A80F30988BFF3CE
:100250006F8F7047400E0020EFF30580704700005D
:100260000648804706480047FEE7FEE7FEE7FEE750
:10027000FEE7FEE7FEE7FEE7FEE7FEE74D42000889
:10028000890100089FED1A1AF5EE000A40EE010AF6
:10029000BDEEE00AF5EEC00A10EE100AF1EE10FA1B
:1002A00038BF401E00EE100A1349F7EE001AB8EEF0
:1002B000C00A30EEC00ADFED0F0A20EE200AFCEE85
:1002C000C00A10EE900AC0F3080000EE900A01EB9D
:1002D0008000F8EE600A90ED011A70EE600A90ED71
:1002E000000A71EEE01A21EE800A00EE810A7047E2
:1002F00083F9223E0000004488920008DFED190ACD
:10030000B5EEC00A60EE200ABDEEE01A11EE100A4A
:10031000F1EE10FA38BF401E00EE100A1349F7EE56
:10032000001AB8EEC00A30EEC00ADFED0F0A60EE28
:10033000200ABCEEE00A10EE100AC0F3080000EE3E
:10034000100A01EB8000B8EE400A90ED011A70EE41
:10035000C00A90ED000A71EEE01A21EE800A00EE6C
:10036000810A704783F9223E000000448892000809
:1003700040EA01039B0703D009E008C9121F08C027
:10038000042AFAD203E011F8013B00F8013B521EA7
:10039000F9D27047D2B201E000F8012B491EFBD21E
:1003A00070470022F6E710B513460A460446194680
:1003B000FFF7F0FF204610BD2DE9FE4F804681EA91
:1003C0000300C00F0C46009021F0004123F00045CF
:1003D000B8EB0200A94105D24046214690461C4692
:1003E0000B46024623F00040104347D0270DC7F3C9
:1003F0000A00C3F30A510290401A019040286BDAB8
:10040000C3F3130040F4801B0098924620B10023F0
:10041000D2EB030A63EB0B0B01985946C0F1400283
:10042000504600F03DF906460D4650465946019AA1
:1004300000F055F910EB08006141002487EA1152E1
:1004400084EAE7731A4340D0009A62B3019A012A02
:100450004FEA075215DC001B61EB02014FF000422E
:1004600002EA0752CDE90042001C41F580113246F4
:100470002B4600F08CF903B0BDE8F08F40462146D2
:10048000F9E7001B61EB0201001C41F58013001825
:100490005B412018A2F5001747EB030140EAD57035
:1004A000B6196D4111E06D084FEA360645EAC07590
:1004B0004FEA0752001B61EB0201001C41F580115D
:1004C00049084FEA30000019514132462B4603B02B
:1004D000BDE8F04F00F04CB9009801224000002325
:1004E000D0EB020263EBE073009821464FEAE07420
:1004F000B8EB000061EB0401E9E783F000435BE740
:1005000081F0004158E72DE9FE4F81EA030404F031
:10051000004421F0004100944FF0000B23F0004311
:1005200050EA01045ED052EA03045BD0C3F30A54DC
:10053000C1F30A552C44A4F2F3340194A0FB0254F5
:10054000C1F3130141F48011C3F3130343F4801387
:1005500001FB024400FB034E840A970A44EA8154DB
:1005600047EA8357A4FB076802958D0A05FB0785B8
:100570004FEA932C04FB0C542705029D4FEA0658C2
:1005800047EA1637B5EB08056EEB070C870E920E9F
:1005900047EA811742EA8312A7FB0201B6EB0B017F
:1005A00064EB00042B0D43EA0C335E1844EB1C5043
:1005B000DA465146E7FB0201C5F313044FEA0B3359
:1005C00043EA14534FEA0432019C43EA0603A4F1C0
:1005D0000C040294009CCDE900B400F0D8F803B0FC
:1005E000BDE8F08F00200146F9E70EB540F2334137
:1005F00002910021CDE900110A460B4600F0C7F830
:1006000003B000BD70B5C1F30A5201F000450024EB
:10061000C1F3130140F2FF3341F480119A4201DA31
:10062000002070BD40F233439A42A2F2334203DC11
:10063000524200F044F800E090402C43F1D0404298
:1006400070BD00F0004230F000400AD0C10D01F54D
:100650006071C0F3160042EA0151C208400711431D
:10066000704700200146704701F0004330B421F08C
:10067000004150EA010206D00A0DA2F56072C1F3F2
:100680001301002A02DC30BC00207047440F44EA0A
:10069000C104C100E01830BC00EBC25000F031B81A
:1006A000202A04DB203A00FA02F100207047914032
:1006B000C2F1200320FA03F3194390407047202A27
:1006C00004DB203A21FA02F00021704721FA02F3FC
:1006D000D040C2F120029140084319467047202AB9
:1006E00006DBCB17203A41FA02F043EAE07306E05A
:1006F00041FA02F3D040C2F120029140084319466A
:1007000070470029A8BF7047401C490008BF20F06F
:100710000100704710B4B0FA80FC00FA0CF050EA07
:10072000010404BF10BC704749B1CCF1200421FA88
:1007300004F411FA0CF118BF012121430843A3EB83
:100740000C01CB1D4FEA00614FEA102042BF002090
:1007500010BC704700EBC35010440029A4BF10BC6C
:100760007047401C490008BF20F0010010BC7047D2
:1007700010B5141E73F1000408DA401C41F10001A9
:1007800092185B411A4301D120F0010010BD2DE900
:10079000F04D92469B4611B1B1FA81F202E0B0FAF7
:1007A00080F220329046FFF77BFF04460F4640EA76
:1007B0000A0041EA0B0153465A46084313D011463A
:1007C00053EA010019D0C8F140025046FFF777FF05
:1007D00005460E46504659464246FFF761FF08431C
:1007E00005D0012004E020463946BDE8F08D002008
:1007F000054346EAE0762C4337430A986305E40A4A
:10080000A0EB08000022FD0A44EA47540A3002D552
:1008100000200146E9E7010510196941DDE90845B5
:1008200000196941BDE8F04DA2E70000064C074DF4
:1008300006E0E06840F0010394E8070098471034B0
:10084000AC42F6D3FFF7A4FC8C9A0008AC9A0008DF
:1008500070B58C1810F8015B15F0070301D110F882
:10086000013B2A1106D110F8012B03E010F8016BAF
:1008700001F8016B5B1EF9D12B0705D40023521E32
:100880000DD401F8013BFAE710F8013BCB1A921C9A
:1008900003E013F8015B01F8015B521EF9D5A14298
:1008A000D8D3002070BD10B52DED028BB0EE408A7C
:1008B000B0EE480A04F026FDBDEC028B10BD10B569
:1008C0002DED028BB0EE408AF0EE608AF0EE680A01
:1008D000B0EE480A04F0ACFDBDEC028B10BD10B5C3
:1008E0002DED028BB0EE408AB0EE480AFFF7CAFC4D
:1008F000BDEC028B10BDF0EE400AF5EEC00AF1EE41
:1009000010FA02DDB0EE600A7047B1EE600AFBE754
:1009100018B19FED020A80ED000A70470000000048
:1009200018B1B3EE060A80ED000A704770B52DEDE0
:100930000C8B84B006460C4615469FED990AF0EEE6
:10094000408A9FED970AB0EE409A9FED950AF0EE2F
:1009500040BA9FED930AF0EE409A9FED910AB0EEF7
:1009600040AA0EB104B11DB904B0BDEC0C8B70BD32
:100970008C48FFF7CDFF8C48FFF7D2FF8A48D0EDB7
:10098000000A9FED8A1A60EE810AB0EE600A00F05C
:100990002DF9F0EE408A28EEA80AF0EE408A82484F
:1009A000D0ED000AB0EE001A60EE810A9FED7F1ACA
:1009B00060EE810AB0EE600A00F018F9B0EE409ADD
:1009C00029EE090AB0EE409ADFED790AB7EE000A87
:1009D00000EEA80ADFED770A00EEC90ADFED760A1D
:1009E00020EE200A754880ED000A6E4890ED000A5E
:1009F000DFED730A80EE201AB7EE000A31EE000A2E
:100A000020EE000A6D48D0ED000A80EE801A6D4895
:100A100080ED001A94ED000AB5EEC00AF1EE10FA6E
:100A20000DD194ED010AB5EEC00AF1EE10FA06D12F
:100A300094ED020AB5EEC00AF1EE10FA46D09FED31
:100A4000580AB0EE408A0020019002900390D4ED45
:100A5000000A60EEA00A94ED011AD4ED011A41EEED
:100A6000210A94ED021AD4ED021A41EE210AB0EEE9
:100A7000600A00F0A9F8B0EE408A94ED000A20EE7A
:100A8000080A8DED010A94ED010A20EE080A8DEDA9
:100A9000020A94ED020A20EE080A8DED030ADDED4C
:100AA000010AF1EE600AB0EE600AFFF7FCFEF0EE1C
:100AB000409A9DED031AF0EE410A9DED021AB0EE48
:100AC000410AFFF7FCFEB0EE40AA07E09FED340AB2
:100AD000F0EE409A9FED320AB0EE40AA95ED000A82
:100AE000B5EEC00AF1EE10FA0DD195ED010AB5EEA2
:100AF000C00AF1EE10FA06D195ED020AB5EEC00A71
:100B0000F1EE10FA3CD0B0EE690A00F06FF8B0EEEA
:100B1000408AB0EE690AFFF7E2FEB0EE40DAB0EECE
:100B20004A0A00F063F8F0EE40AAB0EE4A0AFFF776
:100B3000D6FEB0EE40BA28EE2A0AD5ED010A20EE24
:100B4000200AD5ED000A0DEE200A68EE0B0A95ED9D
:100B5000021A00EE810AB0EE40CA95ED010A20EEBD
:100B60000B0AD5ED020A0AEEE00AF0EE40CAF0EEFA
:100B70006C0AB0EE4C0AFFF7A2FEF0EE40BA03E0BA
:100B80009FED070AF0EE40BAB0EE4A1AF0EE690A9D
:100B9000B0EE6B0A304604F099FF00BFE4E60000B7
:100BA00000000000900E0020940E002035FA8E3CCC
:100BB000C1BFAD3B9DF8C5362F7C1C41980E00206F
:100BC000506CC24A9C0E002010B52DED028BB0EE89
:100BD000408AB0EE480A04F081FDB7EE001AC1EE7B
:100BE000000AB0EE600ABDEC028B10BD10B52DED11
:100BF000028BB0EE408AB0EE480AFFF77FFBBDECF7
:100C0000028B10BD2DE9F0412DED028B9AB0054607
:100C1000B0EE408A0E46174698460020179018906E
:100C200019901490159016904DB146B13FB1B8F19E
:100C3000000F04D0B5EEC08AF1EE10FA05D1002005
:100C40001AB0BDEC028BBDE8F08196ED000A8DED87
:100C5000170A96ED010A8DED180A96ED020A8DED40
:100C6000190A97ED000A8DED140A97ED010A8DED32
:100C7000150A97ED020A8DED160A17AA14A928463F
:100C800004F076FD402104A8FFF78BFB00200090C4
:100C9000019002900390002417A904A807F022F8FD
:100CA00000BF30E004A800EB041090ED000AD5ED81
:100CB000000A20EE200A04A800EB0410D0ED010A7F
:100CC00095ED011A00EE810A04A800EB0410D0EDA6
:100CD000020A95ED021A00EE810A04A800EB041046
:100CE000D0ED030A95ED031A00EE810A20EE080A02
:100CF000F0EE000A80EE201A684600EB840080EDDA
:100D0000001A601CC4B2042CCCDB002410E005EBFC
:100D1000840090ED000A684600EB8400D0ED000AE4
:100D200030EE200A05EB840080ED000A601CC4B29E
:100D3000042CECDB284606F0E3FB012080E70000F2
:100D400010B5DFED070AB7EE000A064802F034F8E6
:100D5000DFED030AB7EE000A034802F02DF810BDDC
:100D6000000070428C1C0020BC1C002010B510211B
:100D7000014801F01AFA10BD0000024010B5102120
:100D8000014801F010FA10BD0000024010B5012129
:100D9000014801F00AFA10BD0004024010B501211B
:100DA000014801F000FA10BD00040240022007498A
:100DB0008882C8826FF005000883022048836FF0A4
:100DC00005008883801CC88370470000F81D002040
:100DD00010B5044603E04FF47A7000F006F8201EC8
:100DE000A4F101018CB2F6D110BD70B5034600BF6D
:100DF00000BF0020002200BF4FF0E0267569A82642
:100E000003FB06F44FF0E026B16910E04FF0E02656
:100E1000B06988420BD0884202D20E1A324402E0F6
:100E20002E1A0E4432440146A24200D300E0EDE700
:100E300000BF70BD10B5002404F0FEFE044304F0B2
:100E40008FFF0443052005F073F8FFF7AFFF20463E
:100E500010BD00002DE9FC4105460E461746002056
:100E600000900190FFF78AFF922000F00EF9062211
:100E70006946122000F0EAF8FFF778FF9DF80100BC
:100E8000000200B29DF8001040EA01046C480480A2
:100E90009DF80300000200B29DF8021040EA010430
:100EA000674844809DF80500000200B29DF80410D8
:100EB00040EA010462488480FFF770FF0822694617
:100EC000002000F0C3F8FFF761FF9DF800000F2835
:100ED00029D19DF80300000200B29DF8021040EAFB
:100EE00001045748408B201A00B25549C8819DF82B
:100EF0000500000200B29DF8041040EA01045048C9
:100F0000808B201A00B24E4908829DF8070000022B
:100F100000B29DF8061040EA01044948C08B201A2F
:100F200000B247494882FFF729FFA22000F0ADF840
:100F300002226946222000F089F8FFF717FF9DF88A
:100F40000000C0009DF8011040EA6114B4F5806F04
:100F500002DBA4F5006004B23948B0F912000028A1
:100F600003DD3748B0F9120003E03548B0F912004C
:100F70004042142802DA00203149488200EE104A2B
:100F8000F8EEC00AB4EE001AB3EE070A00EE810ACA
:100F900087ED000A2A48B0F9000000EE100AB8EE0A
:100FA000C00A2848D0ED000A20EE200A86ED000A8B
:100FB0002348B0F9020000EE100AB8EEC00A21483A
:100FC000D0ED000A20EE200A86ED010A1C48B0F997
:100FD000040000EE100AB8EEC00A1A48D0ED000A6C
:100FE00020EE200A86ED020A1548B0F90E0000EE48
:100FF000100AB8EEC00A1448D0ED000A20EE200A0C
:1010000085ED000A0E48B0F9100000EE100AB8EEA7
:10101000C00A0D48D0ED000A20EE200A85ED010A35
:101020000748B0F9120000EE100AB8EEC00A0648F0
:10103000D0ED000A20EE200A85ED020ABDE8FC8111
:10104000F81D0020200A0020240A002070B5064662
:101050000C46154646F0800000F017F806E05520D3
:1010600000F013F82070641C681EC5B2002DF6D184
:1010700070BD70B504460D4644F0800000F005F8E0
:10108000552000F002F8287070BD70B50446204667
:1010900002F0A2FE0546284670BD70B505460C4616
:1010A0002846FFF7F2FF2046FFF7EFFF70BD000074
:1010B00000B58BB00121042002F0CCFB01210820F7
:1010C00002F0B8FB02220E21214801F049F84FF44A
:1010D0008040099002208DF8280000208DF82A0019
:1010E00003208DF8290009A9194800F0F1FF5320C9
:1010F000ADF818000020ADF81A0040F25720079014
:101100000020ADF8200006A9124803F00FFA0020D5
:1011100003906020ADF804000120ADF80600002027
:10112000ADF8100001A90B4803F0A4F90821094803
:1011300003F0F0F90121074803F074F90121054893
:1011400003F088F90121034803F078F90BB000BDE2
:10115000000C02400008004010B505F0F3FA02F060
:10116000D1FD4FF4E12006F02DFC4FF4E13006F004
:1011700015FD06F03BFAFFF79BFF00F003F800F0C7
:10118000B5F810BD00B58BB00121082002F052FB6C
:101190000121480602F05EFB00214FF0007002F0D2
:1011A00069FB0320099002208DF8280000208DF8AB
:1011B0002A0003208DF8290001208DF82B0009A9B1
:1011C000304800F085FF092200212E4800F0C8FFBA
:1011D000092201212B4800F0C3FF00208DF81E00DA
:1011E00001208DF81F0000208DF8200001208DF8CF
:1011F000210000208DF822008DF823008DF81A00C0
:101200008DF81B0002208DF81C008DF81D000620B3
:10121000ADF8180006A91C4800F099F900208DF8D7
:1012200012008DF8130001208DF814000020ADF895
:101230000800ADF80A00ADF80C00ADF80E00ADF8EE
:10124000100001208DF8150002A800F0F3F801222B
:1012500002210D4800F072F9012211460A4800F0FF
:101260006DF914208DF8040000208DF805008DF82C
:10127000060001208DF8070001A801F081FF0BB0E6
:1012800000BD0000000C02400064004010B5124A8E
:101290000021124800F0E5F9114A0F490F4804F007
:1012A000EFFE0F4AB4320C490C4804F0E9FE0D4A37
:1012B00009490A4804F0E4FE0A4AB43206490748DC
:1012C00004F0DEFE0849054800F043FA06491431EF
:1012D000024800F03EFA10BD741B0020006400407C
:1012E000080B0020700C00209009002000B58BB086
:1012F0000121022002F09EFA0121880602F0AAFADA
:101300000121880602F0B6FA00214FF0806002F059
:10131000B1FA6020099002208DF8280000208DF895
:101320002A0003208DF8290001208DF82B0009A93F
:101330002D4800F0CDFE092205212B4800F010FFBA
:1013400009220621284800F00BFF00208DF81E001E
:1013500001208DF81F0000208DF820008DF821005D
:101360008DF822008DF823008DF81A008DF81B00EF
:1013700002208DF81C008DF81D000620ADF8180025
:1013800006A91A4800F0E3F80E208DF8120000209C
:101390008DF8130001208DF814000020ADF808002E
:1013A000ADF80A00ADF80C00ADF80E00ADF8100075
:1013B00001208DF8150002A800F03CF8012202215E
:1013C0000A4800F0BBF840208DF8040001208DF899
:1013D000050000208DF8060001208DF8070001A807
:1013E00001F0CEFE0BB000BD0004024000680040DA
:1013F00010B50C4A00210C4800F033F90B4A09499A
:10140000094804F03DFE0749074802F07FFB084900
:10141000054800F09EF906491439034800F099F98F
:1014200010BD0000881B002000680040540A002006
:10143000F409002010B50021837A012202FA03F199
:101440003D4A126842F001023B4B1A603A4A1C3294
:1014500012688A43384B1C331A60027BCAB9364A79
:101460000C3212688A43344B0C331A604288C388AA
:1014700042EA0343304A4032847A42F834300288E8
:10148000838842EA03432C4A4032847A02EBC40246
:101490005360027B012A19D1274A0C3212680A4391
:1014A000254B0C331A604288038842EA0343224AE0
:1014B0004032847A42F83430C288838842EA034357
:1014C0001D4A4032847A02EBC4025360C27A3AB9B0
:1014D000194A121D12688A43174B1B1D1A6006E039
:1014E000154A121D12680A43134B1B1D1A6002890C
:1014F00032B9114A143212688A430F4B14331A60FE
:101500000289012A06D10C4A143212680A430A4B96
:1015100014331A60427B012A06D1074A1C32126832
:101520000A43054B1C331A60034A126822F0010279
:10153000014B1A6010BD0000006600401AB14369FB
:101540000B43436102E043698B434361704730B50D
:10155000024600200023146824F00204146014687A
:1015600044F00104146000E05B1C546804F00104C2
:101570001CB94FF6FF74A342F6D1546804F001047D
:101580000CB900206CE08C79012C04D1146844F073
:101590008004146003E0146824F080041460CC79A3
:1015A000012C04D1146844F04004146003E0146872
:1015B00024F0400414600C7A012C04D1146844F027
:1015C0002004146003E0146824F0200414604C7AB2
:1015D000012C04D1146844F01004146003E0146872
:1015E00024F0100414608C7A012C04D1146844F0A7
:1015F0000804146003E0146824F008041460CC7A32
:10160000012C04D1146844F00404146003E014684D
:1016100024F0040414608C78A407CD7844EA0564AF
:101620000D7944EA05444D7944EA05540D886D1E50
:101630002C43D461146824F001041460002300E0FA
:101640005B1C546804F001041CB14FF6FF74A34204
:10165000F6D1546804F001040CB1002000E0012030
:1016600030BD10B500F5D87303EB01131B6803F010
:1016700004031372137A53B900F5D87303EB011303
:101680001B6840F2FF7404EA5353136009E000F54D
:10169000D87303EB01131B686FF0604404EAD303B3
:1016A000536000F5D87303EB01131B6803F00203CA
:1016B000537200F5D87303EB01135B6803F00F035B
:1016C000937200F5D87303EB01135B681B0AD374A4
:1016D00000F5D87303EB01139B68D37200F5D87340
:1016E00003EB01139B681C0A147300F5D87303EB1A
:1016F00001139B681C0C547300F5D87303EB0113A2
:101700009B681B0E937300F5D87303EB0113DB6822
:10171000D37300F5D87303EB0113DB681C0A147450
:1017200000F5D87303EB0113DB681C0C547400F54F
:10173000D87303EB0113DB681B0E937421B9C368E4
:1017400043F02003C36003E0036943F02003036117
:1017500010BD10B502460020936803F08063B3F11A
:10176000806F00D110E0936803F00063B3F1006F65
:1017700001D1012008E0936803F08053B3F1805F4A
:1017800001D1022000E00420042874D002F5C073C7
:1017900003EB00131B6803F0010402F5C07303EBB5
:1017A00000131C600B7A7BB94B7A0C8843EA4453D4
:1017B00002F5C07404EB00142468234302F5C074DE
:1017C00004EB0014236010E00B7A4C6843EAC40376
:1017D0004C7A234302F5C07404EB001424682343BD
:1017E00002F5C07404EB001423608B7A03F00F033E
:1017F0008B7202F5C07303EB00135B6823F00F04D8
:1018000002F5C07303EB00135C6002F5C07303EBD9
:1018100000135B688C7A234302F5C07404EB001458
:1018200063608B7B1C064B7B44EA03440B7B44EADE
:101830000323CC7A234302F5C07404EB0014A360A5
:101840008B7C1C064B7C44EA03440B7C44EA032358
:10185000CC7B234302F5C07404EB0014E36002F573
:10186000C07303EB00131B6843F0010402F5C0735F
:1018700003EB00131C6010BD08B511E007F0AEFAD1
:10188000009001F0DBFB10B901F0FAFA10B103206F
:101890000449487004F0DEFA0221684606F0F6FBBF
:1018A000ECE700002800002008B508E007F096FAF1
:1018B000009004F019FB0221684606F0E7FBF5E70B
:1018C00008B519E107F08AFA00908C488069009900
:1018D000081A322815D98A48016A002088478948A1
:1018E000D0F81C11002088478748416800208847AD
:1018F00086484169002088478448816901208847DB
:10190000F6E07E48807A012804D002286FD00328B0
:101910006ED14DE07948C07A012804D002282ED03B
:10192000032842D115E07648016A002088477548AF
:10193000D0F81C1100208847734841680020884770
:1019400072484169002088477048816901208847B2
:101950002CE06B48016A012088476A48D0F81C11C6
:1019600000208847684841680020884767484169E7
:1019700000208847654881690120884716E0604853
:10198000016A012088475F48D0F81C110120884770
:101990005D484168012088475C48416901208847CB
:1019A0005A4881690120884700E000BF00BF9EE0DF
:1019B0005248C07A012804D0022830D0032844D1EC
:1019C00017E04F48016A002088474E48D0F81C11A4
:1019D000002088474C484168002088474B484169AF
:1019E0000020884749488169012088472EE02FE080
:1019F0007CE04348016A012088474248D0F81C1126
:101A00000020884740484168002088473F48416996
:101A1000002088473D4881690220884716E0384801
:101A2000016A012088473748D0F81C1101208847F7
:101A3000354841680120884734484169012088477A
:101A4000324881690220884700E000BF00BF4EE0B5
:101A50002A48C07A012804D002282ED0032842D177
:101A600015E02748016A002088472648D0F81C1155
:101A7000002088472448416800208847234841695E
:101A80000020884721488169022088472CE01C48B3
:101A9000016A012088471B48D0F81C1100208847A4
:101AA0001948416800208847184841690020884744
:101AB000164881690320884716E01148016A012011
:101AC00088471048D0F81C11012088470E4841680B
:101AD000012088470D484169012088470B488169EA
:101AE0000320884700E000BF00BF00E000BF00BF48
:101AF0000321684606F0CAFAE4E60000281C00202C
:101B000044000020A8010020AC0300202800002091
:101B100010B50949094800F03DF9012807D1002115
:101B2000064800F059F80A21044800F0AFF90249CC
:101B3000024800F037F810BD00802020A064024069
:101B400010B50949094800F025F9012807D10021FD
:101B5000064800F041F80621044800F097F90249D0
:101B6000024800F01FF810BD00800028B864024051
:101B70000246094B9A4201D2084801E00648103853
:101B800001F000531BB1064B0B40C36002E0044B55
:101B90000B40836070470000106402400060024008
:101BA0007D0F7D0F0246094B9A4201D2084801E0A1
:101BB0000648103801F000531BB1064B0B40C360C0
:101BC00002E0044B0B408360704700001064024049
:101BD000006002407D0F7D0F21B1026842F00102DA
:101BE000026003E0026822F0010202607047000018
:101BF000016821F001010160002101604160816004
:101C0000C1600161212141614A49884204D13D21DD
:101C1000484A103A91608CE046491831884205D113
:101C20004FF47461434A103A916082E04149303187
:101C3000884205D14FF474113E4A103A916078E021
:101C40003C494831884205D14FF07461394A103A15
:101C500091606EE037496031884204D13649354A97
:101C6000103AD16065E033497831884204D1334974
:101C7000304A103AD1605CE02E499031884204D15C
:101C80002F492C4A103AD16053E02A49A8318842A2
:101C900005D14FF03D51274A103AD16049E029491A
:101CA000884204D13D21274A083A116041E0254984
:101CB0001831884205D14FF47461224A083A116004
:101CC00037E020493031884205D14FF474111D4A64
:101CD000083A11602DE01B494831884205D14FF088
:101CE0007461184A083A116023E01649603188424D
:101CF00004D11149134A121F11601AE011497831B9
:101D0000884204D10D490F4A121F116011E00D499C
:101D10009031884204D10A490A4A121F116008E032
:101D20000849A831884204D14FF03D51054A121F9D
:101D300011607047106002403D000020400F0020FD
:101D400000003D201064024021B1026842F480226C
:101D5000026003E0026822F480220260704722B130
:101D6000036843F40023036003E0036823F40023C3
:101D70000360016170470146486880B270470146C0
:101D800000200A6802F400220AB1012000E00020CD
:101D90007047000070B50246002000240025124E56
:101DA000B24201D2114B01E00F4B103B104E0E40DE
:101DB00036B11E2606EAD124166806EA040502E0BA
:101DC000566906F0800501F000560EB15C6800E02F
:101DD0001C68084E344004EA010616B10DB101201A
:101DE00000E0002070BD000010640240006002406E
:101DF0003C0F3C0F7D0F7D0F10B501F080034BB100
:101E000022B1436943F08003436103E0436923F057
:101E10008003436180290BD02AB1036801F01E04BE
:101E20002343036004E0036801F01E04A34303603E
:101E300010BD000010B500220268134B1A40CC6898
:101E40000B6823434C6923438C692343CC692343A8
:101E50000C6A23434C6A23438C6A23434C6B234311
:101E60008C6B23431A430260426922F00702D1E9D6
:101E70000B3423431A4342610B6943604B68836010
:101E80008B68C36010BD00003F801CF0416070474C
:101E900070B50446042002F0ABF90C4804702546E6
:101EA0004FF47A7045430120094908804FF0E02043
:101EB000006940F002004FF0E021086108464561EA
:101EC000006940F00100086170BD000000000020C2
:101ED0000200002010B50948016A0220884708481E
:101EE000D0F81C1102208847064841680220884724
:101EF000054841690220884710BD000044000020C9
:101F0000A8010020AC0300202800002010B5082004
:101F100000F00CF810BD10B5102000F007F810BD4F
:101F200010B5202000F002F810BD00000149086043
:101F300070470000143C014001794279914203D07E
:101F40000021018041790171704700001CB50648ED
:101F5000012100238022CDE9001004A1084806F0E9
:101F6000FDFE06F0C5F91CBD040000205379737412
:101F7000656D5F53746172745F5461736B00000030
:101F8000B542000808B58EE006F028FF00904648EC
:101F90000078E0B3012802D002285AD14CE001F0C9
:101FA00077F8B1EE400ADFED410A20EE200A3E4804
:101FB0000069B0F9000000EE900AF8EEE00A9FED2B
:101FC0003C1A00EEC10A3848D0ED020A30EE200A71
:101FD00080ED020A01F098F8B1EE400ADFED350A13
:101FE00020EE200A3448007808B9012000E00020E3
:101FF0002D490969B1F90210484300EE900AF8EE44
:10200000E00A9FED2E1A00EE810A274800E006E064
:10201000D0ED010A30EE200A80ED010A1AE02848CE
:1020200090ED010A204880ED020A254890ED020A51
:102030001D4880ED010A0DE0214890ED010A1A4883
:1020400080ED020A1E4890ED020A174880ED010A51
:1020500000E000BF00BF144890ED020A194890ED5F
:10206000001A30EE410A9FED181A20EE010AF0EE38
:10207000400AB2EE001A154890ED000A05F082FA07
:10208000124880ED000A084890ED020A0D4880EDE4
:10209000000A04F035F900F097FF00F031FF01214C
:1020A000684605F0F3FF6FE7440000206F12033B22
:1020B00052499D394260653BA801002017B7D138CD
:1020C000DC1D00209401002000007A4498010020CB
:1020D000F0B50A4600210023002400BF3DE00125A1
:1020E00005FA01F3156805EA03049C4234D105683A
:1020F0004F000326BE40B543056015794E00B5403C
:102100000668354305601579012D02D01579022D39
:1021100016D185684F000326BE40B54385605579CA
:102120004E00B540866835438560456801268E407F
:10213000B5434560456896798E40B6B235434560F3
:10214000C5684F000326BE40B543C560D5794E0033
:10215000B540C6683543C560491C1029BFD3F0BDE2
:10216000F0B5002300244D07ED0E02FA05F3CE1062
:1021700000F1200555F826504E07F70E0F26BE40F9
:10218000B543CF1000F1200646F82750CE1000F1DD
:10219000200555F8265045EA0304CE1000F120052D
:1021A00045F82640F0BD4183704701837047F0EE4B
:1021B000400A4A88824200DC887891ED010A0B8847
:1021C00001F1080202EB830292ED001A30EE410A9F
:1021D00081ED010A91ED010A30EE200A81ED010A3C
:1021E0000B8801F1080202EB8302C2ED000A0A88A3
:1021F000521C0A8091F8A0215AB991ED011A0A885F
:1022000000EE102AB8EE400AC1EE001AC1ED661ABF
:102210000DE091F8A021012A09D191ED011A00EEFB
:10222000100AB8EE400AC1EE001AC1ED661A0A881B
:10223000824204DB00220A80012281F8A02191ED74
:10224000660A30EEC00A81ED670A91ED670A7047B1
:1022500010B54FF4407000F0CFFFA820FFF718FE34
:10226000FEF77AFFFFF736FEFEF76AFDFFF76EFE18
:1022700010BD000010B52DED048B0446B0EE408A71
:1022800094ED000A38EE400A84ED010A84ED008ADC
:1022900094ED010ADFED210AB4EEE00AF1EE10FA46
:1022A00007D894ED010ADFED1E0A30EE200A84ED16
:1022B000010A94ED010ADFED1B0AB4EEE00AF1EE2B
:1022C00010FA07DB94ED010ADFED150A30EE600A23
:1022D00084ED010A94ED010A10EE101A0846FEF78B
:1022E000B0F941EC190B94ED021BB0EE410AF0EE8F
:1022F000610A53EC102BFEF75FF8C4E9020194ED7C
:10230000021BB0EE410AF0EE610A51EC100BFEF731
:10231000ABF900EE100ABDEC048B10BD000034C315
:102320000000B443000034432DED028B82B0012045
:10233000A249087002E0642005F07AFEFEF77AFDFB
:102340000028F8D19E4AA2F10C01101DFEF782FD73
:10235000DFED9C0A9FED9C0A9C4A00219C4801F0FD
:1023600039FA9C48964B103B9B4A9C4900909C48EC
:1023700004F026FA984A99499A48FEF7D7FA9748FE
:1023800090ED000A984880ED000A984880ED000A18
:10239000974880ED000A914890ED010A924880ED3F
:1023A000010A924880ED010A914880ED010A8B48AC
:1023B00090ED020A8C4880ED020A8C4880ED020AFA
:1023C0008B4880ED020A102001F032FDF4E006F0A7
:1023D00005FD0190874800F01DF97E48784B103BC1
:1023E0007D4A7E4900907E4804F0EAF9744810382E
:1023F000D0ED040AB0EE600A04F078FA7B4890ED64
:10240000000A7B4880ED000A774890ED000A774883
:1024100080ED000A90ED000A7748D0ED000A20EE2A
:10242000200A7348D0ED000A734890ED011A00EEBF
:10243000810A6A48D0ED000A6F4890ED021A00EE5A
:10244000810A694880ED000A684890ED010A6848F1
:1024500080ED010A644890ED010A644880ED010AAC
:1024600090ED010A6448D0ED000A20EE200A604891
:10247000D0ED010A604890ED011A00EE810A57483C
:10248000D0ED010A5C4890ED021A00EE810A564830
:1024900080ED010A554890ED020A554880ED020A88
:1024A000514890ED020A514880ED020A90ED020A6F
:1024B0005148D0ED000A20EE200A4D48D0ED020A26
:1024C0004D4890ED011A00EE810A4448D0ED020A11
:1024D000494890ED021A00EE810A434880ED020A55
:1024E0003D4B02463E499FED450A3E48FEF78AFBBA
:1024F000434B1A1F111F3B4803F050FE00202F4989
:1025000008703F48083890ED000ADFED3E0A20EEE3
:10251000200ADFED3D0A80EE201AB0EE418AB0EECF
:10252000480A3A48FFF7A6FE244880ED010A3448DD
:10253000083890ED020ADFED330A20EE200ADFEDC5
:10254000320A80EE201A1D4880ED021A2C48083805
:1025500090ED010ADFED2B0A20EE200ADFED2A0ABA
:1025600080EE201A154880ED031A1D4890ED000AF0
:10257000B1EE400ADFED230A20EE200A0F4880ED7D
:10258000050A174890ED010ADFED1E0A20EE200A29
:102590000A4880ED060A124890ED020ADFED190A9A
:1025A00020EE200A054880ED040A01201849086041
:1025B000012101A805F06AFD09E70000DC1D0020EB
:1025C000DC0F00200080894500A08C4568070020B2
:1025D00000100020F00F0020601000205410002098
:1025E000481000206C100020B41A0020A81A002007
:1025F0009C1A0020A80F0020709200086F12833AE6
:102600008410002000003443DA0F4940980F002066
:10261000400900202DE9F0472DED068B05460024EA
:102620009FEDFD0AB0EE408A9FEDFB0AF0EE408A76
:102630009FEDF90AB0EE409A9FEDF70AF0EE409A4E
:102640009FEDF50AB0EE40AA9FEDF30AF0EE40AA26
:10265000F24AA2F10C01101DFEF7FCFB01244DE033
:10266000EF4800EB840090ED000A601EEC4901EB9E
:10267000800080ED000A01F5CA7000EB840090ED47
:10268000000A601E01F5CA7101EB800080ED000AAE
:1026900001F5CA7000EB840090ED000A601E01F5A0
:1026A000CA7101EB800080ED000A01F5CA7000EBF1
:1026B000840090ED000A601E01F5CA7101EB8000F4
:1026C00080ED000A01F5CA7000EB840090ED000A6D
:1026D000601E01F5CA7101EB800080ED000A01F572
:1026E000CA7000EB840090ED000A601E01F5CA710B
:1026F00001EB800080ED000A601CC4B2642CAFDBEB
:10270000C648103890ED010AC54880ED630AC348F9
:10271000103890ED020AC24880EDC80ABF48103850
:1027200090ED030ABF4880ED630ABC48103890ED75
:10273000050ABD4880ED630AB848103890ED060AD6
:10274000BA4880ED630AB548103890ED070AB848DA
:1027500080ED630A00240CE009F10109B04800EBA8
:10276000840090ED000A30EE080AB0EE408A601C4A
:10277000C4B2642CF0DB9FEDAF0AC8EE000AA84893
:10278000C0ED640A9FEDA40AB0EE408A00240AE07E
:10279000A94800EB840090ED000A30EE280AF0EE24
:1027A000408A601CC4B2642CF2DB9FEDA20AC8EE22
:1027B000800A9B48C0EDC90A9FED970AF0EE408A57
:1027C00000240AE0974800EB840090ED000A30EE08
:1027D000090AB0EE409A601CC4B2642CF2DB9FED93
:1027E000950AC9EE000A8F48C0ED640A9FED8A0A77
:1027F000B0EE409A00240AE08B4800EB840090ED94
:10280000000A30EE290AF0EE409A601CC4B2642C33
:10281000F2DB9FED880AC9EE800A8348C0ED640AA6
:102820009FED7D0AF0EE409A00240AE07F4800EB1D
:10283000840090ED000A30EE0A0AB0EE40AA601C57
:10284000C4B2642CF2DB9FED7B0ACAEE000A774823
:10285000C0ED640A9FED700AB0EE40AA00240AE0C1
:10286000734800EB840090ED000A30EE2A0AF0EE87
:1028700040AA601CC4B2642CF2DB9FED6E0ACAEE63
:10288000800A6B48C0ED640A9FED630AF0EE40AA2F
:10289000634890ED640A694880ED000A604890ED55
:1028A000C90A664880ED010A5E4890ED640A6348F3
:1028B00080ED020A5C4890ED640A604880ED040AED
:1028C0005A4890ED640A5D4880ED050A584890ED3D
:1028D000640A5A4880ED060A002630E0574890ED19
:1028E000040A574800EB8600D0ED000AB4EE600AF7
:1028F000F1EE10FA08D1524800EB860090ED000A84
:10290000504880ED000A1CE04C4890ED040AB1EEFE
:10291000400A4B4800EB8600D0ED000AB4EE600A96
:10292000F1EE10FA0AD1464800EB860090ED000A5D
:10293000B1EE400A434880ED000A02E0761C322ED8
:10294000CCDB00BF002730E03C4890ED050A3C4856
:1029500000EB8700D0ED000AB4EE600AF1EE10FA49
:1029600008D1374800EB870090ED000A364880ED2B
:10297000000A1CE0314890ED050AB1EE400A3048EB
:1029800000EB8700D0ED000AB4EE600AF1EE10FA19
:102990000AD12B4800EB870090ED000AB1EE400A07
:1029A000294880ED000A02E07F1C192FCCDB00BF14
:1029B0004FF000084EE0214890ED060A204800EB59
:1029C0008800D0ED000AB4EE600AF1EE10FA08D1EA
:1029D0001B4800EB880090ED000A1C4880ED000ABF
:1029E0003BE0164890ED060AB1EE400A144800EBB1
:1029F0008800D0ED000AB4EE600AF1EE10FA27D19B
:102A00000F4800EB880090ED000AB1EE400A0F4835
:102A100080ED000A21E0000000000000DC0F002033
:102A200088100020B013002044150020D816002084
:102A30006C1800200000C8421C120020001A002060
:102A400000080020EC070020F0070020F407002019
:102A500008F10108B8F1170FADDB00BF844890ED15
:102A6000000A80ED000A9FED830A80ED020A9FEDC7
:102A7000820A80ED030A90ED010AD0ED020A30EEE1
:102A8000200A80ED010A90ED010AD0ED030A30EE34
:102A9000200AD0ED010A80EE801A80ED041A7748F2
:102AA00090ED000A7248D0ED000A70EE600A90EDD9
:102AB000000A90ED041A01EE200A80ED000A90ED64
:102AC000040AF7EE000A30EEC00AD0ED010A20EE4B
:102AD000200A80ED010A90ED050A80ED050A9FEDC0
:102AE000650A80ED080A9FED640A80ED070A90ED03
:102AF000060AD0ED080A30EE200A80ED060A90EDB5
:102B0000060AD0ED070A30EE200AD0ED060A80EE64
:102B1000801A80ED091A594890ED010A5448D0ED09
:102B2000050A70EE600A90ED050A90ED091A01EEB3
:102B3000200A80ED050A90ED090AF7EE000A30EE52
:102B4000C00AD0ED060A20EE200A80ED060A90EDBC
:102B50000A0A80ED0A0A9FED470A80ED0C0A9FEDF4
:102B6000460A80ED0D0A90ED0B0AD0ED0C0A30EE0E
:102B7000200A80ED0B0A90ED0B0AD0ED0D0A30EE25
:102B8000200AD0ED0B0A80EE801A80ED0E1A3B4829
:102B900090ED020A3648D0ED0A0A70EE600A90ED18
:102BA0000A0A90ED0E1A01EE200A80ED0A0A90ED55
:102BB0000E0AF7EE000A30EEC00AD0ED0B0A20EE46
:102BC000200A80ED0B0A90ED000A85ED000A90EDD9
:102BD000050A85ED010A90ED0A0A85ED020A2748EB
:102BE00090ED040A2648D0ED000A30EE600A234832
:102BF00080ED040A90ED040A85ED030A90ED050AC4
:102C00002048D0ED000A30EE600A1C4880ED050A2D
:102C100090ED050A85ED040A90ED060A1A48D0EDFC
:102C2000000A30EE600A154880ED060A90ED060AAB
:102C300085ED050A95ED000A144880ED000A95ED32
:102C4000010A80ED010A95ED020A80ED020A95ED78
:102C5000030A0F4880ED000A95ED040A80ED010A91
:102C600095ED050A80ED020ABDEC068BBDE8F08704
:102C7000C01A0020BC74933C83C00A3F001A002095
:102C8000EC070020F0070020F4070020541000207B
:102C90004810002000201449D1EDC10AB0EE600AAE
:102CA000B5EEC00AF1EE10FA02DDF0EE400A01E0E6
:102CB000F1EE400A9FED0D1AF4EEC10AF1EE10FAA2
:102CC00010DD0949B1F9DA12002903DD0649B1F92D
:102CD000DA1203E00449B1F9DA124942B1F5967FFC
:102CE00000DA012070470000540A00200000FA4377
:102CF00000200C49D1EDD40AB0EE600AB5EEC00A4E
:102D0000F1EE10FA02DDF0EE400A01E0F1EE400AC9
:102D10009FED051AF4EEC10AF1EE10FA00DB012076
:102D200070470000540A0020D989DD4170B504467F
:102D30000E4615460EB1012000E0002060712046CD
:102D4000FFF7FAF8B6B9E07888B12088401C2080F7
:102D50002188681C814203DB0020A070E07029E01C
:102D60002088A84226DB0420A070E07022E000202A
:102D700020801FE0012E1DD1E078022818D0208885
:102D8000401C20802088984203DB0220A070E07065
:102D900010E02188681C814203DB0120A070E070F4
:102DA00008E02088A84205DB0320A070E07001E065
:102DB0000020208070BD00009FED0E1A80ED001AEB
:102DC0009FED0C1A80ED051A80ED090AC0ED0A0A84
:102DD000B7EE001A80ED071A9FED061A80ED081A6B
:102DE000B7EE001A80ED0B1A90ED001A80ED011A73
:102DF0007047000000000000F0EE400A90ED070A66
:102E000090ED001A20EE010A80ED010A90ED090A0A
:102E100090ED071AD0ED051A01EE210A80ED030AA4
:102E200090ED030A90ED0A1A30EE010A90ED031AB4
:102E3000C1EE001AC0ED061A90ED010A90ED061AD7
:102E4000D0ED011A70EEE11A01EE210A80ED020ABE
:102E500090ED060AB7EE001A31EE400A90ED031A23
:102E600020EE010A80ED040A90ED040A80ED050AC7
:102E700090ED020A80ED000A90ED020A7047000012
:102E800000B51B48808AC0F340314FF49673052289
:102E90001848FFF74BFF17484E3890F850000528A8
:102EA00021D2DFE800F003051B041C001BE01AE040
:102EB00011480078012810D11048007818B9012075
:102EC0000E49087006E00D480078012802D1002064
:102ED0000A49087000200849087004E003E0012056
:102EE0000549087000BF00BF0448007800BD00001D
:102EF000281C00200A1C00201C0A00201B0A00209D
:102F000000B51748007DC0F3C0114FF49673052239
:102F10001448FFF70BFF13482A3890F82C000528B7
:102F20001CD2DFE800F0030819041A0016E00120A3
:102F30000D49087012E00C48007801280BD10B48AD
:102F400090ED020ADFED0A0A30EE600A80ED020A17
:102F500000200549087001E000E000BF00BF00BD8F
:102F6000281C0020E61B0020180A00204400002036
:102F70000000B44200B51148817C4FF496730522DD
:102F80000F48FFF7D3FE0E48603890F8620005281E
:102F90000FD2DFE800F0030509040A0009E008E0A9
:102FA00001200849087004E003E00020054908708A
:102FB00000BF00BF0348007800BD0000281C0020AF
:102FC0001C1C0020140A002000B51748007DC0F327
:102FD00080114FF4967305221448FFF7A7FE13489B
:102FE000243890F8260005281CD2DFE800F00308FA
:102FF00019041A0016E001200D49087012E00C486F
:10300000007801280BD10B4890ED020ADFED0A0A87
:1030100030EE200A80ED020A00200549087001E028
:1030200000E000BF00BF00BD281C0020E01B002006
:10303000170A0020440000200000B44200B51148E7
:10304000007DC0F300114FF4967305220E48FFF780
:103050006DFE0D481838807E05280FD2DFE800F09D
:10306000030509040A0009E008E001200749087087
:1030700004E003E000200549087000BF00BF0348DA
:10308000007800BD281C0020D41B0020120A00205C
:1030900010B52DED028B9FED180AB0EE408A17484F
:1030A000B0F90C00002803DD1448B0F90C0003E06F
:1030B0001248B0F90C004042B0F5967F04DD9FED58
:1030C0000E0AB0EE408A12E00C48B0F90C0000EE97
:1030D000900AF8EEE00AB0EE600A0948FFF78CFEAD
:1030E000F0EE408A074801F01BF8B0EE408AB0EEDF
:1030F000480ABDEC028B10BD00000000281C002017
:103100008C1C0020EC1C002010B52DED028B9FEDD7
:10311000180AB0EE408A1748B0F90E00002803DD07
:103120001448B0F90E0003E01248B0F90E00404216
:10313000B0F5967F04DD9FED0E0AB0EE408A12E0F6
:103140000C48B0F90E0000EE900AF8EEE00AB0EE7E
:10315000600A0948FFF750FEF0EE408A074800F089
:10316000DFFFB0EE408AB0EE480ABDEC028B10BD26
:1031700000000000281C0020BC1C0020641D002052
:1031800070B5002100230F22C4781CB3174C2468AB
:1031900004F4E064C4F5E064C4F30721C1F104045D
:1031A000E3B20A4144789C40E1B284781440214360
:1031B0000C07210E0E4C05786155047804F01F05AC
:1031C0000124AC4005786D11AD0005F1E025C5F88E
:1031D000004109E0047804F01F050124AC40054DCE
:1031E0000678761145F8264070BD00000CED00E031
:1031F00000E400E080E100E002490143024A11607E
:10320000704700000000FA050CED00E0F0EE400A07
:10321000416A816210EE901A4162416A00EE101A12
:10322000C16801EE101AB1EE411AB4EEC10AF1EE16
:1032300010FA08D8C16800EE101AB1EE400A10EE7C
:10324000101A41620CE0416A00EE101AC16801EEEA
:10325000101AB4EEC10AF1EE10FA01DBC168416246
:10326000C16A00EE101A416A01EE101A30EE010A2E
:1032700010EE101AC162C16A00EE101A016901EE67
:10328000101AB1EE411AB4EEC10AF1EE10FA08D8E4
:10329000016900EE101AB1EE400A10EE101AC16278
:1032A0000CE0C16A00EE101A016901EE101AB4EECA
:1032B000C10AF1EE10FA01DB0169C162016800EE9A
:1032C000101A416A01EE101A20EE010A10EE101ACF
:1032D0000163016B00EE101A416901EE101AB1EEA4
:1032E000411AB4EEC10AF1EE10FA08D8416900EEB5
:1032F000101AB1EE400A10EE101A01630CE0016BD7
:1033000000EE101A416901EE101AB4EEC10AF1EE96
:1033100010FA01DB41690163416800EE101AC16ACD
:1033200001EE101A20EE010A10EE101A4163416BF3
:1033300000EE101A816901EE101AB1EE411AB4EED6
:10334000C10AF1EE10FA08D8816900EE101AB1EE48
:10335000400A10EE101A41630CE0416B00EE101AA7
:10336000816901EE101AB4EEC10AF1EE10FA01DB28
:1033700081694163416A00EE101A816A01EE101AF8
:1033800030EE411A816800EE101A21EE000A10EEAC
:10339000101A8163816B00EE101AC16901EE101AD8
:1033A000B1EE411AB4EEC10AF1EE10FA08D8C169C3
:1033B00000EE101AB1EE400A10EE101A81630CE014
:1033C000816B00EE101AC16901EE101AB4EEC10A49
:1033D000F1EE10FA01DBC1698163016B00EE101A96
:1033E000416B01EE101A30EE011A816B00EE101ADB
:1033F00031EE000A10EE101AC163C16B00EE101A14
:10340000016A01EE101AB1EE411AB4EEC10AF1EEF2
:1034100010FA08D8016A00EE101AB1EE400A10EE58
:10342000101AC1630CE0C16B00EE101A016A01EEC4
:10343000101AB4EEC10AF1EE10FA01DB016AC163A1
:10344000C16B00EE101A704710B52DED0A8B0446C3
:10345000B0EE408AF0EE608AB0EE419AF0EE619AEA
:10346000B0EE42AAF0EE62AAB0EE43BAF0EE63BA52
:10347000B0EE44CA9FED200A10EE100A20639FEDC3
:103480001E0A10EE100A60639FED1B0A10EE100A70
:10349000A0639FED190A10EE100AE0639FED160A73
:1034A00010EE100A60629FED140A10EE100AA0627E
:1034B0009FED110A10EE100AE0621048A064104857
:1034C000206410486064216CB0EE4C4AF0EE6B3A18
:1034D000B0EE4B3AF0EE6A2AB0EE4A2AF0EE691AE4
:1034E000B0EE491AF0EE680AB0EE480A2046884766
:1034F000BDEC0A8B10BD0000000000000D3200087A
:103500005F3500089935000870B505460C46D4EDC6
:10351000084AB0EE644AD4ED074AF0EE643AD4EDBE
:10352000064AB0EE643AD4ED054AF0EE642AD4EDD2
:10353000044AB0EE642AD4ED034AF0EE641AD4EDE6
:10354000024AB0EE641AD4ED014AF0EE640AD4EDFA
:10355000004AB0EE640A2846FFF776FF70BD10EE11
:10356000101A016010EE901A416011EE101A81607D
:1035700011EE901AC16012EE101A016112EE901A4B
:10358000416113EE101A816113EE901AC16114EEBD
:10359000101A0162704700009FED110A10EE101A18
:1035A00001639FED0F0A10EE101A41639FED0C0AA4
:1035B00010EE101A81639FED0A0A10EE101AC16313
:1035C0009FED070A10EE101A41629FED050A10EEFA
:1035D000101A81629FED020A10EE101AC162704744
:1035E00000000000B0EE401A10B99FED790A704754
:1035F00090ED100A80ED110A90ED0F0A80ED100A8F
:10360000C0ED060A80ED071A30EEC10A80ED0F0A00
:103610000178002975D190ED010AD0ED0F1A20EE46
:10362000210A80ED090A90ED0A0AD0ED021A90ED08
:103630000F2A01EE820A80ED0A0A90ED0D0A80ED54
:103640000E0A90ED0C0A80ED0D0A90ED0F0AD0EDF8
:10365000101A30EE610A80ED0C0A90ED030AD0EDED
:103660000C1A20EE210A80ED0B0A90ED0A0AD0ED2B
:10367000051AB4EEE10AF1EE10FA04DD90ED050A48
:1036800080ED0A0A10E090ED0A0AD0ED051AF1EE7D
:10369000611AB4EEE10AF1EE10FA05D290ED050AD6
:1036A000B1EE400A80ED0A0A90ED090AD0ED0A1A3F
:1036B00030EE210AD0ED0B1A30EE210A80ED080A17
:1036C00090ED080AD0ED041AB4EEE10AF1EE10FA1A
:1036D00004DD90ED040A80ED080A76E090ED080A1A
:1036E000D0ED041AF1EE611AB4EEE10AF1EE10FA2F
:1036F0006BD290ED040AB1EE400A80ED080A64E056
:10370000FFE70178012960D190ED0F0AD0ED101A82
:1037100030EE610AD0ED011A20EE210A80ED090A8F
:1037200090ED020AD0ED0F1A20EE210A80ED0A0A70
:1037300090ED0D0A80ED0E0A90ED0C0A80ED0D0A59
:1037400090ED0F0AD0ED101AB0EE002A02EE610AD9
:10375000D0ED111A30EE210A80ED0C0A90ED030A2B
:10376000D0ED0C1A20EE210A80ED0B0A90ED090A2B
:10377000D0ED0A1A30EE210AD0ED0B1A30EE210AF4
:10378000D0ED081A30EE210A80ED080A90ED080A03
:10379000D0ED041AB4EEE10AF1EE10FA04DD90ED7A
:1037A000040A80ED080A10E090ED080AD0ED041A32
:1037B000F1EE611AB4EEE10AF1EE10FA05D290EDE5
:1037C000040AB1EE400A80ED080A90ED080A0EE7FF
:1037D0000000000000B102B97047017092ED001ABC
:1037E00080ED011A92ED011A80ED021A92ED021A93
:1037F00080ED031A80ED040AC0ED050A9FED0C1A56
:1038000080ED0E1A80ED0D1A80ED0C1A9FED081A4E
:1038100080ED081A80ED0B1A80ED0A1A80ED091A66
:1038200080ED111A80ED101A80ED0F1A00BFD3E75A
:103830000000000029B1064A12680243044B1A60D6
:1038400004E0034A12688243014B1A60704700008B
:103850003038024029B1064A12680243044B1A600C
:1038600004E0034A12688243014B1A60704700006B
:103870004038024029B1064A12680243044B1A60DC
:1038800004E0034A12688243014B1A60704700004B
:103890002038024029B1064A12680243044B1A60DC
:1038A00004E0034A12688243014B1A60704700002B
:1038B0004438024029B1064A12680243044B1A6098
:1038C00004E0034A12688243014B1A60704700000B
:1038D00024380240F0B500210022002402250026F1
:1038E0000223324F3F6807F00C0121B1042905D0B3
:1038F000082937D105E02E4F076036E02D4F0760CD
:1039000033E02A4F3F1F3F68C7F38056274F3F1FC2
:103910003F6807F03F036EB1264FB7FBF3F7DFF8C0
:103920008CC0ACF1040CDCF800C0CCF3881C07FBA5
:103930000CF40CE01E4FB7FBF3F7DFF870C0ACF1EE
:10394000040CDCF800C0CCF3881C07FB0CF4174F08
:103950003F1F3F68C7F301477F1C7D00B4FBF5F7AD
:10396000076002E0124F076000BF00BF0F4F3F68C3
:1039700007F0F0010909104F7A5C0768D7404760EB
:103980000A4F3F6807F4E051890A0B4F7A5C476899
:10399000D7408760054F3F6807F46041490B064FE9
:1039A0007A5C4768D740C760F0BD00000838024025
:1039B0000024F400001BB700F80D002070B596B08D
:1039C00004460E46154601214B48FFF733FF0121FF
:1039D0008804FFF73FFF01218804FFF74BFF002118
:1039E0004FF48020FFF746FF07220B214348FEF7E4
:1039F000B7FB4FF40060149002208DF854000020B3
:103A00008DF8560003208DF8550000208DF85700E2
:103A100014A93A48FEF75CFB394801F015F839481B
:103A200001900020ADF80800ADF80A004FF4806066
:103A3000ADF80C000420ADF80E000020ADF8100029
:103A400001A92F4801F0C8F8012240212C4800F0BC
:103A5000F2FF10212A4800F0D9FF012240F2244150
:103A6000274801F093F80121254800F0D8FF2648A7
:103A7000FEF7BEF84FF0006005902148001D06904B
:103A800007940020089009950A904FF480600B90ED
:103A900000200C900D904FF480700E904FF4403049
:103AA0000F900020109011901290139005A91648C5
:103AB000FEF7C0F9002231461348FEF750F9012104
:103AC0001148FEF741F900210F48FEF785F8012162
:103AD0000D48FEF781F827208DF8000001208DF8B1
:103AE000010000208DF8020001208DF803006846D7
:103AF000FFF746FB16B070BD04002000000802402E
:103B000000480040A086010028600240F0B505464C
:103B100040F202370E68BE4200D0F0BDCE7AC6F346
:103B2000C000CE7AC6F30012CE7AC6F34013CE7A26
:103B3000C6F38014CE7AF6092D4F3E70CE7AC6F3C6
:103B40008006FE701CB913B901267E700CE02CB9FA
:103B5000012B03D10226264F7E7005E0012C03D1F4
:103B600013B90326224F7E7020B91AB90026204FC0
:103B7000BE7014E028B9012A03D101261C4FBE7083
:103B80000DE0012804D11AB90226194FBE7006E0D3
:103B9000012804D1012A02D10326154FBE704F7BA4
:103BA0000E7B47EA0626124FBE80CF7B8E7B47EA0C
:103BB000062600EE106AF8EEC00A9FED0E1A80EE9F
:103BC000810A10EE106A0A4FC7F806604F7C0E7C1F
:103BD00047EA062600EE106AF8EEC00A9FED051AC5
:103BE00080EE810A10EE106A014F3E6100BF94E73B
:103BF000381B00200000C84270B505460C4605B1D0
:103C000004B970BD05F0EAF8A0612878697840EA47
:103C10000120C0F30A0020806878C010A97840EA2B
:103C20004110C0F30A006080A8788011E97840EA6A
:103C30008100297940EA8120C0F30A00A080287918
:103C40004010697940EAC110C0F30A00E080287C86
:103C5000697C40EA0120C0F30A0020816879C0F342
:103C60000110A072687900118108E172A879E979E0
:103C700040EA012000B2A081287A697A40EA012056
:103C800001B2E181A87AE97A40EA012001B22182F9
:103C9000297BA174697BE174A87BE97B40EA012060
:103CA000A0822088A0F5806000B220806088A0F506
:103CB000806000B26080A088A0F5806000B2A08023
:103CC000E088A0F5806000B2E0802089A0F58060E7
:103CD00000B2208100BF94E708B50FE005F07EF840
:103CE000009001200649487004F09AFB03F048FD5B
:103CF00003F046FE0221684604F0C8F9EEE7000032
:103D0000A801002000B587B001210320FFF792FD34
:103D100001210803FFF7BEFD00208DF81A008DF881
:103D20001B0003208DF8190002208DF818000820D0
:103D3000059005A92548FEF7CBF91020059005A9A7
:103D40002248FEF7C5F98020059005A92048FEF716
:103D5000BFF9052207211E48FEF702FA05220321BA
:103D60001A48FEF7FDF9052204211848FEF7F8F974
:103D700001210803FFF79EFD00214FF48050FFF75B
:103D800099FD3820ADF80C000120ADF808000020A6
:103D9000ADF806000A20ADF810000020ADF80400D0
:103DA000ADF80000ADF80E004FF40070ADF80A0059
:103DB0004FF48270ADF802006946064800F066F8DC
:103DC0000121044800F048F807B000BD000402409B
:103DD000000002400030014070B505460126002475
:103DE00022E0012E0FD10221104800F041F850B11D
:103DF000002401E0601CC4B2C82CFBDB29460B4840
:103E000000F042F800267EB90121084800F030F8A1
:103E100050B1002401E0601CC4B2C82CFBDB034895
:103E200000F02FF8C0B270BDDBE7000000300140A9
:103E300010B50446074800884FF6C7710840054989
:103E4000088008460088204308800121014800F0CE
:103E500003F810BD0030014021B1028842F0400259
:103E6000028004E002884FF6BF731A400280704758
:103E70000246002013890B400BB1012000E0002016
:103E800070470146888970478181704710B50022CC
:103E9000028802F441520B884C8823438C882343C8
:103EA000CC8823430C8923434C8923438C892343A7
:103EB000CC8923431A430280838B4FF2FF74234043
:103EC00083830B8A038210BD08B5AAE0554A92EDA0
:103ED000010ADFED550A20EE200ABDEEC00A10EE01
:103EE000101A524A92ED020ADFED4F0A20EE200A24
:103EF000BDEEC00A10EE100A02F052FD04F06EFF93
:103F000000904B48807848B93221494881810A2085
:103F1000474948810F214648C1817EE04448807866
:103F2000012827D14248407802280AD14FF48C71E9
:103F30003F48818119203E4948810F213C48C18179
:103F40006BE03B48407803280AD14FF4C8713848E9
:103F500081812320364948810F213548C1815CE0A9
:103F60009621334881810F20314948810F21304803
:103F7000C18152E02E488078022825D12C48407813
:103F8000022809D164212A4881813C20284948819E
:103F900012212748C18140E025484078032809D1F3
:103FA00096212348818150202149488112212048AF
:103FB000C18132E032211E48818128201C4948817C
:103FC0000F211B48C18128E019488078032824D19B
:103FD00017484078022809D1962115488181192077
:103FE000134948811E211248C18116E010484078CB
:103FF000032809D1C8210E48818123200C4948811A
:104000001E210B48C18108E04B21094881810F2006
:10401000074948811E210648C1810221684604F0F3
:1040200035F853E7DC1D00200000C84244000020A2
:10403000381B00200CB50020019000903448006827
:1040400040F480303249086000BF3148006800F415
:10405000003000900198401C0190009818B9019818
:10406000B0F5A04FF1D12A48006800F4003010B13B
:104070000120009001E0002000900098012846D126
:1040800023484030006840F08050214940310860AA
:104090002048006840F440401E4908601C48083031
:1040A00000681B49083108600846006840F4004079
:1040B00008600846006840F4A05008601648091FD0
:1040C0000860081F006840F08070091F086000BF8A
:1040D0000F48006800F000700028F9D040F2056039
:1040E0000E4908600A480830006820F003000849BB
:1040F000083108600846006840F00200086000BF10
:1041000003480830006800F00C000828F8D10CBD06
:104110000038024000700040062A4007003C024080
:10412000F0EE400A9FED120AB0EE401A1D2109E0A0
:104130004A1E00EB820292ED000A00EB810282ED42
:10414000000A491E0029F3DCC0ED000A002108E046
:1041500000EB810292ED000A30EE010AB0EE401A47
:10416000491C1D29F4DBF3EE0E1A81EE210A70477B
:1041700000000000F0EE402A9FED1B3AB0EE430A2B
:10418000F4EEE02AF1EE10FA0CD2B2EE003AF4EEC0
:10419000C32AF1EE10FA05DD14480078401C1349DB
:1041A00008700CE0F4EEE02AF1EE10FA07DBF4EE12
:1041B000C12AF1EE10FA02D800200C4908700B4811
:1041C0000078012806D100200849087030EE213A15
:1041D000B0EE430AF4EEC12AF1EE10FA03DD30EE40
:1041E000423AB0EE430A704700000000A8030020E6
:1041F000042808D14FF0E021096941F004014FF093
:10420000E022116107E04FF0E021096921F004018B
:104210004FF0E0221161704710B500BF502080F3CD
:104220001188BFF34F8FBFF36F8F00BF04F0DCFD29
:1042300018B14FF080500449086000BF002080F39F
:10424000118800BF10BD000004ED00E010B5154856
:10425000006840F47000134908601348006840F09B
:1042600001001149086000200F49083108600E481C
:1042700000680E4908400C4908600D48091D086097
:10428000081F006820F48020091F086000200649EC
:104290000C310860FFF7CEFE4FF000600149803915
:1042A000086010BD88ED00E000380240FFFFF6FE18
:1042B000103000241CB5044603F09CFD2D48062157
:1042C00000234FF48072CDE900102BA12D4804F09B
:1042D00045FD2D48012100230A02CDE900102BA144
:1042E0002F4804F03BFD2F48052100234FF40072B6
:1042F000CDE900102CA12F4804F030FD2E480521F7
:1043000000234FF48062CDE900102CA12F4804F067
:1043100025FD2F48062100234FF48062CDE90010CF
:104320002CA12F4804F01AFD2E48062100234FF43B
:104330000072CDE900102CA12E4804F00FFD2E488C
:10434000042100238A01CDE900102CA12E4804F09D
:1043500005FD2E48042100238A01CDE900102CA17F
:104360002E4804F0FBFC2E48006803F0F9FE03F031
:104370006BFD1CBD14000020444255535F54415353
:104380004B000000C1180008080000205359535486
:10439000454D53544154455F5441534B0000000078
:1043A000C93E00080C00002047494D42414C5F5473
:1043B00041534B00851F0008100000204348415323
:1043C0005349535F5441534B0000000079180008D3
:1043D00018000020494D555F5441534B0000000028
:1043E000292300081C000020564953494F4E5F54B2
:1043F00041534B00B94C00082000002053484F4F58
:10440000545F5441534B0000D93C00082400002065
:10441000434F5645525F5441534B0000A9180008C2
:104420000400002021B1028842F08002028004E0F2
:1044300002884FF67F731A400280704721B10288CC
:1044400042F00102028004E002884FF6FE731A4037
:104450000280704731B1B0F8442042F40042A0F825
:10446000442005E0B0F84420C2F30E02A0F8442036
:104470007047000070B5002400220023058C4FF621
:10448000FF6635400584028C8388848B4FF68F75D8
:104490002C404FF6FC752C400D882C434FF6FF55F1
:1044A0002A408D894FF6FF7606EA05252A434D8876
:1044B00006EA05252A43154DA84202D0144DA8420C
:1044C0001DD14FF2FF752A40CD894FF6FF7606EADF
:1044D00005252A434FF6FF352A408D8806EA052533
:1044E0002A434EF6FF752B404DF6FF752B400D8A83
:1044F00006EA05152B434D8A06EA05152B438380F2
:1045000084838D68C563028470BD00000000014093
:10451000000401400A460021818B4FF6F7731940D1
:104520001143818370474163704700000022028875
:10453000184B98420ED0184B98420BD0B0F1804FD8
:1045400008D0164B984205D0154B984202D0154B17
:10455000984204D14FF68F731A404B881A43124B7E
:10456000984207D0114B984204D04FF6FF431A40AF
:104570000B891A4302804B68C3620B880385054B85
:10458000984202D0044B984201D18B7A03860123D2
:104590008382704700000140000401400004004095
:1045A00000080040000C00400010004000140040D3
:1045B0009FED232AF0EE421A9FED212AF0EE420AE7
:1045C0009FED202AB0EE420A1F48D0F81001807BF0
:1045D00002EE100AF8EE422A1B48D0F81401807B44
:1045E00002EE100AB8EE422A32EE822AF0EE002ADB
:1045F00082EE223AB0EE431AB4EEE01AF1EE10FA6F
:1046000009DB71EE602A82EEA12ADFED102A22EE8C
:10461000222AB0EE420AB4EEE01AF1EE10FA03D20A
:104620009FED082AB0EE420A30EEA12AB4EEC12A6C
:10463000F1EE10FA03D29FED052AB0EE420A704760
:1046400000000C4200000000A8010020000048C249
:104650009FED232AF0EE421A9FED212AF0EE420A46
:104660009FED202AB0EE420A1F48D0F81001807B4F
:1046700002EE100AF8EE422A1B48D0F81401807BA3
:1046800002EE100AB8EE422A32EE822AF0EE002A3A
:1046900082EE223AB0EE431AB4EEE01AF1EE10FACE
:1046A00009DB71EE602A82EEA12ADFED102A22EEEC
:1046B000222AB0EE420AB4EEE01AF1EE10FA03D26A
:1046C0009FED082AB0EE420A30EEA12AB4EEC12ACC
:1046D000F1EE10FA03D29FED052AB0EE420A7047C0
:1046E00000000C4200000000A801002000008CC265
:1046F0009FED232AF0EE421A9FED212AF0EE420AA6
:104700009FED202AB0EE420A1F48D0F81001807BAE
:1047100002EE100AF8EE422A1B48D0F81401807B02
:1047200002EE100AB8EE422A32EE822AF0EE002A99
:1047300082EE223AB0EE431AB4EEE01AF1EE10FA2D
:1047400009DB71EE602A82EEA12ADFED102A22EE4B
:10475000222AB0EE420AB4EEE01AF1EE10FA03D2C9
:104760009FED082AB0EE420A30EEA12AB4EEC12A2B
:10477000F1EE10FA03D29FED052AB0EE420A70471F
:1047800000000C4200000000A8010020000028C327
:104790000146DFED480AB0EE600A28293FD006DC6A
:1047A0000F2909D0192918D023296BD126E03C29DB
:1047B00046D0502966D154E03F4880893E4A9288CD
:1047C000801A142804DBDFED3D0AB0EE600A03E036
:1047D000DFED380AB0EE600A65E037488089364A76
:1047E0009288801A142804DBDFED350AB0EE600AE7
:1047F00003E0DFED320AB0EE600A54E02E48808913
:104800002D4A9288801A142804DBDFED2E0AB0EEC0
:10481000600A03E0DFED2C0AB0EE600A43E02648B0
:104820008089254A9288801A142804DBDFED240A47
:10483000B0EE600A03E0DFED250AB0EE600A32E078
:104840001D4880891C4A9288801A142804DBDFEDF9
:10485000200AB0EE600A03E0DFED1A0AB0EE600A4B
:1048600021E015488089144A9288801A142804DBB4
:10487000DFED180AB0EE600A03E0DFED150AB0EED6
:10488000600A10E00C4880890B4A9288801A14282C
:1048900004DBDFED0A0AB0EE600A03E0DFED050A93
:1048A000B0EE600A00BF00BFFCEEC00A10EE900A36
:1048B00080B2704700000000381B002000803B449D
:1048C0000080BB4400C0DA4400007A4400409C44AD
:1048D0000000164500803B4510B540F22551334895
:1048E00000F02AF918B1314800F0E0F95DE040F23B
:1048F00024412E4800F020F9002856D02B4800F023
:10490000D5F92B48FDF73BFA38BB00212848FDF7C5
:1049100063F92748FDF72FFAC0F1240025490880E4
:1049200024212348FDF7B2FA21482838806A40F450
:1049300000201F49283988621F491D48FDF718F9D2
:1049400001211B48FDF748F91A48008812282CD18C
:104950001A491B48FFF750F927E000211448FDF7DA
:104960003BF91348FDF707FAC0F12400114908800C
:1049700024210F48FDF78AFA0D482838806A20F470
:1049800000200B49283988620B490948FDF7F0F8E7
:1049900001210748FDF720F906480088122804D1B4
:1049A000064907482430FFF727F910BD00480040AA
:1049B00028600240100A0020000C0010281C002073
:1049C000441C002010B540F224410C4800F0B4F81B
:1049D00090B10A48001D00880949087007480088FE
:1049E000087000210748FDF7F7F8074800F07CFB46
:1049F00001210448FDF7F0F810BD0000001401404B
:104A00000E0A0020406402409C1B002001F400724A
:104A1000B2F5007F00D100BFCA430280704721B1C8
:104A2000828942F40052828104E082894DF6FF734C
:104A30001A40828170471AB1838A0B43838202E055
:104A4000838A8B438382704710B504463248844280
:104A500008D101211020FEF72DFF00211020FEF7C4
:104A600029FF57E02D48844209D101214804FEF76F
:104A700001FF00214FF40030FEF7FCFE4AE0284819
:104A8000844209D101218804FEF7F4FE00214FF48D
:104A90008020FEF7EFFE3DE02248844209D101214B
:104AA000C804FEF7E7FE00214FF40020FEF7E2FE07
:104AB00030E01D48844209D101210805FEF7DAFEE5
:104AC00000214FF48010FEF7D5FE23E01748844202
:104AD00008D101212020FEF7EDFE00212020FEF765
:104AE000E9FE17E01248844209D101218807FEF748
:104AF000C1FE00214FF08040FEF7BCFE0AE00D48E9
:104B0000844207D101214005FEF7B4FE0021600573
:104B1000FEF7B0FE10BD0000001001400044004050
:104B200000480040004C004000500040001401408C
:104B300000780040007C004070B50246002400234D
:104B40000025002040F66A16B14200D100BFC1F333
:104B5000421501F01F03012606FA03F3012D02D1CD
:104B60009689334006E0022D02D1168A334001E0D7
:104B7000968A33400C12012606FA04F41688344053
:104B800013B10CB1012000E0002070BDF0B5034668
:104B9000002400260025002040F66A17B94200D103
:104BA00000BF1846C1F3421401F01F06012707FA9F
:104BB00006F5012C01D10C3004E0022C01D110309B
:104BC00000E014301AB107682F43076002E007685D
:104BD000AF430760F0BD00002DE9FF4705460E46D4
:104BE0000024A14600BFA046B08900B100BF2C8AB6
:104BF00024F44054F08804432C82AC8941F20C60C8
:104C00008443B08831890843718908430443AC81E7
:104C1000AC8A24F44074B0890443AC826846FEF741
:104C200059FE2048854202D01F48854202D1DDF856
:104C30000C9001E0DDF80890A88900F4004040B134
:104C400009EBC90000EB091031684900B0FBF1F72E
:104C500007E009EBC90000EB091031688900B0FBDF
:104C6000F1F76420B7FBF0F004012009642101FB97
:104C70001078A88900F4004040B1322000EBC80051
:104C8000B0FBF1F000F00700044308E0322000EB35
:104C900008106421B0FBF1F000F00F0004432C81F8
:104CA000BDE8FF87001001400014014001468888DC
:104CB000C0F308007047000008B5DFEDEF0AB7EE5B
:104CC000000AEE48FEF778F8DFEDED0AB7EE000ACD
:104CD000EC48FEF771F8F2EE040AB7EE000AEA4873
:104CE000FEF76AF8DFEDE60AB7EE000AE748FEF7DE
:104CF00063F8C0E104F072F8009001F0C3FAE449EF
:104D0000086008464069007800287DD00846406960
:104D100040780028F9D0DF4800680028F5D0DE4848
:104D2000007801280ED0DD480088401CDB4908804F
:104D3000084600881E2805DB0120D749087000209E
:104D4000D6490880D2484069D0ED010AB0EE600A29
:104D5000CA48FEF751F8D248D0ED000A30EE200ADA
:104D6000D04880ED000ACA48806990ED010ACC481D
:104D700080ED000ACB48D0ED000AB0EE600ACA49C7
:104D80000220FDF714FADFEDC90A60EE200AC048E0
:104D900090ED000AB8EE400AB7EE001A20EE010AC4
:104DA00080EE801AC24880ED001AD0ED000AB0EE05
:104DB000600AB648FEF720F8BD4880ED000AD0ED45
:104DC000000AB0EE600ABB490320FDF7F0F9DFED01
:104DD000B70A60EE200AAE4890ED000AB8EE400A2D
:104DE000B7EE001A20EE010A80EE801AB24880ED7C
:104DF000001AD0ED000AB0EE600AA348FDF7FCFFF0
:104E0000AD4880ED000A00E018E190ED000AFAEEEE
:104E1000040AB4EEE00AF1EE10FA04D8BAEE040A7D
:104E200080ED000A0DE0A44890ED000AF2EE040ABD
:104E3000B4EEE00AF1EE10FA03DBB2EE040A80ED04
:104E4000000A9E4890ED000ADFED9D0AB4EEE00AEC
:104E5000F1EE10FA10DD90ED000AF2EE040AB4EE65
:104E6000E00AF1EE10FA07D290ED000A8548FDF74E
:104E7000C3FF924880ED000A8F4890ED000A9148E8
:104E8000D0ED000A20EE200A8948D0ED000A8E48B5
:104E900090ED001A01EE200A8C4880ED000A874848
:104EA00090ED000A8A48D0ED000A20EE200AB5EE07
:104EB000C00AF1EE10FA0FD0844890ED000A7F4846
:104EC000D0ED000A824890ED001A60EE810A20EED3
:104ED000200A7E4880ED000A6D48406990ED010A85
:104EE000B5EEC00AF1EE10FA04DD6948406990EDB4
:104EF000010A05E06648406990ED010AB1EE400AFA
:104F0000F0EE000AB4EEE00AF1EE10FA74D2604856
:104F1000406990ED030AB5EEC00AF1EE10FA04DD27
:104F20005B48406990ED030A05E05948406990EDFF
:104F3000030AB1EE400AF0EE000AB4EEE00AF1EE28
:104F400010FA7CD25248406990ED010AB5EEC00AD1
:104F5000F1EE10FA04DD4E48406990ED010A05E0DB
:104F60004B48406990ED010AB1EE400A5748D0ED38
:104F7000000AB7EE081A60EE810AF5EEC00AF1EEFB
:104F800010FA06DDD0ED000AB7EE081A60EE810ACD
:104F900006E04E48D0ED000AB7EE081A60EEC10AEE
:104FA000B4EEE00AF1EE10FA3AD84A48806990ED82
:104FB000200AB5EEC00AF1EE10FA04DD454880691A
:104FC00090ED200A05E04348806990ED200AB1EE9B
:104FD000400A3E48D0ED000A9FED3F1A60EE810A7C
:104FE000F5EEC00AF1EE10FA07DDD0ED000A9FEDF4
:104FF0003A1A60EE810A07E021E03448D0ED000A59
:105000009FED351A60EEC10AB4EEE00AF1EE10FA37
:1050100006D801203149087000203149088011E08C
:105020002F480088401C2E490880084600881E280A
:1050300008DB0020294908702949088002E0002087
:10504000264908701248406990ED010A1F48D0EDCA
:10505000000A244890ED001A00EE810A0C4880ED09
:10506000040A00200A494969087002F0C9FA0121BE
:10507000684603F00BF83DE600000000340F002006
:105080000000C842040F0020D40E0020640F00204E
:10509000B403002088010020F0030020F203002068
:1050A00008040020D00300201004002000007A44EF
:1050B000D8030020B4050020E0030020F00D0020FC
:1050C0009A99993EFC03002000040020E803002088
:1050D0000404002044000020CDCC4C3F0C040020F0
:1050E000F4030020F803002010B52DED048B0446D6
:1050F0002078AA2870D1E07A5428FBD16078A17872
:105100000844E17808442179084461790844A17988
:105110000844E179084463490870207A0978884294
:1051200002D0BDEC048B10BD6078012875D103F06E
:1051300055FE5D49086001205C494870207900EE09
:10514000100AB8EE400A607900EE900AF8EE600AA4
:105150009FED571A00EE810A564880ED000AA078AC
:1051600000EE100AB8EE400AE07800EE900AF8EE81
:10517000600A9FED4F1A00EE810A4F4880ED000A49
:10518000E0794E490870A07AFBF72FFA41EC190B31
:105190009FED4B0B53EC102BFBF7B5F941EC180BC3
:1051A000FBF730FA00EE100AF8EEC00A607A00EE63
:1051B000100AB8EE400A9FED441A00EE810A4348F7
:1051C00080ED000AA079012807D0022814D0032816
:1051D00024D004283ED130E062E0364890ED000A49
:1051E000B1EE400A3A4880ED000A334890ED000ADB
:1051F000384880ED000A2EE02E4890ED000AB1EE0E
:10520000400A334880ED000A2B4890ED000AB1EEC9
:10521000400A304880ED000A1DE02AE0254890ED64
:10522000000A2B4880ED000A234890ED000AB1EEF9
:10523000400A284880ED000A0DE01E4890ED000A63
:10524000234880ED000A1C4890ED000A214880EDBB
:10525000000A00E000BF00BF1E4890ED000A13489E
:1052600080ED010A1A4890ED000A104880ED030A0B
:1052700013E003F0B3FD0C490968401AB0F5807FD4
:105280000BD90020094948709FED130A084680EDAC
:10529000010A9FED110A80ED030A012003490870FD
:1052A00000BF3EE7ED0D0020E80D0020501E00205D
:1052B0000AD7233CE00D0020E40D0020EC0D002077
:1052C0009A9999999999B93FCDCCCC3DF00D002090
:1052D000DC0D0020D80D0020000000004100080275
:1052E00018BF04200A0E18BF40F001004FF07F42A3
:1052F00032EA010108BF40F00200012808BF052082
:105300007047000010B54FF00E402DED028BB0EE4F
:10531000408A18EE104A00EB4400B0F1506F4AD8B2
:105320004FF0FC40B0EB440F22D2B0EEC80AF7EECB
:10533000000A30EEC00AF6EE000A60EE208A18EE8F
:10534000900A02F0FDF901EE100A14F0004F1DBFA3
:10535000DFED2D0A9FED2D0AB1EE411ADFED2C0A8B
:1053600008BF9FED2C0AF8EE001A21EE218A05E015
:10537000DFED290A68EE088AB0EE600A9FED271A71
:10538000DFED271A30EE080A48EE811A9FED251A44
:1053900008EEA11ADFED241A48EE811A9FED231AB8
:1053A00008EEA11A68EE281ABDEC028B01EE810A04
:1053B00030EE200A10BD4FF0E440B0EB440F0CD9A2
:1053C00018EE100AFFF78AFF042808BF00F0B2F9B0
:1053D000B0EE480ABDEC028B10BD4FF07F40B0EB41
:1053E000440F07D2B0EE480ABDEC028BBDE8104076
:1053F00000F091B9012000F0B5F9BDEC028BBDE8D9
:10540000104000F08FB900000000C9BF22AAFDB90A
:105410000000C93F22AAFD390000000024FE1C3D07
:10542000C78AD83C1E67383D1B93993DAFAA2A3ED8
:1054300070B54FF068422DED048BF0EE408A18EE07
:10544000900AB0EE608A18EE101A02EB4003B3F136
:10545000654F3CBF02EB4102B2F1654F7DD200BF08
:10546000C0F3C753C1F3C7529A1A1B2A09DD10F0C3
:10547000004F14BF9FED830A9FED830ABDEC048BA0
:1054800070BD12F11A0F36DA11F0004F09D010F08A
:10549000004F0CBF9FED7D0A9FED7D0ABDEC048B94
:1054A00070BD88EE889A19EE100AFFF717FF0428DE
:1054B00008BF00F03FF918EE900AFFF70FFF05460E
:1054C00018EE100AFFF70AFF044619EE100AFFF75C
:1054D00005FF042D18BF052D08D1042C18BF052C7D
:1054E00004D1002804BF022000F03CF9B0EE490AC4
:1054F000BDEC048B70BD4200B2EB410F3AD910F005
:10550000004F19BFDFED630A9FED630ADFED630A09
:105510009FED630AB0EE481A0A46B1EE688A80F041
:105520000041F0EE418A10460A1A5200B2F1807F23
:1055300034D2484010F0004FDFED5A1A9FED5A2A3E
:105540001DBFBEEE001A70EEE10A30EE420AB6EE62
:10555000001A08BF70EEA10A00E040E008BF30EE7C
:10556000020AB0EE682A01EE482A08EE818AC2EEED
:10557000081A15E011F0004F04BF9FED4C0AF0EE41
:10558000400AD1D010F0004F19BFDFED490A9FED5E
:10559000490ADFED490A9FED490AC5E7C8EE881AB6
:1055A00021EEA11A9FED462ADFED462A41EE022A9E
:1055B0009FED452A01EE222ADFED442A41EE022A20
:1055C0009FED432ABDEC048B01EE222A21EE811AC5
:1055D00001EE020A30EE210A30EE200A70BD4FF0D3
:1055E0007F42B2EB400F28BFB2EB410F09D2F0EE81
:1055F000480AB0EE680ABDEC048BBDE8704000F0CC
:105600008DB840EA01035B0008BF41F0FF410BD0B9
:10561000B2EB400F08BFB2EB410F08D120F0804041
:1056200008EE900A21F0804108EE101A18E7B2EB5C
:10563000400F12BF5FEA410340F0FF4001F000411C
:105640003FF40EAFB2EB410F12BF5FEA400200F031
:10565000004041F0FF413FF403AF4A0092EA4003AB
:105660003FF5FEAE002AACBF9FED1A0A9FED1A0A65
:1056700068EE808A28EE008A18EE900A18EE101A5A
:10568000EEE60000DB0FC9BFDB0FC93FDB0F49406F
:10569000DB0F49C00000C9BF22AAFDB90000C93F05
:1056A00022AAFD390060ED3EC30ACE37000000009B
:1056B000000049C022AA7DBA0000494022AA7D3AD2
:1056C0002DAD65BD8FB8D53D0FB511BE61C84C3E3F
:1056D000A8AAAABE0000804F0000802F10B52DEDB3
:1056E000028BB1EEC08A18EE100A20F00040C0F123
:1056F000FF40C00F0AD010EE100A20F00040C0F1A9
:10570000FF40C00F04BF012000F02CF8B0EE480AA3
:10571000BDEC028B10BD30EE000A704730EE200A5F
:1057200070470000DFED020A80EEA00A704700001B
:10573000000000009FED020A20EE000A7047000002
:105740000000001002E008C8121F08C1002AFAD1A8
:1057500070477047002001E001C1121F002AFBD1F1
:10576000704700000149086070470000A00E00204B
:1057700070B52DED028B8AB005460C4616460DB16C
:1057800004B11EB90AB0BDEC028B70BD94ED000AE5
:10579000B5EEC00AF1EE10FA0DD194ED010AB5EEA6
:1057A000C00AF1EE10FA06D194ED020AB5EEC00A75
:1057B000F1EE10FA7DD09FED600AB0EE408A002035
:1057C0000790089009900490059006905B4A07CADC
:1057D00001AB07C395ED010AD5ED030A20EE200ABF
:1057E000D5ED000A95ED021A00EEC10AF0EE000AAE
:1057F00020EE200A8DED070A95ED000AD5ED010A8D
:1058000020EE200AD5ED020A95ED031A00EE810A7A
:10581000F0EE000A20EE200A8DED080A95ED000A50
:1058200020EE000AD5ED030A95ED031A00EE810A79
:10583000F7EE000AB0EE001A51EE000ACDED090AAB
:1058400001AB22463146284600F07AF8D4ED000A32
:1058500060EEA00A94ED011AD4ED011A41EE210A7E
:1058600094ED021AD4ED021A41EE210AB0EE600A5C
:10587000FBF7AAF9B0EE408A94ED000A20EE080A80
:1058800084ED000A94ED010A20EE080A84ED010A75
:1058900094ED020A20EE080A84ED020A94ED010A52
:1058A000DDED090A20EE200AD4ED020A9DED081A6A
:1058B00000E03EE000EEC10A8DED040A94ED020A1C
:1058C000DDED070A20EE200AD4ED000A9DED091A4D
:1058D00000EEC10A8DED050A94ED000ADDED080A1F
:1058E00020EE200AD4ED010A9DED071A00EEC10A50
:1058F0008DED060A96ED000ADDED010A9DED041A14
:1059000000EE810A86ED000A96ED010ADDED020A3D
:105910009DED051A00EE810A86ED010A96ED020A58
:10592000DDED030A9DED061A00EE810A86ED020AFE
:1059300000BF00BF26E70000000000007C920008C6
:105940002DE9F0412DED048B07460D4614461E4609
:105950009FED580AB0EE409A9FED560AB0EE408A8D
:105960009FED540AF0EE408AD4ED000A60EEA00AE2
:1059700094ED011AD4ED011A41EE210A94ED021AB8
:10598000D4ED021A41EE210AB0EE600AFBF71CF9D1
:10599000F7EE000A80EE801AB0EE419AD5ED000ACB
:1059A000B0EE600AFAF7A7FFF0EE409AD5ED010AD3
:1059B000B0EE600AFAF79FFF79EE809AD5ED020A01
:1059C000B0EE600AFAF797FF39EE800AF0EE408AEF
:1059D0003948D0ED000A79EE600AB0EE600AFAF7B5
:1059E0008AFFB0EE408A9FED350AB4EEC08AF1EE30
:1059F00010FA06DC9FED320AF4EEC08AF1EE10FADE
:105A000053DD9FED2C2AB0EE420A9FED2A2AF0EEDC
:105A1000421AB7EE002AF0EE420A9FED262AB0EEB7
:105A2000421AB5EEC08AF1EE10FA05DD9FED232A89
:105A3000C2EE082AB0EE620A9FED222AB4EEC20A34
:105A4000F1EE10FA03D29FED1B2AB0EE420AF5EEFA
:105A5000C08AF1EE10FA05DD9FED192AC2EE282A60
:105A6000F0EE621AB7EE002AB4EEC20AF1EE10FAB6
:105A700003D220EE802AF0EE420AB7EE002AF4EEBE
:105A8000C21AF1EE10FA03D220EEA12AF0EE420A79
:105A90009FED0D2A20EE822AB0EE421A86ED001A02
:105AA00086ED011A86ED021A00BFBDEC048BBDE83D
:105AB000F0810000000000009C0E0020CDCCCC3D09
:105AC0008FC2F53D9A99993ECDCC4C3E10B52DED47
:105AD000048B86B00446B0EE408AF0EE608AB0EEE9
