:020000040800F2
:100000000020022045030008F92200082D110008F5
:100010001522000827070008C5400008000000005E
:100020000000000000000000000000008D02000839
:10003000D10F000800000000E1020008E1380008CC
:1000400069030008690300086903000869030008E0
:1000500069030008690300086903000869030008D0
:1000600069030008690300086903000869030008C0
:10007000810C00086903000869030008690300088F
:1000800069030008690300086903000869030008A0
:100090002D070008690300086903000869030008C8
:1000A0006903000869030008690300086903000880
:1000B0006903000869030008690300086903000870
:1000C0006903000869030008690300086903000860
:1000D00069030008FD3C0008690300086903000883
:1000E0006903000869030008690300086903000840
:1000F0006903000869030008690300086903000830
:10010000690300086903000869030008690300081F
:10011000690300086903000869030008690300080F
:1001200069030008690300086903000869030008FF
:1001300069030008690300086903000869030008EF
:10014000D90800086903000869030008690300086A
:10015000690300086903000869030008E13D00081D
:1001600069030008690300086903000869030008BF
:100170006903000869030008690300080000000023
:100180006903000869030008913A0008F13A000881
:10019000690300086903000869030008690300088F
:1001A00000000000000000006903000800F002F8F1
:1001B00000F05CF80AA090E8000C82448344AAF1A5
:1001C0000107DA4501D100F051F8AFF2090EBAE8A3
:1001D0000F0013F0010F18BFFB1A43F0010318477B
:1001E000B8830000D88300000A444FF0000C10F8D8
:1001F000013B13F0070408BF10F8014B1D1108BFA5
:1002000010F8015B641E05D010F8016B641E01F844
:10021000016BF9D113F0080F1EBF10F8014BAD1C94
:100220000C1B09D16D1E58BF01F801CBFAD505E0B2
:1002300014F8016B01F8016B6D1EF9D59142D6D30C
:10024000704700000023002400250026103A28BF34
:1002500078C1FBD8520728BF30C148BF0B60704738
:100260001FB508F023F81FBD10B510BD00F08AF9C6
:100270001146FFF7F5FF04F0CDFA00F0A8F903B43A
:10028000FFF7F2FF03BC04F0C7F900002A4B19681E
:100290000868B0E8F04F80F30988BFF36F8F4FF024
:1002A000000080F3118870470000000006480068D5
:1002B000006880F3088862B661B6BFF34F8FBFF362
:1002C0006F8F00DF00BF00BF08ED00E0DFF80C001B
:1002D000016841F470010160704700BF88ED00E0E3
:1002E000EFF30980BFF36F8F134B1A681EF0100FE6
:1002F00008BF20ED108A20E9F04F106008B44FF0DD
:10030000500080F31188BFF34F8FBFF36F8F05F05C
:1003100075FD4FF0000080F3118808BC196808686B
:10032000B0E8F04F1EF0100F08BFB0EC108A80F359
:100330000988BFF36F8F7047A00B0020EFF3058093
:10034000704700000C48016841F4700101600B48DF
:1003500080470B480047FEE7FEE7FEE7FEE7FEE7C3
:10036000FEE7FEE7FEE7FEE7FEE700000548064978
:10037000044A064B7047000088ED00E0F1380008A1
:10038000AD010008001C022000200220001C0220F9
:100390007047032A40F2308010F0030C00F0158003
:1003A00011F8013BBCF1020F624498BF11F801CB78
:1003B00000F8013B38BF11F8013BA2F1040298BFDD
:1003C00000F801CB38BF00F8013B11F0030300F047
:1003D0002580083AC0F0088051F8043B083A51F8EB
:1003E00004CBA0E80810F5E7121D5CBF51F8043BF0
:1003F00040F8043BAFF30080D20724BF11F8013B63
:1004000011F801CB48BF11F8012B24BF00F8013BC4
:1004100000F801CB48BF00F8012B704710B5203A17
:10042000C0F00B80B1E81850203AA0E81850B1E8AD
:100430001850A0E81850BFF4F5AF5FEA027C24BF63
:10044000B1E81850A0E8185044BF18C918C0BDE85A
:1004500010405FEA827C24BF51F8043B40F8043B23
:1004600008BF7047D20728BF31F8023B48BF11F8D8
:10047000012B28BF20F8023B48BF00F8012B704732
:1004800002F0FF0343EA032242EA024200F011B8FD
:10049000704770477047704710B500F02BF8006840
:1004A00010BD10B5044600F025F8046010BD4FF0F3
:1004B00000020429C0F0128010F0030C00F0388014
:1004C000CCF1040CBCF1020F18BF00F8012BA8BF3F
:1004D00020F8022BA1EB0C0100F02AB85FEAC17CE6
:1004E00024BF00F8012B00F8012B48BF00F8012BB6
:1004F0007047000000487047A01B02201FB584B061
:1005000000200A9C06AB04AA02A90094AFF3008065
:1005100018B1DDE9020108B010BD0348204000F029
:100520005FF800200146F6E70000207C4FF0000253
:1005300000B5134694469646203922BFA0E80C50D9
:10054000A0E80C50B1F12001BFF4F7AF090728BFB4
:10055000A0E80C5048BF0CC05DF804EB890028BF30
:1005600040F8042B08BF704748BF20F8022B11F059
:10057000804F18BF00F8012B7047000000487047FB
:10058000A01B02207546FFF7F9FFAE46050069463D
:10059000534620F00700854618B020B5FFF7E6FE69
:1005A000BDE820404FF000064FF000074FF0000874
:1005B0004FF0000B21F00701AC46ACE8C009ACE8F5
:1005C000C009ACE8C009ACE8C0098D46704710B559
:1005D0000446AFF300802046BDE81040FFF74FBE51
:1005E00010B500F009F8BDE81040AFF30080002816
:1005F00001D004F011B8704710B5022803D04101B2
:1006000003D50DA112E0002010BD010101D50FA1FD
:100610000CE0C10001D511A108E0810001D512A1B3
:1006200004E0400001D513A100E0002115A000F076
:1006300039F8012010BD0000496E76616C696420B4
:100640004F7065726174696F6E000000446976696D
:100650006465204279205A65726F00004F7665729A
:10066000666C6F7700000000556E646572666C6F93
:1006700077000000496E6578616374205265737578
:100680006C7400005349474650453A2041726974E2
:10069000686D6574696320657863657074696F6EF1
:1006A0003A20000070B505460C460A2000E06D1C9B
:1006B00003F0B4FF35B128780028F8D102E0641CBB
:1006C00003F0ACFF14B120780028F8D1BDE87040E9
:1006D0000A2003F0A3BF10B54FF4407001F04AFEAA
:1006E0004FF47A7003F0BAFF04F0B4F8002408E085
:1006F000204604F001F940F2C52004F00DF8601C1A
:10070000C4B2042CF4DB04F0EDFE01F085FD4FF4DF
:10071000E13003F021F902F039FF302002F0F0FF60
:1007200001F00AFC10BD00BFFEE7000000B585B077
:100730006A460021644800F01BF964490098096882
:10074000884223D19DF80C009DF80B1040EA01204F
:1007500000B25E4988819DF80E109DF80D0041EAB7
:10076000002000B2594948819DF810109DF80F00F3
:1007700041EA002000B2554908819DF811008873B4
:1007800005F082FF6430524908609BE04F490098B1
:10079000D1F8FC10884227D19DF80C009DF80B1071
:1007A00040EA012001B24948A0F808119DF80E1056
:1007B0009DF80D0041EA002001B24448A0F806115E
:1007C0009DF810109DF80F0041EA002001B23F484B
:1007D000A0F804119DF8111080F80A1105F054FFDB
:1007E00064303B4948606DE038490098D1F8F81111
:1007F000884227D19DF80C009DF80B1040EA01209B
:1008000001B23248A0F804129DF80E109DF80D00B8
:1008100041EA002001B22D48A0F802129DF8101004
:100820009DF80F0041EA002001B22848A0F800120C
:100830009DF8111080F8061205F026FF6430244957
:1008400088603FE021490098D1F8F412884227D10E
:100850009DF80C009DF80B1040EA012001B21B48E6
:10086000A0F800139DF80E109DF80D0041EA00203D
:1008700001B21648A0F8FE129DF810109DF80F0066
:1008800041EA002001B21148A0F8FC129DF81110B5
:1008900080F8021305F0F8FE64300D49C86011E0DD
:1008A00040F20521009888420CD19DF80B0040B21F
:1008B000084908709DF80C0040B248709DF80D0082
:1008C00040B2887005B000BD0064004058000020B0
:1008D0002C0C0020C407002000B585B06A4600211A
:1008E0001F4800F045F80098B0F5407F27D19DF8EB
:1008F0000B001C4908709DF80C0048709DF80E1004
:100900009DF80D0041EA002000B2164948809DF88C
:1009100010109DF80F0041EA002001B211488180BB
:100920009DF812109DF8110041EA002001B20D4817
:10093000C18005F0A9FE64300B49C8610DE040F2AA
:1009400005210098884208D19DF80C009DF80B10F5
:1009500040EA012000B20549088005B000BD000052
:1009600000680040BC0700202C0C0020200500205F
:1009700010B500F5D87303EB01131B6803F00403F3
:100980001372137A53B900F5D87303EB01131B6884
:1009900040F2FF7404EA5353136009E000F5D87382
:1009A00003EB01131B686FF0604404EAD303536048
:1009B00000F5D87303EB01131B6803F002035372B5
:1009C00000F5D87303EB01135B6803F00F03937218
:1009D00000F5D87303EB01135B681B0AD37400F5B1
:1009E000D87303EB01139B68D37200F5D87303EB44
:1009F00001139B681C0A147300F5D87303EB0113F1
:100A00009B681C0C547300F5D87303EB01139B68AF
:100A10001B0E937300F5D87303EB0113DB68D373DC
:100A200000F5D87303EB0113DB681C0A147400F59E
:100A3000D87303EB0113DB681C0C547400F5D873F6
:100A400003EB0113DB681B0E937421B9C36843F0F9
:100A50002003C36003E0036943F02003036110BD7A
:100A600070B586B006460D461446019500208DF8F7
:100A70000C008DF80D0008208DF80E002088000A6B
:100A80008DF80F0021788DF810106088010A8DF81C
:100A90001110A1788DF81210A088010A8DF813109A
:100AA00021798DF81410E088010A8DF81510A179CC
:100AB0008DF8161001A9304600F002F806B070BD9E
:100AC00010B502460020936803F08063B3F1806F95
:100AD00000D110E0936803F00063B3F1006F01D11F
:100AE000012008E0936803F08053B3F1805F01D1E7
:100AF000022000E00420042874D002F5C07303EB48
:100B000000131B6803F0010402F5C07303EB00132C
:100B10001C600B7A7BB94B7A0C8843EA445302F58C
:100B2000C07404EB00142468234302F5C07404EB82
:100B30000014236010E00B7A4C6843EAC4034C7A3B
:100B4000234302F5C07404EB00142468234302F528
:100B5000C07404EB001423608B7A03F00F038B72D4
:100B600002F5C07303EB00135B6823F00F0402F57A
:100B7000C07303EB00135C6002F5C07303EB00135A
:100B80005B688C7A234302F5C07404EB0014636045
:100B90008B7B1C064B7B44EA03440B7B44EA032318
:100BA000CC7A234302F5C07404EB0014A3608B7C61
:100BB0001C064B7C44EA03440B7C44EA0323CC7BB5
:100BC000234302F5C07404EB0014E36002F5C07324
:100BD00003EB00131B6843F0010402F5C07303EB41
:100BE00000131C6010BD000010B52DED028B0446F3
:100BF000B0EE408A04EB8402094B03EB021004EBD5
:100C0000840203EB0212B0EE480A916C8847BDEEF5
:100C1000C00A10EE100A00B2BDEC028B10BD00003D
:100C20003806002070B52DED028B04460D46B0EE5F
:100C3000408AC4EB8412114B03EB8202113205EBA4
:100C4000450303EB051302EB8300C4EB84120B4B4B
:100C500003EB8202113205EB450303EB051302EBB4
:100C60008302916CB0EE480A8847BDEEC00A10EED0
:100C7000100A00B2BDEC028B70BD000058000020CD
:100C800010B50949094800F025F9012807D10021CC
:100C9000064800F041F80621044800F097F902499F
:100CA000024800F01FF810BD0088001028600240C4
:100CB0000246094B9A4201D2084801E00648103822
:100CC00001F000531BB1064B0B40C36002E0044B24
:100CD0000B408360704700001064024000600240D7
:100CE0007D0F7D0F0246094B9A4201D2084801E070
:100CF0000648103801F000531BB1064B0B40C3608F
:100D000002E0044B0B408360704700001064024017
:100D1000006002407D0F7D0F21B1026842F00102A8
:100D2000026003E0026822F00102026070470000E6
:100D3000016821F0010101600021016041608160D2
:100D4000C1600161212141614A49884204D13D21AC
:100D5000484A103A91608CE046491831884205D1E2
:100D60004FF47461434A103A916082E04149303156
:100D7000884205D14FF474113E4A103A916078E0F0
:100D80003C494831884205D14FF07461394A103AE4
:100D900091606EE037496031884204D13649354A66
:100DA000103AD16065E033497831884204D1334943
:100DB000304A103AD1605CE02E499031884204D12B
:100DC0002F492C4A103AD16053E02A49A831884271
:100DD00005D14FF03D51274A103AD16049E02949E9
:100DE000884204D13D21274A083A116041E0254953
:100DF0001831884205D14FF47461224A083A1160D3
:100E000037E020493031884205D14FF474111D4A32
:100E1000083A11602DE01B494831884205D14FF056
:100E20007461184A083A116023E01649603188421B
:100E300004D11149134A121F11601AE01149783187
:100E4000884204D10D490F4A121F116011E00D496B
:100E50009031884204D10A490A4A121F116008E001
:100E60000849A831884204D14FF03D51054A121F6C
:100E700011607047106002403D000020400F0020CC
:100E800000003D201064024021B1026842F480223B
:100E9000026003E0026822F480220260704722B1FF
:100EA000036843F40023036003E0036823F4002392
:100EB0000360016170470146486880B2704701468F
:100EC00000200A6802F400220AB1012000E000209C
:100ED0007047000070B50246002000240025124E25
:100EE000B24201D2114B01E00F4B103B104E0E40AD
:100EF00036B11E2606EAD124166806EA040502E089
:100F0000566906F0800501F000560EB15C6800E0FD
:100F10001C68084E344004EA010616B10DB10120E8
:100F200000E0002070BD000010640240006002403C
:100F30003C0F3C0F7D0F7D0F10B501F080034BB1CE
:100F400022B1436943F08003436103E0436923F026
:100F50008003436180290BD02AB1036801F01E048D
:100F60002343036004E0036801F01E04A34303600D
:100F700010BD000010B500220268134B1A40CC6867
:100F80000B6823434C6923438C692343CC69234377
:100F90000C6A23434C6A23438C6A23434C6B2343E0
:100FA0008C6B23431A430260426922F00702D1E9A5
:100FB0000B3423431A4342610B6943604B688360DF
:100FC0008B68C36010BD00003F801CF0416070471B
:100FD0007047F0B50A4600210023002400BF3DE021
:100FE000012505FA01F3156805EA03049C4234D192
:100FF00005684F000326BE40B543056015794E00D5
:10100000B5400668354305601579012D02D0157984
:10101000022D16D185684F000326BE40B54385607A
:1010200055794E00B5408668354385604568012690
:101030008E40B5434560456896798E40B6B23543DB
:101040004560C5684F000326BE40B543C560D579ED
:101050004E00B540C6683543C560491C1029BFD352
:10106000F0BDF0B5002300244D07ED0E02FA05F3A4
:10107000CE1000F1200555F826504E07F70E0F262A
:10108000BE40B543CF1000F1200646F82750CE10E1
:1010900000F1200555F8265045EA0304CE1000F172
:1010A000200545F82640F0BD418370470183704715
:1010B00070B52DED028B05460C46002C01DD204657
:1010C00000E06042B0F5805F09DD002C01DD2046C4
:1010D00000E0604294FBF0F0A4EB403000E02046DA
:1010E00000EE100AB8EEC08A0C48B0EE480AD0F8FC
:1010F000C4107C3088470A48D0ED060A30EE600AFA
:10110000F0EE408A0548816F30308847BDEEC00A56
:1011100010EE100A00B2BDEC028B70BD200500205D
:10112000BC0E00204FF08040406A704700BFFEE7D1
:1011300010B500200F4908600F48006820F0030038
:101140000D4908600846006840F001000860002072
:101150000A49C1F88002022003F0DEFA01200549A5
:101160000860022003F0D8FA00200449C1F8840284
:1011700010BD0000848242420014024000804242BE
:1011800010B500200F4908600F48006820F00300E8
:101190000D4908600846006840F001000860012021
:1011A0000A49C1F88002022003F0B6FA012005497D
:1011B0000860022003F0B0FA00200449C1F884025C
:1011C00010BD00008482424200140240008042426E
:1011D00070B5054600241648006820F00300144945
:1011E0000860084600680860002616E000201149E3
:1011F0000860022003F090FA01200F49C1F8840230
:101200006006040E0B488438006808B1601CC4B244
:10121000012003F081FA701CC6B2082EE6DB15B976
:10122000FFF7AEFF01E0FFF783FF204670BD00002F
:1012300000140240848242420080424270B504465B
:101240001548006820F0030013490860084600684C
:1012500040F001000860002010490860002517E0F8
:10126000E0090E49091F08606006040E022003F021
:1012700053FA01200A49C1F88402022003F04CFA13
:10128000002006490860022003F046FA681CC5B237
:10129000082DE5DB70BD000000140240848242424C
:1012A0000080424210B50F48006820F003000D494D
:1012B00008600846006840F00100086001200A4903
:1012C00008600A49C1F88402042003F025FA0020CE
:1012D00005490860042003F01FFA00200349C1F803
:1012E000840210BD001402408082424200804242CB
:1012F00010B50F48006820F003000D49086008464B
:10130000006840F00100086000200A4908600A49AE
:10131000C1F88002042003F0FFF9012005490860AC
:101320000549C1F88002042003F0F6F910BD000061
:1013300000140240848242420080424210B50024E0
:101340001348006820F0030011490860084600684F
:10135000086001200F49086003F0DEF901200E4902
:10136000C1F8840203F0D8F907E0601CC4B2FA2C7B
:1013700003DDFFF7BDFF012010BD0648803800687F
:101380000028F2D10349091D086000BFF4E70000FE
:1013900000140240808242420080424200B52DED9E
:1013A000108B93B0FE4890ED000AD0ED000A20EEBD
:1013B000200A8DED080A90ED000AFA48D0ED000AE7
:1013C00020EE200AB0EE40FAF54890ED000AF6480B
:1013D000D0ED000A20EE200AF0EE40AAF04890ED91
:1013E000000AF248D0ED000A20EE200A8DED070A2F
:1013F000EC4890ED000AD0ED000A20EE200AF0EE55
:1014000040FA90ED000AE848D0ED000A20EE200AEC
:101410008DED060AE34890ED000AE448D0ED000A9D
:1014200020EE200AB0EE40BADF4890ED000AD0ED81
:10143000000A20EE200AF0EE40BA90ED000ADB48E8
:10144000D0ED000A20EE200A8DED050A90ED000A8D
:10145000D0ED000A20EE200A8DED040AD44890ED6C
:10146000030ADFEDD40A20EE200ADFEDD30A80EE76
:10147000201AD24880ED001ACD4890ED040ADFED25
:10148000CD0A20EE200ADFEDCC0A80EE201ACC48EF
:1014900080ED001AC64890ED050ADFEDC60A20EE81
:1014A000200ADFEDC50A80EE201AC64880ED001A3A
:1014B000BF4890ED000AC44880ED000ABC4890ED9A
:1014C000010AC24880ED000AB94890ED020AC048FE
:1014D00080ED000AB64890ED060ABE4880ED000A8D
:1014E000B34890ED070ABC4880ED000AB04890ED83
:1014F000080ABA4880ED000AFFF714FEB8490860F0
:1015000008460068B749096888420CD3B4480068A7
:10151000B4490968401A00EE100AB8EE400ADFED3F
:10152000B20AC0EE208AAE480068AE490860A648FC
:10153000D0ED000A90ED001A60EE810AA34890ED0C
:10154000001AD0ED001A41EE210AA14890ED001AD0
:10155000D0ED001A41EE210AB0EE600A03F03CF92A
:10156000B0EE408A984890ED000A20EE080A80ED1F
:10157000000A964890ED000A20EE080A80ED000A65
:10158000934890ED000A20EE080A80ED000A914889
:10159000D0ED000A90ED001A60EE810A8E4890EDC1
:1015A000001AD0ED001A41EE210A8C4890ED001A85
:1015B000D0ED001A41EE210AB0EE600A03F00CF9FA
:1015C000B0EE408A834890ED000A20EE080A80EDD4
:1015D000000A814890ED000A20EE080A80ED000A1A
:1015E0007E4890ED000A20EE080A80ED000A794856
:1015F00090ED000AF0EE000A60EE200AB6EE000A56
:1016000030EE6B1A9DED040A31EE400A20EE800A9E
:101610007148D0ED000AB0EE001A60EE811ADDEDDF
:10162000060A9DED071A70EEC10A01EEA00A6B488A
:10163000D0ED000AB0EE001A60EE810A3BEE2A1AE5
:1016400000EE810A8DED110A624890ED000AF0EE7D
:10165000000A20EE201A9DED060ADDED070A30EEA5
:10166000200A21EE000A5C48D0ED000AB0EE001A14
:1016700020EE811AF6EE000A70EEEF1ADDED040A94
:1016800071EEE00A01EE200A5448D0ED000AB0EEF7
:10169000001A20EE811ADDED050A70EECF0A01EE88
:1016A000200A8DED100A4B4890ED000AF0EE000A7A
:1016B00020EE200A7BEE6A0A60EE200A464890ED92
:1016C000000AB0EE001A20EE011A9DED050A70EE38
:1016D0000F1AB0EE600A01EE210A4048D0ED000A70
:1016E000B0EE001A60EE810AB6EE001A31EE6F1A03
:1016F00031EE6B1AB0EE409A00EE819A9DED110A20
:1017000060EE000A9DED100A40EE000A10EE901AFD
:10171000084606F015FDCDE900019DED000B02F035
:1017200097FE8DED020B9DED020B51EC100B05F0B9
:10173000F3F909EE900AB0EE49AA3BEE6A0AF0EE20
:10174000000A20EE200A8DED0F0A9DED050A3FEEFE
:10175000000AF0EE000A20EE200A8DED0E0A9DED43
:10176000080A30EE6F0A70EE6B0A9DED040A30EE47
:10177000800A8DED0D0AB0EE000A69EE800AB6EE21
:10178000000A30EE6B1A9DED040A31EE400A20EE9D
:10179000800AB0EE4A9AF0EE000A69EE200A25E0CF
:1017A000840A0020880A00208C0A0020900A002069
:1017B000340E0020DB0F494000003443940A00201F
:1017C000980A00209C0A0020A00A0020A40A0020F9
:1017D000A80A0020AC0A0020B00A0020B40A0020A9
:1017E000BC0A0020B80A00200024F4493BEE6A1A23
:1017F00000EE810A8DED0C0AB0EE000A29EE801A87
:101800009DED060ADDED070A30EE600A21EE000AC2
:10181000B0EE4A9AF0EE000A29EE201ADDED050A34
:101820007FEE200A01EE200A8DED0B0AB0EE000AD1
:1018300029EE800A7AEE8B0A20EE200AB0EE4A9A50
:10184000F0EE000A69EE200AB6EE001A31EE6F1AC9
:1018500031EE6B1A00EE810A8DED0A0AAF48D0ED29
:10186000000A9DED0D0A60EE800AAD4890ED001A69
:101870009DED0E0A41EE400AAA4890ED001A9DED3A
:101880000A0A21EE001AA848D0ED001A9DED0B0AB5
:1018900001EEC01A30EE81CAA148D0ED000A9DEDDC
:1018A0000F0A60EE800AA14890ED001A9DED0D0A26
:1018B00041EE400A9C4890ED001A9DED0C0A21EE85
:1018C000001A9B48D0ED001A9DED0A0A01EEC01ADD
:1018D00070EE81CA9548D0ED000A9DED0E0A60EECB
:1018E000800A8E4890ED001A9DED0F0A41EE400AE5
:1018F0008F4890ED001A9DED0B0A21EE001A8948E1
:10190000D0ED001A9DED0C0A01EEC01A30EE81DA1E
:10191000B5EEC0CAF1EE10FA57D0F5EEC0CAF1EE3E
:1019200010FA52D0B5EEC0DAF1EE10FA4DD09FEDBC
:10193000810A6CEE000A804890ED000A00EEA80AC9
:1019400080ED000A9FED7B0A6CEE800A7B4890EDEB
:10195000000A00EEA80A80ED000A9FED760A6DEEFF
:10196000000A774890ED000A00EEA80A80ED000A10
:10197000744890ED000AF0EE000A00EE8C0A6E4802
:10198000D0ED000A30EE200A6E4880ED000A6E4865
:1019900090ED000AF0EE000A00EEAC0A6748D0EDC8
:1019A000000A30EE200A684880ED000A674890ED92
:1019B000000AF0EE000A00EE8D0A6148D0ED000A40
:1019C00030EE200A614880ED000A614890ED000A7F
:1019D000B1EE400A5B48D0ED000A20EE200A5D48D7
:1019E000D0ED000A584890ED001A00EEC10A5A489E
:1019F00090ED001A5548D0ED001AF0EE400A41EE85
:101A0000610A564890ED000A00EEA80A8DED090A19
:101A100090ED000A4B48D0ED000A20EE200A4D4818
:101A2000D0ED000A494890ED001A00EE810A4A48BC
:101A3000D0ED000A444890ED001A00EEC10A444877
:101A4000D0ED000AF0EE60DA40EE28DA434890ED7F
:101A5000000A3D48D0ED000A20EE200A3C48D0EDB7
:101A6000000A3A4890ED001A00EEC10A3A48D0ED5B
:101A7000000A344890ED001A00EE810A3548D0ED96
:101A8000000AB0EE60EA00EE28EA344890ED000A61
:101A90002E48D0ED000A20EE200A2D48D0ED000A95
:101AA000294890ED001A00EE810A2A48D0ED000A7C
:101AB000244890ED001A00EEC10A2748D0ED000A34
:101AC000F0EE60EA40EE28EADDED090A60EEA00AD9
:101AD0004DEEAD0A4EEE0E0A4EEEAE0AB0EE600AC4
:101AE00002F07AFEB0EE408A9DED090A20EE080A67
:101AF0001A4880ED000A2DEE880A154880ED000A8C
:101B00002EEE080A134880ED000A2EEE880A1248CD
:101B100080ED000A13B0BDEC108B00BDA40A0020BC
:101B2000A80A0020B00A0020B40A0020A00A002061
:101B3000AC0A00200AD7233C780A00207C0A002047
:101B4000800A0020940A0020980A00209C0A0020A5
:101B5000880A00208C0A0020900A0020840A0020B5
:101B600010B50446024800F005F8FFF717FC10BD59
:101B7000340E00202DE9FF410646002400270020F6
:101B80008E490860BB2001F08FFD3B2000F020FA59
:101B90008DF800003C2000F01BFA8DF801009DF844
:101BA00001009DF8001040EA012000B2844908803D
:101BB0003D2000F00DFA8DF802003E2000F008FAFA
:101BC0008DF803009DF803009DF8021040EA012003
:101BD00000B27B4948803F2000F0FAF98DF80400FC
:101BE000402000F0F5F98DF805009DF805009DF8FE
:101BF000041040EA012000B271498880412000F0C1
:101C0000E7F98DF80600422000F0E2F98DF80700B0
:101C10009DF807009DF8061040EA012000B26849CF
:101C2000C880432000F0D4F98DF80800442000F06B
:101C3000CFF98DF809009DF8090062490989401A19
:101C40009DF8081040EA012000B25D490881452056
:101C500000F0BEF98DF80A00462000F0B9F98DF8C1
:101C60000B009DF80B0057494989401A9DF80A104E
:101C700040EA012000B252494881472000F0A8F90B
:101C80008DF80C00482000F0A3F98DF80D009DF8A8
:101C90000D004C498989401A9DF80C1040EA01203A
:101CA00000B2474988810846B0F90C00002803DDDE
:101CB0000846B0F90C0003E04148B0F90C0040427E
:101CC000142802DA00203E49888101203B4908603F
:101CD000012408E03C4850F82420601E3A4941F8AD
:101CE0002020601CC4B2642CF4DB3548B0F90C1021
:101CF0003648C0F87019002405E0334850F8240035
:101D00000744601CC4B2642CF7DB642097FBF0F13D
:101D10002E48C0F8741900272B4890ED640AB8EEDD
:101D2000C00A2B4880ED060A00252EE02848D0ED99
:101D3000060A284830F9150000EE100AB8EEC00A6D
:101D4000F4EE400AF1EE10FA05D1224830F8150001
:101D5000214908801BE01E4890ED060AF1EE400A7A
:101D60001C4830F9150000EE100AB8EEC00AF4EE77
:101D7000400AF1EE10FA07D1164830F8150040423B
:101D800000B21549088002E06D1C172DCEDB00BFA4
:101D90000F48D0ED060A1048B0F9000000EE100A16
:101DA000B8EEC00A30EEC00A094880ED060A90ED90
:101DB000060A86ED050ABDE8FF81000098824242CE
:101DC000740E0020880E0020C0160020DC0E0020BB
:101DD0009C0E0020E80A0020DE0A002010B5044610
:101DE0000648FFF7BDFE064890ED050ADFED050A3F
:101DF00080EE201A044880ED061A10BD580E00200F
:101E0000340E002000003443BC0E002008B543F619
:101E10001F41002000F048F84FF48051052000F0E9
:101E200043F8042002F050FC6946042000F061F8F9
:101E30009DF801009DF8001000EB012000B208BDE4
:101E400008B543F61F41002000F02EF84FF48051F2
:101E5000052000F029F8042002F036FC6946032032
:101E600000F047F89DF801009DF8001000EB0120FC
:101E700000B208BD08B543F61F41002000F014F879
:101E80004FF48051052000F00FF8042002F01CFCF4
:101E90006946022000F02DF89DF801009DF8001021
:101EA00000EB0120C01008BD38B505460C46200ADD
:101EB0008DF80000E0B28DF80100FFF7F3F9802003
:101EC000FFF7BCF9FFF73AFA2846FFF7B7F9FFF733
:101ED00035FA9DF80000FFF7B1F9FFF72FFA641CFF
:101EE0009DF80100FFF7AAF9FFF728FAFFF700FABB
:101EF00038BD70B505460C46FFF7D4F98020FFF7D2
:101F00009DF9FFF71BFA2846FFF798F9FFF716FA35
:101F1000FFF7C8F98120FFF791F9FFF70FFA0120C9
:101F2000FFF756F92070641C0020FFF751F920706C
:101F3000FFF7DEF970BD000010B586B00024142252
:101F4000104901A8FEF76AFA642002F0BDFB752073
:101F500000F01CF80C49087000BF0DE001AA02EB6C
:101F60004402517801AA12F8140000F045F801204B
:101F700002F0AAFB601CC4B20A2CEFDB002006B002
:101F800010BD00002C850008D80A002010B50446BA
:101F900000200B49086044F080000A490870084698
:101FA000007801F081FB44F0800001F07DFB0649E0
:101FB000087001200549C1F898020348007810BD57
:101FC000988242428E0B00208D0B002000804242FE
:101FD00010B5044644F080000549087008460078B2
:101FE00001F062FB034908700846007810BD00004C
:101FF000900B00208F0B002070B505460C4600208A
:102000000A49086005F07F00094908700846007811
:1020100001F04AFB06480470007801F045FB0120FE
:102020000449C1F89802002070BD00009882424225
:102030008C0B00200080424210B5044694ED020A49
:10204000B8EEC00ADFED6D0A20EE200AB0EE001AED
:10205000C0EE010AD4E90001084400EE100AB8EE0F
:10206000C00A30EE800ADFED660A20EE200A6548DD
:1020700080ED000A94ED020AB8EEC00ADFED5F0AB7
:1020800020EE200AB0EE001AC0EE010AD4E90001E9
:10209000401A00EE100AB8EEC00A30EE800ADFEDFA
:1020A000580A20EE200A574880ED010A94ED020AF2
:1020B000B8EEC00ADFED510A20EE200AB0EE001A99
:1020C000C0EE010A206840426168084400EE100A30
:1020D000B8EEC00A30EE800ADFED490A20EE200A91
:1020E000484880ED020A94ED020AB8EEC00ADFED1E
:1020F000430A20EE200AB0EE001AC0EE010A206862
:1021000040426168401A00EE100AB8EEC00A30EE94
:10211000800ADFED3B0A20EE200A3A4880ED030AF0
:102120000120394908740121374880F80C1180F8E2
:10213000081280F80413334890ED001A3248B0F9C1
:102140000A0000EE900AF8EEE00A71EE600AB0EEC6
:10215000600A2D48017CD0F8F820002090472B49D8
:102160000880284890ED011A2748B0F9060100EED2
:10217000900AF8EEE00A71EE600AB0EE600A2248BA
:1021800090F80C11D0F8F421012090471F494880A5
:102190001C4890ED021A1C48B0F9020200EE900AA9
:1021A000F8EEE00A71EE600AB0EE600A164890F8A8
:1021B0000812D0F8F0220220904714498880114874
:1021C00090ED031A1048B0F9FE0200EE900AF8EE06
:1021D000E00A71EE600AB0EE600A0B4890F8041352
:1021E000D0F8EC23032090470849C8800A464FF4F2
:1021F00000710748FEF734FC10BD000066668B4294
:102200008988083E5C0C0020580000201A0000203D
:102210000064004000BFFEE710B52F492F4800F0D2
:102220004FFA2D4924312D484C3000F049FA2A4903
:1022300048312A48983000F043FA27492748FC30B3
:1022400000F03EFA24492431254800F039FA2249A9
:10225000483123484C3000F033FA1F492048B03051
:1022600000F02EFA1C4924311D48FC3000F028FAF9
:10227000194948311B4800F023FA174919486430BE
:1022800000F01EFA144924311648B03000F018FA54
:10229000114948311348FC3000F012FA1249134832
:1022A00000F00EFA1049243110484C3000F008FAC2
:1022B0000F49104800F004FA0D490E48503000F064
:1022C000FFF90B490B48A03000F0FAF9084909481A
:1022D000F03000F0F5F910BD48040020690000203E
:1022E000B1010020F9020020F00500205005002077
:1022F00078070020380600207047000070B50021E4
:1023000000230F22C4781CB3174C246804F4E06443
:10231000C4F5E064C4F30721C1F10404E3B20A4147
:1023200044789C40E1B28478144021430C07210E8C
:102330000E4C05786155047804F01F050124AC406B
:1023400005786D11AD0005F1E025C5F8004109E003
:10235000047804F01F050124AC40054D0678761181
:1023600045F8264070BD00000CED00E000E400E000
:1023700080E100E002490143024A11607047000019
:102380000000FA050CED00E070B502460C46FF2592
:10239000FF2309E012F8010B80EA05010648405CC2
:1023A00080EA03050548435C201EA4F10104F1D135
:1023B00043EA052070BD0000E7070020E708002081
:1023C000F0EE400A10EE901A4162416A00EE101AD7
:1023D000C16801EE101AB1EE411AB4EEC10AF1EE75
:1023E00010FA08D8C16800EE101AB1EE400A10EEDB
:1023F000101A41620CE0416A00EE101AC16801EE49
:10240000101AB4EEC10AF1EE10FA01DBC1684162A4
:10241000C16A00EE101A416A01EE101ADFED771A58
:1024200001EE210A10EE101AC162C16A00EE101A04
:10243000016901EE101AB1EE411AB4EEC10AF1EED3
:1024400010FA08D8016900EE101AB1EE400A10EE39
:10245000101AC1620CE0C16A00EE101A016901EEA7
:10246000101AB4EEC10AF1EE10FA01DB0169C16283
:10247000016800EE101A416A01EE101A20EE010AFE
:1024800010EE101A0163016B00EE101A416901EEA3
:10249000101AB1EE411AB4EEC10AF1EE10FA08D8E2
:1024A000416900EE101AB1EE400A10EE101A0163F5
:1024B0000CE0016B00EE101A416901EE101AB4EE47
:1024C000C10AF1EE10FA01DB41690163416800EED7
:1024D000101AC16A01EE101A20EE010A10EE101A4D
:1024E0004163416B00EE101A816901EE101AB1EEE2
:1024F000411AB4EEC10AF1EE10FA08D8816900EE73
:10250000101AB1EE400A10EE101A41630CE0416B54
:1025100000EE101A816901EE101AB4EEC10AF1EE54
:1025200010FA01DB81694163416A00EE101A816A89
:1025300001EE101A30EE411A816800EE101A21EEF9
:10254000000A10EE101A8163816B00EE101AC16947
:1025500001EE101AB1EE411AB4EEC10AF1EE10FA12
:1025600008D8C16900EE101AB1EE400A10EE101A38
:1025700081630CE0816B00EE101AC16901EE101A44
:10258000B4EEC10AF1EE10FA01DBC1698163016B9F
:1025900000EE101A416B01EE101A30EE011A816B39
:1025A00000EE101A31EE000A10EE101AC163C16B72
:1025B00000EE101A016A01EE101AB1EE411AB4EEE3
:1025C000C10AF1EE10FA08D8016A00EE101AB1EE55
:1025D000400A10EE101AC1630CE0C16B00EE101A35
:1025E000016A01EE101AB4EEC10AF1EE10FA01DB35
:1025F000016AC163C16B00EE101A70476F12033B92
:1026000010B52DED0A8B0446B0EE408AF0EE608ADC
:10261000B0EE419AF0EE619AB0EE42AAF0EE62AAF4
:10262000B0EE43BAF0EE63BAB0EE44CA9FED200AB2
:1026300010EE100A20639FED1E0A10EE100A606370
:102640009FED1B0A10EE100AA0639FED190A10EE11
:10265000100AE0639FED160A10EE100A60629FED0B
:10266000140A10EE100AA0629FED110A10EE100A73
:10267000E0621048A0641048206410486064216C37
:10268000B0EE4C4AF0EE6B3AB0EE4B3AF0EE6A2AFE
:10269000B0EE4A2AF0EE691AB0EE491AF0EE680A76
:1026A000B0EE480A20468847BDEC0A8B10BD0000FA
:1026B00000000000C1230008172700085127000868
:1026C00070B505460C46D4ED084AB0EE644AD4ED28
:1026D000074AF0EE643AD4ED064AB0EE643AD4ED1F
:1026E000054AF0EE642AD4ED044AB0EE642AD4ED33
:1026F000034AF0EE641AD4ED024AB0EE641AD4ED47
:10270000014AF0EE640AD4ED004AB0EE640A2846AD
:10271000FFF776FF70BD10EE101A016010EE901AF0
:10272000416011EE101A816011EE901AC16012EE34
:10273000101A016112EE901A416113EE101A8161B4
:1027400013EE901AC16114EE101A01627047000076
:102750009FED110A10EE101A01639FED0F0A10EEA3
:10276000101A41639FED0C0A10EE101A81639FED61
:102770000A0A10EE101AC1639FED070A10EE101A34
:1027800041629FED050A10EE101A81629FED020A68
:1027900010EE101AC162704700000000F0B5054647
:1027A0000F46BE1E31462846FFF7EEFD0446204682
:1027B000E11704EB1161C1F30721A955E11704EBFF
:1027C00011610912A4EB0121CAB2711C6A54F0BD57
:1027D00029B1064A12680243044B1A6004E0034A16
:1027E00012688243014B1A60704700003038024083
:1027F00029B1064A12680243044B1A6004E0034AF6
:1028000012688243014B1A60704700004038024052
:1028100029B1064A12680243044B1A6004E0034AD5
:1028200012688243014B1A60704700002038024052
:1028300029B1064A12680243044B1A6004E0034AB5
:1028400012688243014B1A6070470000443802400E
:1028500029B1064A12680243044B1A6004E0034A95
:1028600012688243014B1A6070470000243802400E
:10287000F0B5002100220024022500260223324F59
:102880003F6807F00C0121B1042905D0082937D190
:1028900005E02E4F076036E02D4F076033E02A4FEA
:1028A0003F1F3F68C7F38056274F3F1F3F6807F021
:1028B0003F036EB1264FB7FBF3F7DFF88CC0ACF1E6
:1028C000040CDCF800C0CCF3881C07FB0CF40CE013
:1028D0001E4FB7FBF3F7DFF870C0ACF1040CDCF867
:1028E00000C0CCF3881C07FB0CF4174F3F1F3F6858
:1028F000C7F301477F1C7D00B4FBF5F7076002E0DA
:10290000124F076000BF00BF0F4F3F6807F0F00194
:102910000909104F7A5C0768D74047600A4F3F6843
:1029200007F4E051890A0B4F7A5C4768D74087600B
:10293000054F3F6807F46041490B064F7A5C4768D2
:10294000D740C760F0BD0000083802400024F40002
:10295000001BB7001C0C002070B590B004460E465A
:10296000154601214A48FFF733FF01211020FFF7E8
:102970005FFF01211020FFF76BFF00211020FFF700
:1029800067FF072211464348FEF76BFB80200E903D
:1029900002208DF83C0000208DF83E0003208DF8C9
:1029A0003D0000208DF83F000EA93A48FEF711FBCC
:1029B000394801F043FA39480A900020ADF82C005C
:1029C000ADF82E004FF48060ADF830000420ADF873
:1029D00032000020ADF834000AA92F4801F0F6FAC1
:1029E000012240212C4801F020FA10212A4801F050
:1029F000F8F9012240F22441274801F0C1FA0121EF
:102A0000254801F006FA25208DF83C0001208DF8BC
:102A10003D0000208DF83E0001208DF83F000FA8FA
:102A2000FFF76CFC1E48FEF783F94FF00060019041
:102A30001948001D0290039400200490059506900B
:102A40004FF4806007900020089009904FF4807048
:102A50000A904FF440300B9000200C900D900E9097
:102A60000F9001A90E48FEF785FA002231460C4866
:102A7000FEF715FA01210A48FEF706FA0021084878
:102A8000FEF74AF901210648FEF746F910B070BD7D
:102A9000020040000004024000100140A086010036
:102AA00040640240FB480078A5286FD1F9480078BF
:102AB000F9490870F7484078F649897840EA0120DA
:102AC000F5494880F348C0788871F2484079F14967
:102AD000897940EA0120F04988800846808840F2E0
:102AE0000222811A90427DD010DC04287BD006DCC3
:102AF000012814D002283DD0032875D147E00528CD
:102B000073D0A0F201200028F7D1D3E1881E072856
:102B10006AD2DFE800F0FDFCFBFA6969F900DF48E2
:102B20000078142825DB0020DC490870D949C879D1
:102B3000C11700EB11710911A0EB0111D84A1278ED
:102B400061F30302D6490A70D249C879C11700EB74
:102B500011710911D24A127861F30712D0490A7033
:102B6000CC48007ACB49497A40EA0120CC49A1F807
:102B70000100C9E2C94800780A2806DB0020C749DD
:102B80000870C448C079C7490870BDE2BDE2C348B7
:102B9000007829287EDB0020C0490870BD48C07934
:102BA000BC49097A40EA0120BF490880B948407A07
:102BB000B849897A40EA0120BB494880B548C07AC3
:102BC000B449097B40EA0120B7498880B148407B7D
:102BD000B049897B40EA0120B349C880AD48C07B39
:102BE000AC4903E0E7E167E08AE27AE0097C40EA89
:102BF0000120AD490881A748407CA649897C40EA6C
:102C00000120A9494881A348C07CA249097D084305
:102C1000A54988819F48407D9E49897D40EA0120E1
:102C2000A149C8819B48C07D9A49097E40EA01209C
:102C30009D4908829748407E9649897E40EA012056
:102C4000994948829348C07E9249097F40EA012011
:102C5000954988828F48407F8E49897F40EA0120CC
:102C60009149C8828B48C07F8A4991F8201040EA78
:102C700001208D490883874890F82100854991F803
:102C8000221040EA012088494883824890F82300B6
:102C9000804900E00FE091F8241040EA01208249C9
:102CA00088837C4890F825007A4991F8261040EAFC
:102CB00001207D49C88327E2784800780C280FDB83
:102CC0000020764908707348C079784908707148C7
:102CD000007A7049497A40EA01207449A1F801005C
:102CE00012E26E48007814287EDB00206B490870E1
:102CF0006849C87900EBD0714910A0EB41016C4ADA
:102D0000127861F3000204E0DBE1C9E1AFE19EE18A
:102D100091E167490A705F49C979081100EBD071E8
:102D20004910A0EB4101624A127861F30412604934
:102D30000A705849087A00EBD0714910A0EB4101A4
:102D40005B4A527861F3000259494A705149097A45
:102D5000081100EBD0714910A0EB4101544A5278A0
:102D600061F3041252494A704A49487A00EBD07123
:102D70004910A0EB41014E4A927861F300024C49A0
:102D80008A704449497A081100EBD0714910A0EBD0
:102D90004101474A927861F3041245498A703D49DE
:102DA000C879C11700EB11710911A0EB01114A0894
:102DB0003F49097862F343013D4A11703549C879AA
:102DC000C11700EB117109114A083949097862F3FA
:102DD0004711374A11702F49087AC11700EB11715A
:102DE0000911A0EB011100E053E04A08304949788D
:102DF00062F343012E4A51702649087AC11700EB4D
:102E0000117109114A082A49497862F34711284A81
:102E100051702049487AC11700EB11710911A0EBDC
:102E200001114A082249897862F34301204A9170CE
:102E30001849487AC11700EB117109114A081C4959
:102E4000897862F347111A4A91701248807A1149C1
:102E5000C97A40EA01201146A1F803000D48007B21
:102E60000C49497B40EA01201146A1F805000948B8
:102E7000807B0849C97B40EA01201146A1F8070080
:102E80000448007C0349497C40EA01201146A1F82E
:102E9000090039E1D80C00209E0700209C07002083
:102EA000140D0020A60700201F0D0020A7070020FA
:102EB0003F0D00209548007824287BDB00209349B3
:102EC00008709348C079934908709148007A487017
:102ED0008F48407A8E49897A40EA01208D4948809E
:102EE0008B48C07A8A49097B40EA01208949888059
:102EF0008748407B8649897B40EA01208549C88014
:102F00008348C07B8249097C40EA012081490881CD
:102F10007F48407C48817E48C07C7D49097D40EAED
:102F200001207C4988817A48407D7949897D40EA41
:102F300001207849C8817648C07D7549097E40EAFC
:102F40000120744908827248407E7149897E40EAB6
:102F50000120704948826E48C07E6D49097F40EA71
:102F600001206C4988826A48807FC882684890F84E
:102F700020006749C97F084366490883644890F880
:102F80002100897E60F3000162488176604890F8F4
:102F9000210040085F49897E60F341015D488176E8
:102FA0005B4890F8210080085A49897E60F38201CD
:102FB00058488176A8E05548007817283ADB002069
:102FC000524908705248C0795149097A40EA0120B3
:102FD000514908804E48407A4D49897A40EA01209B
:102FE0004D494880084600884988484300EE100A49
:102FF000F8EEC00A9FED491A80EE810A10EE100A21
:10300000454948604248C07B4149097C40EA01206B
:10301000414908813E48407C3D49897C40EA012085
:103020003D4948813A48C07C3949097D40EA012040
:103030003949888168E0354800780A2806DB002095
:10304000324908703248C079354908705CE02F4831
:1030500000780C280ADB00202C4908702C48C07925
:103060002B49097A40EA01202E4908704CE0274894
:103070000078092813DB0020244908702448C0790F
:103080002949097860F30301274801702048C07975
:1030900001092548007861F307102349087033E0DF
:1030A0001A4800780E280BDB0020184908701F49C9
:1030B0001748C01D02680A6082888A8080798871FA
:1030C00022E0124800780D2819DB00200F49087013
:1030D0000F48C079164908700D48007A48700C48AE
:1030E000407A0B49897A40EA012011494880084812
:1030F000C07A0749097B40EA01200D49488103E075
:1031000000200249087000BF00BF70479C070020E4
:10311000D80C00204A0D0020650D002000247449C1
:10312000AA070020AB070020AC070020AD07002055
:10313000750D002070B52DED0A8B0446B0EE408A67
:1031400084ED018A94ED010AB5EEC00AF1EE10FAA1
:1031500002DD94ED010A03E094ED010AB1EE400AAC
:10316000D4ED020AF5EEC00AF1EE10FA02DDD4ED5C
:10317000020A03E0D4ED020AF1EE600A30EE600AC2
:10318000DFED840AB4EEE00AF1EE10FA0CDD012066
:103190002070002060709FED800A84ED050A9FED8D
:1031A0007F0A84ED060A30E094ED010AB5EEC00A0C
:1031B000F1EE10FA02DD94ED010A03E094ED010A4C
:1031C000B1EE400AD4ED020AF5EEC00AF1EE10FAB3
:1031D00002DDD4ED020A03E0D4ED020AF1EE600A4A
:1031E00030EE600ADFED6E0AB4EEE00AF1EE10FA9E
:1031F0000BD200202070012060709FED670A84EDE3
:10320000050AB3EE040A84ED060A207801284BD1A2
:1032100094ED050ADFED630A30EE200A84ED050A1D
:10322000D4ED060AB0EE001A81EE200AD4ED050AAC
:1032300030EEC00AD4ED060AF1EE600A20EE200A54
:1032400010EE105A284604F07BFF41EC1C0BB0EE48
:103250004C0AF0EE6C0A00F04FFFB0EE40BAF0EE10
:1032600060BA9FED510B53EC102B51EC1B0B03F08C
:10327000B5FD41EC1A0B53EC1A2B9FED4B0B51ECA7
:10328000100B03F0DDFE41EC190B03F045FC20614F
:1032900094ED040ADFED460AB4EEE00AF1EE10FA0E
:1032A00052DD002020704FE0607801284CD194ED71
:1032B000050ADFED3C0A30EE200A84ED050AD4ED64
:1032C000060AB0EE081A81EE200AD4ED050AF1EEE6
:1032D000600A30EE200AD4ED060AF1EE600A20EE14
:1032E000200A10EE105A284604F02AFF41EC1C0B6D
:1032F000B0EE4C0AF0EE6C0A00F0FEFEB0EE40BA02
:10330000F0EE60BA9FED280B53EC102B51EC1B0B29
:1033100003F064FD41EC1A0B53EC1A2B9FED220BCA
:1033200051EC100B03F08CFE41EC190B03F0F4FB95
:10333000206194ED040ADFED1F0AB4EEE00AF1EE1D
:1033400010FA01D200206070207801280AD060783D
:10335000012807D09FED100A84ED050A9FED0E0AA3
:1033600084ED040A94ED010A84ED020A94ED040A46
:10337000B5EEC00AF1EE10FA08DD94ED040AD4EDC2
:10338000010A20EE200ABDEC0A8B70BD94ED010A03
:10339000F9E7000000007A440000000066668640FD
:1033A00000007AC40AD7A33B000000000000F03FF1
:1033B00077BE7F3F0AD7233C10B53448B0F90400EC
:1033C000C0EB00108000324908603048B0F90600B8
:1033D000C0EB0010800048602E48407801280DD1D5
:1033E0002D4800882D4B1B88181A01B22A48D0F8A6
:1033F000C820083090472A49886013E02548407863
:10340000022805D12748B0F900002549886009E065
:103410002048407818B11F484078032802D1002086
:103420001F4988601948B0F9000000EE900AF8EED4
:10343000E00AB0EE600A1C48FFF77CFEBDEEC00A51
:103440001A4880ED020A1248D0ED000AF8EEE00AB0
:10345000B0EE600A14483838FFF76CFEBDEEC00AC3
:10346000124880ED000A0A48D0ED010AF8EEE00AA1
:10347000B0EE600A0C481C38FFF75CFEBDEEC00AD7
:103480000A4880ED010AFEF7D7FD10BD940D00201B
:103490000C000020BC0700202005002008000020B0
:1034A0006C0C00200A000020BC0C0020780C0020CE
:1034B00000B101B970470278437842EA0322C2F3AF
:1034C0000A020A804278D210837842EA4312C2F399
:1034D0000A024A8082789211C37842EA8302037911
:1034E00042EA8322C2F30A028A80027952104379A7
:1034F00042EAC312C2F30A02CA804279C2F301123D
:103500008A72427912119308CB728279C37942EAA6
:10351000032212B28A81027A437A42EA032213B268
:1035200001F10C02CB81827AC37A42EA032213B200
:1035300001F10C020B82037B8B74437BCB74827B87
:10354000C37B42EA03228A82027C437C42EA032252
:1035500012B20A810A88A2F5806212B20A804A88F1
:10356000A2F5806212B24A808A88A2F5806212B205
:103570008A80CA88A2F5806212B2CA800A89A2F53E
:10358000806212B20A8100BF94E7000000B587B0E4
:1035900001212020FFF71CF901210220FFF718F973
:1035A00001210805FFF744F94FF4607005900220EF
:1035B0008DF8180000208DF81A0003208DF81900EE
:1035C00000208DF81B0005A93448FDF702FD4FF4DB
:1035D0008070059002208DF8180000208DF81A00E8
:1035E00003208DF8190000208DF81B0005A92C4838
:1035F000FDF7EFFC4020059001208DF81800002019
:103600008DF81A0003208DF8190000208DF81B009A
:1036100005A92248FDF7DDFC052207211F48FDF71B
:1036200020FD052206211D48FDF71BFD052209216D
:103630001A48FDF716FD052208211848FDF711FD6F
:1036400001210805FFF704F900214FF48010FFF76E
:10365000FFF80020ADF800004FF48270ADF80200D2
:103660000020ADF80400ADF80600ADF808004FF4F6
:103670000070ADF80A003020ADF80C000020ADF865
:103680000E000A20ADF810006946064800F066F802
:103690000121044800F048F807B000BD00140240C2
:1036A000000402400050014070B505460126002488
:1036B00022E0012E0FD10221104800F041F850B154
:1036C000002401E0601CC4B2C82CFBDB29460B4877
:1036D00000F042F800267EB90121084800F030F8D9
:1036E00050B1002401E0601CC4B2C82CFBDB0348CD
:1036F00000F02FF8C0B270BDDBE7000000500140C1
:1037000010B50446074800884FF6C77108400549C0
:10371000088008460088204308800121014800F005
:1037200003F810BD0050014021B1028842F0400270
:10373000028004E002884FF6BF731A40028070478F
:103740000246002013890B400BB1012000E000204D
:1037500070470146888970478181704710B5002203
:10376000028802F441520B884C8823438C882343FF
:10377000CC8823430C8923434C8923438C892343DE
:10378000CC8923431A430280838B4FF2FF7423407A
:1037900083830B8A038210BD0CB50020019000903A
:1037A0004148006840F480303F49086000BF3E480F
:1037B000006800F4003000900198401C01900098CF
:1037C00018B90198B0F5A04FF1D13748006800F45E
:1037D000003010B10120009001E00020009000981E
:1037E000012860D130484030006840F080502E49B8
:1037F000403108602D48006840F440402B49086083
:1038000029480830006828490831086008460068DF
:1038100040F4004008600846006840F4A05008608A
:103820002348091F0860081F006840F08070091FC6
:10383000086000BF1C48006800F000700028F9D044
:103840001A48006840F480301849086000BF1748E3
:10385000406800F480300028F9D01448006840F433
:1038600000301249086000BF1048406800F4003082
:103870000028F9D040F205700E4908600A48083067
:10388000006820F003000849083108600846006815
:1038900040F00200086000BF03480830006800F0F4
:1038A0000C000828F8D10CBD003802400070004020
:1038B000062D4008003C0240042808D14FF0E021CA
:1038C000096941F004014FF0E022116107E04FF077
:1038D000E021096921F004014FF0E02211617047F5
:1038E00010B502F0C1FE012801D002F06BFB10BD43
:1038F00010B51548006840F470001349086013487B
:10390000006840F001001149086000200F490831AB
:1039100008600E4800680E4908400C4908600D48D0
:10392000091D0860081F006820F48020091F086036
:10393000002006490C310860FFF72EFF4FF00060B1
:1039400001498039086010BD88ED00E00038024070
:10395000FFFFF6FE1030002410B588B004460121A8
:103960001020FEF735FF01218807FEF741FF0822EE
:1039700007212648FDF775FB082211462348FDF76D
:1039800070FB4FF4C070069002208DF81C000320DD
:103990008DF81D0000208DF81E0001208DF81F00FD
:1039A00006A91A48FDF715FB02940020ADF80C009B
:1039B000ADF80E00ADF81000ADF814000C20ADF815
:1039C000120002A9124800F001FB4021104800F04B
:1039D00008FA012240F225510D4800F0D1FA0121E8
:1039E0000B4800F016FA0C208DF8040001208DF829
:1039F000050000208DF8060001208DF8070001A8C1
:103A0000FEF77CFC00F006F808B010BD0010024084
:103A10000078004000B58FB001214805FEF7D8FEC0
:103A20004FF0206000901748019017480290402006
:103A3000039006200490002005904FF480600690CB
:103A400000200790089009904FF440300A90002021
:103A50000B900C900D900E9069460C48FDF78AFA79
:103A6000012280210748001F00F0DFF90122102108
:103A70000648FDF761FA01210448FDF74DF90FB042
:103A800000BD000004780040EC09002028600240DE
:103A900010B540F22551124800F048FAF0B102F09A
:103AA000F3FD64300F4948610D4800F0F9FA0E4902
:103AB0000E4A1278885408460078A52803D00B488F
:103AC000007800B910BD09480078401C074908700B
:103AD00008460078062801DDFEF7E4FF00BFF1E7A5
:103AE000007800402C0C0020D80C00209C070020FF
:103AF00010B52DED028B40F22551634800F016FA07
:103B000000287CD002F0C0FD64306049886120212B
:103B10005D4800F06FF95C4800F0C2FA00B25C4901
:103B2000096A5C4A22F8110010460088012805D075
:103B30005748006A10B9BDEC028B10BD5448006AAA
:103B4000401C534908620846006A062857DD0020D9
:103B5000086251480078012873D14E480088012836
:103B60006FD14C48408803286BD14A48808804288C
:103B700067D14848B0F90800464AB2F9062040EA41
:103B8000022000EE100AB8EEC00A10EE101A084625
:103B900004F0D6FA3E4A03C23E48B0F90C003D4A52
:103BA000B2F90A2040EA022000EE100AB8EEC00A7C
:103BB00010EE101A084604F0C3FA354AC2E90201B1
:103BC000104690ED001BB0EE410AF0EE610A9FED49
:103BD000331B53EC112B51EC100B03F031FA2C4A30
:103BE00003C22B4890ED021BB0EE410AF0EE610AD1
:103BF0009FED2C1B53EC112B51EC100B00E034E02B
:103C000003F01EFA224AC2E90201104690ED002B91
:103C1000B0EE420AF0EE620A90ED022BB0EE421ACC
:103C2000F0EE621A53EC102B51EC110B03F08AFCEE
:103C300041EC180B02F070FF1C4908600020164987
:103C400008701548007880B91248008801280CD106
:103C500010484088102808D10E48808828B90D489F
:103C6000C08810B901200C49087040F2277106483D
:103C700000F05CF930B108480078012801D100F06B
:103C800017F800BF00BF56E7007C00402C0C002056
:103C9000F80D0020200E0020D107002000000000B9
:103CA000000059400000000000408F40CC07002079
:103CB00010B508210E48FEF771FD0E4890F900205E
:103CC0000078401C40B20B4B18700948815C0A48D0
:103CD00000F0EBF907480078082808D1002240F2EC
:103CE0002771054800F04CF900200249087010BD0A
:103CF000D2070020D0070020007C004010B540F221
:103D00002551314800F012F918B12F4800F0C8F9D8
:103D100059E040F224412C4800F008F9002852D024
:103D2000294800F0BDF92948FDF7C9F828BB002152
:103D30002648FCF7F1FF2548FDF7BDF8C0F1240047
:103D40002349088024212148FDF740F91F480068D5
:103D500040F400201D4908601E491C48FCF7A8FFDC
:103D600001211A48FCF7D8FF1948008812282AD1E7
:103D700019491A48FFF79CFB25E000211348FCF77E
:103D8000CBFF1248FDF797F8C0F1240010490880D6
:103D900024210E48FDF71AF90C48006820F4002091
:103DA0000A4908600B490948FCF782FF01210748CE
:103DB000FCF7B2FF06480088122804D106490748DC
:103DC0002430FFF775FB10BD001001404064024035
:103DD000C807002000003010940D0020AA0D00201C
:103DE000704701F40072B2F5007F00D100BFCA43F2
:103DF0000280704710B50022002340F66A14A142E9
:103E000000D100BF0A1201249440A3B2DC43048015
:103E100010BD21B1828942F40052828104E082897E
:103E20004DF6FF731A40828170471AB1838A0B43A3
:103E3000838202E0838A8B438382704710B50446F5
:103E40003248844208D101211020FEF701FD0021F3
:103E50001020FEF7FDFC57E02D48844209D10121D6
:103E60004804FEF7D5FC00214FF40030FEF7D0FCEB
:103E70004AE02848844209D101218804FEF7C8FCA1
:103E800000214FF48020FEF7C3FC3DE0224884422D
:103E900009D10121C804FEF7BBFC00214FF400202A
:103EA000FEF7B6FC30E01D48844209D10121080527
:103EB000FEF7AEFC00214FF48010FEF7A9FC23E0D2
:103EC0001748844208D101212020FEF7C1FC0021BF
:103ED0002020FEF7BDFC17E01248844209D10121E1
:103EE0008807FEF795FC00214FF08040FEF790FC1C
:103EF0000AE00D48844207D101214005FEF788FC05
:103F000000216005FEF784FC10BD00000010014098
:103F10000044004000480040004C00400050004079
:103F20000014014000780040007C004070B502465B
:103F3000002400230025002040F66A16B14200D17B
:103F400000BFC1F3421501F01F03012606FA03F377
:103F5000012D02D19689334006E0022D02D1168A46
:103F6000334001E0968A33400C12012606FA04F42D
:103F70001688344013B10CB1012000E0002070BD60
:103F8000F0B50346002400260025002040F66A17FD
:103F9000B94200D100BF1846C1F3421401F01F0618
:103FA000012707FA06F5012C01D10C3004E0022CA0
:103FB00001D1103000E014301AB107682F430760B8
:103FC00002E00768AF430760F0BD00002DE9FF473E
:103FD00005460E460024A14600BFA046B08900B1A8
:103FE00000BF2C8A24F44054F08804432C82AC890E
:103FF00041F20C608443B0883189084371890843D9
:104000000443AC81AC8A24F44074B0890443AC828C
:104010006846FEF72DFC2048854202D01F488542A5
:1040200002D1DDF80C9001E0DDF80890A88900F4D9
:10403000004040B109EBC90000EB091031684900AC
:10404000B0FBF1F707E009EBC90000EB091031689C
:104050008900B0FBF1F76420B7FBF0F00401200900
:10406000642101FB1078A88900F4004040B132209F
:1040700000EBC800B0FBF1F000F00700044308E0DB
:10408000322000EB08106421B0FBF1F000F00F00CB
:1040900004432C81BDE8FF8700100140001401405B
:1040A00001468888C0F308007047C1F30802828087
:1040B0007047000010B501210148FCF72DFE10BD2E
:1040C0002860024000BFFEE703B401984100009859
:1040D00050EAC12018BF04204A0D18BF40F001006B
:1040E00040F2FF72B2EB515F08BF40F002000128BE
:1040F00008BF052002B0704770B52DED020B2DED05
:104100000A8B82B00D98C40F20F00045AE4885425E
:1041100048D3AE48854219D30C99C5F31300084320
:1041200009D09DED0C0B02B0BDEC0A8B02B0BDE8CE
:10413000704000F046BA002C14BF9FEDA50B9DED1A
:104140000C0B02B0BDEC0A8B02B070BD9FEDA20B50
:1041500053EC102B9DED0C0B51EC100B03F091FB6D
:104160000AD20220FCF79DF902B0BDEC0A8B02B026
:10417000BDE8704000F030BA9FED990B53EC102B66
:104180009DED0C0B51EC100B03F0A0F90AD20220AC
:10419000FCF787F902B0BDEC0A8B02B0BDE87040B5
:1041A00000F02ABA90489FED92BBA8425CD2924898
:1041B000854219D29148784400EBC40090ED000B81
:1041C00053EC102B9DED0C0B51EC100B03F0B6FCD7
:1041D00041EC1A0B8A48784400EBC40090ED009B38
:1041E000C4F10100041B36E09FED870B53EC102B4C
:1041F0009DED0C0B51EC100B03F0A4F941EC100BEE
:104200008348784400EBC40090ED001B51EC100B88
:1042100053EC112B02F0E2FD03F0D0F8044603F05A
:1042200031F941EC180B9FED7C0B53EC102B03F094
:1042300089F99DED0C1B53EC112B03F053FB41EC62
:104240001A0B9FED770B51EC180B53EC102B03F06E
:1042500079F941EC190B51EC1A0B53EC192B03F0C3
:104260006DFCCDE90C011BE06F48854217D29FED34
:10427000700B53EC102B9DED0C0B51EC100B02F05E
:10428000ADFD53EC1B2B03F0FCFA08D29DED0C0B9B
:1042900053EC1B2B51EC100B02F0A0FD6EE0002440
:1042A0009DED0C0B53EC102B51EC100B03F04AF965
:1042B00041EC180B60480521B0EE480AF0EE680AA0
:1042C000784400F002F953EC182B51EC100B03F07A
:1042D00039F99DED0C1B53EC112B03F003FB41EC62
:1042E000180B9FED570B5CB353EC182B51EC100BD4
:1042F00003F024FC9DED0C0B41EC1C0B53EC182B34
:1043000051EC100B03F01EF953EC1C2B02F098FE3D
:1043100053EC192B03F0E6FA53EC1A2B03F00EFCC6
:1043200053EC1B2B03F0DEFACDE900016FF47F7034
:10433000844226DB01EB045001909DED000B00E769
:1043400053EC102B51EC180B03F0F8FB9DED0C0B0C
:1043500041EC190B53EC182B51EC100B03F0F2F855
:1043600053EC192B02F06CFE9DED0C1B53EC112B42
:1043700003F0E4FB53EC1B2B03F0B4FA41EC100BFD
:10438000DFE608464FF07A5101EB04519FED2E0B0A
:10439000084453EC102B01909DED000B51EC100BD9
:1043A00003F0D0F80D4645EC100B044651EC100B11
:1043B000FFF78AFE042808BF00F01EF945EC104BF9
:1043C000BFE6000000000000422E86400000F07FA3
:1043D0000000000000000000EF39FAFE422E864087
:1043E00051302DD5104987C0422ED63F0000000025
:1043F000000000000000F03FB2A2F03F9643000032
:104400008643000000000000FE822B654715F73F41
:104410003A430000000000000000E0FE422EE63FAC
:10442000763C7935EF39EA3D0000303E000000006F
:104430009C7500883CE4377EAC4200000000000020
:1044400000000000000000400000000000007001BB
:1044500000B52DED048BB0EE409AF0EE609A83B07B
:1044600051EC190B03F066FA41EC180B18EE100A28
:1044700018EE901A8DED008B002818BF012008431C
:1044800020F00040C0F17F6000F1E040C00F14D088
:1044900019EE101A19EE900A8DED009B002918BF35
:1044A0000121084320F00040C0F17F6000F1E040AE
:1044B000C00F04BF0120FBF7F4FFB0EE480A03B0C1
:1044C000F0EE680ABDEC048B00BD70B504462DED1E
:1044D000028B4D1E00EBC500B0EE408AF0EE608A04
:1044E00090ED000B35F0060017D053EC182B51EC73
:1044F000100B03F027F841EC100B6D1E04EBC50008
:1045000090ED001B51EC100B53EC112B02F066FCEC
:1045100041EC100B35F00600E7D1022D36D0042D0A
:104520001CD0062D1CBFBDEC028B70BD53EC182BAC
:1045300051EC100B03F006F894ED0A1B53EC112B11
:1045400002F04CFC53EC182B02F0FCFF94ED081B1E
:1045500053EC112B02F042FC41EC100B53EC182BE6
:1045600051EC100B02F0EEFF94ED061B53EC112BF7
:1045700002F034FC53EC182B02F0E4FF94ED040B32
:1045800053EC102B02F02AFC41EC100B53EC182BCF
:1045900051EC100B02F0D6FF94ED021B53EC112BE3
:1045A00002F01CFC53EC182B02F0CCFF94ED001B26
:1045B00053EC112B02F012FCBDEC028B41EC100B02
:1045C00070BD10B553EC102B51EC100B02F006FC33
:1045D00041EC100B10BD00009FED050B10B553EC26
:1045E000102B51EC100B02F0ADFF41EC100B10BD85
:1045F00000000000000000709FED050B10B553ECAB
:10460000102B51EC100B02F09DFF41EC100B10BD74
:10461000000000000000001000BF704700BF70479E
:1046200008B5C82001F0D4F913E002F02DF800908D
:10463000FEF7C2FE00210748B0F9000000F0F6F8CE
:104640000121684601F0F2F9002001F06BF80249FF
:104650000860EAE7180000200400002070B5044656
:104660000025681FFFF728F9134800681349B0FBBD
:10467000F1F013490870104800684FF4FA51B0FB8C
:10468000F1F0104908600CB94FF47A740A480068D8
:10469000B0FBF4F0C5086D1E4FF0E020006940F05B
:1046A00002004FF0E021086108464561006940F0D2
:1046B0000100086170BD0000080C002000127A00A3
:1046C000000A0020040A002070B5034600240021DF
:1046D0000020002200254FF0E02675690D4E366857
:1046E00003FB06F44FF0E026B16910E04FF0E0263E
:1046F000B06988420BD0884202D20E1A324402E0DE
:104700002E1A0E4432440146A24200D300E0EDE7E7
:1047100000BF70BD040A00204FF0E0214969224A21
:104720001160224909784143214A11604FF0E0218C
:104730008969204A116033E04FF0E02189691E4AFF
:104740001160114609681B4A1268914228D01A4923
:104750000968184A126891420AD216490968164A2D
:104760001268891A154A12681144144A11600CE043
:104770000D490968104A1268891A0E4A12681144D4
:104780000E4A126811440D4A11600B490968094A22
:1047900011600A490968064A1268914200D300E094
:1047A000CAE700BF70470000180A0020000A002076
:1047B000080A0020100A0020140A00200C0A002019
:1047C00008B506E00348FDF709FB0121684601F042
:1047D0002DF9F7E7680E0020F0EE400AF6EE001A19
:1047E00060EEA11AB0EE611AB0EE600A10EE100A87
:1047F0000749A1EB600000EE100A21EE002AF7EE57
:10480000081A42EE401A61EE801AB0EE610A704753
:10481000DF59375F10B5FBF75EFF6420FFF754FFE9
:1048200000F06AFE01F098FA002010BD70B5054650
:104830000C46AA2006490870BB204870280A8870D8
:10484000CD70200A08714C71FFF734FC70BD000078
:10485000EC0900201CB501218020FDF7B9FF3C20A8
:10486000009001208DF8040000208DF80600032040
:104870008DF8050001208DF8070069461448FCF703
:10488000A8FB01214020FDF7A3FF4FF4005000904A
:1048900001208DF8040000208DF8060003208DF81B
:1048A000050001208DF8070069460A48FCF791FBD6
:1048B0004FF400510748FCF7F9FB002404E02046C0
:1048C00000F00AF8601CC4B2042CF8DB1CBD000028
:1048D000001C02400018024010B50446032C00DD05
:1048E00010BD0420A04081B20248FCF7DDFB00BFF0
:1048F000F6E70000001C024010B50446032C00DD62
:1049000010BD0420A04081B20248FCF7CFFB00BFDD
:10491000F6E70000001C02402DE9F04105460E4676
:104920001C4807681C480068001D00F0E7FE50B9ED
:104930001948006890F82C10012088401749096830
:10494000814316480160681C38B936B112480168C5
:10495000091D134800F024FF1AE07C190E48006876
:104960004460BC4207D20C480168091D0D4800682C
:1049700000F0FCFE0CE008480168091D0A480068C8
:1049800000F0F4FE09480068844201D20748046040
:10499000BDE8F081B40B0020A00B0020B80B002074
:1049A000241B0020A80B0020A40B0020D00B00200B
:1049B00010B5044600F000FF24480068401C23495D
:1049C00008602348006840B9214804600846006830
:1049D00001280DD100F0E0F90AE01E48006838B95E
:1049E0001B480068C06AE16A884201D81848046020
:1049F00019480068401C184908600846006860644F
:104A000094F82C1001208840144909680843134980
:104A10000860E16A01EB8101114A02EB8100211D6E
:104A200000F0BEFE00F0F2FE0A48006868B10848D7
:104A30000068C06AE16A884207D24FF08050094995
:104A40000860BFF34F8FBFF36F8F10BDB00B002016
:104A5000A00B0020BC0B0020CC0B0020B80B0020CA
:104A60005418002004ED00E010B500F0A5FE104839
:104A70000068D0B90F4800F069FE0F4800F066FEEC
:104A80000C480E4908600C480D49086000220C21B2
:104A90000A2001F0B1FA064908600846006820B112
:104AA00008A10348006800F057FF00F0AFFE10BDFA
:104AB000E40B0020381B00204C1B0020DC0B0020E6
:104AC000E00B0020546D72510000000070B523E02F
:104AD00001F08CF91348006808B9012000E00020BB
:104AE000054601F02BFFBDB900F066FE0D48C06819
:104AF000C468201D00F002FE0B480068401E0A49F1
:104B000008600A480068401E0849086000F07EFE00
:104B1000204600F060F800BF044800680028D7D1A4
:104B200070BD0000101B0020B00B0020AC0B00205B
:104B300070B504460D46206C70B1216CE0680844E5
:104B4000E0606168E068884201D32068E060284640
:104B5000226CE168FBF71DFC70BD2DE9F0410446B5
:104B60000F4615464FF00008A66B206C40B9206830
:104B700060BB606801F032FE80460020606025E086
:104B80007DB93946226CA068FBF703FC216CA06854
:104B90000844A060D4E90110884217D32068A060BF
:104BA00014E03946226CE068FBF7F3FB216CE06807
:104BB000401AE0602168E068884203D2216C606896
:104BC000401AE060022D01D106B1761E701CA06370
:104BD0004046BDE8F08110B50446206B00F034FE7D
:104BE000204600F031FE10BD0146084A12681268E6
:104BF0000AB9012200E000220A600A6822B9034AC9
:104C00001268D268106800E000207047DC0B0020BA
:104C100030B54FF40033174800F007042CB1C01D25
:104C200020F00700134C041B1B1B0246124C226091
:104C30000024114D6C60D018083820F007000F4C8C
:104C4000206000240D4D2D686C600C4D2D682C608B
:104C50001146441A4C60094C24680C60084D4C689D
:104C60002C60084D4C682C604FF00044064D2C60C1
:104C700030BD0000A01B0020F00B0020F80B00202E
:104C8000000C0020FC0B0020040C002000BFFFF7EC
:104C90001DFF064800680128F9D94FF080500449EB
:104CA0000860BFF34F8FBFF36F8FF0E754180020F9
:104CB00004ED00E02DE9F04106460D461746984602
:104CC000069C0DB9246000E02760E663256401219D
:104CD000204601F09FFA84F850800020A064BDE8CF
:104CE000F0812DE9F05F82460F4690469B460A9E72
:104CF0000C9C4FEA8801A522206BFBF7C1FBA8F1B1
:104D00000100216B01EB800929F0070909F0070078
:104D100008B9012000E0002050B900BF502080F306
:104D20001188BFF34F8FBFF36F8F00BF00BFFEE747
:104D3000002507E0795D04F134004155785D00B944
:104D400002E06D1C102DF5D300BF0021432001555A
:104D5000202E00D31F26E662E66400202065201D79
:104D600000F001FD04F1180000F0FDFC2461C6F123
:104D70002000A06164620020606584F858005A46F3
:104D80005146484600F098FB20600B9808B10B98FC
:104D90000460BDE8F09F000010B5002407E004EBBC
:104DA00084010F4A02EB810000F0D0FC641C202C2F
:104DB000F5D30C4800F0CAFC0B4800F0C7FC0B48C8
:104DC00000F0C4FC0A4800F0C1FC0A4800F0BEFC38
:104DD00004480949086004480849086010BD0000FB
:104DE00054180020D41A0020E81A0020FC1A0020D1
:104DF000101B0020241B0020A40B0020A80B002067
:104E000010B50146164800E0006803688B42FBD3EA
:104E10000246436813448B4204D143684C682344E0
:104E2000436001460A464B6813440468A34211D10B
:104E30000C4C03682468A34208D04B68046864687B
:104E400023444B6003681B680B6005E0054B1B683F
:104E50000B6001E003680B60884200D0016010BD68
:104E6000F00B0020F80B00202DE9F04104460D4620
:104E700016461F464FF0000865602461B5420CD805
:104E8000F01BA169884202D34FF0010811E0211DF7
:104E90000948006800F06AFC0BE0BE4204D2BD4243
:104EA00002D34FF0010804E0211D0448006800F01F
:104EB0005DFC4046BDE8F081E00B0020DC0B0020EB
:104EC00070B5054600F078FCA86B08B9012400E035
:104ED000002400F09BFC204670BD70B5054600F034
:104EE0006BFCA86BE96B884201D1012400E000242F
:104EF00000F08CFC204670BD2DE9F3410D46009872
:104F0000846C002754B900BF502080F31188BFF390
:104F10004F8FBFF36F8F00BF00BFFEE7A06BE16B49
:104F2000884201D2012000E0002050B900BF50208B
:104F300080F31188BFF34F8FBFF36F8F00BF00BFA7
:104F4000FEE7A06BE16B88421BD294F945602A46CC
:104F500069462046FFF701FE0746701C60B9606A8B
:104F600008B9012000E0002050B904F1240001F04C
:104F700099FC28B1012703E0701C40B284F8450079
:104F800000BF3846BDE8FC81F8B505460F46164817
:104F90000068C068C468201D00F0B0FBE06901280B
:104FA0001DD1A06941192B463A462046FFF75CFF08
:104FB000A8B1002003462A4601460090204601F091
:104FC00069FD064656B900BF502080F31188BFF333
:104FD0004F8FBFF36F8F00BF00BFFEE700BF2046BB
:104FE000616A8847F8BD0000DC0B002070B586B010
:104FF0006AE00398002867DB059C606908B9012016
:1050000000E0002010B9201D00F078FB02A800F09D
:10501000BDF8054603980A2854D2DFE800F00905D8
:105020000731334F0608323400BF00BF00BF00BF56
:105030000498A269811803462A462046FFF714FF08
:10504000E8B12046616A8847E069012817D100204D
:1050500000900498A169421800231946204601F0E7
:1050600019FD064656B900BF502080F31188BFF3E2
:105070004F8FBFF36F8F00BF00BFFEE700BF22E07E
:1050800000BF20E000BF0498A061A06908B1012022
:1050900000E0002050B900BF502080F31188BFF31A
:1050A0004F8FBFF36F8F00BF00BFFEE7A0694119AC
:1050B0002B462A462046FFF7D7FE04E0204600F0A4
:1050C000C3FB00E000BF00BF00231A4603A9044849
:1050D000006800F0BDFF00288BD106B070BD000055
:1050E000E40B0020F8B505460C4600F07FFE68464C
:1050F00000F04CF80646009820BB44B9B54206D8EB
:1051000001F01CFC31462846FFF73EFF1CE03CB195
:105110000E480068006808B9012000E0002004463D
:10512000A91B22460A48006800F02CFC01F006FC8E
:1051300050B94FF0805007490860BFF34F8FBFF35D
:105140006F8F01E001F0FAFBF8BD0000E00B0020DA
:10515000E40B002004ED00E00A490968096809B978
:10516000012100E0002121B14FF0FF31064A11601A
:1051700006E004490968C968C868034A41681160C3
:1051800070470000A40B0020D00B002070B504462F
:1051900001F07AFA054607480068854204D200F01B
:1051A0000BF80120206001E000202060014805602C
:1051B000284670BDEC0B00202DE9F84332E024486E
:1051C0000068C068056822480068C068C468201D7F
:1051D00000F094FA2046616A8847E069012821D1ED
:1051E000A0694619AE4207D966602461211D18489E
:1051F000006800F0BBFA15E0002003462A4601468D
:105200000090204601F046FC074657B900BF5020E9
:1052100080F31188BFF34F8FBFF36F8F00BF00BFC4
:10522000FEE700BF0A480068006808B9012000E0F6
:1052300000200028C3D00648D0F800800548006848
:10524000034908600348C0F80080BDE8F883000007
:10525000DC0B0020E00B00200246002101E0521C84
:10526000491C1078A528FAD0890888B27047000038
:105270000E480068401C08B9012000E0002050B929
:1052800000BF502080F31188BFF34F8FBFF36F8FA3
:1052900000BF00BFFEE700BF502080F31188BFF3BE
:1052A0004F8FBFF36F8F00BF00BFFEE7940B00204E
:1052B00008B500BF6846FFF797FC044620460099F2
:1052C000FFF710FFFFF792FEF4E770B5044600F019
:1052D00073FA94F945501AE0A06C38B100212046C9
:1052E000FFF70AFE88B100F085FC0EE0606A08B99D
:1052F000012000E0002038B904F1240001F0D2FAC6
:1053000018B100F077FC00E003E0681E45B2002D04
:10531000E2DC00BFFF2084F8450000F077FA00F0DF
:105320004BFA94F9445010E0206908B9012000E0DC
:10533000002048B904F1100001F0B4FA08B100F0FF
:1053400059FC681E45B200E001E0002DECDC00BF16
:10535000FF2084F8440000F059FA70BD2DE9F041B7
:1053600004464FF0000800F041FD4648006808B9C7
:10537000FFF74EFC44480068204000286BD1D4B1B0
:10538000083404F00700B0B104F00700C0F10800D1
:10539000044404F0070008B9012000E0002050B9DF
:1053A00000BF502080F31188BFF34F8FBFF36F8F82
:1053B00000BF00BFFEE7002C4DD034480068844297
:1053C00049D8334E3046056801E02E462D6868689E
:1053D000A04202D228680028F7D12A4800688542F6
:1053E00039D0306800F10808286830606868001B10
:1053F000102819D92F1907F0070008B9012000E07B
:10540000002050B900BF502080F31188BFF34F8FA8
:10541000BFF36F8F00BF00BFFEE76868001B7860B6
:105420006C603846FFF7ECFC184968680968081A90
:10543000164908600846006816490968884203D280
:1054400012480068134908600F49686809680843F2
:1054500068600020286001F071FA08F0070008B9C0
:10546000012000E0002050B900BF502080F31188D7
:10547000BFF34F8FBFF36F8F00BF00BFFEE7404603
:10548000BDE8F081F80B0020040C0020FC0B00208C
:10549000F00B0020000C00200648006830B10549E0
:1054A000096801F15000096D491C0160014800685C
:1054B00070470000A00B0020001F4FF080730360B6
:1054C000001F21F001030360001F054B0360143827
:1054D0000260001F6FF00203036020387047000075
:1054E0007152000810B524220249A1F12400FDF7F1
:1054F00033FA10BDCE0D00201CB505480121002354
:105500004A02CDE9001003A1054801F07DF81CBD59
:105510005400002073746172745F7461736B0000D7
:10552000255500081CB5044600F046F9174804212B
:105530000023CA01CDE9001015A1184801F064F854
:105540001748032100234FF40072CDE9001015A184
:10555000184801F059F8184804210023CA01CDE980
:10556000001016A1184801F04FF818480421002334
:10557000CA01CDE9001016A1174801F045F81748F7
:10558000006800F0BDFA00F041F91CBD4C0000209D
:1055900053746174655441534B000000E155000899
:1055A0005000002053757065724361705441534B35
:1055B000000000000956000848000020436861739D
:1055C0007369735461736B00214600084400002026
:1055D000494D555441534B00C14700085400002029
:1055E00008B5C82000F0F4F90BE001F04DF8009088
:1055F0000221684600F01AFA002000F093F80149F1
:105600000860F2E70000002008B5C82000F0E0F9CB
:1056100065E001F039F8009031490868804700EEF4
:10562000100AB8EEC00AF1EE000A20EE200ADFED03
:105630002D0A80EE201A2C4880ED001A284948686F
:10564000804700EE100AB8EEC00ADFED280A20EE0F
:10565000200ADFED240A80EE201A234880ED011A8B
:105660001F498868804700EE100AB8EEC00AF0EEC5
:10567000000A20EE200ADFED1B0A80EE201A1A48ED
:1056800080ED021A1A4890ED000AF2EE090AB4EE13
:10569000E00AF1EE10FA03D80120164908701AE06A
:1056A000114890ED030AF2EE0E0AB4EEE00AF1EEB4
:1056B00010FA0DD290ED020A0F48D0ED000AB4EEB8
:1056C000E00AF1EE10FA03DD00200A49087002E05A
:1056D0000220084908700221684600F0A7F998E7FF
:1056E000F409002000007A442C000020CDCCCC3DF1
:1056F000840D0020420000202800002001460A6995
:10570000D1E901309860D1E90103586050688842BE
:1057100001D188685060002008611068401E106048
:10572000106870472DE9F041044614B90648006836
:1057300000E0204607463D6B2846FFF78DFD0646F4
:105740003046BDE8F0810000A00B002000F1080108
:1057500041604FF0FF31816000F10801C1600161DB
:1057600000210160704700210161704710B50246B9
:105770000B685C1C0CB9106907E002F1080000E03E
:105780004068446824689C42FAD944684C604C687C
:10579000A160886041600A611468641C146010BDD7
:1057A00042684A6093688B609368596091600861B1
:1057B00003685B1C0360704700BF502080F31188B2
:1057C000BFF34F8FBFF36F8F00BF0E480068401CC0
:1057D0000C49086008460068012812D10A48006890
:1057E000C0B208B9012000E0002050B900BF50202D
:1057F00080F31188BFF34F8FBFF36F8F00BF00BFDF
:10580000FEE77047940B002004ED00E00D480068AF
:1058100050B900BF502080F31188BFF34F8FBFF302
:105820006F8F00BF00BFFEE706480068401E0549B5
:1058300008600846006820B9002080F3118800BF86
:1058400000BF7047940B002070B506463546002E09
:105850003FD0083D2C461F4960680968084008B1E0
:10586000012000E0002050B900BF502080F31188D3
:10587000BFF34F8FBFF36F8F00BF00BFFEE72068FD
:1058800008B9012000E0002050B900BF502080F38B
:105890001188BFF34F8FBFF36F8F00BF00BFFEE7CC
:1058A0000C4960680968084098B1206888B90949BE
:1058B000606809688843606000F098FA064960688B
:1058C00009680844044908602046FFF799FA01F086
:1058D00035F870BD040C0020FC0B00207047000060
:1058E00070B5FAF72BFD0446102C16D304F1E02016
:1058F00090F8F05315480078854201DB012000E064
:10590000002050B900BF502080F31188BFF34F8FA3
:10591000BFF36F8F00BF00BFFEE70D48006800F4C3
:10592000E0600C490968884201D8012000E00020AD
:1059300050B900BF502080F31188BFF34F8FBFF3E1
:105940006F8F00BF00BFFEE770BD0000980B002006
:105950000CED00E09C0B0020024600200BE0084B01
:1059600053F8303033B9064B43F8301003EBC00323
:105970005A6002E0401C0828F1D300BF70470000C5
:10598000601B00202DE9F04105460E4617462C46C7
:10599000FFF712FF94F94400401C10B9002084F86E
:1059A000440094F94500401C10B9002084F84500DB
:1059B000FFF72CFFA06B28B93A46314604F12400CA
:1059C00000F03AF92046FFF780FCBDE8F0810000C6
:1059D00070B504460025D4B11248006808B901200A
:1059E00000E0002050B900BF502080F31188BFF3C1
:1059F0004F8FBFF36F8F00BF00BFFEE700F0F6F9D7
:105A000000212046FEF788FF00F098FF05463DB9CB
:105A10004FF0805004490860BFF34F8FBFF36F8F82
:105A200070BD0000D80B002004ED00E02DE9F04728
:105A300004460F464FF0000954B900BF502080F3D0
:105A40001188BFF34F8FBFF36F8F00BF00BFFEE71A
:105A50000FB1012000E0002050B900BF502080F3BA
:105A60001188BFF34F8FBFF36F8F00BF00BFFEE7FA
:105A70002048006808B9012000E0002050B900BFAC
:105A8000502080F31188BFF34F8FBFF36F8F00BF9B
:105A900000BFFEE700F0AAF9174806682068C5199C
:105AA0002068B04207D92068A8420BD9B54209D96D
:105AB0004FF0010906E02068A84201D8B54201D99B
:105AC0004FF001092560B9F1000F03D0A81B002198
:105AD000FEF722FF00F032FF8046B8F1000F07D139
