:020000040800F2
:10000000E04B01204D0300085D330008BD230008CC
:1000100059330008210900082B5000080000000097
:100020000000000000000000000000008D02000839
:10003000E11E000800000000E90200080D49000868
:1000400071030008710300087103000871030008C0
:1000500071030008710300087103000871030008B0
:1000600071030008710300087103000871030008A0
:10007000911B000871030008710300087103000858
:100080007103000871030008710300087103000880
:10009000390A0008710300087103000871030008A1
:1000A0007103000871030008710300087103000860
:1000B0007103000871030008710300087103000850
:1000C0007103000871030008710300087103000840
:1000D00071030008CD4B000871030008B14C000803
:1000E0007103000871030008710300087103000820
:1000F0007103000871030008710300087103000810
:1001000071030008710300087103000871030008FF
:1001100071030008710300087103000871030008EF
:1001200071030008710300087103000871030008DF
:1001300071030008710300087103000871030008CF
:10014000990B00087103000871030008710300088F
:1001500071030008710300087103000871030008AF
:10016000710300087103000871030008710300089F
:10017000710300087103000871030008000000000B
:100180007103000871030008710300089D4A00080C
:10019000710300087103000871030008710300086F
:1001A00000000000000000007103000800F002F8E9
:1001B00000F05CF80AA090E8000C82448344AAF1A5
:1001C0000107DA4501D100F051F8AFF2090EBAE8A3
:1001D0000F0013F0010F18BFFB1A43F0010318477B
:1001E000C4A40000E4A400000A444FF0000C10F87E
:1001F000013B13F0070408BF10F8014B1D1108BFA5
:1002000010F8015B641E05D010F8016B641E01F844
:10021000016BF9D113F0080F1EBF10F8014BAD1C94
:100220000C1B09D16D1E58BF01F801CBFAD505E0B2
:1002300014F8016B01F8016B6D1EF9D59142D6D30C
:10024000704700000023002400250026103A28BF34
:1002500078C1FBD8520728BF30C148BF0B60704738
:100260001FB509F0A1FA1FBD10B510BD00F020FAAE
:100270001146FFF7F5FF06F027FC00F03EFA03B445
:10028000FFF7F2FF03BC00F0A3FA00002C4B196843
:100290000868B0E8F04F80F30988BFF36F8F4FF024
:1002A000000080F3118870470000000008480068D3
:1002B000006880F308884FF0000080F3148862B66D
:1002C00061B6BFF34F8FBFF36F8F00DF00BF00BF7A
:1002D00008ED00E0DFF80C00016841F470010160F6
:1002E000704700BF88ED00E0EFF30980BFF36F8F28
:1002F000134B1A681EF0100F08BF20ED108A20E97A
:10030000F04F106009B44FF0500080F31188BFF334
:100310004F8FBFF36F8F07F049FE4FF0000080F35F
:10032000118809BC19680868B0E8F04F1EF0100F7A
:1003300008BFB0EC108A80F30988BFF36F8F704755
:100340003C090020EFF30580704700000C4801686D
:1003500041F4700101600B4880470B480047FEE7FD
:10036000FEE7FEE7FEE7FEE7FEE7FEE7FEE7FEE765
:10037000FEE7000005480649044A064B70470000A6
:1003800088ED00E01D490008AD010008E0470120AC
:10039000E04B0120E04701209FED1A1AF5EE000A1C
:1003A00040EE010ABDEEE00AF5EEC00A10EE100ABA
:1003B000F1EE10FA38BF401E00EE100A1349F7EEB6
:1003C000001AB8EEC00A30EEC00ADFED0F0A20EEC8
:1003D000200AFCEEC00A10EE900AC0F3080000EEFE
:1003E000900A01EB8000F8EE600A90ED011A70EEC1
:1003F000600A90ED000A71EEE01A21EE800A00EE2C
:10040000810A704783F9223E00000044609D000885
:10041000DFED190AB5EEC00A60EE200ABDEEE01A63
:1004200011EE100AF1EE10FA38BF401E00EE100A6D
:100430001349F7EE001AB8EEC00A30EEC00ADFED3D
:100440000F0A60EE200ABCEEE00A10EE100AC0F3BC
:10045000080000EE100A01EB8000B8EE400A90EDB3
:10046000011A70EEC00A90ED000A71EEE01A21EE5A
:10047000800A00EE810A704783F9223E00000044A2
:10048000609D000810B5431C02E010F8011B71B11B
:100490008107FAD14FF0013202C88C1A8C4314EA5A
:1004A000C211F9D0C01A0A0603D0C01E10BDC01A6E
:1004B00010BD0A0401D0801E10BD0902FCD0401EF0
:1004C00010BD032A40F2308010F0030C00F01580BC
:1004D00011F8013BBCF1020F624498BF11F801CB47
:1004E00000F8013B38BF11F8013BA2F1040298BFAC
:1004F00000F801CB38BF00F8013B11F0030300F016
:100500002580083AC0F0088051F8043B083A51F8B9
:1005100004CBA0E80810F5E7121D5CBF51F8043BBE
:1005200040F8043BAFF30080D20724BF11F8013B31
:1005300011F801CB48BF11F8012B24BF00F8013B93
:1005400000F801CB48BF00F8012B704710B5203AE6
:10055000C0F00B80B1E81850203AA0E81850B1E87C
:100560001850A0E81850BFF4F5AF5FEA027C24BF32
:10057000B1E81850A0E8185044BF18C918C0BDE829
:1005800010405FEA827C24BF51F8043B40F8043BF2
:1005900008BF7047D20728BF31F8023B48BF11F8A7
:1005A000012B28BF20F8023B48BF00F8012B704701
:1005B00002F0FF0343EA032242EA024200F002B8DB
:1005C0004FF000020429C0F0128010F0030C00F07C
:1005D0001B80CCF1040CBCF1020F18BF00F8012BFA
:1005E000A8BF20F8022BA1EB0C0100F00DB85FEAC8
:1005F000C17C24BF00F8012B00F8012B48BF00F894
:10060000012B70474FF0000200B513469446964602
:10061000203922BFA0E80C50A0E80C50B1F1200115
:10062000BFF4F7AF090728BFA0E80C5048BF0CC0C3
:100630005DF804EB890028BF40F8042B08BF704721
:1006400048BF20F8022B11F0804F18BF00F8012B93
:10065000704770477047704710B500F009F80068A0
:1006600010BD10B5044600F003F8046010BD000092
:10067000004870477C4701201FB584B000200A9CC9
:1006800006AB04AA02A90094AFF3008018B1DDE91B
:10069000020108B010BD0348204000F037F80020E8
:1006A0000146F6E70000207C004870477C470120A7
:1006B0007546FFF7F9FFAE4605006946534620F040
:1006C0000700854618B020B5FFF754FEBDE820406E
:1006D0004FF000064FF000074FF000084FF0000BFE
:1006E00021F00701AC46ACE8C009ACE8C009ACE8B1
:1006F000C009ACE8C0098D46704710B50446AFF399
:1007000000802046BDE81040FFF7B9BD10B500F0ED
:1007100009F8BDE81040AFF30080002801D000F0D8
:1007200057B8704710B5022803D0410103D50DA179
:1007300012E0002010BD010101D50FA10CE0C100A5
:1007400001D511A108E0810001D512A104E040000B
:1007500001D513A100E0002115A000F03FF8012011
:1007600010BD0000496E76616C6964204F7065723F
:100770006174696F6E0000004469766964652042A7
:1007800079205A65726F00004F766572666C6F77DC
:1007900000000000556E646572666C6F77000000A3
:1007A000496E657861637420526573756C740000DE
:1007B0005349474650453A2041726974686D6574E3
:1007C000696320657863657074696F6E3A20000014
:1007D00001491820ABBEFEE72600020070B50546B1
:1007E0000C460A2000E06D1C00F011F835B12878A5
:1007F0000028F8D102E0641C00F009F814B1207858
:100800000028F8D1BDE870400A20AFF3008008B599
:1008100069468DF800000320ABBE08BD704700009C
:1008200010B52DED048BF0EE408AB0EE608A9FED9E
:10083000160AC0EE080AB0EE608AB5EEC08AF1EE84
:1008400010FA04D1B7EE000ABDEC048B10BDF0EE37
:10085000000A80EE880A38EEC00AF1EE480A20EE5F
:10086000200AF0EE409AF0EE690A9FED080A04F0C3
:100870002BFCF7EE000A30EE200AF7EE000A80EEBD
:10088000809AB0EE490ADFE76666864054F82D404C
:1008900070B505460C4600260DB1022C00D870BD7F
:1008A000A11E06480288284601F058FD0646A01EF3
:1008B0002E54310A601E295400BFF0E73E0100208B
:1008C00070B505460C4600260DB1022C00DC70BD4B
:1008D000601E81B2FF22284601F05AFD0646601EC6
:1008E0002E5400BFF3E710B506F0BEF801F068FD26
:1008F00006F0D0FE03F004FC00F014F800F0C8F895
:100900004FF4E13007F008F84FF4E13006F0A6FFAD
:1009100003F00AFD302003F0C1FD02F09DFC10BD84
:1009200000BFFEE700B58BB00121082003F052F8AC
:100930000121480603F05EF80121480603F06AF839
:1009400000214FF0007003F065F8032009900220A9
:100950008DF8280000208DF82A0003208DF829004A
:1009600001208DF82B0009A9314801F089FC0922EA
:1009700000212F4801F0CCFC092201212C4801F074
:10098000C7FC00208DF81E0001208DF81F000020FC
:100990008DF8200001208DF8210000208DF8220024
:1009A0008DF823008DF81A008DF81B0008208DF8B3
:1009B0001C0004208DF81D000320ADF8180006A9C6
:1009C0001C4800F096F900208DF812008DF81300F5
:1009D00001208DF814000020ADF80800ADF80A00E1
:1009E000ADF80C00ADF80E00ADF8100001208DF848
:1009F000150002A800F0F0F8012202210D4800F0D5
:100A00006FF9012211460B4800F06AF914208DF8A5
:100A1000040003208DF8050000208DF80600012059
:100A20008DF8070001A802F09BFC0BB000BD000090
:100A3000000C02400064004010B5104A002110482C
:100A400000F0E1F90F4A0D490D4805F0B1FF0D4ADC
:100A5000B4320A490A4805F0ABFF0B4A0749084877
:100A600005F0A6FF084AB4320449054805F0A0FF86
:100A70000649034800F03FFA10BD0000BC09002001
:100A800000640040140400207C0500208001002048
:100A900000B58BB00121022002F09CFF01218806E5
:100AA00002F0A8FF0121880602F0B4FF00214FF0F8
:100AB000806002F0AFFF4FF44050099002208DF8A3
:100AC000280000208DF82A0003208DF8290001203D
:100AD0008DF82B0009A92E4801F0D2FB09220C2128
:100AE0002B4801F015FC09220D21294801F010FCCA
:100AF00000208DF81E0001208DF81F0000208DF8C9
:100B000020008DF821008DF822008DF823008DF84B
:100B10001A008DF81B0008208DF81C0004208DF8A9
:100B20001D000320ADF8180006A91A4800F0E1F8EE
:100B30000E208DF8120000208DF8130001208DF892
:100B400014000020ADF80800ADF80A00ADF80C0064
:100B5000ADF80E00ADF8100001208DF8150002A8C8
:100B600000F03AF8012202210A4800F0B9F84020CA
:100B70008DF8040003208DF8050001208DF8060093
:100B80008DF8070001A802F0EBFB0BB000BD0000E0
:100B9000000402400068004010B50A4A00210A48DB
:100BA00000F031F9094A0749074805F001FF084AF2
:100BB0000449054805F0BCFE0649034800F09BF9CE
:100BC00010BD0000D009002000680040E4060020AD
:100BD000C80000204802002010B50021837A0122BD
:100BE00002FA03F13D4A126842F001023B4B1A60DF
:100BF0003A4A1C3212688A43384B1C331A60027B13
:100C0000CAB9364A0C3212688A43344B0C331A6024
:100C10004288C38842EA0343304A4032847A42F829
:100C200034300288838842EA03432C4A4032847A73
:100C300002EBC4025360027B012A19D1274A0C320D
:100C400012680A43254B0C331A604288038842EA33
:100C50000343224A4032847A42F83430C28883887F
:100C600042EA03431D4A4032847A02EBC4025360D5
:100C7000C27A3AB9194A121D12688A43174B1B1DD2
:100C80001A6006E0154A121D12680A43134B1B1D19
:100C90001A60028932B9114A143212688A430F4B22
:100CA00014331A600289012A06D10C4A14321268E0
:100CB0000A430A4B14331A60427B012A06D1074AC1
:100CC0001C3212680A43054B1C331A60034A12682F
:100CD00022F00102014B1A6010BD000000660040C6
:100CE0001AB143690B43436102E043698B4343619B
:100CF000704730B5024600200023146824F0020437
:100D00001460146844F00104146000E05B1C546833
:100D100004F001041CB94FF6FF74A342F6D15468E5
:100D200004F001040CB900206CE08C79012C04D192
:100D3000146844F08004146003E0146824F0800414
:100D40001460CC79012C04D1146844F04004146080
:100D500003E0146824F0400414600C7A012C04D1E0
:100D6000146844F02004146003E0146824F02004A4
:100D700014604C7A012C04D1146844F010041460FF
:100D800003E0146824F0100414608C7A012C04D160
:100D9000146844F00804146003E0146824F00804A4
:100DA0001460CC7A012C04D1146844F0040414605B
:100DB00003E0146824F0040414608C78A407CD7850
:100DC00044EA05640D7944EA05444D7944EA055442
:100DD0000D886D1E2C43D461146824F00104146046
:100DE000002300E05B1C546804F001041CB14FF6C2
:100DF000FF74A342F6D1546804F001040CB1002042
:100E000000E0012030BD10B500F5D87303EB0113ED
:100E10001B6803F004031372137A53B900F5D873F7
:100E200003EB01131B6840F2FF7404EA5353136091
:100E300009E000F5D87303EB01131B686FF0604401
:100E400004EAD303536000F5D87303EB01131B6866
:100E500003F00203537200F5D87303EB01135B68D0
:100E600003F00F03937200F5D87303EB01135B6873
:100E70001B0AD37400F5D87303EB01139B68D3727C
:100E800000F5D87303EB01139B681C0A147300F57B
:100E9000D87303EB01139B681C0C547300F5D873D3
:100EA00003EB01139B681B0E937300F5D87303EBE0
:100EB0000113DB68D37300F5D87303EB0113DB6810
:100EC0001C0A147400F5D87303EB0113DB681C0CC7
:100ED000547400F5D87303EB0113DB681B0E937495
:100EE00021B9C36843F02003C36003E0036943F002
:100EF0002003036110BD10B502460020936803F083
:100F00008063B3F1806F00D110E0936803F0006359
:100F1000B3F1006F01D1012008E0936803F0805322
:100F2000B3F1805F01D1022000E00420042874D0D6
:100F300002F5C07303EB00131B6803F0010402F514
:100F4000C07303EB00131C600B7A7BB94B7A0C88DF
:100F500043EA445302F5C07404EB001424682343AD
:100F600002F5C07404EB0014236010E00B7A4C68A7
:100F700043EAC4034C7A234302F5C07404EB001423
:100F80002468234302F5C07404EB001423608B7AB9
:100F900003F00F038B7202F5C07303EB00135B6861
:100FA00023F00F0402F5C07303EB00135C6002F53D
:100FB000C07303EB00135B688C7A234302F5C074A3
:100FC00004EB001463608B7B1C064B7B44EA0344F8
:100FD0000B7B44EA0323CC7A234302F5C07404EB71
:100FE0000014A3608B7C1C064B7C44EA03440B7CFE
:100FF00044EA0323CC7B234302F5C07404EB0014C2
:10100000E36002F5C07303EB00131B6843F00104B7
:1010100002F5C07303EB00131C6010BD10B51C4A31
:10102000526A02F110001A4A526A516D8847184AF2
:10103000926A02F11000164A926A516D8847144A6A
:10104000D26A02F11000124AD26A516D8847104AE2
:10105000126B02F110000E4A126B516D88470C4A58
:10106000526B02F110000A4A526B516D8847084AD0
:10107000526B02F15C00064A526B516D88470020AA
:1010800003E0002203490A54401C0828F9DB10BD84
:10109000C80000208B01002000B587B0002003901D
:1010A00004900590069001900290A049081D00F060
:1010B00025FB9E480C3890ED040AD0ED030A30EE73
:1010C000200AD0ED050A9FED9A1A01EE200ADFED05
:1010D000990A20EE200A8DED030A90ED040AD0ED66
:1010E000030A30EE600AD0ED050A9FED911A01EE79
:1010F000200ADFED900A20EE200A8DED040A90ED23
:10110000040AB1EE400AD0ED030A30EE200AD0ED19
:10111000050A9FED871A01EE200ADFED860A20EE10
:10112000200A8DED050A90ED040AB1EE400AD0EDDB
:10113000030A30EE600AD0ED050A9FED7D1A01EE3C
:10114000200ADFED7C0A20EE200A8DED060A03A8B6
:1011500000F0FAF89DED031A744A0C3A526AB2F99B
:101160000A2000EE902AF8EEE00A71EE600AB0EE76
:10117000600A6E4A0C3A526A02F110006B4A0C3A4D
:10118000526A916D8847BDEEC00A10EE100A00B297
:10119000ADF804009DED041A644A0C3AD26AB2F923
:1011A0000A2000EE902AF8EEE00A71EE600AB0EE36
:1011B000600A5E4A0C3AD26A02F110005B4A0C3AAD
:1011C000D26A916D8847BDEEC00A10EE100A00B2D7
:1011D000ADF806009DED051A544A0C3A926AB2F930
:1011E0000A2000EE902AF8EEE00A71EE600AB0EEF6
:1011F000600A4E4A0C3A926A02F110004B4A0C3ACD
:10120000926A916D8847BDEEC00A10EE100A00B2D6
:10121000ADF808009DED061A444A0C3A126BB2F97B
:101220000A2000EE902AF8EEE00A71EE600AB0EEB5
:10123000600A3E4A0C3A126B02F110003B4A0C3A2B
:10124000126B916D8847BDEEC00A10EE100A00B215
:10125000ADF80A00BDF80400C0F307213648006865
:10126000A0F20120354A52F8202035488154BDF8BB
:101270000400C1B230480068A0F20120314A52F89F
:1012800020202F488154BDF80600C0F307212A48CA
:10129000D0F8B400A0F20120284A52F820202848B3
:1012A0008154BDF80600C1B22348D0F8B400A0F2C2
:1012B0000120244A52F8202021488154BDF808001A
:1012C000C0F307211C48D0F86801A0F201201B4A96
:1012D00052F820201A488154BDF80800C1B21648BF
:1012E000D0F86801A0F20120164A52F820201448D4
:1012F0008154BDF80A00C0F307210F48D0F81C0242
:10130000A0F201200D4A52F820200D488154BDF86A
:101310000A00C1B20848D0F81C02A0F20120094A14
:1013200052F820200648815407B000BDD4000020A8
:10133000000000428988083E14040020400100207B
:101340008B0100206001002010B52DED028B0446BA
:101350009FED590AB0EE408A94ED000AB5EEC00A3E
:10136000F1EE10FA02DD94ED000A03E094ED000ABC
:10137000B1EE400AD4ED010AF5EEC00AF1EE10FA22
:1013800002DDD4ED010A03E0D4ED010AF1EE600ABA
:1013900070EE200A94ED020AB5EEC00AF1EE10FAE2
:1013A00002DD94ED020A03E094ED020AB1EE400A78
:1013B00070EE800A94ED030AB5EEC00AF1EE10FA61
:1013C00002DD94ED030A03E094ED030AB1EE400A56
:1013D00070EE808A39480078E8B33948008900EE19
:1013E000100AB8EE400ADFED370A80EE201AB0EEA0
:1013F000418AB5EEC08AF1EE10FA04D89FED2E0AAC
:10140000B0EE408A0AE0B7EE000AB4EEC08AF1EE10
:1014100010FA03DBB7EE000AB0EE408A28480089D4
:1014200000EE100AB8EE400ADFED260AB4EEE00A3C
:10143000F1EE10FA3CD201F0F3FD28B1B0EE480A0B
:1014400004F0B1F9B0EE408A1D48008900EE100AA0
:10145000B8EE400A00E01AE0F3EE020AB4EEE00A49
:10146000F1EE10FA03D228EE080AB0EE408A00200E
:101470000AE004EB800191ED000A20EE080A04EB7B
:10148000800181ED000A401C0428F2DB10E00020FE
:101490000CE004EB800191ED000ADFED0B0A20EE79
:1014A000200A04EB800181ED000A401C0428F0DBD7
:1014B000BDEC028B10BD0000000000001B160020D8
:1014C00036160020000070429A99193F10B5044664
:1014D00007F084F996382168884206D20C480078D3
:1014E00030B901200A49087002E00020084908705C
:1014F00007F074F9963807490968884203D2012039
:101500000549087002E000200349087010BD000082
:10151000C8000020000100200401002010B504468E
:10152000227802EBC202224B03EB8201214A526A6B
:1015300002F1100002F0ACF9227802EBC2021C4B5F
:1015400003EB82011B4A926A02F1100002F0A0F93B
:10155000227802EBC202164B03EB8201154AD26AD3
:1015600002F1100002F094F9227802EBC202104B53
:1015700003EB82010F4A126B02F1100002F088F9AE
:101580000C49496B01F110000B4902F081F909493E
:10159000496B01F15C000849243102F079F9F3EE5E
:1015A000040AB7EE000A054801F0EEFC10BD000089
:1015B00014000020C8000020800000208C090020BA
:1015C0002DE9FF5F054616461F46DDF84CB0DDE904
:1015D000108ADDF838902C46002004E00199095C5F
:1015E0002154411CC8B20328F8DB14F8030F66F33A
:1015F00002002070207820F03800383020702088D9
:1016000067F389102080607869F385006070B4F812
:1016100001100F9860F38E11A4F80110608868F330
:10162000CF106080A0886AF30900A080B4F805108C
:10163000129860F38C01A4F80510E0886BF34F104A
:10164000E08020896FF3090020810021B4F80900AF
:1016500061F38C00A4F80900608961F34F10608188
:10166000E41E1322064905F10F00FEF72AFF424649
:1016700005F10F001499FEF724FFBDE8FF9F00005D
:10168000C908002008B51448FFF748FF23E007F019
:10169000A5F800901148FFF719FF0F48007820B116
:1016A000012805D0022810D109E0FFF7B7FC0DE0B2
:1016B0000220094908700846FFF730FF06E0064897
:1016C00001F094FEFFF7E8FC00E000BF00BF02213C
:1016D000684606F0E7FADAE7C800002010000020AC
:1016E00010B54FF4407001F077FE4FF47A7004F0BB
:1016F00091FFFFF7F8F800F0A7FD10BD70B52DEDD4
:10170000068B04460D46D4ED000AB0EE600AF0EEFA
:10171000000A03F0D9FCB0EE40AAD5ED000AB0EE05
:10172000600AF0EE000A03F0CFFC3AEE000A10EE79
:10173000106A304607F082FF41EC190BB0EE490AFF
:10174000F0EE690A03F0F2FFB0EE408AF0EE608A34
:1017500051EC180B07F08CFA8A490860084690EDA6
:10176000000AB5EEC00AF1EE10FA02DD90ED000AB3
:1017700004E0844890ED000AB1EE400A8248D0EDC2
:10178000000AF5EEC00AF1EE10FA02DDD0ED000A13
:1017900004E07D48D0ED000AF1EE600A30EE600A08
:1017A000DFED7A0AB4EEE00AF1EE10FA0BDD01206B
:1017B000774908700020774908709FED770A7748CD
:1017C00080ED000A33E06F4890ED000AB5EEC00AE4
:1017D000F1EE10FA02DD90ED000A04E0694890EDA8
:1017E000000AB1EE400A6848D0ED000AF5EEC00AE2
:1017F000F1EE10FA02DDD0ED000A04E06248D0ED0F
:10180000000AF1EE600A30EE600ADFED650AB4EE20
:10181000E00AF1EE10FA0AD200205D4908700120BA
:101820005C4908709FED5C0A5C4880ED000A5848EE
:101830000078012820D1594890ED000ADFED590ABF
:1018400030EE200A80ED000A5748D0ED000A5348D8
:1018500090ED000AFEF7E4FF544880ED000A90ED99
:10186000000ADFED530AB4EEE00AF1EE10FA11DDE2
:101870000020474908700DE046480078012809D04B
:10188000B7EE000A494880ED000A9FED430A43483D
:1018900080ED000A3F480078012820D13F4890EDB4
:1018A000000ADFED400A30EE200A80ED000A4148D0
:1018B000D0ED000A394890ED000A00F013FB3B48D8
:1018C00080ED000A90ED000ADFED3B0AB4EEE00A7D
:1018D000F1EE10FA11D200202E4908700DE02C48CC
:1018E0000078012809D0B7EE000A304880ED000AE0
:1018F0009FED290A294880ED000A25480078012833
:1019000011D195ED000A2948D0ED000A20EE200AF9
:1019100085ED000A94ED000AD0ED000A20EE200AC1
:1019200084ED000A17E01B480078012813D12348F2
:1019300090ED000A1D48D0ED000A20EE200A85ED4A
:10194000000A1F4890ED000A1848D0ED000A20EE6A
:10195000200A84ED000A0F480078012809D095ED8F
:10196000000A164880ED000A94ED000A144880ED44
:10197000000A044890ED000A034880ED000ABDEC1F
:10198000068B70BD140100201801002000007A446D
:101990001C0100201D01002000000000200100208B
:1019A00000007AC46F12833B28010020240100202C
:1019B00077BE7F3F2C0100200AD7233C3001002056
:1019C0003401002010B5A5201E4908706F20A1F831
:1019D00001000020C8701C480A6802600979017182
:1019E0000521FEF76DFF40F201301649A1F8050010
:1019F0004FF48270A1F80700144801781148A0F84C
:101A000009101248007840F480710E48A0F80B10BD
:101A100000F09AFA0B48B0F80100821C0949491DF0
:101A20000948401DFEF74DFD78210748FEF730FFBD
:101A3000002404E00449085D03F084F8641C782C59
:101A4000F8D310BD5C170020941600201B16002050
:101A500010B523480078062802DB002020490870D2
:101A6000A520204908703320A1F801000020C8708B
:101A70001D480A680260097901710521FEF720FFFF
:101A800040F201301749A1F805004FF48870A1F821
:101A90000700164801781348A0F809101348007889
:101AA00040F480710F48A0F80B1000F07DFA0D484B
:101AB000B0F80100821C0B49491D0B48401DFEF780
:101AC00000FD3C210848FEF7E3FE002404E006493F
:101AD000085D03F037F8641C3C2CF8D310BD0000FF
:101AE000D807002058160020941600201B1600204E
:101AF00010B5A520214908701520A1F8010000208B
:101B0000C8701F480A680260097901710521FEF753
:101B1000D7FE40F201301949A1F8050040F201104A
:101B2000A1F80700174801781448A0F809101548D3
:101B3000007840F480711148A0F80B10124800683A
:101B4000124991ED000A05F039FE0C48B0F8010089
:101B5000821C0A49491D0A48401DFEF7B2FC1E219D
:101B60000748FEF795FE002404E00549085D02F0F1
:101B7000E9FF641C1E2CF8D310BD00002C1A0020B5
:101B8000941600201B160020D4070020C807002050
:101B900010B50949094800F025F9012807D10021AD
:101BA000064800F041F80621044800F097F9024980
:101BB000024800F01FF810BD0088001028600240A5
:101BC0000246094B9A4201D2084801E00648103803
:101BD00001F000531BB1064B0B40C36002E0044B05
:101BE0000B408360704700001064024000600240B8
:101BF0007D0F7D0F0246094B9A4201D2084801E051
:101C00000648103801F000531BB1064B0B40C3606F
:101C100002E0044B0B4083607047000010640240F8
:101C2000006002407D0F7D0F21B1026842F0010289
:101C3000026003E0026822F00102026070470000C7
:101C4000016821F0010101600021016041608160B3
:101C5000C1600161212141614A49884204D13D218D
:101C6000484A103A91608CE046491831884205D1C3
:101C70004FF47461434A103A916082E04149303137
:101C8000884205D14FF474113E4A103A916078E0D1
:101C90003C494831884205D14FF07461394A103AC5
:101CA00091606EE037496031884204D13649354A47
:101CB000103AD16065E033497831884204D1334924
:101CC000304A103AD1605CE02E499031884204D10C
:101CD0002F492C4A103AD16053E02A49A831884252
:101CE00005D14FF03D51274A103AD16049E02949CA
:101CF000884204D13D21274A083A116041E0254934
:101D00001831884205D14FF47461224A083A1160B3
:101D100037E020493031884205D14FF474111D4A13
:101D2000083A11602DE01B494831884205D14FF037
:101D30007461184A083A116023E0164960318842FC
:101D400004D11149134A121F11601AE01149783168
:101D5000884204D10D490F4A121F116011E00D494C
:101D60009031884204D10A490A4A121F116008E0E2
:101D70000849A831884204D14FF03D51054A121F4D
:101D800011607047106002403D000020400F0020AD
:101D900000003D201064024021B1026842F480221C
:101DA000026003E0026822F480220260704722B1E0
:101DB000036843F40023036003E0036823F4002373
:101DC0000360016170470146486880B27047014670
:101DD00000200A6802F400220AB1012000E000207D
:101DE0007047000070B50246002000240025124E06
:101DF000B24201D2114B01E00F4B103B104E0E408E
:101E000036B11E2606EAD124166806EA040502E069
:101E1000566906F0800501F000560EB15C6800E0DE
:101E20001C68084E344004EA010616B10DB10120C9
:101E300000E0002070BD000010640240006002401D
:101E40003C0F3C0F7D0F7D0F10B501F080034BB1AF
:101E500022B1436943F08003436103E0436923F007
:101E60008003436180290BD02AB1036801F01E046E
:101E70002343036004E0036801F01E04A3430360EE
:101E800010BD000010B500220268134B1A40CC6848
:101E90000B6823434C6923438C692343CC69234358
:101EA0000C6A23434C6A23438C6A23434C6B2343C1
:101EB0008C6B23431A430260426922F00702D1E986
:101EC0000B3423431A4342610B6943604B688360C0
:101ED0008B68C36010BD00003F801CF041607047FC
:101EE0007047000010B52DED048BF0EE408AB0EE87
:101EF000608AB5EEC08AF1EE10FA04D1B7EE000A9E
:101F0000BDEC048B10BDF0EE080A80EE880AF1EEFD
:101F1000680A30EE200AF1EE480A20EE200AF0EEC0
:101F2000409AF0EE690A9FED070A03F0CDF8F7EE4C
:101F3000000A30EE200AF7EE000A80EE809AB0EE3A
:101F4000490ADDE754F82D4010B51448007804F034
:101F5000ABFC1348007805F0EDFB01F061F8044696
:101F600004F05CFC0F49C97909B1012100E00021AE
:101F7000084604F0A9FA0B49097A09B1012100E0E9
:101F80000021084604F000FB0649497A09B1012105
:101F900000E00021084605F087FB10BDC4070020C3
:101FA000C50700204816002010B588B061480078A9
:101FB000D8B96148FEF766FA04465F484FF4587195
:101FC0001E220223CDE90332CDE905100F200121A5
:101FD00000230A46CDE90104009158A15848FFF7B3
:101FE000EFFA012053490870A1E052480078012817
:101FF0001BD15448FEF746FA0446524840F22A31B3
:102000001E220223CDE90332CDE905100F20012164
:1020100000230A46CDE9010400914BA14848FFF78F
:10202000CFFA02204349087081E042480078022834
:102030001BD14648FEF726FA044644484FF43D714A
:102040001E220223CDE90332CDE905100F20012124
:1020500000230A46CDE9010400913DA13848FFF76D
:10206000AFFA03203349087061E032480078032852
:102070001CD13848FEF706FA044636484FF458712A
:102080004FF4E1620223CDE90332CDE905100F20C0
:10209000012100230A46CDE9010400912EA1284820
:1020A000FFF78EFA04202349087040E021480078A9
:1020B00004281CD12948FEF7E5F90446274840F2D8
:1020C0002A314FF4E1620223CDE90332CDE9051054
:1020D0000F20012100230A46CDE90104009120A12F
:1020E0001748FFF76DFA0520124908701FE01148E4
:1020F000007805281BD11B48FEF7C4F9044619488F
:102100004FF43D714FF4E1620223CDE90332CDE992
:1021100005100F20012100230A46CDE9010400919A
:1021200011A10748FFF74CFA06200249087008B0D1
:1021300010BD0000D8070020D9070020434C310013
:1021400065160020F7070020434C320015080020D8
:10215000434C330033080020434C35005108002025
:10216000434C36006F080020434C37002DE9F04FF8
:10217000DDE90F9E09AC94E8F010DDF838804FF0EF
:10218000000A07E011F80AB000F80AB00AF1010BE2
:102190000BF0FF0ABAF1030FF4DB90F803A062F32F
:1021A000020A80F803A090F803A063F3C50A80F840
:1021B00003A0B0F803A064F3891AA0F803A090F874
:1021C00004A065F3850A80F804A0B0F804A066F3C3
:1021D0008E1AA0F804A0B0F805A067F3CF1AA0F8F3
:1021E00005A0B0F807A06CF3090AA0F807A0B0F8A2
:1021F00008A068F38C0AA0F808A0B0F809A069F359
:102200004F1AA0F809A0B0F80BA06EF3090AA0F8C5
:102210000BA0B0F80CB0DDF844A06AF38C0BA0F86A
:102220000CB0B0F80DB0DDF848A06AF34F1BA0F871
:102230000DB0BDE8F08F01794279914203D00021C1
:1022400001804179017170471CB5064801210023C6
:102250008022CDE9001004A1084806F07FFA05F0BD
:1022600053FE1CBD0000002053797374656D5F53ED
:10227000746172745F5461736B00000085490008DB
:10228000F0B50A4600210023002400BF3DE00125EF
:1022900005FA01F3156805EA03049C4234D1056888
:1022A0004F000326BE40B543056015794E00B5408A
:1022B0000668354305601579012D02D01579022D88
:1022C00016D185684F000326BE40B5438560557919
:1022D0004E00B540866835438560456801268E40CE
:1022E000B5434560456896798E40B6B23543456042
:1022F000C5684F000326BE40B543C560D5794E0082
:10230000B540C6683543C560491C1029BFD3F0BD30
:10231000F0B5002300244D07ED0E02FA05F3CE10B0
:1023200000F1200555F826504E07F70E0F26BE4047
:10233000B543CF1000F1200646F82750CE1000F12B
:10234000200555F8265045EA0304CE1000F120057B
:1023500045F82640F0BD01837047000030B50346C4
:1023600013B94FF6FF7030BD09E013F8014B82EA54
:102370000400C0B2054D35F8100080EA2222081E84
:10238000A1F10101F1D11046EDE700004A9B0008E0
:1023900030B5034605E013F8010B80EA0204044857
:1023A000025D081EA1F10105A9B2F4D1104630BDAD
:1023B000499A00084FF08040406A704700BFFEE72E
:1023C0001CB50121202001F005FB03200090012015
:1023D0008DF8040000208DF8060003208DF805001C
:1023E00001208DF8070069460448FFF749FF0120E6
:1023F000034908600349C1F880021CBD0014024073
:10240000848242420080424200B52DED108B93B091
:10241000FE4890ED000AD0ED000A20EE200A8DED76
:10242000080A90ED000AFA48D0ED000A20EE200AD2
:10243000B0EE40FAF54890ED000AF648D0ED000AFB
:1024400020EE200AF0EE40AAF04890ED000AF24893
:10245000D0ED000A20EE200A8DED070AEC4890ED41
:10246000000AD0ED000A20EE200AF0EE40FA90EDCE
:10247000000AE848D0ED000A20EE200A8DED060A99
:10248000E34890ED000AE448D0ED000A20EE200A6F
:10249000B0EE40BADF4890ED000AD0ED000A20EE21
:1024A000200AF0EE40BA90ED000ADB48D0ED000AB9
:1024B00020EE200A8DED050A90ED000AD0ED000A0D
:1024C00020EE200A8DED040AD44890ED030ADFEDDA
:1024D000D40A20EE200ADFEDD30A80EE201AD2487B
:1024E00080ED001ACD4890ED040ADFEDCD0A20EE14
:1024F000200ADFEDCC0A80EE201ACC4880ED001ACD
:10250000C64890ED050ADFEDC60A20EE200ADFED91
:10251000C50A80EE201AC64880ED001ABF4890ED2B
:10252000000AC44880ED000ABC4890ED010AC24888
:1025300080ED000AB94890ED020AC04880ED000A1B
:10254000B64890ED060ABE4880ED000AB34890ED0B
:10255000070ABC4880ED000AB04890ED080ABA4866
:1025600080ED000AFFF726FFB849086008460068BA
:10257000B749096888420CD3B4480068B44909686F
:10258000401A00EE100AB8EE400ADFEDB20AC0EEC3
:10259000208AAE480068AE490860A648D0ED000A1F
:1025A00090ED001A60EE810AA34890ED001AD0ED7C
:1025B000001A41EE210AA14890ED001AD0ED001A50
:1025C00041EE210AB0EE600A04F060FAB0EE408AF3
:1025D000984890ED000A20EE080A80ED000A96481F
:1025E00090ED000A20EE080A80ED000A934890ED75
:1025F000000A20EE080A80ED000A9148D0ED000A9A
:1026000090ED001A60EE810A8E4890ED001AD0ED30
:10261000001A41EE210A8C4890ED001AD0ED001A04
:1026200041EE210AB0EE600A04F030FAB0EE408AC2
:10263000834890ED000A20EE080A80ED000A8148E8
:1026400090ED000A20EE080A80ED000A7E4890ED29
:10265000000A20EE080A80ED000A794890ED000A91
:10266000F0EE000A60EE200AB6EE000A30EE6B1AB9
:102670009DED040A31EE400A20EE800A7148D0ED4B
:10268000000AB0EE001A60EE811ADDED060A9DED3B
:10269000071A70EEC10A01EEA00A6B48D0ED000ADD
:1026A000B0EE001A60EE810A3BEE2A1A00EE810AB3
:1026B0008DED110A624890ED000AF0EE000A20EE5E
:1026C000201A9DED060ADDED070A30EE200A21EE04
:1026D000000A5C48D0ED000AB0EE001A20EE811A24
:1026E000F6EE000A70EEEF1ADDED040A71EEE00A74
:1026F00001EE200A5448D0ED000AB0EE001A20EE98
:10270000811ADDED050A70EECF0A01EE200A8DED8B
:10271000100A4B4890ED000AF0EE000A20EE200A65
:102720007BEE6A0A60EE200A464890ED000AB0EEA1
:10273000001A20EE011A9DED050A70EE0F1AB0EE98
:10274000600A01EE210A4048D0ED000AB0EE001AFE
:1027500060EE810AB6EE001A31EE6F1A31EE6B1A96
:10276000B0EE409A00EE819A9DED110A60EE000AEB
:102770009DED100A40EE000A10EE901A084606F091
:102780005DFFCDE900019DED000B02F0CFFF8DED67
:10279000020B9DED020B51EC100B06F069FA09EEED
:1027A000900AB0EE49AA3BEE6A0AF0EE000A20EE6B
:1027B000200A8DED0F0A9DED050A3FEE000AF0EEAE
:1027C000000A20EE200A8DED0E0A9DED080A30EE7B
:1027D0006F0A70EE6B0A9DED040A30EE800A8DEDF3
:1027E0000D0AB0EE000A69EE800AB6EE000A30EE7D
:1027F0006B1A9DED040A31EE400A20EE800AB0EE1D
:102800004A9AF0EE000A69EE200A25E0E402002070
:10281000E8020020EC020020F0020020140A002050
:10282000DB0F494000003443F4020020F80200208E
:10283000FC02002000030020040300200803002005
:102840000C03002010030020140300201C030020B0
:10285000180300200024F4493BEE6A1A00EE810AB6
:102860008DED0C0AB0EE000A29EE801A9DED060AE5
:10287000DDED070A30EE600A21EE000AB0EE4A9A5A
:10288000F0EE000A29EE201ADDED050A7FEE200A9F
:1028900001EE200A8DED0B0AB0EE000A29EE800A47
:1028A0007AEE8B0A20EE200AB0EE4A9AF0EE000A89
:1028B00069EE200AB6EE001A31EE6F1A31EE6B1A8D
:1028C00000EE810A8DED0A0AAF48D0ED000A9DEDB9
:1028D0000D0A60EE800AAD4890ED001A9DED0E0ADB
:1028E00041EE400AAA4890ED001A9DED0A0A21EE39
:1028F000001AA848D0ED001A9DED0B0A01EEC01A8F
:1029000030EE81CAA148D0ED000A9DED0F0A60EEBD
:10291000800AA14890ED001A9DED0D0A41EE400A93
:102920009C4890ED001A9DED0C0A21EE001A9B4880
:10293000D0ED001A9DED0A0A01EEC01A70EE81CAB0
:102940009548D0ED000A9DED0E0A60EE800A8E4893
:1029500090ED001A9DED0F0A41EE400A8F4890ED70
:10296000001A9DED0B0A21EE001A8948D0ED001ADD
:102970009DED0C0A01EEC01A30EE81DAB5EEC0CA48
:10298000F1EE10FA57D0F5EEC0CAF1EE10FA52D0BF
:10299000B5EEC0DAF1EE10FA4DD09FED810A6CEE83
:1029A000000A804890ED000A00EEA80A80ED000AB7
:1029B0009FED7B0A6CEE800A7B4890ED000A00EEEA
:1029C000A80A80ED000A9FED760A6DEE000A7748AE
:1029D00090ED000A00EEA80A80ED000A744890ED20
:1029E000000AF0EE000A00EE8C0A6E48D0ED000AF4
:1029F00030EE200A6E4880ED000A6E4890ED000A25
:102A0000F0EE000A00EEAC0A6748D0ED000A30EEA6
:102A1000200A684880ED000A674890ED000AF0EE51
:102A2000000A00EE8D0A6148D0ED000A30EE200A5F
:102A3000614880ED000A614890ED000AB1EE400A5D
:102A40005B48D0ED000A20EE200A5D48D0ED000A78
:102A5000584890ED001A00EEC10A5A4890ED001A4D
:102A60005548D0ED001AF0EE400A41EE610A564892
:102A700090ED000A00EEA80A8DED090A90ED000A1B
:102A80004B48D0ED000A20EE200A4D48D0ED000A58
:102A9000494890ED001A00EE810A4A48D0ED000A3C
:102AA000444890ED001A00EEC10A4448D0ED000AF7
:102AB000F0EE60DA40EE28DA434890ED000A3D4837
:102AC000D0ED000A20EE200A3C48D0ED000A3A483A
:102AD00090ED001A00EEC10A3A48D0ED000A3448E1
:102AE00090ED001A00EE810A3548D0ED000AB0EEF4
:102AF00060EA00EE28EA344890ED000A2E48D0ED56
:102B0000000A20EE200A2D48D0ED000A294890ED59
:102B1000001A00EE810A2A48D0ED000A244890ED00
:102B2000001A00EEC10A2748D0ED000AF0EE60EA74
:102B300040EE28EADDED090A60EEA00A4DEEAD0A8E
:102B40004EEE0E0A4EEEAE0AB0EE600A03F09EFFA5
:102B5000B0EE408A9DED090A20EE080A1A4880ED81
:102B6000000A2DEE880A154880ED000A2EEE080AAC
:102B7000134880ED000A2EEE880A124880ED000A04
:102B800013B0BDEC108B00BD04030020080300202F
:102B90001003002014030020000300200C03002079
:102BA0000AD7233CD8020020DC020020E0020020EB
:102BB000F4020020F8020020FC020020E8020020BD
:102BC000EC020020F0020020E402002010B50446D0
:102BD000024800F005F8FFF717FC10BD140A0020AA
:102BE0002DE9FF4106460024002700208E49086099
:102BF000BB2001F027FC3B2000F07AFB8DF80000A1
:102C00003C2000F075FB8DF801009DF801009DF857
:102C1000001040EA012000B2844908803D2000F005
:102C200067FB8DF802003E2000F062FB8DF8030088
:102C30009DF803009DF8021040EA012000B27B4994
:102C400048803F2000F054FB8DF80400402000F045
:102C50004FFB8DF805009DF805009DF8041040EA33
:102C6000012000B271498880412000F041FB8DF8BD
:102C70000600422000F03CFB8DF807009DF807009D
:102C80009DF8061040EA012000B26849C880432040
:102C900000F02EFB8DF80800442000F029FB8DF891
:102CA00009009DF8090062490989401A9DF8081039
:102CB00040EA012000B25D490881452000F018FB80
:102CC0008DF80A00462000F013FB8DF80B009DF8EC
:102CD0000B0057494989401A9DF80A1040EA012023
:102CE00000B252494881472000F002FB8DF80C00E9
:102CF000482000F0FDFA8DF80D009DF80D004C49BC
:102D00008989401A9DF80C1040EA012000B2474919
:102D100088810846B0F90C00002803DD0846B0F9A8
:102D20000C0003E04148B0F90C004042142802DADC
:102D300000203E49888101203B490860012408E0C9
:102D40003C4850F82420601E3A4941F82020601C7D
:102D5000C4B2642CF4DB3548B0F90C103648C0F826
:102D60007019002405E0334850F824000744601C23
:102D7000C4B2642CF7DB642097FBF0F12E48C0F856
:102D8000741900272B4890ED640AB8EEC00A2B484E
:102D900080ED060A00252EE02848D0ED060A2848D6
:102DA00030F9150000EE100AB8EEC00AF4EE400A41
:102DB000F1EE10FA05D1224830F8150021490880BB
:102DC0001BE01E4890ED060AF1EE400A1C4830F95F
:102DD000150000EE100AB8EEC00AF4EE400AF1EE5B
:102DE00010FA07D1164830F81500404200B21549D4
:102DF000088002E06D1C172DCEDB00BF0F48D0ED20
:102E0000060A1048B0F9000000EE100AB8EEC00A39
:102E100030EEC00A094880ED060A90ED060A86EDFC
:102E2000050ABDE8FF81000098824242540A002052
:102E3000680A0020A0120020BC0A00207C0A0020A2
:102E4000480300203E03002010B504460648FFF763
:102E5000BDFE064890ED050ADFED050A80EE201A5A
:102E6000044880ED061A10BD380A0020140A00201C
:102E7000000034439C0A002008B527E005F0AEFCB2
:102E800000901348FFF7E0FF124890ED060ADFEDCF
:102E9000120A20EE200ABDEEC00A10EE100A010A46
:102EA0000E4880F8D8100B4890ED060ADFED0A0AAC
:102EB00020EE200ABDEEC00A10EE100AC1B207488B
:102EC00080F8D9100121684604F0ECFED6E7000036
:102ED000480A00209C0A00200000C842800100200F
:102EE00008B50AE005F07AFC009001F013F801F053
:102EF0005FFC3221684604F0D5FEF3E770B5044666
:102F00000E4615460EB1012000E0002060712046FB
:102F1000FFF791F9B6B9E07888B12088401C20808D
:102F20002188681C814203DB0020A070E07029E04A
:102F30002088A84226DB0420A070E07022E0002058
:102F400020801FE0012E1DD1E078022818D02088B3
:102F5000401C20802088984203DB0220A070E07093
:102F600010E02188681C814203DB0120A070E07022
:102F700008E02088A84205DB0320A070E07001E093
:102F80000020208070BD00009FED0E1A80ED001A19
:102F90009FED0C1A80ED051A80ED090AC0ED0A0AB2
:102FA000B7EE001A80ED071A9FED061A80ED081A99
:102FB000B7EE001A80ED0B1A90ED001A80ED011AA1
:102FC000704700000000000000B5124890F8200093
:102FD000C0F380014FF4967305220F48FFF78EFF70
:102FE0000D480C38807B05280FD2DFE800F0030580
:102FF00009040A0009E008E001200849087004E01B
:1030000003E000200549087000BF00BF03480078B6
:1030100000BD0000C800002040140020F50300207F
:1030200000B51B4890F82000C0F340114FF4967390
:1030300005221848FFF762FF16481E3890F8200056
:10304000052821D2DFE800F003051B041C001BE06B
:103050001AE011480078012810D11048007818B9FA
:1030600001200E49087006E00C480078012802D1C2
:1030700000200A49087000200749087004E003E0B6
:1030800001200549087000BF00BF0448007800BD5A
:10309000C800002052140020F9030020F80300208B
:1030A00000B5124890F82000C0F3C0014FF49673A9
:1030B00005220F48FFF722FF0D481238007D052832
:1030C0000FD2DFE800F0030509040A0009E008E078
:1030D00001200849087004E003E000200549087059
:1030E00000BF00BF0348007800BD0000C8000020FA
:1030F00046140020F703002000B5124890F8200085
:10310000C0F340014FF4967305220F48FFF7F6FE17
:103110000D48801F007A05280FD2DFE800F0030574
:1031200009040A0009E008E001200849087004E0E9
:1031300003E000200549087000BF00BF0348007885
:1031400000BD0000C80000203A140020F603002053
:1031500000B5114890F8200000F001014FF496737B
:1031600005220E48FFF7CAFE0C48807805280FD2CA
:10317000DFE800F0030509040A0009E008E0012087
:103180000749087004E003E000200549087000BF0B
:1031900000BF0348007800BDC800002034140020A0
:1031A000F403002010B50446FFF7D2FF68B194ED98
:1031B000000AF0EE400A9FED251A254890ED000A1E
:1031C00000F0D4FB84ED000A16E0FFF795FF78B11C
:1031D00094ED000AF0EE400A9FED1C1A1C4890ED99
:1031E000000AB1EE400A00F0C1FB84ED000A03E0E2
:1031F0009FED180A84ED000AFFF752FF68B194EDC5
:10320000010AF0EE400A9FED111A114890ED000AF4
:1032100000F0ACFB84ED010A16E0FFF7D5FE78B1B3
:1032200094ED010AF0EE400A9FED081A084890ED6F
:10323000000AB1EE400A00F099FB84ED010A03E0B8
:103240009FED040A84ED010A10BD0000C3F5283F7C
:10325000100100200000000010B586B000241422E8
:10326000104901A8FDF772F9642003F009FA7520EE
:1032700000F01CF80C49087000BF0DE001AA02EB39
:103280004402517801AA12F8140000F045F8012018
:1032900003F0F6F9601CC4B20A2CEFDB002006B084
:1032A00010BD00004C9D00083803002010B50446F6
:1032B00000200B49086044F080000A490870084665
:1032C000007801F0BFF844F0800001F0BBF8064937
:1032D000087001200549C1F898020348007810BD24
:1032E00098824242EE030020ED030020008042421B
:1032F00010B5044644F0800005490870084600787F
:1033000001F0A0F8034908700846007810BD0000DD
:10331000F0030020EF03002070B505460C460020A6
:103320000A49086005F07F000949087008460078DE
:1033300001F088F806480470007801F083F8012055
:103340000449C1F89802002070BD000098824242F2
:10335000EC0300200080424200BFFEE770470000FF
:1033600070B5002100230F22C4781CB3174C2468C9
:1033700004F4E064C4F5E064C4F30721C1F104047B
:10338000E3B20A4144789C40E1B28478144021437E
:103390000C07210E0E4C05786155047804F01F05CA
:1033A0000124AC4005786D11AD0005F1E025C5F8AC
:1033B000004109E0047804F01F050124AC40054DEC
:1033C0000678761145F8264070BD00000CED00E04F
:1033D00000E400E080E100E002490143024A11609C
:1033E000704700000000FA050CED00E010B52DED6F
:1033F000068B82B004465D48406B90ED010A5B4845
:10340000D0ED060A30EE600A8DED010A9DED010A4D
:10341000B5EEC00AF1EE10FA02DD9DED010A03E0FF
:103420009DED010AB1EE400ADFED510AB4EEE00A6B
:10343000F1EE10FA18DD9DED010AB5EEC00AF1EECD
:1034400010FA02DD9DED010A03E09DED010AB1EEE7
:10345000400A9DED011AC1EE000A9DED010A9FEDA3
:10346000451A00EEC10A01E09DED010A8DED010A49
:103470009DED010AF0EE000A20EE200ADFED3E0A83
:1034800020EE200ADFED3B0A80EE201AB0EE41AAC2
:10349000B0EE4A0AFCF7BCFFB0EE408A9DED010A8F
:1034A000F0EE000A20EE200ADFED330A20EE200ABB
:1034B000DFED300A80EE201AB0EE41AAB0EE4A0AE3
:1034C000FCF76AFFF0EE408A2C48FFF76BFEB4F978
:1034D0001E0000EE100AB8EEC00A2848D0ED000A1F
:1034E00030EE200ADFED260A20EE209AB4F91C0007
:1034F00000EE100AB8EEC00A2048D0ED010A30EE06
:10350000200ADFED1F0A60EE209A28EE290A08EE55
:10351000890A84ED030A28EEA90A08EE490A84ED17
:10352000040A01A801F096F884ED050AFFF778FD7A
:10353000B8B194ED030ADFED130A20EE200A84ED02
:10354000030A94ED040ADFED100A20EE200A84ED50
:10355000040A94ED050ADFED0C0A20EE200A84ED42
:10356000050A02B0BDEC068B10BD0000C8000020AB
:10357000000034430000B443DA0F49400801002042
:1035800000004842CDCCCC406666E63FF0EE400AF3
:10359000416A816210EE901A4162416A00EE101A8F
:1035A000C16801EE101AB1EE411AB4EEC10AF1EE93
:1035B00010FA08D8C16800EE101AB1EE400A10EEF9
:1035C000101A41620CE0416A00EE101AC16801EE67
:1035D000101AB4EEC10AF1EE10FA01DBC1684162C3
:1035E000C16A00EE101A416A01EE101ADFED771A77
:1035F00001EE210A10EE101AC162C16A00EE101A23
:10360000016901EE101AB1EE411AB4EEC10AF1EEF1
:1036100010FA08D8016900EE101AB1EE400A10EE57
:10362000101AC1620CE0C16A00EE101A016901EEC5
:10363000101AB4EEC10AF1EE10FA01DB0169C162A1
:10364000016800EE101A416A01EE101A20EE010A1C
:1036500010EE101A0163016B00EE101A416901EEC1
:10366000101AB1EE411AB4EEC10AF1EE10FA08D800
:10367000416900EE101AB1EE400A10EE101A016313
:103680000CE0016B00EE101A416901EE101AB4EE65
:10369000C10AF1EE10FA01DB41690163416800EEF5
:1036A000101AC16A01EE101A20EE010A10EE101A6B
:1036B0004163416B00EE101A816901EE101AB1EE00
:1036C000411AB4EEC10AF1EE10FA08D8816900EE91
:1036D000101AB1EE400A10EE101A41630CE0416B73
:1036E00000EE101A816901EE101AB4EEC10AF1EE73
:1036F00010FA01DB81694163416A00EE101A816AA8
:1037000001EE101A30EE411A816800EE101A21EE17
:10371000000A10EE101A8163816B00EE101AC16965
:1037200001EE101AB1EE411AB4EEC10AF1EE10FA30
:1037300008D8C16900EE101AB1EE400A10EE101A56
:1037400081630CE0816B00EE101AC16901EE101A62
:10375000B4EEC10AF1EE10FA01DBC1698163016BBD
:1037600000EE101A416B01EE101A30EE011A816B57
:1037700000EE101A31EE000A10EE101AC163C16B90
:1037800000EE101A016A01EE101AB1EE411AB4EE01
:10379000C10AF1EE10FA08D8016A00EE101AB1EE73
:1037A000400A10EE101AC1630CE0C16B00EE101A53
:1037B000016A01EE101AB4EEC10AF1EE10FA01DB53
:1037C000016AC163C16B00EE101A70476F12033BB0
:1037D00010B52DED0A8B0446B0EE408AF0EE608AFB
:1037E000B0EE419AF0EE619AB0EE42AAF0EE62AA13
:1037F000B0EE43BAF0EE63BAB0EE44CA9FED200AD1
:1038000010EE100A20639FED1E0A10EE100A60638E
:103810009FED1B0A10EE100AA0639FED190A10EE2F
:10382000100AE0639FED160A10EE100A60629FED29
:10383000140A10EE100AA0629FED110A10EE100A91
:10384000E0621048A0641048206410486064216C55
:10385000B0EE4C4AF0EE6B3AB0EE4B3AF0EE6A2A1C
:10386000B0EE4A2AF0EE691AB0EE491AF0EE680A94
:10387000B0EE480A20468847BDEC0A8B10BD000018
:10388000000000008D350008E738000821390008E5
:1038900070B505460C46D4ED084AB0EE644AD4ED46
:1038A000074AF0EE643AD4ED064AB0EE643AD4ED3D
:1038B000054AF0EE642AD4ED044AB0EE642AD4ED51
:1038C000034AF0EE641AD4ED024AB0EE641AD4ED65
:1038D000014AF0EE640AD4ED004AB0EE640A2846CC
:1038E000FFF776FF70BD10EE101A016010EE901A0F
:1038F000416011EE101A816011EE901AC16012EE53
:10390000101A016112EE901A416113EE101A8161D2
:1039100013EE901AC16114EE101A01627047000094
:103920009FED110A10EE101A01639FED0F0A10EEC1
:10393000101A41639FED0C0A10EE101A81639FED7F
:103940000A0A10EE101AC1639FED070A10EE101A52
:1039500041629FED050A10EE101A81629FED020A86
:1039600010EE101AC162704700000000B0EE402A4D
:103970009FED170AF0EE401A32EE600AF0EE401AA0
:10398000F5EEC01AF1EE10FA0EDDF4EEC11AF1EE0A
:1039900010FA04DD30EE810AF0EE400A14E030EE59
:1039A000A10AF0EE400A0FE0B1EE410AF4EEC01AAF
:1039B000F1EE10FA04D230EEC10AF0EE400A03E054
:1039C00030EEE10AF0EE400AB0EE600A7047000007
:1039D0000000000029B1064A12680243044B1A6035
:1039E00004E0034A12688243014B1A6070470000EA
:1039F0003038024029B1064A12680243044B1A606B
:103A000004E0034A12688243014B1A6070470000C9
:103A10004038024029B1064A12680243044B1A603A
:103A200004E0034A12688243014B1A6070470000A9
:103A30002038024029B1064A12680243044B1A603A
:103A400004E0034A12688243014B1A607047000089
:103A50004438024029B1064A12680243044B1A60F6
:103A600004E0034A12688243014B1A607047000069
:103A700024380240F0B5002100220024022500264F
:103A80000223324F3F6807F00C0121B1042905D011
:103A9000082937D105E02E4F076036E02D4F07602B
:103AA00033E02A4F3F1F3F68C7F38056274F3F1F21
:103AB0003F6807F03F036EB1264FB7FBF3F7DFF81F
:103AC0008CC0ACF1040CDCF800C0CCF3881C07FB04
:103AD0000CF40CE01E4FB7FBF3F7DFF870C0ACF14D
:103AE000040CDCF800C0CCF3881C07FB0CF4174F67
:103AF0003F1F3F68C7F301477F1C7D00B4FBF5F70C
:103B0000076002E0124F076000BF00BF0F4F3F6821
:103B100007F0F0010909104F7A5C0768D740476049
:103B20000A4F3F6807F4E051890A0B4F7A5C4768F7
:103B3000D7408760054F3F6807F46041490B064F47
:103B40007A5C4768D740C760F0BD00000838024083
:103B50000024F400001BB700F408002070B596B0F4
:103B600004460E46154601214A48FFF733FF01215E
:103B70001020FFF75FFF01211020FFF76BFF0021EE
:103B80001020FFF767FF072211464348FEF7C0FBEE
:103B90008020149002208DF8540000208DF85600EB
:103BA00003208DF8550000208DF8570014A93A48DD
:103BB000FEF766FB394801F0F1F839481090002013
:103BC000ADF84400ADF846004FF48060ADF8480011
:103BD0000420ADF84A000020ADF84C0010A92F4891
:103BE00001F0B0F9012240212C4801F0CEF810215B
:103BF0002A4801F0B5F8012240F22441274801F09B
:103C00007CF90121254801F0B4F825208DF83C000D
:103C100001208DF83D0000208DF83E0001208DF838
:103C20003F000FA8FFF79CFB1E48FEF709F84FF076
:103C3000006000901948001D01900294002003903C
:103C4000049505904FF4806006900020079008903E
:103C50004FF4807009904FF440300A9000200B9090
:103C60000C900D900E9069460E48FEF70BF900225D
:103C700031460C48FEF79BF801210A48FEF78CF804
:103C800000210848FDF7D0FF01210648FDF7CCFFD1
:103C900016B070BD02004000000402400010014058
:103CA000A08601004064024000B50246501D02F0AB
:103CB0004FFC40F20223C11A984276D008DC01285A
:103CC0000BD0032811D0A0F2012000286ED16FE0A4
:103CD00002296CD00529F9D100E1D1798748007813
:103CE00061F307108549087006E1D01D02F030FC31
:103CF0008349088002F1090002F02AFC80494880CB
:103D000002F10B0002F024FC7D49888002F10D00D5
:103D100002F01EFC7A49C88002F10F0002F018FC84
:103D20007749088102F1110002F012FC74494881C0
:103D300002F1130002F00CFC7149888102F11500B8
:103D400002F006FC6E49C88102F1170002F000FC87
:103D50006B49088202F1190002F0FAFB68494882B7
:103D600002F11B0002F0F4FB6549888202F11D009C
:103D700002F0EEFB6249C88202F11F0002F0E8FB8C
:103D80005F49088302F1210002F0E2FB5C494883AD
:103D900002F1230002F0DCFB5949888302F125007F
:103DA00002F0D6FB5649C883A6E067E0A3E091E0A5
:103DB000D07954490870107A487002F1090002F075
:103DC000C7FB5049488002F10B0002F0C1FB4D498E
:103DD000888002F10D0002F0BBFB4A49C88002F165
:103DE0000F0002F0B5FB4749088102F1110002F013
:103DF000AFFB4449488102F1130002F0A9FB41499D
:103E0000888102F1150002F0A3FB3E49C88102F14E
:103E1000170002F09DFB3B49088202F1190002F0F5
:103E200097FB3849488202F11B0002F091FB3549AB
:103E3000888202F11D0002F08BFB3249C88202F138
:103E40001F0002F085FB2F49088312F8210F897E9D
:103E500060F300012B488176107840082949897E5B
:103E600060F341012748817612F82109810825482D
:103E7000807E61F38200234988763DE0D01D02F008
:103E800067FB2149088002F1090002F061FB1E492D
:103E9000488002F10B0002F066FB10EE100A1A498E
:103EA000486002F10F0002F053FB1749088102F14C
:103EB000110002F04DFB1449488102F1130002F099
:103EC00047FB1149888102F1150002F041FB0E49C0
:103ED000C88111E0D0790D4908700DE0507A0C4985
:103EE000887002F10A0002F03EFB10EE100A084949
:103EF000C1F8030000E000BF00BF00BDF0150020C6
:103F0000FB1500201B160020361600209C07002001
:103F10009D0700207049897EC1F380006E490978B1
:103F2000632903DD02216D4A117002E000216B4A12
:103F3000117069494978012932D10021684A11700C
:103F4000684A117064490989962906D10021664A98
:103F500011700121654A117077E05F4909894B2989
:103F600005D10121604A1170604A11706DE05A4913
:103F70000989322969D15849C9880A2905D10021FE
:103F8000594A1170594A11705FE05349C98828296C
:103F90005BD10121544A11700021544A117054E040
:103FA0004D494978022926D100214D4A117001213D
:103FB0004C4A117048490989B1F58C7F06D100211E
:103FC000494A11700121494A11703EE0424909896C
:103FD000962905D10121444A1170444A117034E0F8
:103FE0003D490989642930D101213F4A11700021DE
:103FF0003E4A117029E038494978032925D1012129
:10400000374A11700021374A117033490989B1F5D7
:10401000C87F06D10021344A11700121334A117042
:1040200013E02D490989C82905D101212E4A1170B3
:104030002E4A117009E028490989962905D10121E4
:10404000294A11700021294A1170244909788901EF
:10405000244A127841EA4211214A127841EA0211B7
:10406000224A127841EAC2011F4A127841EA8201CB
:1040700041EA4001CAB21E4981F8D3201D4949894D
:104080000A121B4981F8D4201A498A7A184981F802
:10409000D5201949D1F8031000EE101ADFED170AE8
:1040A00020EE200ABDEEC00A10EE101A0A0A1049CE
:1040B00081F8D6201049D1F8031000EE101ADFED78
:1040C0000F0A20EE200ABDEEC00A10EE101ACAB286
:1040D000074981F8D72070471B16002038010020BF
:1040E000390100203A0100203B0100203C01002062
:1040F00080010020361600209D0700200000C842E5
:1041000010B500F03BF800F001F810BD00B58FB01D
:1041100001224021164800F038FE4FF02060009048
:104120001348001D01900020039012480290C820FF
:104130000490002005904FF48060069000200790C6
:1041400008904FF4807009904FF440300A9000209E
:104150000B9003200C9000200D900E9069460648AD
:10416000FDF790FE01210448FDF75EFD0FB000BD94
:10417000007C004028150020A060024000B587B0F8
:1041800001211020FFF726FC0121C807FFF732FCB0
:1041900001214805FFF71EFC2B48FDF751FD0822C1
:1041A00000212A48FEF7B4F8082201212748FEF72B
:1041B000AFF80320059002208DF8180003208DF839
:1041C000190000208DF81A0001208DF81B0005A9A8
:1041D0001E48FEF755F84FF4E13001900020ADF88D
:1041E0000800ADF80A00ADF80C00ADF810000C2086
:1041F000ADF80E0001A9164800F0A4FE40211448B5
:1042000000F0AEFD012240F22551114800F075FE8C
:10421000012240F224410E4800F06FFE01210C48BB
:1042200000F0A7FD53208DF8000004208DF8010058
:1042300000208DF8020001208DF803006846FFF78A
:104240008FF807B000BD0000A060024000100240DF
:10425000007C004000B101B970470278437842EA1F
:104260000322C2F30A020A804278D210837842EA1B
:104270004312C2F30A024A8082789211C37842EA5A
:104280008302037942EA8322C2F30A028A80027916
:104290005210437942EAC312C2F30A02CA80027C76
:1042A000437C42EA0322C2F30A020A810A88A2F589
:1042B000806212B20A804A88A2F5806212B24A80F5
:1042C0008A88A2F5806212B28A80CA88A2F58062CA
:1042D00012B2CA800A89A2F5806212B20A814279BA
:1042E000C2F301128A72427912119308CB72827959
:1042F000C37942EA032212B28A81027A437A42EAFD
:10430000032213B2CB81827AC37A42EA032213B228
:104310000B82037B8B74437BCB74827BC37B42EA2F
:1043200003228A8200BF97E700B587B001212020D1
:10433000FFF750FB01210220FFF74CFB012108058C
:10434000FFF778FB4FF46070059002208DF818009D
:1043500000208DF81A0003208DF8190000208DF838
:104360001B0005A93448FDF78BFF4FF480700590C2
:1043700002208DF8180000208DF81A0003208DF817
:10438000190000208DF81B0005A92C48FDF778FFC7
:104390004020059001208DF8180000208DF81A00AB
:1043A00003208DF8190000208DF81B0005A9224874
:1043B000FDF766FF052207211F48FDF7A9FF05222B
:1043C00006211D48FDF7A4FF052209211A48FDF723
:1043D0009FFF052208211848FDF79AFF01210805D3
:1043E000FFF738FB00214FF48010FFF733FB00206C
:1043F000ADF800004FF48270ADF802000020ADF877
:104400000400ADF80600ADF808004FF40070ADF8F8
:104410000A003020ADF80C000020ADF80E000A2094
:10442000ADF810006946064800F066F8012104481E
:1044300000F048F807B000BD00140240000402403C
:104440000050014070B505460126002422E0012EEF
:104450000FD10221104800F041F850B1002401E0D2
:10446000601CC4B2C82CFBDB29460B4800F042F8A4
:1044700000267EB90121084800F030F850B1002430
:1044800001E0601CC4B2C82CFBDB034800F02FF82D
:10449000C0B270BDDBE700000050014010B504461B
:1044A000074800884FF6C77108400549088008464C
:1044B0000088204308800121014800F003F810BD66
:1044C0000050014021B1028842F04002028004E025
:1044D00002884FF6BF731A400280704702460020E0
:1044E00013890B400BB1012000E00020704701460A
:1044F000888970478181704710B50022028802F4D4
:1045000041520B884C8823438C882343CC88234317
:104510000C8923434C8923438C892343CC8923432F
:104520001A430280838B4FF2FF74234083830B8AEC
:10453000038210BD0CB50020019000904148006836
:1045400040F480303F49086000BF3E48006800F4F6
:10455000003000900198401C0190009818B9019813
:10456000B0F5A04FF1D13748006800F4003010B129
:104570000120009001E0002000900098012860D107
:1045800030484030006840F080502E49403108608B
:104590002D48006840F440402B4908602948083005
:1045A00000682849083108600846006840F4004067
:1045B00008600846006840F4A05008602348091FBE
:1045C0000860081F006840F08070091F086000BF85
:1045D0001C48006800F000700028F9D01A480068F4
:1045E00040F480301849086000BF1748406800F464
:1045F00080300028F9D01448006840F40030124997
:10460000086000BF1048406800F400300028F9D06E
:1046100040F205700E4908600A480830006820F032
:1046200003000849083108600846006840F00200AD
:10463000086000BF03480830006800F00C0008283C
:10464000F8D10CBD0038024000700040062D400833
:10465000003C024070B52DED028B05464548048BA9
:104660009FED450AB0EE408A44484078022820D1A8
:10467000D5ED000AF1EE600AB0EE600A3F4A526BD7
:1046800002F15C003D4A526BD2F8A41088473C48C6
:10469000D0ED060A30EE600AF0EE408A374A526BDF
:1046A00002F11000354A526B916D8847B0EE408A96
:1046B00046E032484078032842D1782C04DB9FED55
:1046C000310AB0EE408A34E0642C04DB9FED2E0A00
:1046D000B0EE408A2DE05A2C04DB9FED2C0AB0EEA0
:1046E000408A26E0502C04DB9FED290AB0EE408A78
:1046F0001FE0462C04DB9FED270AB0EE408A18E04D
:104700003C2C04DB9FED240AB0EE408A11E0322CF1
:1047100004DB9FED220AB0EE408A0AE0282C04DB7D
:104720009FED1F0AB0EE408A03E09FED1D0AB0EE38
:10473000408A1C48007818B19FED1B0AB0EE408AF1
:10474000B5EEC08AF1EE10FA02DDB0EE480A01E0E3
:10475000B1EE480ADFED150AB4EEE00AF1EE10FA08
:1047600003D29FED050AB0EE408AB0EE480ABDECD8
:10477000028B70BD1B16002000000000C800002046
:104780009C0A002000002F440080274400002044A1
:10479000008018440080134400000C44008004444E
:1047A0000000FA43040100200000484400001643C2
:1047B00010B541480068401C3F4908603F48006808
:1047C000401C3E49086000F0E3F900F0CBF93A489C
:1047D000006808285FD2DFE800F004071A1D2052A5
:1047E0005558FDF735F95BE03548407908B10120AF
:1047F00000E00020334908703148007908B10120F9
:1048000000E0002030490870FDF7DCF848E001F0D6
:104810003DF945E001F056F842E0294890ED030AE1
:10482000F2EE0C0A30EE600AF2EE020A80EE201A76
:104830009FED260A21EE000A254880ED000A90ED42
:10484000000AB5EEC00AF1EE10FA04D89FED210A75
:1048500080ED000A0DE01E4890ED000ADFED1B0A16
:10486000B4EEE00AF1EE10FA03DB9FED180A80EDDA
:10487000000AFDF73DF902201749086010E000F03A
:10488000D5FF0DE001F06AF80AE001F0B3F802206C
:104890001249086004E04FF0FF300749086000BF8C
:1048A00000BF06480068C82804D1002003490860FA
:1048B0000B49087010BD0000EC080020F008002033
:1048C00048160020C4070020C50700200000C84289
:1048D000C807002000000000BC070020B00700202F
:1048E000E7080020042808D14FF0E021096941F0D1
:1048F00004014FF0E022116107E04FF0E021096967
:1049000021F004014FF0E0221161704710B503F06F
:1049100055FF012801D003F043FC10BD10B5154828
:10492000006840F47000134908601348006840F0C4
:1049300001001149086000200F49083108600E4845
:1049400000680E4908400C4908600D48091D0860C0
:10495000081F006820F48020091F08600020064915
:104960000C310860FFF7E6FD4FF000600149803927
:10497000086010BD88ED00E000380240FFFFF6FE41
:10498000103000241CB5044603F06EF812480421D0
:1049900000238A01CDE9001010A1134803F0DEFEC8
:1049A0001248042100238A01CDE9001010A1144807
:1049B00003F0D4FE1348042100238A01CDE900103E
:1049C00011A1154803F0CAFE1448006803F0D4F999
:1049D00003F074F81CBD00000C000020494D555F29
:1049E0005441534B00000000792E000808000020BD
:1049F000434841535349535F5441534B0000000017
:104A00008516000804000020494E54455241435F7A
:104A10005441534B00000000E12E0008000000202C
:104A200000B58FB001214805FEF7D4FF4FF020609C
:104A300000901748019017480290402003900620EC
:104A40000490002005904FF48060069000200790AD
:104A5000089009904FF440300A9000200B900C9081
:104A60000D900E9069460C48FDF70CFA012280214A
:104A70000748001F00F089F9012210210648FDF7C0
:104A8000E3F901210448FDF7CFF80FB000BD0000A5
:104A900004780040080400202860024070B540F20D
:104AA0002441244800F0FFF9002841D00024214887
:104AB0000088214908601F48001D008808601F48C1
:104AC000FDF781F9C0F1C8001B49086000211B48AF
:104AD000FDF7AAF81BE01A490819052100F0C8FAE9
:104AE000012812D11649601C085C09300A46A11C35
:104AF000515C40EA012511460819294600F098FA50
:104B000018B10F490819FFF7CFF8601984B20C48A3
:104B1000005DA528DFD0C8210948FBF751FDC82159
:104B20000648FDF7DBF901210448FDF77DF800BFD9
:104B300070BD0000007C004098070020A06002408B
:104B40002815002010B5044600BF4021044800F09D
:104B50009DF90028F9D02146014800F062FA10BD05
:104B6000007C004007484078032801D1012000E084
:104B7000002005490871054890ED000A084680EDBF
:104B8000030A7047C800002048160020FC030020DC
:104B90000848007860B901200749086007490860A3
:104BA000074908600749086007490860014908701B
:104BB00070470000E7080020B0070020B40700207D
:104BC000B8070020BC070020C007002010B540F245
:104BD0002551314800F067F918B12F4800F01CFA50
:104BE00059E040F224412C4800F05DF9002852D0F1
:104BF000294800F011FA2948FDF7E9F828BB0021FF
:104C00002648FDF711F82548FDF7DDF8C0F124002E
:104C10002349088024212148FDF760F91F480068D6
:104C200040F400201D4908601E491C48FCF7C8FFDD
:104C300001211A48FCF7F8FF1948008812282AD1E8
:104C400019491A48FFF706FB25E000211348FCF735
:104C5000EBFF1248FDF7B7F8C0F1240010490880B7
:104C600024210E48FDF73AF90C48006820F4002092
:104C70000A4908600B490948FCF7A2FF01210748CF
:104C8000FCF7D2FF06480088122804D106490748DD
:104C90002430FFF7DFFA10BD0010014040640240ED
:104CA000F203002000003010A0140020B6140020F1
:104CB00010B540F22551244800F0F5F8002842D004
:104CC00003F08CFD2149086020211F4800F048F8BE
:104CD0001D4800F0A1F91E491E4A12688854084672
:104CE0001C490968405C442820D1194919480068CA
:104CF000C01C085C132819D116480068801C095C88
:104D0000134A14480068401C105C41EA002000EE81
:104D1000100AB8EEC00AF7EE040A20EE200ADFED12
:104D20000E0A80EE201A0D4880ED001A094800682E
:104D3000072805DA07480068401C0649086002E0B9
:104D400000200449086010BD004800400001002018
:104D5000000400201004002000007A44FC0300201E
:104D600001F40072B2F5007F00D100BFCA43028097
:104D7000704721B1828942F40052828104E0828925
:104D80004DF6FF731A40828170471AB1838A0B4334
:104D9000838202E0838A8B438382704710B5044686
:104DA0003248844208D101211020FEF753FE002131
:104DB0001020FEF74FFE57E02D48844209D1012113
:104DC0004804FEF727FE00214FF40030FEF722FED4
:104DD0004AE02848844209D101218804FEF71AFEDE
:104DE00000214FF48020FEF715FE3DE0224884426A
:104DF00009D10121C804FEF70DFE00214FF4002067
:104E0000FEF708FE30E01D48844209D10121080563
:104E1000FEF700FE00214FF48010FEF7FBFD23E0BB
:104E20001748844208D101212020FEF713FE0021FB
:104E30002020FEF70FFE17E01248844209D101211D
:104E40008807FEF7E7FD00214FF08040FEF7E2FD06
:104E50000AE00D48844207D101214005FEF7DAFD42
:104E600000216005FEF7D6FD10BD000000100140D6
:104E70000044004000480040004C0040005000400A
:104E80000014014000780040007C004002460020F1
:104E9000B1F5007F00D100BF13880B400BB101209A
:104EA00000E00020704770B5024600240023002572
:104EB000002040F66A16B14200D100BFC1F342158E
:104EC00001F01F03012606FA03F3012D02D1968992
:104ED000334006E0022D02D1168A334001E0968A63
:104EE00033400C12012606FA04F41688344013B13C
:104EF0000CB1012000E0002070BDF0B50346002495
:104F000000260025002040F66A17B94200D100BFF4
:104F10001846C1F3421401F01F06012707FA06F5EF
:104F2000012C01D10C3004E0022C01D1103000E042
:104F300014301AB107682F43076002E00768AF43D7
:104F40000760F0BD2DE9FF4705460E460024A14647
:104F500000BFA046B08900B100BF2C8A24F44054A1
:104F6000F08804432C82AC8941F20C608443B08801
:104F700031890843718908430443AC81AC8A24F425
:104F80004074B0890443AC826846FEF773FD204844
:104F9000854202D01F48854202D1DDF80C9001E025
:104FA000DDF80890A88900F4004040B109EBC90081
:104FB00000EB091031684900B0FBF1F707E009EB9D
:104FC000C90000EB091031688900B0FBF1F76420DB
:104FD000B7FBF0F004012009642101FB1078A889D7
:104FE00000F4004040B1322000EBC800B0FBF1F00B
:104FF00000F00700044308E0322000EB08106421B1
:10500000B0FBF1F000F00F0004432C81BDE8FF87F6
:10501000001001400014014001468888C0F30800D8
:105020007047C1F308028280704700BFFEE70000AE
:1050300070B505460C4600260DB1022C01D80020A3
:1050400070BDA11E094802882846FDF787F906466B
:10505000F1B2A01E285C814206D1601E285CB0EB34
:10506000162F01D10120EBE70020E9E73E010020E7
:1050700070B505460C4600260DB1022C01DC00205F
:1050800070BD601E81B2FF222846FDF781F90646F9
:10509000601E285CB04201D10120F1E70020EFE75B
:1050A0004100080218BF04200A0E18BF40F001009A
:1050B0004FF07F4232EA010108BF40F002000128B0
:1050C00008BF05207047000010B510EE100A2DED46
:1050D000068BB7EE001A10EE901AB0EE418A00224D
:1050E000A0F5000CDFEDFE9A4FF00073BCF1FE4F0F
:1050F0004FF07F4403EB410C80F0B481BCF1804F52
:10510000C0F02082F74901449FEDF73AB1F5005F06
:1051100040F2D48200F58021CB0C03F00F0101EEA8
:10512000901AC3F307137F3BA0EBC350B8EEE12AFC
:1051300000EE100A1A44DFEDED2AF0EE411A42EEBD
:10514000221AF0EE613A70EE232A30EE632A12EE54
:10515000900A00F500606FF30B0001EE900A73EE09
:10516000E13A33EE804AC1EE223A22EE230A10EEF3
:10517000100A00F500606FF30B0000EE100A00EE5D
:10518000612A00EE442A62EE232A70EE221A21EEF2
:10519000A12ADFEDD73A02EE233A23EE023A20EEBF
:1051A000012A22EE811A03EE211A32EE010A10EED4
:1051B000100A00F500606FF30B0000EE100A72EEAB
:1051C000401A31EE812A9FEDCB1A60EE011A9FED55
:1051D000CA1A20EE011A9FEDC90A02EE001A31EE3A
:1051E000810A10EE100A00F500606FF30B0000EE6C
:1051F000100AC34871EEC01A31EE812A784400EBE0
:10520000C10090ED003AD0ED011A100101EE100A34
:10521000F8EEC12A32EE211A31EE001A31EE031AED
:1052200031EE221A11EE100A00F500606FF30B0048
:1052300009EE100A39EE621A31EE431A31EE400AD5
:1052400030EE610A32EE40AA10EE900A002100F51D
:1052500000606FF30B0008EE900A084670EEE8AAB3
:1052600004F04AFB29EE280A00F00C01F0EEC00A17
:1052700010EE900AB0F18B4F0DDD10EE900AB4EBFA
:10528000400F08D310EE100A4FF08B4262F31E005D
:1052900008EE900A13E069EE2A0A38EEAA1A4AEEDE
:1052A000010A30EE201A11EE100A00F500606FF3CB
:1052B0000B0008EE900A30EE680A70EE209A0C207F
:1052C00004F01AFB38EEA90AB5EEC00AF1EE10FAA6
:1052D00034BFFEEE000AF6EE000A30EE800ABDEEA4
:1052E000C00A10EE100A011100EE101AF8EEC00A02
:1052F00000EE100AB8EEC00A38EEC00A30EE290AF5
:10530000DFED801A9FED801A00EE211ADFED7F1A83
:105310007F4900F00F0040EE011A21EE800A794427
:1053200001EB800191ED001A7A49794401EB80018B
:10533000D1ED001A784901EE801A794401EB800022
:10534000764990ED000A31EE001AB0EEE00A10EE58
:10535000100A884215DA10EE100AB4EB400F10D391
:105360009FED6F0A30EE800ADFED6E0A20EE200A14
:1053700068EE010ABDEC068BBCEEC00A20EE200AE6
:1053800010BD10EE100A6849884243DA10EE100A88
:10539000B4EB400F3ED3BDEEE00A68EE010A10EE1A
:1053A000100A00EBD0725110C90501F17E5100EED8
:1053B000101AA0EB6200C00560EE200A00F17E50DA
:1053C00000EE100A60EE808A18EE900AB4EB400FEF
:1053D0000FD10220FBF745F900F018FA10EE101A71
:1053E00018EE100ABDEC068B61F31E0000EE100AE9
:1053F00010BD18EE900A400011D018EE900AFFF789
:105400004FFE042808BF00F009FAB0EE680ABDECB0
:10541000068B10BDF5EEC00AF1EE10FA0FD2022095
:10542000FBF71FF900F0FAF910EE101A18EE100A47
:10543000BDEC068B61F31E0000EE100A10BD0220C9
:10544000FBF70FF900F0E2F910EE101AB0EE480A7F
:1054500010EE100ABDEC068B61F31E0000EE100A80
:1054600010BD00BFBCF1804F6CD300BF00F1FF4303
:10547000B3F1FE4F24D200BFB0EEC00A10EE100A06
:10548000C1F3C7537F2B0DDB972BBFF63BAEC3F1A8
:1054900096034FF0010C0CFA03F3A3F1010C1CEA84
:1054A000010F08D00120FBF7DCF8BDEC068BBDE84E
:1054B000104000F0A3B90B4218BFBFEE008A21E6EE
:1054C00043001CBF4FF08073B3EB400F34D96FF033
:1054D0001A02DFED161A20EE210A10EE100A27E05C
:1054E00000000000001080C0ABAAAA3E0000803D72
:1054F0007EE24C3E00B03842D49AB8BB3BAA384258
:1055000064530000FC596337C9FF753A1872313D86
:105510000253000036530000A65200000000FC4277
:105520000000FE420000004B000040430000004D20
:1055300010F0004FA0D1E5E5A0F50003B3F1FE4F58
:1055400021D2DFE503EB4103B3F1007F11D3F5EE88
:10555000C00AF1EE10FA05D1430018BFB4EB400FBA
:1055600076D883E701F0004141F0FC5100EE901A3B
:105570007CE7B3F1807F06D210EE903AA3F50003EA
:1055800000EE903A72E720F000426FF0FF4C604C62
:1055900002EB0C03A34210D321F000439C44A4452A
:1055A0000BD3B0F17E5F18BF5FEA410C50D0B2F16F
:1055B000FF4F98BFB3F1FF4F05D9BDEC068BBDE897
:1055C000104000F017B9B0F1FF4F0FD0C1F3C75230
:1055D0007F2A09DB972A11DAC2F19602012303FA26
:1055E00002F2531E0B4205D0002208E011F0004FDA
:1055F00055D128E00A4218BF012200D1022210F53D
:10560000000F13D028B3B0F1004F26D010F1814F16
:105610004FD04FF0FE42B2EB400F94BF012000206C
:10562000012202EBE171884239D10CE011F0004F08
:1056300002D0012A38D032E0012A02BF9FED350A9C
:10564000BDEC068B10BD9FED340ABDEC068B10BD82
:105650002FE011F0004F0CD121E0B1F1FF4F1ED02F
:1056600011F5000F05D011F0004F15D00AB1012A35
:1056700008D00220FAF7F5FFBDEC068BBDE810401C
:1056800000F0AEB80220FAF7ECFF00F0A9F8BDEC8C
:10569000068BB1EE400A10BD0AB1012A04D0B0EE6B
:1056A000690ABDEC068B10BDBDEC068B9FED1B0A95
:1056B00010BDBDEC068BB7EE000A10BD30EE410AFE
:1056C000B5EE001A9FED172A00EE413AB6EE001A29
:1056D00060EE001A00EE431A61EEC11A9FED101A37
:1056E00020EE011A20EE020A9FED0F2A01EE820A37
:1056F00071EE001A11EE900A00F500606FF30B00D6
:1057000009EE100A31EE491A31EE00AA9CE50000BC
:10571000FFFF3F00000080FF0000807F000000804E
:1057200000B0B841D49A38BB3BAAB84100B52DEDC2
:10573000048BB0EE409AF0EE609A83B051EC190BF6
:1057400003F0C4FC41EC180B18EE100A18EE901A86
:105750008DED008B002818BF0120084320F0004089
:10576000C0F17F6000F1E040C00F14D019EE101AB4
:1057700019EE900A8DED009B002918BF0121084306
:1057800020F00040C0F17F6000F1E040C00F04BF96
:105790000120FAF766FFB0EE480A03B0F0EE680A9F
:1057A000BDEC048B00BD10B52DED028BB1EEC08AAF
:1057B00018EE100A20F00040C0F1FF40C00F0AD0E0
:1057C00010EE100A20F00040C0F1FF40C00F04BFEF
:1057D0000120FAF746FFB0EE480ABDEC028B10BD7F
:1057E000DFED030AB7EE001A81EE200A70470000D1
:1057F0000000000030EE200A70470000DFED020AD2
:1058000080EEA00A70470000000000009FED020A31
:1058100020EE000A70470000000000709FED020AB1
:1058200020EE000A704700000000001010B5A5200F
:10583000204908706F20A1F801000020C8701E48A0
:105840000A680260097901710521FBF739F840F215
:1058500001301849A1F805004FF48270A1F8070043
:10586000164801781348A0F809101448007840F44D
:1058700080711048A0F80B100A211148006800F050
:1058800051F90C48B0F80100821C0A49491D0A4828
:10589000401DFAF716FE78210748FAF7F9FF0024B1
:1058A00004E00549085DFFF74DF9641C782CF8D336
:1058B00010BD0000D4170020941600201B160020F5
:1058C000AC07002010B5A520204908706F20A1F872
:1058D00001000020C8701E480A6802600979017141
:1058E0000521FAF7EDFF40F201301849A1F8050053
:1058F0004FF48270A1F80700164801781348A0F809
:1059000009101448007840F480711048A0F80B107A
:105910000A211148006800F0F5F90C48B0F80100C0
:10592000821C0A49491D0A48401DFAF7CAFD782120
:105930000748FAF7ADFF002404E00549085DFFF7CA
:1059400001F9641C782CF8D310BD0000B4190020B4
:10595000941600201B160020AC07002010B5A520CF
:10596000204908706F20A1F801000020C8701E486F
:105970000A680260097901710521FAF7A1FF40F276
:1059800001301849A1F805004FF48270A1F8070012
:10599000164801781348A0F809101448007840F41C
:1059A00080711048A0F80B100A211148006800F01F
:1059B0009DFA0C48B0F80100821C0A49491D0A48AA
:1059C000401DFAF77EFD78210748FAF761FF0024B1
:1059D00004E00549085DFFF7B5F8641C782CF8D39E
:1059E00010BD00004C180020941600201B1600204B
:1059F000AC07002010B5A520204908706F20A1F841
:105A000001000020C8701E480A680260097901710F
:105A10000521FAF755FF40F201301849A1F80500B9
:105A20004FF48270A1F80700164801781348A0F8D7
:105A300009101448007840F480711048A0F80B1049
:105A40000A211148006800F03FFB0C48B0F8010043
:105A5000821C0A49491D0A48401DFAF732FD782187
:105A60000748FAF715FF002404E00549085DFFF731
:105A700069F8641C782CF8D310BD0000C41800200D
:105A8000941600201B160020AC07002010B5A5209E
:105A9000204908706F20A1F801000020C8701E483E
:105AA0000A680260097901710521FAF709FF40F2DD
:105AB00001301849A1F805004FF48270A1F80700E1
:105AC000164801781348A0F809101448007840F4EB
:105AD00080711048A0F80B100A211148006800F0EE
